{"@arbitrum/nitro-contracts/src/bridge/Inbox.sol":{"Inbox":{"abi":[{"inputs":[{"internalType":"uint256","name":"dataLength","type":"uint256"},{"internalType":"uint256","name":"maxDataLength","type":"uint256"}],"name":"DataTooLarge","type":"error"},{"inputs":[],"name":"GasLimitTooLarge","type":"error"},{"inputs":[{"internalType":"uint256","name":"expected","type":"uint256"},{"internalType":"uint256","name":"actual","type":"uint256"}],"name":"InsufficientSubmissionCost","type":"error"},{"inputs":[{"internalType":"uint256","name":"expected","type":"uint256"},{"internalType":"uint256","name":"actual","type":"uint256"}],"name":"InsufficientValue","type":"error"},{"inputs":[],"name":"L1Forked","type":"error"},{"inputs":[{"internalType":"address","name":"origin","type":"address"}],"name":"NotAllowedOrigin","type":"error"},{"inputs":[],"name":"NotForked","type":"error"},{"inputs":[],"name":"NotOrigin","type":"error"},{"inputs":[{"internalType":"address","name":"sender","type":"address"},{"internalType":"address","name":"owner","type":"address"}],"name":"NotOwner","type":"error"},{"inputs":[{"internalType":"address","name":"sender","type":"address"},{"internalType":"address","name":"rollup","type":"address"},{"internalType":"address","name":"owner","type":"address"}],"name":"NotRollupOrOwner","type":"error"},{"inputs":[{"internalType":"address","name":"from","type":"address"},{"internalType":"address","name":"to","type":"address"},{"internalType":"uint256","name":"l2CallValue","type":"uint256"},{"internalType":"uint256","name":"deposit","type":"uint256"},{"internalType":"uint256","name":"maxSubmissionCost","type":"uint256"},{"internalType":"address","name":"excessFeeRefundAddress","type":"address"},{"internalType":"address","name":"callValueRefundAddress","type":"address"},{"internalType":"uint256","name":"gasLimit","type":"uint256"},{"internalType":"uint256","name":"maxFeePerGas","type":"uint256"},{"internalType":"bytes","name":"data","type":"bytes"}],"name":"RetryableData","type":"error"},{"anonymous":false,"inputs":[{"indexed":true,"internalType":"address","name":"user","type":"address"},{"indexed":false,"internalType":"bool","name":"val","type":"bool"}],"name":"AllowListAddressSet","type":"event"},{"anonymous":false,"inputs":[{"indexed":false,"internalType":"bool","name":"isEnabled","type":"bool"}],"name":"AllowListEnabledUpdated","type":"event"},{"anonymous":false,"inputs":[{"indexed":true,"internalType":"uint256","name":"messageNum","type":"uint256"},{"indexed":false,"internalType":"bytes","name":"data","type":"bytes"}],"name":"InboxMessageDelivered","type":"event"},{"anonymous":false,"inputs":[{"indexed":true,"internalType":"uint256","name":"messageNum","type":"uint256"}],"name":"InboxMessageDeliveredFromOrigin","type":"event"},{"anonymous":false,"inputs":[{"indexed":false,"internalType":"address","name":"account","type":"address"}],"name":"Paused","type":"event"},{"anonymous":false,"inputs":[{"indexed":false,"internalType":"address","name":"account","type":"address"}],"name":"Unpaused","type":"event"},{"inputs":[],"name":"allowListEnabled","outputs":[{"internalType":"bool","name":"","type":"bool"}],"stateMutability":"view","type":"function"},{"inputs":[],"name":"bridge","outputs":[{"internalType":"contract IBridge","name":"","type":"address"}],"stateMutability":"view","type":"function"},{"inputs":[{"internalType":"uint256","name":"dataLength","type":"uint256"},{"internalType":"uint256","name":"baseFee","type":"uint256"}],"name":"calculateRetryableSubmissionFee","outputs":[{"internalType":"uint256","name":"","type":"uint256"}],"stateMutability":"view","type":"function"},{"inputs":[{"internalType":"address","name":"to","type":"address"},{"internalType":"uint256","name":"l2CallValue","type":"uint256"},{"internalType":"uint256","name":"maxSubmissionCost","type":"uint256"},{"internalType":"address","name":"excessFeeRefundAddress","type":"address"},{"internalType":"address","name":"callValueRefundAddress","type":"address"},{"internalType":"uint256","name":"gasLimit","type":"uint256"},{"internalType":"uint256","name":"maxFeePerGas","type":"uint256"},{"internalType":"bytes","name":"data","type":"bytes"}],"name":"createRetryableTicket","outputs":[{"internalType":"uint256","name":"","type":"uint256"}],"stateMutability":"payable","type":"function"},{"inputs":[{"internalType":"address","name":"to","type":"address"},{"internalType":"uint256","name":"l2CallValue","type":"uint256"},{"internalType":"uint256","name":"maxSubmissionCost","type":"uint256"},{"internalType":"address","name":"excessFeeRefundAddress","type":"address"},{"internalType":"address","name":"callValueRefundAddress","type":"address"},{"internalType":"uint256","name":"gasLimit","type":"uint256"},{"internalType":"uint256","name":"maxFeePerGas","type":"uint256"},{"internalType":"bytes","name":"data","type":"bytes"}],"name":"createRetryableTicketNoRefundAliasRewrite","outputs":[{"internalType":"uint256","name":"","type":"uint256"}],"stateMutability":"payable","type":"function"},{"inputs":[{"internalType":"uint256","name":"","type":"uint256"}],"name":"depositEth","outputs":[{"internalType":"uint256","name":"","type":"uint256"}],"stateMutability":"payable","type":"function"},{"inputs":[],"name":"depositEth","outputs":[{"internalType":"uint256","name":"","type":"uint256"}],"stateMutability":"payable","type":"function"},{"inputs":[{"internalType":"contract IBridge","name":"_bridge","type":"address"},{"internalType":"contract ISequencerInbox","name":"_sequencerInbox","type":"address"}],"name":"initialize","outputs":[],"stateMutability":"nonpayable","type":"function"},{"inputs":[{"internalType":"address","name":"","type":"address"}],"name":"isAllowed","outputs":[{"internalType":"bool","name":"","type":"bool"}],"stateMutability":"view","type":"function"},{"inputs":[],"name":"pause","outputs":[],"stateMutability":"nonpayable","type":"function"},{"inputs":[],"name":"paused","outputs":[{"internalType":"bool","name":"","type":"bool"}],"stateMutability":"view","type":"function"},{"inputs":[{"internalType":"contract IBridge","name":"","type":"address"}],"name":"postUpgradeInit","outputs":[],"stateMutability":"nonpayable","type":"function"},{"inputs":[{"internalType":"uint256","name":"gasLimit","type":"uint256"},{"internalType":"uint256","name":"maxFeePerGas","type":"uint256"},{"internalType":"address","name":"to","type":"address"},{"internalType":"uint256","name":"value","type":"uint256"},{"internalType":"bytes","name":"data","type":"bytes"}],"name":"sendContractTransaction","outputs":[{"internalType":"uint256","name":"","type":"uint256"}],"stateMutability":"nonpayable","type":"function"},{"inputs":[{"internalType":"uint256","name":"gasLimit","type":"uint256"},{"internalType":"uint256","name":"maxFeePerGas","type":"uint256"},{"internalType":"address","name":"to","type":"address"},{"internalType":"bytes","name":"data","type":"bytes"}],"name":"sendL1FundedContractTransaction","outputs":[{"internalType":"uint256","name":"","type":"uint256"}],"stateMutability":"payable","type":"function"},{"inputs":[{"internalType":"uint256","name":"gasLimit","type":"uint256"},{"internalType":"uint256","name":"maxFeePerGas","type":"uint256"},{"internalType":"uint256","name":"nonce","type":"uint256"},{"internalType":"address","name":"to","type":"address"},{"internalType":"bytes","name":"data","type":"bytes"}],"name":"sendL1FundedUnsignedTransaction","outputs":[{"internalType":"uint256","name":"","type":"uint256"}],"stateMutability":"payable","type":"function"},{"inputs":[{"internalType":"uint256","name":"gasLimit","type":"uint256"},{"internalType":"uint256","name":"maxFeePerGas","type":"uint256"},{"internalType":"uint256","name":"nonce","type":"uint256"},{"internalType":"address","name":"to","type":"address"},{"internalType":"bytes","name":"data","type":"bytes"}],"name":"sendL1FundedUnsignedTransactionToFork","outputs":[{"internalType":"uint256","name":"","type":"uint256"}],"stateMutability":"payable","type":"function"},{"inputs":[{"internalType":"bytes","name":"messageData","type":"bytes"}],"name":"sendL2Message","outputs":[{"internalType":"uint256","name":"","type":"uint256"}],"stateMutability":"nonpayable","type":"function"},{"inputs":[{"internalType":"bytes","name":"messageData","type":"bytes"}],"name":"sendL2MessageFromOrigin","outputs":[{"internalType":"uint256","name":"","type":"uint256"}],"stateMutability":"nonpayable","type":"function"},{"inputs":[{"internalType":"uint256","name":"gasLimit","type":"uint256"},{"internalType":"uint256","name":"maxFeePerGas","type":"uint256"},{"internalType":"uint256","name":"nonce","type":"uint256"},{"internalType":"address","name":"to","type":"address"},{"internalType":"uint256","name":"value","type":"uint256"},{"internalType":"bytes","name":"data","type":"bytes"}],"name":"sendUnsignedTransaction","outputs":[{"internalType":"uint256","name":"","type":"uint256"}],"stateMutability":"nonpayable","type":"function"},{"inputs":[{"internalType":"uint256","name":"gasLimit","type":"uint256"},{"internalType":"uint256","name":"maxFeePerGas","type":"uint256"},{"internalType":"uint256","name":"nonce","type":"uint256"},{"internalType":"address","name":"to","type":"address"},{"internalType":"uint256","name":"value","type":"uint256"},{"internalType":"bytes","name":"data","type":"bytes"}],"name":"sendUnsignedTransactionToFork","outputs":[{"internalType":"uint256","name":"","type":"uint256"}],"stateMutability":"nonpayable","type":"function"},{"inputs":[{"internalType":"uint256","name":"gasLimit","type":"uint256"},{"internalType":"uint256","name":"maxFeePerGas","type":"uint256"},{"internalType":"uint256","name":"nonce","type":"uint256"},{"internalType":"uint256","name":"value","type":"uint256"},{"internalType":"address","name":"withdrawTo","type":"address"}],"name":"sendWithdrawEthToFork","outputs":[{"internalType":"uint256","name":"","type":"uint256"}],"stateMutability":"nonpayable","type":"function"},{"inputs":[],"name":"sequencerInbox","outputs":[{"internalType":"contract ISequencerInbox","name":"","type":"address"}],"stateMutability":"view","type":"function"},{"inputs":[{"internalType":"address[]","name":"user","type":"address[]"},{"internalType":"bool[]","name":"val","type":"bool[]"}],"name":"setAllowList","outputs":[],"stateMutability":"nonpayable","type":"function"},{"inputs":[{"internalType":"bool","name":"_allowListEnabled","type":"bool"}],"name":"setAllowListEnabled","outputs":[],"stateMutability":"nonpayable","type":"function"},{"inputs":[{"internalType":"address","name":"to","type":"address"},{"internalType":"uint256","name":"l2CallValue","type":"uint256"},{"internalType":"uint256","name":"maxSubmissionCost","type":"uint256"},{"internalType":"address","name":"excessFeeRefundAddress","type":"address"},{"internalType":"address","name":"callValueRefundAddress","type":"address"},{"internalType":"uint256","name":"gasLimit","type":"uint256"},{"internalType":"uint256","name":"maxFeePerGas","type":"uint256"},{"internalType":"bytes","name":"data","type":"bytes"}],"name":"uniswapCreateRetryableTicket","outputs":[{"internalType":"uint256","name":"","type":"uint256"}],"stateMutability":"payable","type":"function"},{"inputs":[],"name":"unpause","outputs":[],"stateMutability":"nonpayable","type":"function"},{"inputs":[{"internalType":"address","name":"to","type":"address"},{"internalType":"uint256","name":"l2CallValue","type":"uint256"},{"internalType":"uint256","name":"maxSubmissionCost","type":"uint256"},{"internalType":"address","name":"excessFeeRefundAddress","type":"address"},{"internalType":"address","name":"callValueRefundAddress","type":"address"},{"internalType":"uint256","name":"gasLimit","type":"uint256"},{"internalType":"uint256","name":"maxFeePerGas","type":"uint256"},{"internalType":"bytes","name":"data","type":"bytes"}],"name":"unsafeCreateRetryableTicket","outputs":[{"internalType":"uint256","name":"","type":"uint256"}],"stateMutability":"payable","type":"function"}],"evm":{"bytecode":{"linkReferences":{},"object":"60c06040523073ffffffffffffffffffffffffffffffffffffffff1660809073ffffffffffffffffffffffffffffffffffffffff168152504660a09081525034801561004a57600080fd5b5060805160a051614d06610077600039600061311f01526000818161157201526127a00152614d066000f3fe60806040526004361061019b5760003560e01c806367ef3ab8116100ec578063babcc5391161008a578063e6bd12cf11610064578063e6bd12cf146105f5578063e78cea9214610625578063ee35f32714610650578063efeadb6d1461067b5761019b565b8063babcc53914610566578063c474d2c5146105a3578063e3de72a5146105cc5761019b565b80638456cb59116100c65780638456cb59146104985780638a631aa6146104af578063a66b327d146104ec578063b75436bb146105295761019b565b806367ef3ab8146103fb5780636e6e8a6a1461042b57806370665f141461045b5761019b565b80633f4ba83a116101595780635075788b116101335780635075788b146103335780635c975abb146103705780635e9167581461039b578063679b6ded146103cb5761019b565b80633f4ba83a146102d5578063439370b1146102ec578063485cc9551461030a5761019b565b8062f72382146101a05780630f4d14e9146101dd5780631b871c8d1461020d5780631cb763d21461023d5780631fe927cf1461026d57806322bd5c1c146102aa575b600080fd5b3480156101ac57600080fd5b506101c760048036038101906101c29190613647565b6106a4565b6040516101d49190613705565b60405180910390f35b6101f760048036038101906101f29190613720565b6108e2565b6040516102049190613705565b60405180910390f35b6102276004803603810190610222919061374d565b6109e3565b6040516102349190613705565b60405180910390f35b6102576004803603810190610252919061374d565b610af5565b6040516102649190613705565b60405180910390f35b34801561027957600080fd5b50610294600480360381019061028f9190613823565b610f01565b6040516102a19190613705565b60405180910390f35b3480156102b657600080fd5b506102bf611148565b6040516102cc919061388b565b60405180910390f35b3480156102e157600080fd5b506102ea61115b565b005b6102f4611335565b6040516103019190613705565b60405180910390f35b34801561031657600080fd5b50610331600480360381019061032c9190613922565b6114b0565b005b34801561033f57600080fd5b5061035a60048036038101906103559190613647565b6116ca565b6040516103679190613705565b60405180910390f35b34801561037c57600080fd5b5061038561185d565b604051610392919061388b565b60405180910390f35b6103b560048036038101906103b09190613962565b611874565b6040516103c29190613705565b60405180910390f35b6103e560048036038101906103e0919061374d565b611a03565b6040516103f29190613705565b60405180910390f35b610415600480360381019061041091906139ea565b611bd2565b6040516104229190613705565b60405180910390f35b6104456004803603810190610440919061374d565b611d64565b6040516104529190613705565b60405180910390f35b34801561046757600080fd5b50610482600480360381019061047d9190613a84565b611feb565b60405161048f9190613705565b60405180910390f35b3480156104a457600080fd5b506104ad61224e565b005b3480156104bb57600080fd5b506104d660048036038101906104d19190613aff565b612428565b6040516104e39190613705565b60405180910390f35b3480156104f857600080fd5b50610513600480360381019061050e9190613b99565b6125b8565b6040516105209190613705565b60405180910390f35b34801561053557600080fd5b50610550600480360381019061054b9190613823565b6125f5565b60405161055d9190613705565b60405180910390f35b34801561057257600080fd5b5061058d60048036038101906105889190613bd9565b61277e565b60405161059a919061388b565b60405180910390f35b3480156105af57600080fd5b506105ca60048036038101906105c59190613c06565b61279e565b005b3480156105d857600080fd5b506105f360048036038101906105ee9190613e71565b6128d2565b005b61060f600480360381019061060a91906139ea565b612c17565b60405161061c9190613705565b60405180910390f35b34801561063157600080fd5b5061063a612e54565b6040516106479190613f48565b60405180910390f35b34801561065c57600080fd5b50610665612e7a565b6040516106729190613f84565b60405180910390f35b34801561068757600080fd5b506106a2600480360381019061069d9190613f9f565b612ea0565b005b60006106ae61185d565b156106ee576040517f08c379a00000000000000000000000000000000000000000000000000000000081526004016106e590614029565b60405180910390fd5b606660149054906101000a900460ff1680156107545750606760003273ffffffffffffffffffffffffffffffffffffffff1673ffffffffffffffffffffffffffffffffffffffff16815260200190815260200160002060009054906101000a900460ff16155b1561079657326040517ff51ed71000000000000000000000000000000000000000000000000000000000815260040161078d9190614058565b60405180910390fd5b61079e61311a565b6107d4576040517fa301bb0600000000000000000000000000000000000000000000000000000000815260040160405180910390fd5b3273ffffffffffffffffffffffffffffffffffffffff163373ffffffffffffffffffffffffffffffffffffffff1614610839576040517ffeb3d07100000000000000000000000000000000000000000000000000000000815260040160405180910390fd5b67ffffffffffffffff801688111561087d576040517f107c527b00000000000000000000000000000000000000000000000000000000815260040160405180910390fd5b6108d5600361088b33613145565b60008b8b8b8b73ffffffffffffffffffffffffffffffffffffffff168b8b8b6040516020016108c1989796959493929190614116565b604051602081830303815290604052613165565b9050979650505050505050565b60006108ec61185d565b1561092c576040517f08c379a000000000000000000000000000000000000000000000000000000000815260040161092390614029565b60405180910390fd5b606660149054906101000a900460ff1680156109925750606760003273ffffffffffffffffffffffffffffffffffffffff1673ffffffffffffffffffffffffffffffffffffffff16815260200190815260200160002060009054906101000a900460ff16155b156109d457326040517ff51ed7100000000000000000000000000000000000000000000000000000000081526004016109cb9190614058565b60405180910390fd5b6109dc611335565b9050919050565b60006109ed61185d565b15610a2d576040517f08c379a0000000000000000000000000000000000000000000000000000000008152600401610a2490614029565b60405180910390fd5b606660149054906101000a900460ff168015610a935750606760003273ffffffffffffffffffffffffffffffffffffffff1673ffffffffffffffffffffffffffffffffffffffff16815260200190815260200160002060009054906101000a900460ff16155b15610ad557326040517ff51ed710000000000000000000000000000000000000000000000000000000008152600401610acc9190614058565b60405180910390fd5b610ae68a8a8a8a8a8a8a8a8a611d64565b90509998505050505050505050565b6000610aff61185d565b15610b3f576040517f08c379a0000000000000000000000000000000000000000000000000000000008152600401610b3690614029565b60405180910390fd5b606660149054906101000a900460ff168015610ba55750606760003273ffffffffffffffffffffffffffffffffffffffff1673ffffffffffffffffffffffffffffffffffffffff16815260200190815260200160002060009054906101000a900460ff16155b15610be757326040517ff51ed710000000000000000000000000000000000000000000000000000000008152600401610bde9190614058565b60405180910390fd5b731a9c8182c09f50c8318d769245bea52c32be35bc73ffffffffffffffffffffffffffffffffffffffff163373ffffffffffffffffffffffffffffffffffffffff1614610c69576040517f08c379a0000000000000000000000000000000000000000000000000000000008152600401610c60906141e1565b60405180910390fd5b731f98431c8ad98523631ae4a59f267346ea31f98473ffffffffffffffffffffffffffffffffffffffff168a73ffffffffffffffffffffffffffffffffffffffff1614610ceb576040517f08c379a0000000000000000000000000000000000000000000000000000000008152600401610ce29061424d565b60405180910390fd5b8385610cf7919061429c565b8989610d0391906142f6565b610d0d91906142f6565b341015610d74578385610d20919061429c565b8989610d2c91906142f6565b610d3691906142f6565b346040517f7040b58c000000000000000000000000000000000000000000000000000000008152600401610d6b92919061434c565b60405180910390fd5b610d7d8761320f565b15610d8e57610d8b87613232565b96505b610d978661320f565b15610da857610da586613232565b95505b6001851480610db75750600184145b15610e0d57338a8a348b8b8b8b8b8b8b6040517f07c266e3000000000000000000000000000000000000000000000000000000008152600401610e049b9a999897969594939291906143b3565b60405180910390fd5b6000610e1c84849050486125b8565b905080891015610e655780896040517ffadf238a000000000000000000000000000000000000000000000000000000008152600401610e5c92919061434c565b60405180910390fd5b610ef16009610e7333613145565b8d73ffffffffffffffffffffffffffffffffffffffff168d348e8e73ffffffffffffffffffffffffffffffffffffffff168e73ffffffffffffffffffffffffffffffffffffffff168e8e8e8e90508f8f604051602001610edd9b9a99989796959493929190614458565b604051602081830303815290604052613165565b9150509998505050505050505050565b6000610f0b61185d565b15610f4b576040517f08c379a0000000000000000000000000000000000000000000000000000000008152600401610f4290614029565b60405180910390fd5b606660149054906101000a900460ff168015610fb15750606760003273ffffffffffffffffffffffffffffffffffffffff1673ffffffffffffffffffffffffffffffffffffffff16815260200190815260200160002060009054906101000a900460ff16155b15610ff357326040517ff51ed710000000000000000000000000000000000000000000000000000000008152600401610fea9190614058565b60405180910390fd5b610ffb61311a565b15611032576040517fc6ea680300000000000000000000000000000000000000000000000000000000815260040160405180910390fd5b3273ffffffffffffffffffffffffffffffffffffffff163373ffffffffffffffffffffffffffffffffffffffff1614611097576040517ffeb3d07100000000000000000000000000000000000000000000000000000000815260040160405180910390fd5b6201cccc8383905011156110ea57828290506201cccc6040517f4634691b0000000000000000000000000000000000000000000000000000000081526004016110e192919061434c565b60405180910390fd5b600061110f600333868660405161110292919061450a565b6040518091039020613252565b9050807fab532385be8f1005a4b6ba8fa20a2245facb346134ac739fe9a5198dc1580b9c60405160405180910390a28091505092915050565b606660149054906101000a900460ff1681565b6000606560009054906101000a900473ffffffffffffffffffffffffffffffffffffffff1673ffffffffffffffffffffffffffffffffffffffff1663cb23bcb56040518163ffffffff1660e01b815260040160206040518083038186803b1580156111c557600080fd5b505afa1580156111d9573d6000803e3d6000fd5b505050506040513d601f19601f820116820180604052508101906111fd9190614561565b90508073ffffffffffffffffffffffffffffffffffffffff163373ffffffffffffffffffffffffffffffffffffffff161461132a5760008173ffffffffffffffffffffffffffffffffffffffff16638da5cb5b6040518163ffffffff1660e01b815260040160206040518083038186803b15801561127a57600080fd5b505afa15801561128e573d6000803e3d6000fd5b505050506040513d601f19601f820116820180604052508101906112b291906145a3565b90508073ffffffffffffffffffffffffffffffffffffffff163373ffffffffffffffffffffffffffffffffffffffff1614611328573382826040517f0739600700000000000000000000000000000000000000000000000000000000815260040161131f939291906145d0565b60405180910390fd5b505b611332613317565b50565b600061133f61185d565b1561137f576040517f08c379a000000000000000000000000000000000000000000000000000000000815260040161137690614029565b60405180910390fd5b606660149054906101000a900460ff1680156113e55750606760003273ffffffffffffffffffffffffffffffffffffffff1673ffffffffffffffffffffffffffffffffffffffff16815260200190815260200160002060009054906101000a900460ff16155b1561142757326040517ff51ed71000000000000000000000000000000000000000000000000000000000815260040161141e9190614058565b60405180910390fd5b60003390506114353361320f565b8061146c57503373ffffffffffffffffffffffffffffffffffffffff163273ffffffffffffffffffffffffffffffffffffffff1614155b1561147d5761147a33613232565b90505b6114aa600c33833460405160200161149692919061464f565b604051602081830303815290604052613165565b91505090565b600060019054906101000a900460ff166114d85760008054906101000a900460ff16156114e1565b6114e06133b9565b5b611520576040517f08c379a0000000000000000000000000000000000000000000000000000000008152600401611517906146ed565b60405180910390fd5b60008060019054906101000a900460ff161590508015611570576001600060016101000a81548160ff02191690831515021790555060016000806101000a81548160ff0219169083151502179055505b7f000000000000000000000000000000000000000000000000000000000000000073ffffffffffffffffffffffffffffffffffffffff163073ffffffffffffffffffffffffffffffffffffffff1614156115ff576040517f08c379a00000000000000000000000000000000000000000000000000000000081526004016115f69061477f565b60405180910390fd5b82606560006101000a81548173ffffffffffffffffffffffffffffffffffffffff021916908373ffffffffffffffffffffffffffffffffffffffff16021790555081606660006101000a81548173ffffffffffffffffffffffffffffffffffffffff021916908373ffffffffffffffffffffffffffffffffffffffff1602179055506000606660146101000a81548160ff0219169083151502179055506116a46133ca565b80156116c55760008060016101000a81548160ff0219169083151502179055505b505050565b60006116d461185d565b15611714576040517f08c379a000000000000000000000000000000000000000000000000000000000815260040161170b90614029565b60405180910390fd5b606660149054906101000a900460ff16801561177a5750606760003273ffffffffffffffffffffffffffffffffffffffff1673ffffffffffffffffffffffffffffffffffffffff16815260200190815260200160002060009054906101000a900460ff16155b156117bc57326040517ff51ed7100000000000000000000000000000000000000000000000000000000081526004016117b39190614058565b60405180910390fd5b67ffffffffffffffff8016881115611800576040517f107c527b00000000000000000000000000000000000000000000000000000000815260040160405180910390fd5b61185060033360008b8b8b8b73ffffffffffffffffffffffffffffffffffffffff168b8b8b60405160200161183c989796959493929190614116565b604051602081830303815290604052613165565b9050979650505050505050565b6000603360009054906101000a900460ff16905090565b600061187e61185d565b156118be576040517f08c379a00000000000000000000000000000000000000000000000000000000081526004016118b590614029565b60405180910390fd5b606660149054906101000a900460ff1680156119245750606760003273ffffffffffffffffffffffffffffffffffffffff1673ffffffffffffffffffffffffffffffffffffffff16815260200190815260200160002060009054906101000a900460ff16155b1561196657326040517ff51ed71000000000000000000000000000000000000000000000000000000000815260040161195d9190614058565b60405180910390fd5b67ffffffffffffffff80168611156119aa576040517f107c527b00000000000000000000000000000000000000000000000000000000815260040160405180910390fd5b6119f8600733600189898973ffffffffffffffffffffffffffffffffffffffff16348a8a6040516020016119e4979695949392919061479f565b604051602081830303815290604052613165565b905095945050505050565b6000611a0d61185d565b15611a4d576040517f08c379a0000000000000000000000000000000000000000000000000000000008152600401611a4490614029565b60405180910390fd5b606660149054906101000a900460ff168015611ab35750606760003273ffffffffffffffffffffffffffffffffffffffff1673ffffffffffffffffffffffffffffffffffffffff16815260200190815260200160002060009054906101000a900460ff16155b15611af557326040517ff51ed710000000000000000000000000000000000000000000000000000000008152600401611aec9190614058565b60405180910390fd5b8385611b01919061429c565b8989611b0d91906142f6565b611b1791906142f6565b341015611b7e578385611b2a919061429c565b8989611b3691906142f6565b611b4091906142f6565b346040517f7040b58c000000000000000000000000000000000000000000000000000000008152600401611b7592919061434c565b60405180910390fd5b611b878761320f565b15611b9857611b9587613232565b96505b611ba18661320f565b15611bb257611baf86613232565b95505b611bc38a8a8a8a8a8a8a8a8a611d64565b90509998505050505050505050565b6000611bdc61185d565b15611c1c576040517f08c379a0000000000000000000000000000000000000000000000000000000008152600401611c1390614029565b60405180910390fd5b606660149054906101000a900460ff168015611c825750606760003273ffffffffffffffffffffffffffffffffffffffff1673ffffffffffffffffffffffffffffffffffffffff16815260200190815260200160002060009054906101000a900460ff16155b15611cc457326040517ff51ed710000000000000000000000000000000000000000000000000000000008152600401611cbb9190614058565b60405180910390fd5b67ffffffffffffffff8016871115611d08576040517f107c527b00000000000000000000000000000000000000000000000000000000815260040160405180910390fd5b611d5860073360008a8a8a8a73ffffffffffffffffffffffffffffffffffffffff16348b8b604051602001611d44989796959493929190614116565b604051602081830303815290604052613165565b90509695505050505050565b6000611d6e61185d565b15611dae576040517f08c379a0000000000000000000000000000000000000000000000000000000008152600401611da590614029565b60405180910390fd5b606660149054906101000a900460ff168015611e145750606760003273ffffffffffffffffffffffffffffffffffffffff1673ffffffffffffffffffffffffffffffffffffffff16815260200190815260200160002060009054906101000a900460ff16155b15611e5657326040517ff51ed710000000000000000000000000000000000000000000000000000000008152600401611e4d9190614058565b60405180910390fd5b6001851480611e655750600184145b15611ebb57338a8a348b8b8b8b8b8b8b6040517f07c266e3000000000000000000000000000000000000000000000000000000008152600401611eb29b9a999897969594939291906143b3565b60405180910390fd5b67ffffffffffffffff8016851115611eff576040517f107c527b00000000000000000000000000000000000000000000000000000000815260040160405180910390fd5b6000611f0e84849050486125b8565b905080891015611f575780896040517ffadf238a000000000000000000000000000000000000000000000000000000008152600401611f4e92919061434c565b60405180910390fd5b611fdb6009338d73ffffffffffffffffffffffffffffffffffffffff168d348e8e73ffffffffffffffffffffffffffffffffffffffff168e73ffffffffffffffffffffffffffffffffffffffff168e8e8e8e90508f8f604051602001611fc79b9a99989796959493929190614458565b604051602081830303815290604052613165565b9150509998505050505050505050565b6000611ff561185d565b15612035576040517f08c379a000000000000000000000000000000000000000000000000000000000815260040161202c90614029565b60405180910390fd5b606660149054906101000a900460ff16801561209b5750606760003273ffffffffffffffffffffffffffffffffffffffff1673ffffffffffffffffffffffffffffffffffffffff16815260200190815260200160002060009054906101000a900460ff16155b156120dd57326040517ff51ed7100000000000000000000000000000000000000000000000000000000081526004016120d49190614058565b60405180910390fd5b6120e561311a565b61211b576040517fa301bb0600000000000000000000000000000000000000000000000000000000815260040160405180910390fd5b3273ffffffffffffffffffffffffffffffffffffffff163373ffffffffffffffffffffffffffffffffffffffff1614612180576040517ffeb3d07100000000000000000000000000000000000000000000000000000000815260040160405180910390fd5b67ffffffffffffffff80168611156121c4576040517f107c527b00000000000000000000000000000000000000000000000000000000815260040160405180910390fd5b61224360036121d233613145565b6000898989606473ffffffffffffffffffffffffffffffffffffffff168a6325e1606360e01b8b60405160200161220a929190614848565b60405160208183030381529060405260405160200161222f97969594939291906148e0565b604051602081830303815290604052613165565b905095945050505050565b6000606560009054906101000a900473ffffffffffffffffffffffffffffffffffffffff1673ffffffffffffffffffffffffffffffffffffffff1663cb23bcb56040518163ffffffff1660e01b815260040160206040518083038186803b1580156122b857600080fd5b505afa1580156122cc573d6000803e3d6000fd5b505050506040513d601f19601f820116820180604052508101906122f09190614561565b90508073ffffffffffffffffffffffffffffffffffffffff163373ffffffffffffffffffffffffffffffffffffffff161461241d5760008173ffffffffffffffffffffffffffffffffffffffff16638da5cb5b6040518163ffffffff1660e01b815260040160206040518083038186803b15801561236d57600080fd5b505afa158015612381573d6000803e3d6000fd5b505050506040513d601f19601f820116820180604052508101906123a591906145a3565b90508073ffffffffffffffffffffffffffffffffffffffff163373ffffffffffffffffffffffffffffffffffffffff161461241b573382826040517f07396007000000000000000000000000000000000000000000000000000000008152600401612412939291906145d0565b60405180910390fd5b505b612425613423565b50565b600061243261185d565b15612472576040517f08c379a000000000000000000000000000000000000000000000000000000000815260040161246990614029565b60405180910390fd5b606660149054906101000a900460ff1680156124d85750606760003273ffffffffffffffffffffffffffffffffffffffff1673ffffffffffffffffffffffffffffffffffffffff16815260200190815260200160002060009054906101000a900460ff16155b1561251a57326040517ff51ed7100000000000000000000000000000000000000000000000000000000081526004016125119190614058565b60405180910390fd5b67ffffffffffffffff801687111561255e576040517f107c527b00000000000000000000000000000000000000000000000000000000815260040160405180910390fd5b6125ac60033360018a8a8a73ffffffffffffffffffffffffffffffffffffffff168a8a8a604051602001612598979695949392919061479f565b604051602081830303815290604052613165565b90509695505050505050565b60008082146125c757816125c9565b485b8360066125d6919061429c565b6105786125e391906142f6565b6125ed919061429c565b905092915050565b60006125ff61185d565b1561263f576040517f08c379a000000000000000000000000000000000000000000000000000000000815260040161263690614029565b60405180910390fd5b606660149054906101000a900460ff1680156126a55750606760003273ffffffffffffffffffffffffffffffffffffffff1673ffffffffffffffffffffffffffffffffffffffff16815260200190815260200160002060009054906101000a900460ff16155b156126e757326040517ff51ed7100000000000000000000000000000000000000000000000000000000081526004016126de9190614058565b60405180910390fd5b6126ef61311a565b15612726576040517fc6ea680300000000000000000000000000000000000000000000000000000000815260040160405180910390fd5b61277660033385858080601f016020809104026020016040519081016040528093929190818152602001838380828437600081840152601f19601f82011690508083019250505050505050613165565b905092915050565b60676020528060005260406000206000915054906101000a900460ff1681565b7f000000000000000000000000000000000000000000000000000000000000000073ffffffffffffffffffffffffffffffffffffffff163073ffffffffffffffffffffffffffffffffffffffff16141561282d576040517f08c379a00000000000000000000000000000000000000000000000000000000081526004016128249061477f565b60405180910390fd5b60007fb53127684a568b3173ae13b9f8a6016e243e63b6e8ee1178d6a717850b5d610360001b90506000815490508073ffffffffffffffffffffffffffffffffffffffff163373ffffffffffffffffffffffffffffffffffffffff16146128cd5733816040517f23295f0e0000000000000000000000000000000000000000000000000000000081526004016128c492919061495d565b60405180910390fd5b505050565b6000606560009054906101000a900473ffffffffffffffffffffffffffffffffffffffff1673ffffffffffffffffffffffffffffffffffffffff1663cb23bcb56040518163ffffffff1660e01b815260040160206040518083038186803b15801561293c57600080fd5b505afa158015612950573d6000803e3d6000fd5b505050506040513d601f19601f820116820180604052508101906129749190614561565b90508073ffffffffffffffffffffffffffffffffffffffff163373ffffffffffffffffffffffffffffffffffffffff1614612aa15760008173ffffffffffffffffffffffffffffffffffffffff16638da5cb5b6040518163ffffffff1660e01b815260040160206040518083038186803b1580156129f157600080fd5b505afa158015612a05573d6000803e3d6000fd5b505050506040513d601f19601f82011682018060405250810190612a2991906145a3565b90508073ffffffffffffffffffffffffffffffffffffffff163373ffffffffffffffffffffffffffffffffffffffff1614612a9f573382826040517f07396007000000000000000000000000000000000000000000000000000000008152600401612a96939291906145d0565b60405180910390fd5b505b8151835114612ae5576040517f08c379a0000000000000000000000000000000000000000000000000000000008152600401612adc906149d2565b60405180910390fd5b60005b8351811015612c1157828181518110612b0457612b036149f2565b5b602002602001015160676000868481518110612b2357612b226149f2565b5b602002602001015173ffffffffffffffffffffffffffffffffffffffff1673ffffffffffffffffffffffffffffffffffffffff16815260200190815260200160002060006101000a81548160ff021916908315150217905550838181518110612b8f57612b8e6149f2565b5b602002602001015173ffffffffffffffffffffffffffffffffffffffff167fd9739f45a01ce092c5cdb3d68f63d63d21676b1c6c0b4f9cbc6be4cf5449595a848381518110612be157612be06149f2565b5b6020026020010151604051612bf6919061388b565b60405180910390a28080612c0990614a21565b915050612ae8565b50505050565b6000612c2161185d565b15612c61576040517f08c379a0000000000000000000000000000000000000000000000000000000008152600401612c5890614029565b60405180910390fd5b606660149054906101000a900460ff168015612cc75750606760003273ffffffffffffffffffffffffffffffffffffffff1673ffffffffffffffffffffffffffffffffffffffff16815260200190815260200160002060009054906101000a900460ff16155b15612d0957326040517ff51ed710000000000000000000000000000000000000000000000000000000008152600401612d009190614058565b60405180910390fd5b612d1161311a565b612d47576040517fa301bb0600000000000000000000000000000000000000000000000000000000815260040160405180910390fd5b3273ffffffffffffffffffffffffffffffffffffffff163373ffffffffffffffffffffffffffffffffffffffff1614612dac576040517ffeb3d07100000000000000000000000000000000000000000000000000000000815260040160405180910390fd5b67ffffffffffffffff8016871115612df0576040517f107c527b00000000000000000000000000000000000000000000000000000000815260040160405180910390fd5b612e486007612dfe33613145565b60008a8a8a8a73ffffffffffffffffffffffffffffffffffffffff16348b8b604051602001612e34989796959493929190614116565b604051602081830303815290604052613165565b90509695505050505050565b606560009054906101000a900473ffffffffffffffffffffffffffffffffffffffff1681565b606660009054906101000a900473ffffffffffffffffffffffffffffffffffffffff1681565b6000606560009054906101000a900473ffffffffffffffffffffffffffffffffffffffff1673ffffffffffffffffffffffffffffffffffffffff1663cb23bcb56040518163ffffffff1660e01b815260040160206040518083038186803b158015612f0a57600080fd5b505afa158015612f1e573d6000803e3d6000fd5b505050506040513d601f19601f82011682018060405250810190612f429190614561565b90508073ffffffffffffffffffffffffffffffffffffffff163373ffffffffffffffffffffffffffffffffffffffff161461306f5760008173ffffffffffffffffffffffffffffffffffffffff16638da5cb5b6040518163ffffffff1660e01b815260040160206040518083038186803b158015612fbf57600080fd5b505afa158015612fd3573d6000803e3d6000fd5b505050506040513d601f19601f82011682018060405250810190612ff791906145a3565b90508073ffffffffffffffffffffffffffffffffffffffff163373ffffffffffffffffffffffffffffffffffffffff161461306d573382826040517f07396007000000000000000000000000000000000000000000000000000000008152600401613064939291906145d0565b60405180910390fd5b505b606660149054906101000a900460ff16151582151514156130c5576040517f08c379a00000000000000000000000000000000000000000000000000000000081526004016130bc90614ab6565b60405180910390fd5b81606660146101000a81548160ff0219169083151502179055507f16435b45f7482047f839a6a19d291442627200f52cad2803c595150d0d440eb38260405161310e919061388b565b60405180910390a15050565b6000467f00000000000000000000000000000000000000000000000000000000000000001415905090565b600073111100000000000000000000000000000000111182039050919050565b60006201cccc825111156131b65781516201cccc6040517f4634691b0000000000000000000000000000000000000000000000000000000081526004016131ad92919061434c565b60405180910390fd5b60006131ca85858580519060200120613252565b9050807fff64905f73a67fb594e0f940a8075a860db489ad991e032f48c81123eb52d60b846040516131fc9190614b0f565b60405180910390a2809150509392505050565b6000808273ffffffffffffffffffffffffffffffffffffffff163b119050919050565b600073111100000000000000000000000000000000111182019050919050565b6000606560009054906101000a900473ffffffffffffffffffffffffffffffffffffffff1673ffffffffffffffffffffffffffffffffffffffff16638db5993b348661329d87613232565b866040518563ffffffff1660e01b81526004016132bc93929190614b59565b6020604051808303818588803b1580156132d557600080fd5b505af11580156132e9573d6000803e3d6000fd5b50505050506040513d601f19601f8201168201806040525081019061330e9190614ba5565b90509392505050565b61331f61185d565b61335e576040517f08c379a000000000000000000000000000000000000000000000000000000000815260040161335590614c1e565b60405180910390fd5b6000603360006101000a81548160ff0219169083151502179055507f5db9ee0a495bf2e6ff9c91a7834c1ba4fdd244a5e8aa4e537bd38aeae4b073aa6133a26134c6565b6040516133af9190614058565b60405180910390a1565b60006133c43061320f565b15905090565b600060019054906101000a900460ff16613419576040517f08c379a000000000000000000000000000000000000000000000000000000000815260040161341090614cb0565b60405180910390fd5b6134216134ce565b565b61342b61185d565b1561346b576040517f08c379a000000000000000000000000000000000000000000000000000000000815260040161346290614029565b60405180910390fd5b6001603360006101000a81548160ff0219169083151502179055507f62e78cea01bee320cd4e420270b5ea74000d11b0c9f74754ebdbfc544b05a2586134af6134c6565b6040516134bc9190614058565b60405180910390a1565b600033905090565b600060019054906101000a900460ff1661351d576040517f08c379a000000000000000000000000000000000000000000000000000000000815260040161351490614cb0565b60405180910390fd5b6000603360006101000a81548160ff021916908315150217905550565b6000604051905090565b600080fd5b600080fd5b6000819050919050565b6135618161354e565b811461356c57600080fd5b50565b60008135905061357e81613558565b92915050565b600073ffffffffffffffffffffffffffffffffffffffff82169050919050565b60006135af82613584565b9050919050565b6135bf816135a4565b81146135ca57600080fd5b50565b6000813590506135dc816135b6565b92915050565b600080fd5b600080fd5b600080fd5b60008083601f840112613607576136066135e2565b5b8235905067ffffffffffffffff811115613624576136236135e7565b5b6020830191508360018202830111156136405761363f6135ec565b5b9250929050565b600080600080600080600060c0888a03121561366657613665613544565b5b60006136748a828b0161356f565b97505060206136858a828b0161356f565b96505060406136968a828b0161356f565b95505060606136a78a828b016135cd565b94505060806136b88a828b0161356f565b93505060a088013567ffffffffffffffff8111156136d9576136d8613549565b5b6136e58a828b016135f1565b925092505092959891949750929550565b6136ff8161354e565b82525050565b600060208201905061371a60008301846136f6565b92915050565b60006020828403121561373657613735613544565b5b60006137448482850161356f565b91505092915050565b60008060008060008060008060006101008a8c0312156137705761376f613544565b5b600061377e8c828d016135cd565b995050602061378f8c828d0161356f565b98505060406137a08c828d0161356f565b97505060606137b18c828d016135cd565b96505060806137c28c828d016135cd565b95505060a06137d38c828d0161356f565b94505060c06137e48c828d0161356f565b93505060e08a013567ffffffffffffffff81111561380557613804613549565b5b6138118c828d016135f1565b92509250509295985092959850929598565b6000806020838503121561383a57613839613544565b5b600083013567ffffffffffffffff81111561385857613857613549565b5b613864858286016135f1565b92509250509250929050565b60008115159050919050565b61388581613870565b82525050565b60006020820190506138a0600083018461387c565b92915050565b60006138b1826135a4565b9050919050565b6138c1816138a6565b81146138cc57600080fd5b50565b6000813590506138de816138b8565b92915050565b60006138ef826135a4565b9050919050565b6138ff816138e4565b811461390a57600080fd5b50565b60008135905061391c816138f6565b92915050565b6000806040838503121561393957613938613544565b5b6000613947858286016138cf565b92505060206139588582860161390d565b9150509250929050565b60008060008060006080868803121561397e5761397d613544565b5b600061398c8882890161356f565b955050602061399d8882890161356f565b94505060406139ae888289016135cd565b935050606086013567ffffffffffffffff8111156139cf576139ce613549565b5b6139db888289016135f1565b92509250509295509295909350565b60008060008060008060a08789031215613a0757613a06613544565b5b6000613a1589828a0161356f565b9650506020613a2689828a0161356f565b9550506040613a3789828a0161356f565b9450506060613a4889828a016135cd565b935050608087013567ffffffffffffffff811115613a6957613a68613549565b5b613a7589828a016135f1565b92509250509295509295509295565b600080600080600060a08688031215613aa057613a9f613544565b5b6000613aae8882890161356f565b9550506020613abf8882890161356f565b9450506040613ad08882890161356f565b9350506060613ae18882890161356f565b9250506080613af2888289016135cd565b9150509295509295909350565b60008060008060008060a08789031215613b1c57613b1b613544565b5b6000613b2a89828a0161356f565b9650506020613b3b89828a0161356f565b9550506040613b4c89828a016135cd565b9450506060613b5d89828a0161356f565b935050608087013567ffffffffffffffff811115613b7e57613b7d613549565b5b613b8a89828a016135f1565b92509250509295509295509295565b60008060408385031215613bb057613baf613544565b5b6000613bbe8582860161356f565b9250506020613bcf8582860161356f565b9150509250929050565b600060208284031215613bef57613bee613544565b5b6000613bfd848285016135cd565b91505092915050565b600060208284031215613c1c57613c1b613544565b5b6000613c2a848285016138cf565b91505092915050565b6000601f19601f8301169050919050565b7f4e487b7100000000000000000000000000000000000000000000000000000000600052604160045260246000fd5b613c7c82613c33565b810181811067ffffffffffffffff82111715613c9b57613c9a613c44565b5b80604052505050565b6000613cae61353a565b9050613cba8282613c73565b919050565b600067ffffffffffffffff821115613cda57613cd9613c44565b5b602082029050602081019050919050565b6000613cfe613cf984613cbf565b613ca4565b90508083825260208201905060208402830185811115613d2157613d206135ec565b5b835b81811015613d4a5780613d3688826135cd565b845260208401935050602081019050613d23565b5050509392505050565b600082601f830112613d6957613d686135e2565b5b8135613d79848260208601613ceb565b91505092915050565b600067ffffffffffffffff821115613d9d57613d9c613c44565b5b602082029050602081019050919050565b613db781613870565b8114613dc257600080fd5b50565b600081359050613dd481613dae565b92915050565b6000613ded613de884613d82565b613ca4565b90508083825260208201905060208402830185811115613e1057613e0f6135ec565b5b835b81811015613e395780613e258882613dc5565b845260208401935050602081019050613e12565b5050509392505050565b600082601f830112613e5857613e576135e2565b5b8135613e68848260208601613dda565b91505092915050565b60008060408385031215613e8857613e87613544565b5b600083013567ffffffffffffffff811115613ea657613ea5613549565b5b613eb285828601613d54565b925050602083013567ffffffffffffffff811115613ed357613ed2613549565b5b613edf85828601613e43565b9150509250929050565b6000819050919050565b6000613f0e613f09613f0484613584565b613ee9565b613584565b9050919050565b6000613f2082613ef3565b9050919050565b6000613f3282613f15565b9050919050565b613f4281613f27565b82525050565b6000602082019050613f5d6000830184613f39565b92915050565b6000613f6e82613f15565b9050919050565b613f7e81613f63565b82525050565b6000602082019050613f996000830184613f75565b92915050565b600060208284031215613fb557613fb4613544565b5b6000613fc384828501613dc5565b91505092915050565b600082825260208201905092915050565b7f5061757361626c653a2070617573656400000000000000000000000000000000600082015250565b6000614013601083613fcc565b915061401e82613fdd565b602082019050919050565b6000602082019050818103600083015261404281614006565b9050919050565b614052816135a4565b82525050565b600060208201905061406d6000830184614049565b92915050565b600060ff82169050919050565b60008160f81b9050919050565b600061409882614080565b9050919050565b6140b06140ab82614073565b61408d565b82525050565b6000819050919050565b6140d16140cc8261354e565b6140b6565b82525050565b600081905092915050565b82818337600083830152505050565b60006140fd83856140d7565b935061410a8385846140e2565b82840190509392505050565b6000614122828b61409f565b600182019150614132828a6140c0565b60208201915061414282896140c0565b60208201915061415282886140c0565b60208201915061416282876140c0565b60208201915061417282866140c0565b6020820191506141838284866140f1565b91508190509998505050505050505050565b7f4e4f545f554e49535741505f4c315f54494d454c4f434b000000000000000000600082015250565b60006141cb601783613fcc565b91506141d682614195565b602082019050919050565b600060208201905081810360008301526141fa816141be565b9050919050565b7f4e4f545f544f5f554e49535741505f4c325f464143544f525900000000000000600082015250565b6000614237601983613fcc565b915061424282614201565b602082019050919050565b600060208201905081810360008301526142668161422a565b9050919050565b7f4e487b7100000000000000000000000000000000000000000000000000000000600052601160045260246000fd5b60006142a78261354e565b91506142b28361354e565b9250817fffffffffffffffffffffffffffffffffffffffffffffffffffffffffffffffff04831182151516156142eb576142ea61426d565b5b828202905092915050565b60006143018261354e565b915061430c8361354e565b9250827fffffffffffffffffffffffffffffffffffffffffffffffffffffffffffffffff038211156143415761434061426d565b5b828201905092915050565b600060408201905061436160008301856136f6565b61436e60208301846136f6565b9392505050565b600082825260208201905092915050565b60006143928385614375565b935061439f8385846140e2565b6143a883613c33565b840190509392505050565b6000610140820190506143c9600083018e614049565b6143d6602083018d614049565b6143e3604083018c6136f6565b6143f0606083018b6136f6565b6143fd608083018a6136f6565b61440a60a0830189614049565b61441760c0830188614049565b61442460e08301876136f6565b6144326101008301866136f6565b818103610120830152614446818486614386565b90509c9b505050505050505050505050565b6000614464828e6140c0565b602082019150614474828d6140c0565b602082019150614484828c6140c0565b602082019150614494828b6140c0565b6020820191506144a4828a6140c0565b6020820191506144b482896140c0565b6020820191506144c482886140c0565b6020820191506144d482876140c0565b6020820191506144e482866140c0565b6020820191506144f58284866140f1565b91508190509c9b505050505050505050505050565b60006145178284866140f1565b91508190509392505050565b600061452e826135a4565b9050919050565b61453e81614523565b811461454957600080fd5b50565b60008151905061455b81614535565b92915050565b60006020828403121561457757614576613544565b5b60006145858482850161454c565b91505092915050565b60008151905061459d816135b6565b92915050565b6000602082840312156145b9576145b8613544565b5b60006145c78482850161458e565b91505092915050565b60006060820190506145e56000830186614049565b6145f26020830185614049565b6145ff6040830184614049565b949350505050565b60008160601b9050919050565b600061461f82614607565b9050919050565b600061463182614614565b9050919050565b614649614644826135a4565b614626565b82525050565b600061465b8285614638565b60148201915061466b82846140c0565b6020820191508190509392505050565b7f496e697469616c697a61626c653a20636f6e747261637420697320616c72656160008201527f647920696e697469616c697a6564000000000000000000000000000000000000602082015250565b60006146d7602e83613fcc565b91506146e28261467b565b604082019050919050565b60006020820190508181036000830152614706816146ca565b9050919050565b7f46756e6374696f6e206d7573742062652063616c6c6564207468726f7567682060008201527f64656c656761746563616c6c0000000000000000000000000000000000000000602082015250565b6000614769602c83613fcc565b91506147748261470d565b604082019050919050565b600060208201905081810360008301526147988161475c565b9050919050565b60006147ab828a61409f565b6001820191506147bb82896140c0565b6020820191506147cb82886140c0565b6020820191506147db82876140c0565b6020820191506147eb82866140c0565b6020820191506147fc8284866140f1565b915081905098975050505050505050565b60007fffffffff0000000000000000000000000000000000000000000000000000000082169050919050565b6148428161480d565b82525050565b600060408201905061485d6000830185614839565b61486a6020830184614049565b9392505050565b600081519050919050565b60005b8381101561489a57808201518184015260208101905061487f565b838111156148a9576000848401525b50505050565b60006148ba82614871565b6148c481856140d7565b93506148d481856020860161487c565b80840191505092915050565b60006148ec828a61409f565b6001820191506148fc82896140c0565b60208201915061490c82886140c0565b60208201915061491c82876140c0565b60208201915061492c82866140c0565b60208201915061493c82856140c0565b60208201915061494c82846148af565b915081905098975050505050505050565b60006040820190506149726000830185614049565b61497f6020830184614049565b9392505050565b7f494e56414c49445f494e50555400000000000000000000000000000000000000600082015250565b60006149bc600d83613fcc565b91506149c782614986565b602082019050919050565b600060208201905081810360008301526149eb816149af565b9050919050565b7f4e487b7100000000000000000000000000000000000000000000000000000000600052603260045260246000fd5b6000614a2c8261354e565b91507fffffffffffffffffffffffffffffffffffffffffffffffffffffffffffffffff821415614a5f57614a5e61426d565b5b600182019050919050565b7f414c52454144595f534554000000000000000000000000000000000000000000600082015250565b6000614aa0600b83613fcc565b9150614aab82614a6a565b602082019050919050565b60006020820190508181036000830152614acf81614a93565b9050919050565b6000614ae182614871565b614aeb8185614375565b9350614afb81856020860161487c565b614b0481613c33565b840191505092915050565b60006020820190508181036000830152614b298184614ad6565b905092915050565b614b3a81614073565b82525050565b6000819050919050565b614b5381614b40565b82525050565b6000606082019050614b6e6000830186614b31565b614b7b6020830185614049565b614b886040830184614b4a565b949350505050565b600081519050614b9f81613558565b92915050565b600060208284031215614bbb57614bba613544565b5b6000614bc984828501614b90565b91505092915050565b7f5061757361626c653a206e6f7420706175736564000000000000000000000000600082015250565b6000614c08601483613fcc565b9150614c1382614bd2565b602082019050919050565b60006020820190508181036000830152614c3781614bfb565b9050919050565b7f496e697469616c697a61626c653a20636f6e7472616374206973206e6f74206960008201527f6e697469616c697a696e67000000000000000000000000000000000000000000602082015250565b6000614c9a602b83613fcc565b9150614ca582614c3e565b604082019050919050565b60006020820190508181036000830152614cc981614c8d565b905091905056fea2646970667358221220cd92628bb30f7cf10b1eaeed05cde09bcf8b449322df3b4b610371fdc482a34c64736f6c63430008090033","opcodes":"PUSH1 0xC0 PUSH1 0x40 MSTORE ADDRESS PUSH20 0xFFFFFFFFFFFFFFFFFFFFFFFFFFFFFFFFFFFFFFFF AND PUSH1 0x80 SWAP1 PUSH20 0xFFFFFFFFFFFFFFFFFFFFFFFFFFFFFFFFFFFFFFFF AND DUP2 MSTORE POP CHAINID PUSH1 0xA0 SWAP1 DUP2 MSTORE POP CALLVALUE DUP1 ISZERO PUSH2 0x4A JUMPI PUSH1 0x0 DUP1 REVERT JUMPDEST POP PUSH1 0x80 MLOAD PUSH1 0xA0 MLOAD PUSH2 0x4D06 PUSH2 0x77 PUSH1 0x0 CODECOPY PUSH1 0x0 PUSH2 0x311F ADD MSTORE PUSH1 0x0 DUP2 DUP2 PUSH2 0x1572 ADD MSTORE PUSH2 0x27A0 ADD MSTORE PUSH2 0x4D06 PUSH1 0x0 RETURN INVALID PUSH1 0x80 PUSH1 0x40 MSTORE PUSH1 0x4 CALLDATASIZE LT PUSH2 0x19B JUMPI PUSH1 0x0 CALLDATALOAD PUSH1 0xE0 SHR DUP1 PUSH4 0x67EF3AB8 GT PUSH2 0xEC JUMPI DUP1 PUSH4 0xBABCC539 GT PUSH2 0x8A JUMPI DUP1 PUSH4 0xE6BD12CF GT PUSH2 0x64 JUMPI DUP1 PUSH4 0xE6BD12CF EQ PUSH2 0x5F5 JUMPI DUP1 PUSH4 0xE78CEA92 EQ PUSH2 0x625 JUMPI DUP1 PUSH4 0xEE35F327 EQ PUSH2 0x650 JUMPI DUP1 PUSH4 0xEFEADB6D EQ PUSH2 0x67B JUMPI PUSH2 0x19B JUMP JUMPDEST DUP1 PUSH4 0xBABCC539 EQ PUSH2 0x566 JUMPI DUP1 PUSH4 0xC474D2C5 EQ PUSH2 0x5A3 JUMPI DUP1 PUSH4 0xE3DE72A5 EQ PUSH2 0x5CC JUMPI PUSH2 0x19B JUMP JUMPDEST DUP1 PUSH4 0x8456CB59 GT PUSH2 0xC6 JUMPI DUP1 PUSH4 0x8456CB59 EQ PUSH2 0x498 JUMPI DUP1 PUSH4 0x8A631AA6 EQ PUSH2 0x4AF JUMPI DUP1 PUSH4 0xA66B327D EQ PUSH2 0x4EC JUMPI DUP1 PUSH4 0xB75436BB EQ PUSH2 0x529 JUMPI PUSH2 0x19B JUMP JUMPDEST DUP1 PUSH4 0x67EF3AB8 EQ PUSH2 0x3FB JUMPI DUP1 PUSH4 0x6E6E8A6A EQ PUSH2 0x42B JUMPI DUP1 PUSH4 0x70665F14 EQ PUSH2 0x45B JUMPI PUSH2 0x19B JUMP JUMPDEST DUP1 PUSH4 0x3F4BA83A GT PUSH2 0x159 JUMPI DUP1 PUSH4 0x5075788B GT PUSH2 0x133 JUMPI DUP1 PUSH4 0x5075788B EQ PUSH2 0x333 JUMPI DUP1 PUSH4 0x5C975ABB EQ PUSH2 0x370 JUMPI DUP1 PUSH4 0x5E916758 EQ PUSH2 0x39B JUMPI DUP1 PUSH4 0x679B6DED EQ PUSH2 0x3CB JUMPI PUSH2 0x19B JUMP JUMPDEST DUP1 PUSH4 0x3F4BA83A EQ PUSH2 0x2D5 JUMPI DUP1 PUSH4 0x439370B1 EQ PUSH2 0x2EC JUMPI DUP1 PUSH4 0x485CC955 EQ PUSH2 0x30A JUMPI PUSH2 0x19B JUMP JUMPDEST DUP1 PUSH3 0xF72382 EQ PUSH2 0x1A0 JUMPI DUP1 PUSH4 0xF4D14E9 EQ PUSH2 0x1DD JUMPI DUP1 PUSH4 0x1B871C8D EQ PUSH2 0x20D JUMPI DUP1 PUSH4 0x1CB763D2 EQ PUSH2 0x23D JUMPI DUP1 PUSH4 0x1FE927CF EQ PUSH2 0x26D JUMPI DUP1 PUSH4 0x22BD5C1C EQ PUSH2 0x2AA JUMPI JUMPDEST PUSH1 0x0 DUP1 REVERT JUMPDEST CALLVALUE DUP1 ISZERO PUSH2 0x1AC JUMPI PUSH1 0x0 DUP1 REVERT JUMPDEST POP PUSH2 0x1C7 PUSH1 0x4 DUP1 CALLDATASIZE SUB DUP2 ADD SWAP1 PUSH2 0x1C2 SWAP2 SWAP1 PUSH2 0x3647 JUMP JUMPDEST PUSH2 0x6A4 JUMP JUMPDEST PUSH1 0x40 MLOAD PUSH2 0x1D4 SWAP2 SWAP1 PUSH2 0x3705 JUMP JUMPDEST PUSH1 0x40 MLOAD DUP1 SWAP2 SUB SWAP1 RETURN JUMPDEST PUSH2 0x1F7 PUSH1 0x4 DUP1 CALLDATASIZE SUB DUP2 ADD SWAP1 PUSH2 0x1F2 SWAP2 SWAP1 PUSH2 0x3720 JUMP JUMPDEST PUSH2 0x8E2 JUMP JUMPDEST PUSH1 0x40 MLOAD PUSH2 0x204 SWAP2 SWAP1 PUSH2 0x3705 JUMP JUMPDEST PUSH1 0x40 MLOAD DUP1 SWAP2 SUB SWAP1 RETURN JUMPDEST PUSH2 0x227 PUSH1 0x4 DUP1 CALLDATASIZE SUB DUP2 ADD SWAP1 PUSH2 0x222 SWAP2 SWAP1 PUSH2 0x374D JUMP JUMPDEST PUSH2 0x9E3 JUMP JUMPDEST PUSH1 0x40 MLOAD PUSH2 0x234 SWAP2 SWAP1 PUSH2 0x3705 JUMP JUMPDEST PUSH1 0x40 MLOAD DUP1 SWAP2 SUB SWAP1 RETURN JUMPDEST PUSH2 0x257 PUSH1 0x4 DUP1 CALLDATASIZE SUB DUP2 ADD SWAP1 PUSH2 0x252 SWAP2 SWAP1 PUSH2 0x374D JUMP JUMPDEST PUSH2 0xAF5 JUMP JUMPDEST PUSH1 0x40 MLOAD PUSH2 0x264 SWAP2 SWAP1 PUSH2 0x3705 JUMP JUMPDEST PUSH1 0x40 MLOAD DUP1 SWAP2 SUB SWAP1 RETURN JUMPDEST CALLVALUE DUP1 ISZERO PUSH2 0x279 JUMPI PUSH1 0x0 DUP1 REVERT JUMPDEST POP PUSH2 0x294 PUSH1 0x4 DUP1 CALLDATASIZE SUB DUP2 ADD SWAP1 PUSH2 0x28F SWAP2 SWAP1 PUSH2 0x3823 JUMP JUMPDEST PUSH2 0xF01 JUMP JUMPDEST PUSH1 0x40 MLOAD PUSH2 0x2A1 SWAP2 SWAP1 PUSH2 0x3705 JUMP JUMPDEST PUSH1 0x40 MLOAD DUP1 SWAP2 SUB SWAP1 RETURN JUMPDEST CALLVALUE DUP1 ISZERO PUSH2 0x2B6 JUMPI PUSH1 0x0 DUP1 REVERT JUMPDEST POP PUSH2 0x2BF PUSH2 0x1148 JUMP JUMPDEST PUSH1 0x40 MLOAD PUSH2 0x2CC SWAP2 SWAP1 PUSH2 0x388B JUMP JUMPDEST PUSH1 0x40 MLOAD DUP1 SWAP2 SUB SWAP1 RETURN JUMPDEST CALLVALUE DUP1 ISZERO PUSH2 0x2E1 JUMPI PUSH1 0x0 DUP1 REVERT JUMPDEST POP PUSH2 0x2EA PUSH2 0x115B JUMP JUMPDEST STOP JUMPDEST PUSH2 0x2F4 PUSH2 0x1335 JUMP JUMPDEST PUSH1 0x40 MLOAD PUSH2 0x301 SWAP2 SWAP1 PUSH2 0x3705 JUMP JUMPDEST PUSH1 0x40 MLOAD DUP1 SWAP2 SUB SWAP1 RETURN JUMPDEST CALLVALUE DUP1 ISZERO PUSH2 0x316 JUMPI PUSH1 0x0 DUP1 REVERT JUMPDEST POP PUSH2 0x331 PUSH1 0x4 DUP1 CALLDATASIZE SUB DUP2 ADD SWAP1 PUSH2 0x32C SWAP2 SWAP1 PUSH2 0x3922 JUMP JUMPDEST PUSH2 0x14B0 JUMP JUMPDEST STOP JUMPDEST CALLVALUE DUP1 ISZERO PUSH2 0x33F JUMPI PUSH1 0x0 DUP1 REVERT JUMPDEST POP PUSH2 0x35A PUSH1 0x4 DUP1 CALLDATASIZE SUB DUP2 ADD SWAP1 PUSH2 0x355 SWAP2 SWAP1 PUSH2 0x3647 JUMP JUMPDEST PUSH2 0x16CA JUMP JUMPDEST PUSH1 0x40 MLOAD PUSH2 0x367 SWAP2 SWAP1 PUSH2 0x3705 JUMP JUMPDEST PUSH1 0x40 MLOAD DUP1 SWAP2 SUB SWAP1 RETURN JUMPDEST CALLVALUE DUP1 ISZERO PUSH2 0x37C JUMPI PUSH1 0x0 DUP1 REVERT JUMPDEST POP PUSH2 0x385 PUSH2 0x185D JUMP JUMPDEST PUSH1 0x40 MLOAD PUSH2 0x392 SWAP2 SWAP1 PUSH2 0x388B JUMP JUMPDEST PUSH1 0x40 MLOAD DUP1 SWAP2 SUB SWAP1 RETURN JUMPDEST PUSH2 0x3B5 PUSH1 0x4 DUP1 CALLDATASIZE SUB DUP2 ADD SWAP1 PUSH2 0x3B0 SWAP2 SWAP1 PUSH2 0x3962 JUMP JUMPDEST PUSH2 0x1874 JUMP JUMPDEST PUSH1 0x40 MLOAD PUSH2 0x3C2 SWAP2 SWAP1 PUSH2 0x3705 JUMP JUMPDEST PUSH1 0x40 MLOAD DUP1 SWAP2 SUB SWAP1 RETURN JUMPDEST PUSH2 0x3E5 PUSH1 0x4 DUP1 CALLDATASIZE SUB DUP2 ADD SWAP1 PUSH2 0x3E0 SWAP2 SWAP1 PUSH2 0x374D JUMP JUMPDEST PUSH2 0x1A03 JUMP JUMPDEST PUSH1 0x40 MLOAD PUSH2 0x3F2 SWAP2 SWAP1 PUSH2 0x3705 JUMP JUMPDEST PUSH1 0x40 MLOAD DUP1 SWAP2 SUB SWAP1 RETURN JUMPDEST PUSH2 0x415 PUSH1 0x4 DUP1 CALLDATASIZE SUB DUP2 ADD SWAP1 PUSH2 0x410 SWAP2 SWAP1 PUSH2 0x39EA JUMP JUMPDEST PUSH2 0x1BD2 JUMP JUMPDEST PUSH1 0x40 MLOAD PUSH2 0x422 SWAP2 SWAP1 PUSH2 0x3705 JUMP JUMPDEST PUSH1 0x40 MLOAD DUP1 SWAP2 SUB SWAP1 RETURN JUMPDEST PUSH2 0x445 PUSH1 0x4 DUP1 CALLDATASIZE SUB DUP2 ADD SWAP1 PUSH2 0x440 SWAP2 SWAP1 PUSH2 0x374D JUMP JUMPDEST PUSH2 0x1D64 JUMP JUMPDEST PUSH1 0x40 MLOAD PUSH2 0x452 SWAP2 SWAP1 PUSH2 0x3705 JUMP JUMPDEST PUSH1 0x40 MLOAD DUP1 SWAP2 SUB SWAP1 RETURN JUMPDEST CALLVALUE DUP1 ISZERO PUSH2 0x467 JUMPI PUSH1 0x0 DUP1 REVERT JUMPDEST POP PUSH2 0x482 PUSH1 0x4 DUP1 CALLDATASIZE SUB DUP2 ADD SWAP1 PUSH2 0x47D SWAP2 SWAP1 PUSH2 0x3A84 JUMP JUMPDEST PUSH2 0x1FEB JUMP JUMPDEST PUSH1 0x40 MLOAD PUSH2 0x48F SWAP2 SWAP1 PUSH2 0x3705 JUMP JUMPDEST PUSH1 0x40 MLOAD DUP1 SWAP2 SUB SWAP1 RETURN JUMPDEST CALLVALUE DUP1 ISZERO PUSH2 0x4A4 JUMPI PUSH1 0x0 DUP1 REVERT JUMPDEST POP PUSH2 0x4AD PUSH2 0x224E JUMP JUMPDEST STOP JUMPDEST CALLVALUE DUP1 ISZERO PUSH2 0x4BB JUMPI PUSH1 0x0 DUP1 REVERT JUMPDEST POP PUSH2 0x4D6 PUSH1 0x4 DUP1 CALLDATASIZE SUB DUP2 ADD SWAP1 PUSH2 0x4D1 SWAP2 SWAP1 PUSH2 0x3AFF JUMP JUMPDEST PUSH2 0x2428 JUMP JUMPDEST PUSH1 0x40 MLOAD PUSH2 0x4E3 SWAP2 SWAP1 PUSH2 0x3705 JUMP JUMPDEST PUSH1 0x40 MLOAD DUP1 SWAP2 SUB SWAP1 RETURN JUMPDEST CALLVALUE DUP1 ISZERO PUSH2 0x4F8 JUMPI PUSH1 0x0 DUP1 REVERT JUMPDEST POP PUSH2 0x513 PUSH1 0x4 DUP1 CALLDATASIZE SUB DUP2 ADD SWAP1 PUSH2 0x50E SWAP2 SWAP1 PUSH2 0x3B99 JUMP JUMPDEST PUSH2 0x25B8 JUMP JUMPDEST PUSH1 0x40 MLOAD PUSH2 0x520 SWAP2 SWAP1 PUSH2 0x3705 JUMP JUMPDEST PUSH1 0x40 MLOAD DUP1 SWAP2 SUB SWAP1 RETURN JUMPDEST CALLVALUE DUP1 ISZERO PUSH2 0x535 JUMPI PUSH1 0x0 DUP1 REVERT JUMPDEST POP PUSH2 0x550 PUSH1 0x4 DUP1 CALLDATASIZE SUB DUP2 ADD SWAP1 PUSH2 0x54B SWAP2 SWAP1 PUSH2 0x3823 JUMP JUMPDEST PUSH2 0x25F5 JUMP JUMPDEST PUSH1 0x40 MLOAD PUSH2 0x55D SWAP2 SWAP1 PUSH2 0x3705 JUMP JUMPDEST PUSH1 0x40 MLOAD DUP1 SWAP2 SUB SWAP1 RETURN JUMPDEST CALLVALUE DUP1 ISZERO PUSH2 0x572 JUMPI PUSH1 0x0 DUP1 REVERT JUMPDEST POP PUSH2 0x58D PUSH1 0x4 DUP1 CALLDATASIZE SUB DUP2 ADD SWAP1 PUSH2 0x588 SWAP2 SWAP1 PUSH2 0x3BD9 JUMP JUMPDEST PUSH2 0x277E JUMP JUMPDEST PUSH1 0x40 MLOAD PUSH2 0x59A SWAP2 SWAP1 PUSH2 0x388B JUMP JUMPDEST PUSH1 0x40 MLOAD DUP1 SWAP2 SUB SWAP1 RETURN JUMPDEST CALLVALUE DUP1 ISZERO PUSH2 0x5AF JUMPI PUSH1 0x0 DUP1 REVERT JUMPDEST POP PUSH2 0x5CA PUSH1 0x4 DUP1 CALLDATASIZE SUB DUP2 ADD SWAP1 PUSH2 0x5C5 SWAP2 SWAP1 PUSH2 0x3C06 JUMP JUMPDEST PUSH2 0x279E JUMP JUMPDEST STOP JUMPDEST CALLVALUE DUP1 ISZERO PUSH2 0x5D8 JUMPI PUSH1 0x0 DUP1 REVERT JUMPDEST POP PUSH2 0x5F3 PUSH1 0x4 DUP1 CALLDATASIZE SUB DUP2 ADD SWAP1 PUSH2 0x5EE SWAP2 SWAP1 PUSH2 0x3E71 JUMP JUMPDEST PUSH2 0x28D2 JUMP JUMPDEST STOP JUMPDEST PUSH2 0x60F PUSH1 0x4 DUP1 CALLDATASIZE SUB DUP2 ADD SWAP1 PUSH2 0x60A SWAP2 SWAP1 PUSH2 0x39EA JUMP JUMPDEST PUSH2 0x2C17 JUMP JUMPDEST PUSH1 0x40 MLOAD PUSH2 0x61C SWAP2 SWAP1 PUSH2 0x3705 JUMP JUMPDEST PUSH1 0x40 MLOAD DUP1 SWAP2 SUB SWAP1 RETURN JUMPDEST CALLVALUE DUP1 ISZERO PUSH2 0x631 JUMPI PUSH1 0x0 DUP1 REVERT JUMPDEST POP PUSH2 0x63A PUSH2 0x2E54 JUMP JUMPDEST PUSH1 0x40 MLOAD PUSH2 0x647 SWAP2 SWAP1 PUSH2 0x3F48 JUMP JUMPDEST PUSH1 0x40 MLOAD DUP1 SWAP2 SUB SWAP1 RETURN JUMPDEST CALLVALUE DUP1 ISZERO PUSH2 0x65C JUMPI PUSH1 0x0 DUP1 REVERT JUMPDEST POP PUSH2 0x665 PUSH2 0x2E7A JUMP JUMPDEST PUSH1 0x40 MLOAD PUSH2 0x672 SWAP2 SWAP1 PUSH2 0x3F84 JUMP JUMPDEST PUSH1 0x40 MLOAD DUP1 SWAP2 SUB SWAP1 RETURN JUMPDEST CALLVALUE DUP1 ISZERO PUSH2 0x687 JUMPI PUSH1 0x0 DUP1 REVERT JUMPDEST POP PUSH2 0x6A2 PUSH1 0x4 DUP1 CALLDATASIZE SUB DUP2 ADD SWAP1 PUSH2 0x69D SWAP2 SWAP1 PUSH2 0x3F9F JUMP JUMPDEST PUSH2 0x2EA0 JUMP JUMPDEST STOP JUMPDEST PUSH1 0x0 PUSH2 0x6AE PUSH2 0x185D JUMP JUMPDEST ISZERO PUSH2 0x6EE JUMPI PUSH1 0x40 MLOAD PUSH32 0x8C379A000000000000000000000000000000000000000000000000000000000 DUP2 MSTORE PUSH1 0x4 ADD PUSH2 0x6E5 SWAP1 PUSH2 0x4029 JUMP JUMPDEST PUSH1 0x40 MLOAD DUP1 SWAP2 SUB SWAP1 REVERT JUMPDEST PUSH1 0x66 PUSH1 0x14 SWAP1 SLOAD SWAP1 PUSH2 0x100 EXP SWAP1 DIV PUSH1 0xFF AND DUP1 ISZERO PUSH2 0x754 JUMPI POP PUSH1 0x67 PUSH1 0x0 ORIGIN PUSH20 0xFFFFFFFFFFFFFFFFFFFFFFFFFFFFFFFFFFFFFFFF AND PUSH20 0xFFFFFFFFFFFFFFFFFFFFFFFFFFFFFFFFFFFFFFFF AND DUP2 MSTORE PUSH1 0x20 ADD SWAP1 DUP2 MSTORE PUSH1 0x20 ADD PUSH1 0x0 KECCAK256 PUSH1 0x0 SWAP1 SLOAD SWAP1 PUSH2 0x100 EXP SWAP1 DIV PUSH1 0xFF AND ISZERO JUMPDEST ISZERO PUSH2 0x796 JUMPI ORIGIN PUSH1 0x40 MLOAD PUSH32 0xF51ED71000000000000000000000000000000000000000000000000000000000 DUP2 MSTORE PUSH1 0x4 ADD PUSH2 0x78D SWAP2 SWAP1 PUSH2 0x4058 JUMP JUMPDEST PUSH1 0x40 MLOAD DUP1 SWAP2 SUB SWAP1 REVERT JUMPDEST PUSH2 0x79E PUSH2 0x311A JUMP JUMPDEST PUSH2 0x7D4 JUMPI PUSH1 0x40 MLOAD PUSH32 0xA301BB0600000000000000000000000000000000000000000000000000000000 DUP2 MSTORE PUSH1 0x4 ADD PUSH1 0x40 MLOAD DUP1 SWAP2 SUB SWAP1 REVERT JUMPDEST ORIGIN PUSH20 0xFFFFFFFFFFFFFFFFFFFFFFFFFFFFFFFFFFFFFFFF AND CALLER PUSH20 0xFFFFFFFFFFFFFFFFFFFFFFFFFFFFFFFFFFFFFFFF AND EQ PUSH2 0x839 JUMPI PUSH1 0x40 MLOAD PUSH32 0xFEB3D07100000000000000000000000000000000000000000000000000000000 DUP2 MSTORE PUSH1 0x4 ADD PUSH1 0x40 MLOAD DUP1 SWAP2 SUB SWAP1 REVERT JUMPDEST PUSH8 0xFFFFFFFFFFFFFFFF DUP1 AND DUP9 GT ISZERO PUSH2 0x87D JUMPI PUSH1 0x40 MLOAD PUSH32 0x107C527B00000000000000000000000000000000000000000000000000000000 DUP2 MSTORE PUSH1 0x4 ADD PUSH1 0x40 MLOAD DUP1 SWAP2 SUB SWAP1 REVERT JUMPDEST PUSH2 0x8D5 PUSH1 0x3 PUSH2 0x88B CALLER PUSH2 0x3145 JUMP JUMPDEST PUSH1 0x0 DUP12 DUP12 DUP12 DUP12 PUSH20 0xFFFFFFFFFFFFFFFFFFFFFFFFFFFFFFFFFFFFFFFF AND DUP12 DUP12 DUP12 PUSH1 0x40 MLOAD PUSH1 0x20 ADD PUSH2 0x8C1 SWAP9 SWAP8 SWAP7 SWAP6 SWAP5 SWAP4 SWAP3 SWAP2 SWAP1 PUSH2 0x4116 JUMP JUMPDEST PUSH1 0x40 MLOAD PUSH1 0x20 DUP2 DUP4 SUB SUB DUP2 MSTORE SWAP1 PUSH1 0x40 MSTORE PUSH2 0x3165 JUMP JUMPDEST SWAP1 POP SWAP8 SWAP7 POP POP POP POP POP POP POP JUMP JUMPDEST PUSH1 0x0 PUSH2 0x8EC PUSH2 0x185D JUMP JUMPDEST ISZERO PUSH2 0x92C JUMPI PUSH1 0x40 MLOAD PUSH32 0x8C379A000000000000000000000000000000000000000000000000000000000 DUP2 MSTORE PUSH1 0x4 ADD PUSH2 0x923 SWAP1 PUSH2 0x4029 JUMP JUMPDEST PUSH1 0x40 MLOAD DUP1 SWAP2 SUB SWAP1 REVERT JUMPDEST PUSH1 0x66 PUSH1 0x14 SWAP1 SLOAD SWAP1 PUSH2 0x100 EXP SWAP1 DIV PUSH1 0xFF AND DUP1 ISZERO PUSH2 0x992 JUMPI POP PUSH1 0x67 PUSH1 0x0 ORIGIN PUSH20 0xFFFFFFFFFFFFFFFFFFFFFFFFFFFFFFFFFFFFFFFF AND PUSH20 0xFFFFFFFFFFFFFFFFFFFFFFFFFFFFFFFFFFFFFFFF AND DUP2 MSTORE PUSH1 0x20 ADD SWAP1 DUP2 MSTORE PUSH1 0x20 ADD PUSH1 0x0 KECCAK256 PUSH1 0x0 SWAP1 SLOAD SWAP1 PUSH2 0x100 EXP SWAP1 DIV PUSH1 0xFF AND ISZERO JUMPDEST ISZERO PUSH2 0x9D4 JUMPI ORIGIN PUSH1 0x40 MLOAD PUSH32 0xF51ED71000000000000000000000000000000000000000000000000000000000 DUP2 MSTORE PUSH1 0x4 ADD PUSH2 0x9CB SWAP2 SWAP1 PUSH2 0x4058 JUMP JUMPDEST PUSH1 0x40 MLOAD DUP1 SWAP2 SUB SWAP1 REVERT JUMPDEST PUSH2 0x9DC PUSH2 0x1335 JUMP JUMPDEST SWAP1 POP SWAP2 SWAP1 POP JUMP JUMPDEST PUSH1 0x0 PUSH2 0x9ED PUSH2 0x185D JUMP JUMPDEST ISZERO PUSH2 0xA2D JUMPI PUSH1 0x40 MLOAD PUSH32 0x8C379A000000000000000000000000000000000000000000000000000000000 DUP2 MSTORE PUSH1 0x4 ADD PUSH2 0xA24 SWAP1 PUSH2 0x4029 JUMP JUMPDEST PUSH1 0x40 MLOAD DUP1 SWAP2 SUB SWAP1 REVERT JUMPDEST PUSH1 0x66 PUSH1 0x14 SWAP1 SLOAD SWAP1 PUSH2 0x100 EXP SWAP1 DIV PUSH1 0xFF AND DUP1 ISZERO PUSH2 0xA93 JUMPI POP PUSH1 0x67 PUSH1 0x0 ORIGIN PUSH20 0xFFFFFFFFFFFFFFFFFFFFFFFFFFFFFFFFFFFFFFFF AND PUSH20 0xFFFFFFFFFFFFFFFFFFFFFFFFFFFFFFFFFFFFFFFF AND DUP2 MSTORE PUSH1 0x20 ADD SWAP1 DUP2 MSTORE PUSH1 0x20 ADD PUSH1 0x0 KECCAK256 PUSH1 0x0 SWAP1 SLOAD SWAP1 PUSH2 0x100 EXP SWAP1 DIV PUSH1 0xFF AND ISZERO JUMPDEST ISZERO PUSH2 0xAD5 JUMPI ORIGIN PUSH1 0x40 MLOAD PUSH32 0xF51ED71000000000000000000000000000000000000000000000000000000000 DUP2 MSTORE PUSH1 0x4 ADD PUSH2 0xACC SWAP2 SWAP1 PUSH2 0x4058 JUMP JUMPDEST PUSH1 0x40 MLOAD DUP1 SWAP2 SUB SWAP1 REVERT JUMPDEST PUSH2 0xAE6 DUP11 DUP11 DUP11 DUP11 DUP11 DUP11 DUP11 DUP11 DUP11 PUSH2 0x1D64 JUMP JUMPDEST SWAP1 POP SWAP10 SWAP9 POP POP POP POP POP POP POP POP POP JUMP JUMPDEST PUSH1 0x0 PUSH2 0xAFF PUSH2 0x185D JUMP JUMPDEST ISZERO PUSH2 0xB3F JUMPI PUSH1 0x40 MLOAD PUSH32 0x8C379A000000000000000000000000000000000000000000000000000000000 DUP2 MSTORE PUSH1 0x4 ADD PUSH2 0xB36 SWAP1 PUSH2 0x4029 JUMP JUMPDEST PUSH1 0x40 MLOAD DUP1 SWAP2 SUB SWAP1 REVERT JUMPDEST PUSH1 0x66 PUSH1 0x14 SWAP1 SLOAD SWAP1 PUSH2 0x100 EXP SWAP1 DIV PUSH1 0xFF AND DUP1 ISZERO PUSH2 0xBA5 JUMPI POP PUSH1 0x67 PUSH1 0x0 ORIGIN PUSH20 0xFFFFFFFFFFFFFFFFFFFFFFFFFFFFFFFFFFFFFFFF AND PUSH20 0xFFFFFFFFFFFFFFFFFFFFFFFFFFFFFFFFFFFFFFFF AND DUP2 MSTORE PUSH1 0x20 ADD SWAP1 DUP2 MSTORE PUSH1 0x20 ADD PUSH1 0x0 KECCAK256 PUSH1 0x0 SWAP1 SLOAD SWAP1 PUSH2 0x100 EXP SWAP1 DIV PUSH1 0xFF AND ISZERO JUMPDEST ISZERO PUSH2 0xBE7 JUMPI ORIGIN PUSH1 0x40 MLOAD PUSH32 0xF51ED71000000000000000000000000000000000000000000000000000000000 DUP2 MSTORE PUSH1 0x4 ADD PUSH2 0xBDE SWAP2 SWAP1 PUSH2 0x4058 JUMP JUMPDEST PUSH1 0x40 MLOAD DUP1 SWAP2 SUB SWAP1 REVERT JUMPDEST PUSH20 0x1A9C8182C09F50C8318D769245BEA52C32BE35BC PUSH20 0xFFFFFFFFFFFFFFFFFFFFFFFFFFFFFFFFFFFFFFFF AND CALLER PUSH20 0xFFFFFFFFFFFFFFFFFFFFFFFFFFFFFFFFFFFFFFFF AND EQ PUSH2 0xC69 JUMPI PUSH1 0x40 MLOAD PUSH32 0x8C379A000000000000000000000000000000000000000000000000000000000 DUP2 MSTORE PUSH1 0x4 ADD PUSH2 0xC60 SWAP1 PUSH2 0x41E1 JUMP JUMPDEST PUSH1 0x40 MLOAD DUP1 SWAP2 SUB SWAP1 REVERT JUMPDEST PUSH20 0x1F98431C8AD98523631AE4A59F267346EA31F984 PUSH20 0xFFFFFFFFFFFFFFFFFFFFFFFFFFFFFFFFFFFFFFFF AND DUP11 PUSH20 0xFFFFFFFFFFFFFFFFFFFFFFFFFFFFFFFFFFFFFFFF AND EQ PUSH2 0xCEB JUMPI PUSH1 0x40 MLOAD PUSH32 0x8C379A000000000000000000000000000000000000000000000000000000000 DUP2 MSTORE PUSH1 0x4 ADD PUSH2 0xCE2 SWAP1 PUSH2 0x424D JUMP JUMPDEST PUSH1 0x40 MLOAD DUP1 SWAP2 SUB SWAP1 REVERT JUMPDEST DUP4 DUP6 PUSH2 0xCF7 SWAP2 SWAP1 PUSH2 0x429C JUMP JUMPDEST DUP10 DUP10 PUSH2 0xD03 SWAP2 SWAP1 PUSH2 0x42F6 JUMP JUMPDEST PUSH2 0xD0D SWAP2 SWAP1 PUSH2 0x42F6 JUMP JUMPDEST CALLVALUE LT ISZERO PUSH2 0xD74 JUMPI DUP4 DUP6 PUSH2 0xD20 SWAP2 SWAP1 PUSH2 0x429C JUMP JUMPDEST DUP10 DUP10 PUSH2 0xD2C SWAP2 SWAP1 PUSH2 0x42F6 JUMP JUMPDEST PUSH2 0xD36 SWAP2 SWAP1 PUSH2 0x42F6 JUMP JUMPDEST CALLVALUE PUSH1 0x40 MLOAD PUSH32 0x7040B58C00000000000000000000000000000000000000000000000000000000 DUP2 MSTORE PUSH1 0x4 ADD PUSH2 0xD6B SWAP3 SWAP2 SWAP1 PUSH2 0x434C JUMP JUMPDEST PUSH1 0x40 MLOAD DUP1 SWAP2 SUB SWAP1 REVERT JUMPDEST PUSH2 0xD7D DUP8 PUSH2 0x320F JUMP JUMPDEST ISZERO PUSH2 0xD8E JUMPI PUSH2 0xD8B DUP8 PUSH2 0x3232 JUMP JUMPDEST SWAP7 POP JUMPDEST PUSH2 0xD97 DUP7 PUSH2 0x320F JUMP JUMPDEST ISZERO PUSH2 0xDA8 JUMPI PUSH2 0xDA5 DUP7 PUSH2 0x3232 JUMP JUMPDEST SWAP6 POP JUMPDEST PUSH1 0x1 DUP6 EQ DUP1 PUSH2 0xDB7 JUMPI POP PUSH1 0x1 DUP5 EQ JUMPDEST ISZERO PUSH2 0xE0D JUMPI CALLER DUP11 DUP11 CALLVALUE DUP12 DUP12 DUP12 DUP12 DUP12 DUP12 DUP12 PUSH1 0x40 MLOAD PUSH32 0x7C266E300000000000000000000000000000000000000000000000000000000 DUP2 MSTORE PUSH1 0x4 ADD PUSH2 0xE04 SWAP12 SWAP11 SWAP10 SWAP9 SWAP8 SWAP7 SWAP6 SWAP5 SWAP4 SWAP3 SWAP2 SWAP1 PUSH2 0x43B3 JUMP JUMPDEST PUSH1 0x40 MLOAD DUP1 SWAP2 SUB SWAP1 REVERT JUMPDEST PUSH1 0x0 PUSH2 0xE1C DUP5 DUP5 SWAP1 POP BASEFEE PUSH2 0x25B8 JUMP JUMPDEST SWAP1 POP DUP1 DUP10 LT ISZERO PUSH2 0xE65 JUMPI DUP1 DUP10 PUSH1 0x40 MLOAD PUSH32 0xFADF238A00000000000000000000000000000000000000000000000000000000 DUP2 MSTORE PUSH1 0x4 ADD PUSH2 0xE5C SWAP3 SWAP2 SWAP1 PUSH2 0x434C JUMP JUMPDEST PUSH1 0x40 MLOAD DUP1 SWAP2 SUB SWAP1 REVERT JUMPDEST PUSH2 0xEF1 PUSH1 0x9 PUSH2 0xE73 CALLER PUSH2 0x3145 JUMP JUMPDEST DUP14 PUSH20 0xFFFFFFFFFFFFFFFFFFFFFFFFFFFFFFFFFFFFFFFF AND DUP14 CALLVALUE DUP15 DUP15 PUSH20 0xFFFFFFFFFFFFFFFFFFFFFFFFFFFFFFFFFFFFFFFF AND DUP15 PUSH20 0xFFFFFFFFFFFFFFFFFFFFFFFFFFFFFFFFFFFFFFFF AND DUP15 DUP15 DUP15 DUP15 SWAP1 POP DUP16 DUP16 PUSH1 0x40 MLOAD PUSH1 0x20 ADD PUSH2 0xEDD SWAP12 SWAP11 SWAP10 SWAP9 SWAP8 SWAP7 SWAP6 SWAP5 SWAP4 SWAP3 SWAP2 SWAP1 PUSH2 0x4458 JUMP JUMPDEST PUSH1 0x40 MLOAD PUSH1 0x20 DUP2 DUP4 SUB SUB DUP2 MSTORE SWAP1 PUSH1 0x40 MSTORE PUSH2 0x3165 JUMP JUMPDEST SWAP2 POP POP SWAP10 SWAP9 POP POP POP POP POP POP POP POP POP JUMP JUMPDEST PUSH1 0x0 PUSH2 0xF0B PUSH2 0x185D JUMP JUMPDEST ISZERO PUSH2 0xF4B JUMPI PUSH1 0x40 MLOAD PUSH32 0x8C379A000000000000000000000000000000000000000000000000000000000 DUP2 MSTORE PUSH1 0x4 ADD PUSH2 0xF42 SWAP1 PUSH2 0x4029 JUMP JUMPDEST PUSH1 0x40 MLOAD DUP1 SWAP2 SUB SWAP1 REVERT JUMPDEST PUSH1 0x66 PUSH1 0x14 SWAP1 SLOAD SWAP1 PUSH2 0x100 EXP SWAP1 DIV PUSH1 0xFF AND DUP1 ISZERO PUSH2 0xFB1 JUMPI POP PUSH1 0x67 PUSH1 0x0 ORIGIN PUSH20 0xFFFFFFFFFFFFFFFFFFFFFFFFFFFFFFFFFFFFFFFF AND PUSH20 0xFFFFFFFFFFFFFFFFFFFFFFFFFFFFFFFFFFFFFFFF AND DUP2 MSTORE PUSH1 0x20 ADD SWAP1 DUP2 MSTORE PUSH1 0x20 ADD PUSH1 0x0 KECCAK256 PUSH1 0x0 SWAP1 SLOAD SWAP1 PUSH2 0x100 EXP SWAP1 DIV PUSH1 0xFF AND ISZERO JUMPDEST ISZERO PUSH2 0xFF3 JUMPI ORIGIN PUSH1 0x40 MLOAD PUSH32 0xF51ED71000000000000000000000000000000000000000000000000000000000 DUP2 MSTORE PUSH1 0x4 ADD PUSH2 0xFEA SWAP2 SWAP1 PUSH2 0x4058 JUMP JUMPDEST PUSH1 0x40 MLOAD DUP1 SWAP2 SUB SWAP1 REVERT JUMPDEST PUSH2 0xFFB PUSH2 0x311A JUMP JUMPDEST ISZERO PUSH2 0x1032 JUMPI PUSH1 0x40 MLOAD PUSH32 0xC6EA680300000000000000000000000000000000000000000000000000000000 DUP2 MSTORE PUSH1 0x4 ADD PUSH1 0x40 MLOAD DUP1 SWAP2 SUB SWAP1 REVERT JUMPDEST ORIGIN PUSH20 0xFFFFFFFFFFFFFFFFFFFFFFFFFFFFFFFFFFFFFFFF AND CALLER PUSH20 0xFFFFFFFFFFFFFFFFFFFFFFFFFFFFFFFFFFFFFFFF AND EQ PUSH2 0x1097 JUMPI PUSH1 0x40 MLOAD PUSH32 0xFEB3D07100000000000000000000000000000000000000000000000000000000 DUP2 MSTORE PUSH1 0x4 ADD PUSH1 0x40 MLOAD DUP1 SWAP2 SUB SWAP1 REVERT JUMPDEST PUSH3 0x1CCCC DUP4 DUP4 SWAP1 POP GT ISZERO PUSH2 0x10EA JUMPI DUP3 DUP3 SWAP1 POP PUSH3 0x1CCCC PUSH1 0x40 MLOAD PUSH32 0x4634691B00000000000000000000000000000000000000000000000000000000 DUP2 MSTORE PUSH1 0x4 ADD PUSH2 0x10E1 SWAP3 SWAP2 SWAP1 PUSH2 0x434C JUMP JUMPDEST PUSH1 0x40 MLOAD DUP1 SWAP2 SUB SWAP1 REVERT JUMPDEST PUSH1 0x0 PUSH2 0x110F PUSH1 0x3 CALLER DUP7 DUP7 PUSH1 0x40 MLOAD PUSH2 0x1102 SWAP3 SWAP2 SWAP1 PUSH2 0x450A JUMP JUMPDEST PUSH1 0x40 MLOAD DUP1 SWAP2 SUB SWAP1 KECCAK256 PUSH2 0x3252 JUMP JUMPDEST SWAP1 POP DUP1 PUSH32 0xAB532385BE8F1005A4B6BA8FA20A2245FACB346134AC739FE9A5198DC1580B9C PUSH1 0x40 MLOAD PUSH1 0x40 MLOAD DUP1 SWAP2 SUB SWAP1 LOG2 DUP1 SWAP2 POP POP SWAP3 SWAP2 POP POP JUMP JUMPDEST PUSH1 0x66 PUSH1 0x14 SWAP1 SLOAD SWAP1 PUSH2 0x100 EXP SWAP1 DIV PUSH1 0xFF AND DUP2 JUMP JUMPDEST PUSH1 0x0 PUSH1 0x65 PUSH1 0x0 SWAP1 SLOAD SWAP1 PUSH2 0x100 EXP SWAP1 DIV PUSH20 0xFFFFFFFFFFFFFFFFFFFFFFFFFFFFFFFFFFFFFFFF AND PUSH20 0xFFFFFFFFFFFFFFFFFFFFFFFFFFFFFFFFFFFFFFFF AND PUSH4 0xCB23BCB5 PUSH1 0x40 MLOAD DUP2 PUSH4 0xFFFFFFFF AND PUSH1 0xE0 SHL DUP2 MSTORE PUSH1 0x4 ADD PUSH1 0x20 PUSH1 0x40 MLOAD DUP1 DUP4 SUB DUP2 DUP7 DUP1 EXTCODESIZE ISZERO DUP1 ISZERO PUSH2 0x11C5 JUMPI PUSH1 0x0 DUP1 REVERT JUMPDEST POP GAS STATICCALL ISZERO DUP1 ISZERO PUSH2 0x11D9 JUMPI RETURNDATASIZE PUSH1 0x0 DUP1 RETURNDATACOPY RETURNDATASIZE PUSH1 0x0 REVERT JUMPDEST POP POP POP POP PUSH1 0x40 MLOAD RETURNDATASIZE PUSH1 0x1F NOT PUSH1 0x1F DUP3 ADD AND DUP3 ADD DUP1 PUSH1 0x40 MSTORE POP DUP2 ADD SWAP1 PUSH2 0x11FD SWAP2 SWAP1 PUSH2 0x4561 JUMP JUMPDEST SWAP1 POP DUP1 PUSH20 0xFFFFFFFFFFFFFFFFFFFFFFFFFFFFFFFFFFFFFFFF AND CALLER PUSH20 0xFFFFFFFFFFFFFFFFFFFFFFFFFFFFFFFFFFFFFFFF AND EQ PUSH2 0x132A JUMPI PUSH1 0x0 DUP2 PUSH20 0xFFFFFFFFFFFFFFFFFFFFFFFFFFFFFFFFFFFFFFFF AND PUSH4 0x8DA5CB5B PUSH1 0x40 MLOAD DUP2 PUSH4 0xFFFFFFFF AND PUSH1 0xE0 SHL DUP2 MSTORE PUSH1 0x4 ADD PUSH1 0x20 PUSH1 0x40 MLOAD DUP1 DUP4 SUB DUP2 DUP7 DUP1 EXTCODESIZE ISZERO DUP1 ISZERO PUSH2 0x127A JUMPI PUSH1 0x0 DUP1 REVERT JUMPDEST POP GAS STATICCALL ISZERO DUP1 ISZERO PUSH2 0x128E JUMPI RETURNDATASIZE PUSH1 0x0 DUP1 RETURNDATACOPY RETURNDATASIZE PUSH1 0x0 REVERT JUMPDEST POP POP POP POP PUSH1 0x40 MLOAD RETURNDATASIZE PUSH1 0x1F NOT PUSH1 0x1F DUP3 ADD AND DUP3 ADD DUP1 PUSH1 0x40 MSTORE POP DUP2 ADD SWAP1 PUSH2 0x12B2 SWAP2 SWAP1 PUSH2 0x45A3 JUMP JUMPDEST SWAP1 POP DUP1 PUSH20 0xFFFFFFFFFFFFFFFFFFFFFFFFFFFFFFFFFFFFFFFF AND CALLER PUSH20 0xFFFFFFFFFFFFFFFFFFFFFFFFFFFFFFFFFFFFFFFF AND EQ PUSH2 0x1328 JUMPI CALLER DUP3 DUP3 PUSH1 0x40 MLOAD PUSH32 0x739600700000000000000000000000000000000000000000000000000000000 DUP2 MSTORE PUSH1 0x4 ADD PUSH2 0x131F SWAP4 SWAP3 SWAP2 SWAP1 PUSH2 0x45D0 JUMP JUMPDEST PUSH1 0x40 MLOAD DUP1 SWAP2 SUB SWAP1 REVERT JUMPDEST POP JUMPDEST PUSH2 0x1332 PUSH2 0x3317 JUMP JUMPDEST POP JUMP JUMPDEST PUSH1 0x0 PUSH2 0x133F PUSH2 0x185D JUMP JUMPDEST ISZERO PUSH2 0x137F JUMPI PUSH1 0x40 MLOAD PUSH32 0x8C379A000000000000000000000000000000000000000000000000000000000 DUP2 MSTORE PUSH1 0x4 ADD PUSH2 0x1376 SWAP1 PUSH2 0x4029 JUMP JUMPDEST PUSH1 0x40 MLOAD DUP1 SWAP2 SUB SWAP1 REVERT JUMPDEST PUSH1 0x66 PUSH1 0x14 SWAP1 SLOAD SWAP1 PUSH2 0x100 EXP SWAP1 DIV PUSH1 0xFF AND DUP1 ISZERO PUSH2 0x13E5 JUMPI POP PUSH1 0x67 PUSH1 0x0 ORIGIN PUSH20 0xFFFFFFFFFFFFFFFFFFFFFFFFFFFFFFFFFFFFFFFF AND PUSH20 0xFFFFFFFFFFFFFFFFFFFFFFFFFFFFFFFFFFFFFFFF AND DUP2 MSTORE PUSH1 0x20 ADD SWAP1 DUP2 MSTORE PUSH1 0x20 ADD PUSH1 0x0 KECCAK256 PUSH1 0x0 SWAP1 SLOAD SWAP1 PUSH2 0x100 EXP SWAP1 DIV PUSH1 0xFF AND ISZERO JUMPDEST ISZERO PUSH2 0x1427 JUMPI ORIGIN PUSH1 0x40 MLOAD PUSH32 0xF51ED71000000000000000000000000000000000000000000000000000000000 DUP2 MSTORE PUSH1 0x4 ADD PUSH2 0x141E SWAP2 SWAP1 PUSH2 0x4058 JUMP JUMPDEST PUSH1 0x40 MLOAD DUP1 SWAP2 SUB SWAP1 REVERT JUMPDEST PUSH1 0x0 CALLER SWAP1 POP PUSH2 0x1435 CALLER PUSH2 0x320F JUMP JUMPDEST DUP1 PUSH2 0x146C JUMPI POP CALLER PUSH20 0xFFFFFFFFFFFFFFFFFFFFFFFFFFFFFFFFFFFFFFFF AND ORIGIN PUSH20 0xFFFFFFFFFFFFFFFFFFFFFFFFFFFFFFFFFFFFFFFF AND EQ ISZERO JUMPDEST ISZERO PUSH2 0x147D JUMPI PUSH2 0x147A CALLER PUSH2 0x3232 JUMP JUMPDEST SWAP1 POP JUMPDEST PUSH2 0x14AA PUSH1 0xC CALLER DUP4 CALLVALUE PUSH1 0x40 MLOAD PUSH1 0x20 ADD PUSH2 0x1496 SWAP3 SWAP2 SWAP1 PUSH2 0x464F JUMP JUMPDEST PUSH1 0x40 MLOAD PUSH1 0x20 DUP2 DUP4 SUB SUB DUP2 MSTORE SWAP1 PUSH1 0x40 MSTORE PUSH2 0x3165 JUMP JUMPDEST SWAP2 POP POP SWAP1 JUMP JUMPDEST PUSH1 0x0 PUSH1 0x1 SWAP1 SLOAD SWAP1 PUSH2 0x100 EXP SWAP1 DIV PUSH1 0xFF AND PUSH2 0x14D8 JUMPI PUSH1 0x0 DUP1 SLOAD SWAP1 PUSH2 0x100 EXP SWAP1 DIV PUSH1 0xFF AND ISZERO PUSH2 0x14E1 JUMP JUMPDEST PUSH2 0x14E0 PUSH2 0x33B9 JUMP JUMPDEST JUMPDEST PUSH2 0x1520 JUMPI PUSH1 0x40 MLOAD PUSH32 0x8C379A000000000000000000000000000000000000000000000000000000000 DUP2 MSTORE PUSH1 0x4 ADD PUSH2 0x1517 SWAP1 PUSH2 0x46ED JUMP JUMPDEST PUSH1 0x40 MLOAD DUP1 SWAP2 SUB SWAP1 REVERT JUMPDEST PUSH1 0x0 DUP1 PUSH1 0x1 SWAP1 SLOAD SWAP1 PUSH2 0x100 EXP SWAP1 DIV PUSH1 0xFF AND ISZERO SWAP1 POP DUP1 ISZERO PUSH2 0x1570 JUMPI PUSH1 0x1 PUSH1 0x0 PUSH1 0x1 PUSH2 0x100 EXP DUP2 SLOAD DUP2 PUSH1 0xFF MUL NOT AND SWAP1 DUP4 ISZERO ISZERO MUL OR SWAP1 SSTORE POP PUSH1 0x1 PUSH1 0x0 DUP1 PUSH2 0x100 EXP DUP2 SLOAD DUP2 PUSH1 0xFF MUL NOT AND SWAP1 DUP4 ISZERO ISZERO MUL OR SWAP1 SSTORE POP JUMPDEST PUSH32 0x0 PUSH20 0xFFFFFFFFFFFFFFFFFFFFFFFFFFFFFFFFFFFFFFFF AND ADDRESS PUSH20 0xFFFFFFFFFFFFFFFFFFFFFFFFFFFFFFFFFFFFFFFF AND EQ ISZERO PUSH2 0x15FF JUMPI PUSH1 0x40 MLOAD PUSH32 0x8C379A000000000000000000000000000000000000000000000000000000000 DUP2 MSTORE PUSH1 0x4 ADD PUSH2 0x15F6 SWAP1 PUSH2 0x477F JUMP JUMPDEST PUSH1 0x40 MLOAD DUP1 SWAP2 SUB SWAP1 REVERT JUMPDEST DUP3 PUSH1 0x65 PUSH1 0x0 PUSH2 0x100 EXP DUP2 SLOAD DUP2 PUSH20 0xFFFFFFFFFFFFFFFFFFFFFFFFFFFFFFFFFFFFFFFF MUL NOT AND SWAP1 DUP4 PUSH20 0xFFFFFFFFFFFFFFFFFFFFFFFFFFFFFFFFFFFFFFFF AND MUL OR SWAP1 SSTORE POP DUP2 PUSH1 0x66 PUSH1 0x0 PUSH2 0x100 EXP DUP2 SLOAD DUP2 PUSH20 0xFFFFFFFFFFFFFFFFFFFFFFFFFFFFFFFFFFFFFFFF MUL NOT AND SWAP1 DUP4 PUSH20 0xFFFFFFFFFFFFFFFFFFFFFFFFFFFFFFFFFFFFFFFF AND MUL OR SWAP1 SSTORE POP PUSH1 0x0 PUSH1 0x66 PUSH1 0x14 PUSH2 0x100 EXP DUP2 SLOAD DUP2 PUSH1 0xFF MUL NOT AND SWAP1 DUP4 ISZERO ISZERO MUL OR SWAP1 SSTORE POP PUSH2 0x16A4 PUSH2 0x33CA JUMP JUMPDEST DUP1 ISZERO PUSH2 0x16C5 JUMPI PUSH1 0x0 DUP1 PUSH1 0x1 PUSH2 0x100 EXP DUP2 SLOAD DUP2 PUSH1 0xFF MUL NOT AND SWAP1 DUP4 ISZERO ISZERO MUL OR SWAP1 SSTORE POP JUMPDEST POP POP POP JUMP JUMPDEST PUSH1 0x0 PUSH2 0x16D4 PUSH2 0x185D JUMP JUMPDEST ISZERO PUSH2 0x1714 JUMPI PUSH1 0x40 MLOAD PUSH32 0x8C379A000000000000000000000000000000000000000000000000000000000 DUP2 MSTORE PUSH1 0x4 ADD PUSH2 0x170B SWAP1 PUSH2 0x4029 JUMP JUMPDEST PUSH1 0x40 MLOAD DUP1 SWAP2 SUB SWAP1 REVERT JUMPDEST PUSH1 0x66 PUSH1 0x14 SWAP1 SLOAD SWAP1 PUSH2 0x100 EXP SWAP1 DIV PUSH1 0xFF AND DUP1 ISZERO PUSH2 0x177A JUMPI POP PUSH1 0x67 PUSH1 0x0 ORIGIN PUSH20 0xFFFFFFFFFFFFFFFFFFFFFFFFFFFFFFFFFFFFFFFF AND PUSH20 0xFFFFFFFFFFFFFFFFFFFFFFFFFFFFFFFFFFFFFFFF AND DUP2 MSTORE PUSH1 0x20 ADD SWAP1 DUP2 MSTORE PUSH1 0x20 ADD PUSH1 0x0 KECCAK256 PUSH1 0x0 SWAP1 SLOAD SWAP1 PUSH2 0x100 EXP SWAP1 DIV PUSH1 0xFF AND ISZERO JUMPDEST ISZERO PUSH2 0x17BC JUMPI ORIGIN PUSH1 0x40 MLOAD PUSH32 0xF51ED71000000000000000000000000000000000000000000000000000000000 DUP2 MSTORE PUSH1 0x4 ADD PUSH2 0x17B3 SWAP2 SWAP1 PUSH2 0x4058 JUMP JUMPDEST PUSH1 0x40 MLOAD DUP1 SWAP2 SUB SWAP1 REVERT JUMPDEST PUSH8 0xFFFFFFFFFFFFFFFF DUP1 AND DUP9 GT ISZERO PUSH2 0x1800 JUMPI PUSH1 0x40 MLOAD PUSH32 0x107C527B00000000000000000000000000000000000000000000000000000000 DUP2 MSTORE PUSH1 0x4 ADD PUSH1 0x40 MLOAD DUP1 SWAP2 SUB SWAP1 REVERT JUMPDEST PUSH2 0x1850 PUSH1 0x3 CALLER PUSH1 0x0 DUP12 DUP12 DUP12 DUP12 PUSH20 0xFFFFFFFFFFFFFFFFFFFFFFFFFFFFFFFFFFFFFFFF AND DUP12 DUP12 DUP12 PUSH1 0x40 MLOAD PUSH1 0x20 ADD PUSH2 0x183C SWAP9 SWAP8 SWAP7 SWAP6 SWAP5 SWAP4 SWAP3 SWAP2 SWAP1 PUSH2 0x4116 JUMP JUMPDEST PUSH1 0x40 MLOAD PUSH1 0x20 DUP2 DUP4 SUB SUB DUP2 MSTORE SWAP1 PUSH1 0x40 MSTORE PUSH2 0x3165 JUMP JUMPDEST SWAP1 POP SWAP8 SWAP7 POP POP POP POP POP POP POP JUMP JUMPDEST PUSH1 0x0 PUSH1 0x33 PUSH1 0x0 SWAP1 SLOAD SWAP1 PUSH2 0x100 EXP SWAP1 DIV PUSH1 0xFF AND SWAP1 POP SWAP1 JUMP JUMPDEST PUSH1 0x0 PUSH2 0x187E PUSH2 0x185D JUMP JUMPDEST ISZERO PUSH2 0x18BE JUMPI PUSH1 0x40 MLOAD PUSH32 0x8C379A000000000000000000000000000000000000000000000000000000000 DUP2 MSTORE PUSH1 0x4 ADD PUSH2 0x18B5 SWAP1 PUSH2 0x4029 JUMP JUMPDEST PUSH1 0x40 MLOAD DUP1 SWAP2 SUB SWAP1 REVERT JUMPDEST PUSH1 0x66 PUSH1 0x14 SWAP1 SLOAD SWAP1 PUSH2 0x100 EXP SWAP1 DIV PUSH1 0xFF AND DUP1 ISZERO PUSH2 0x1924 JUMPI POP PUSH1 0x67 PUSH1 0x0 ORIGIN PUSH20 0xFFFFFFFFFFFFFFFFFFFFFFFFFFFFFFFFFFFFFFFF AND PUSH20 0xFFFFFFFFFFFFFFFFFFFFFFFFFFFFFFFFFFFFFFFF AND DUP2 MSTORE PUSH1 0x20 ADD SWAP1 DUP2 MSTORE PUSH1 0x20 ADD PUSH1 0x0 KECCAK256 PUSH1 0x0 SWAP1 SLOAD SWAP1 PUSH2 0x100 EXP SWAP1 DIV PUSH1 0xFF AND ISZERO JUMPDEST ISZERO PUSH2 0x1966 JUMPI ORIGIN PUSH1 0x40 MLOAD PUSH32 0xF51ED71000000000000000000000000000000000000000000000000000000000 DUP2 MSTORE PUSH1 0x4 ADD PUSH2 0x195D SWAP2 SWAP1 PUSH2 0x4058 JUMP JUMPDEST PUSH1 0x40 MLOAD DUP1 SWAP2 SUB SWAP1 REVERT JUMPDEST PUSH8 0xFFFFFFFFFFFFFFFF DUP1 AND DUP7 GT ISZERO PUSH2 0x19AA JUMPI PUSH1 0x40 MLOAD PUSH32 0x107C527B00000000000000000000000000000000000000000000000000000000 DUP2 MSTORE PUSH1 0x4 ADD PUSH1 0x40 MLOAD DUP1 SWAP2 SUB SWAP1 REVERT JUMPDEST PUSH2 0x19F8 PUSH1 0x7 CALLER PUSH1 0x1 DUP10 DUP10 DUP10 PUSH20 0xFFFFFFFFFFFFFFFFFFFFFFFFFFFFFFFFFFFFFFFF AND CALLVALUE DUP11 DUP11 PUSH1 0x40 MLOAD PUSH1 0x20 ADD PUSH2 0x19E4 SWAP8 SWAP7 SWAP6 SWAP5 SWAP4 SWAP3 SWAP2 SWAP1 PUSH2 0x479F JUMP JUMPDEST PUSH1 0x40 MLOAD PUSH1 0x20 DUP2 DUP4 SUB SUB DUP2 MSTORE SWAP1 PUSH1 0x40 MSTORE PUSH2 0x3165 JUMP JUMPDEST SWAP1 POP SWAP6 SWAP5 POP POP POP POP POP JUMP JUMPDEST PUSH1 0x0 PUSH2 0x1A0D PUSH2 0x185D JUMP JUMPDEST ISZERO PUSH2 0x1A4D JUMPI PUSH1 0x40 MLOAD PUSH32 0x8C379A000000000000000000000000000000000000000000000000000000000 DUP2 MSTORE PUSH1 0x4 ADD PUSH2 0x1A44 SWAP1 PUSH2 0x4029 JUMP JUMPDEST PUSH1 0x40 MLOAD DUP1 SWAP2 SUB SWAP1 REVERT JUMPDEST PUSH1 0x66 PUSH1 0x14 SWAP1 SLOAD SWAP1 PUSH2 0x100 EXP SWAP1 DIV PUSH1 0xFF AND DUP1 ISZERO PUSH2 0x1AB3 JUMPI POP PUSH1 0x67 PUSH1 0x0 ORIGIN PUSH20 0xFFFFFFFFFFFFFFFFFFFFFFFFFFFFFFFFFFFFFFFF AND PUSH20 0xFFFFFFFFFFFFFFFFFFFFFFFFFFFFFFFFFFFFFFFF AND DUP2 MSTORE PUSH1 0x20 ADD SWAP1 DUP2 MSTORE PUSH1 0x20 ADD PUSH1 0x0 KECCAK256 PUSH1 0x0 SWAP1 SLOAD SWAP1 PUSH2 0x100 EXP SWAP1 DIV PUSH1 0xFF AND ISZERO JUMPDEST ISZERO PUSH2 0x1AF5 JUMPI ORIGIN PUSH1 0x40 MLOAD PUSH32 0xF51ED71000000000000000000000000000000000000000000000000000000000 DUP2 MSTORE PUSH1 0x4 ADD PUSH2 0x1AEC SWAP2 SWAP1 PUSH2 0x4058 JUMP JUMPDEST PUSH1 0x40 MLOAD DUP1 SWAP2 SUB SWAP1 REVERT JUMPDEST DUP4 DUP6 PUSH2 0x1B01 SWAP2 SWAP1 PUSH2 0x429C JUMP JUMPDEST DUP10 DUP10 PUSH2 0x1B0D SWAP2 SWAP1 PUSH2 0x42F6 JUMP JUMPDEST PUSH2 0x1B17 SWAP2 SWAP1 PUSH2 0x42F6 JUMP JUMPDEST CALLVALUE LT ISZERO PUSH2 0x1B7E JUMPI DUP4 DUP6 PUSH2 0x1B2A SWAP2 SWAP1 PUSH2 0x429C JUMP JUMPDEST DUP10 DUP10 PUSH2 0x1B36 SWAP2 SWAP1 PUSH2 0x42F6 JUMP JUMPDEST PUSH2 0x1B40 SWAP2 SWAP1 PUSH2 0x42F6 JUMP JUMPDEST CALLVALUE PUSH1 0x40 MLOAD PUSH32 0x7040B58C00000000000000000000000000000000000000000000000000000000 DUP2 MSTORE PUSH1 0x4 ADD PUSH2 0x1B75 SWAP3 SWAP2 SWAP1 PUSH2 0x434C JUMP JUMPDEST PUSH1 0x40 MLOAD DUP1 SWAP2 SUB SWAP1 REVERT JUMPDEST PUSH2 0x1B87 DUP8 PUSH2 0x320F JUMP JUMPDEST ISZERO PUSH2 0x1B98 JUMPI PUSH2 0x1B95 DUP8 PUSH2 0x3232 JUMP JUMPDEST SWAP7 POP JUMPDEST PUSH2 0x1BA1 DUP7 PUSH2 0x320F JUMP JUMPDEST ISZERO PUSH2 0x1BB2 JUMPI PUSH2 0x1BAF DUP7 PUSH2 0x3232 JUMP JUMPDEST SWAP6 POP JUMPDEST PUSH2 0x1BC3 DUP11 DUP11 DUP11 DUP11 DUP11 DUP11 DUP11 DUP11 DUP11 PUSH2 0x1D64 JUMP JUMPDEST SWAP1 POP SWAP10 SWAP9 POP POP POP POP POP POP POP POP POP JUMP JUMPDEST PUSH1 0x0 PUSH2 0x1BDC PUSH2 0x185D JUMP JUMPDEST ISZERO PUSH2 0x1C1C JUMPI PUSH1 0x40 MLOAD PUSH32 0x8C379A000000000000000000000000000000000000000000000000000000000 DUP2 MSTORE PUSH1 0x4 ADD PUSH2 0x1C13 SWAP1 PUSH2 0x4029 JUMP JUMPDEST PUSH1 0x40 MLOAD DUP1 SWAP2 SUB SWAP1 REVERT JUMPDEST PUSH1 0x66 PUSH1 0x14 SWAP1 SLOAD SWAP1 PUSH2 0x100 EXP SWAP1 DIV PUSH1 0xFF AND DUP1 ISZERO PUSH2 0x1C82 JUMPI POP PUSH1 0x67 PUSH1 0x0 ORIGIN PUSH20 0xFFFFFFFFFFFFFFFFFFFFFFFFFFFFFFFFFFFFFFFF AND PUSH20 0xFFFFFFFFFFFFFFFFFFFFFFFFFFFFFFFFFFFFFFFF AND DUP2 MSTORE PUSH1 0x20 ADD SWAP1 DUP2 MSTORE PUSH1 0x20 ADD PUSH1 0x0 KECCAK256 PUSH1 0x0 SWAP1 SLOAD SWAP1 PUSH2 0x100 EXP SWAP1 DIV PUSH1 0xFF AND ISZERO JUMPDEST ISZERO PUSH2 0x1CC4 JUMPI ORIGIN PUSH1 0x40 MLOAD PUSH32 0xF51ED71000000000000000000000000000000000000000000000000000000000 DUP2 MSTORE PUSH1 0x4 ADD PUSH2 0x1CBB SWAP2 SWAP1 PUSH2 0x4058 JUMP JUMPDEST PUSH1 0x40 MLOAD DUP1 SWAP2 SUB SWAP1 REVERT JUMPDEST PUSH8 0xFFFFFFFFFFFFFFFF DUP1 AND DUP8 GT ISZERO PUSH2 0x1D08 JUMPI PUSH1 0x40 MLOAD PUSH32 0x107C527B00000000000000000000000000000000000000000000000000000000 DUP2 MSTORE PUSH1 0x4 ADD PUSH1 0x40 MLOAD DUP1 SWAP2 SUB SWAP1 REVERT JUMPDEST PUSH2 0x1D58 PUSH1 0x7 CALLER PUSH1 0x0 DUP11 DUP11 DUP11 DUP11 PUSH20 0xFFFFFFFFFFFFFFFFFFFFFFFFFFFFFFFFFFFFFFFF AND CALLVALUE DUP12 DUP12 PUSH1 0x40 MLOAD PUSH1 0x20 ADD PUSH2 0x1D44 SWAP9 SWAP8 SWAP7 SWAP6 SWAP5 SWAP4 SWAP3 SWAP2 SWAP1 PUSH2 0x4116 JUMP JUMPDEST PUSH1 0x40 MLOAD PUSH1 0x20 DUP2 DUP4 SUB SUB DUP2 MSTORE SWAP1 PUSH1 0x40 MSTORE PUSH2 0x3165 JUMP JUMPDEST SWAP1 POP SWAP7 SWAP6 POP POP POP POP POP POP JUMP JUMPDEST PUSH1 0x0 PUSH2 0x1D6E PUSH2 0x185D JUMP JUMPDEST ISZERO PUSH2 0x1DAE JUMPI PUSH1 0x40 MLOAD PUSH32 0x8C379A000000000000000000000000000000000000000000000000000000000 DUP2 MSTORE PUSH1 0x4 ADD PUSH2 0x1DA5 SWAP1 PUSH2 0x4029 JUMP JUMPDEST PUSH1 0x40 MLOAD DUP1 SWAP2 SUB SWAP1 REVERT JUMPDEST PUSH1 0x66 PUSH1 0x14 SWAP1 SLOAD SWAP1 PUSH2 0x100 EXP SWAP1 DIV PUSH1 0xFF AND DUP1 ISZERO PUSH2 0x1E14 JUMPI POP PUSH1 0x67 PUSH1 0x0 ORIGIN PUSH20 0xFFFFFFFFFFFFFFFFFFFFFFFFFFFFFFFFFFFFFFFF AND PUSH20 0xFFFFFFFFFFFFFFFFFFFFFFFFFFFFFFFFFFFFFFFF AND DUP2 MSTORE PUSH1 0x20 ADD SWAP1 DUP2 MSTORE PUSH1 0x20 ADD PUSH1 0x0 KECCAK256 PUSH1 0x0 SWAP1 SLOAD SWAP1 PUSH2 0x100 EXP SWAP1 DIV PUSH1 0xFF AND ISZERO JUMPDEST ISZERO PUSH2 0x1E56 JUMPI ORIGIN PUSH1 0x40 MLOAD PUSH32 0xF51ED71000000000000000000000000000000000000000000000000000000000 DUP2 MSTORE PUSH1 0x4 ADD PUSH2 0x1E4D SWAP2 SWAP1 PUSH2 0x4058 JUMP JUMPDEST PUSH1 0x40 MLOAD DUP1 SWAP2 SUB SWAP1 REVERT JUMPDEST PUSH1 0x1 DUP6 EQ DUP1 PUSH2 0x1E65 JUMPI POP PUSH1 0x1 DUP5 EQ JUMPDEST ISZERO PUSH2 0x1EBB JUMPI CALLER DUP11 DUP11 CALLVALUE DUP12 DUP12 DUP12 DUP12 DUP12 DUP12 DUP12 PUSH1 0x40 MLOAD PUSH32 0x7C266E300000000000000000000000000000000000000000000000000000000 DUP2 MSTORE PUSH1 0x4 ADD PUSH2 0x1EB2 SWAP12 SWAP11 SWAP10 SWAP9 SWAP8 SWAP7 SWAP6 SWAP5 SWAP4 SWAP3 SWAP2 SWAP1 PUSH2 0x43B3 JUMP JUMPDEST PUSH1 0x40 MLOAD DUP1 SWAP2 SUB SWAP1 REVERT JUMPDEST PUSH8 0xFFFFFFFFFFFFFFFF DUP1 AND DUP6 GT ISZERO PUSH2 0x1EFF JUMPI PUSH1 0x40 MLOAD PUSH32 0x107C527B00000000000000000000000000000000000000000000000000000000 DUP2 MSTORE PUSH1 0x4 ADD PUSH1 0x40 MLOAD DUP1 SWAP2 SUB SWAP1 REVERT JUMPDEST PUSH1 0x0 PUSH2 0x1F0E DUP5 DUP5 SWAP1 POP BASEFEE PUSH2 0x25B8 JUMP JUMPDEST SWAP1 POP DUP1 DUP10 LT ISZERO PUSH2 0x1F57 JUMPI DUP1 DUP10 PUSH1 0x40 MLOAD PUSH32 0xFADF238A00000000000000000000000000000000000000000000000000000000 DUP2 MSTORE PUSH1 0x4 ADD PUSH2 0x1F4E SWAP3 SWAP2 SWAP1 PUSH2 0x434C JUMP JUMPDEST PUSH1 0x40 MLOAD DUP1 SWAP2 SUB SWAP1 REVERT JUMPDEST PUSH2 0x1FDB PUSH1 0x9 CALLER DUP14 PUSH20 0xFFFFFFFFFFFFFFFFFFFFFFFFFFFFFFFFFFFFFFFF AND DUP14 CALLVALUE DUP15 DUP15 PUSH20 0xFFFFFFFFFFFFFFFFFFFFFFFFFFFFFFFFFFFFFFFF AND DUP15 PUSH20 0xFFFFFFFFFFFFFFFFFFFFFFFFFFFFFFFFFFFFFFFF AND DUP15 DUP15 DUP15 DUP15 SWAP1 POP DUP16 DUP16 PUSH1 0x40 MLOAD PUSH1 0x20 ADD PUSH2 0x1FC7 SWAP12 SWAP11 SWAP10 SWAP9 SWAP8 SWAP7 SWAP6 SWAP5 SWAP4 SWAP3 SWAP2 SWAP1 PUSH2 0x4458 JUMP JUMPDEST PUSH1 0x40 MLOAD PUSH1 0x20 DUP2 DUP4 SUB SUB DUP2 MSTORE SWAP1 PUSH1 0x40 MSTORE PUSH2 0x3165 JUMP JUMPDEST SWAP2 POP POP SWAP10 SWAP9 POP POP POP POP POP POP POP POP POP JUMP JUMPDEST PUSH1 0x0 PUSH2 0x1FF5 PUSH2 0x185D JUMP JUMPDEST ISZERO PUSH2 0x2035 JUMPI PUSH1 0x40 MLOAD PUSH32 0x8C379A000000000000000000000000000000000000000000000000000000000 DUP2 MSTORE PUSH1 0x4 ADD PUSH2 0x202C SWAP1 PUSH2 0x4029 JUMP JUMPDEST PUSH1 0x40 MLOAD DUP1 SWAP2 SUB SWAP1 REVERT JUMPDEST PUSH1 0x66 PUSH1 0x14 SWAP1 SLOAD SWAP1 PUSH2 0x100 EXP SWAP1 DIV PUSH1 0xFF AND DUP1 ISZERO PUSH2 0x209B JUMPI POP PUSH1 0x67 PUSH1 0x0 ORIGIN PUSH20 0xFFFFFFFFFFFFFFFFFFFFFFFFFFFFFFFFFFFFFFFF AND PUSH20 0xFFFFFFFFFFFFFFFFFFFFFFFFFFFFFFFFFFFFFFFF AND DUP2 MSTORE PUSH1 0x20 ADD SWAP1 DUP2 MSTORE PUSH1 0x20 ADD PUSH1 0x0 KECCAK256 PUSH1 0x0 SWAP1 SLOAD SWAP1 PUSH2 0x100 EXP SWAP1 DIV PUSH1 0xFF AND ISZERO JUMPDEST ISZERO PUSH2 0x20DD JUMPI ORIGIN PUSH1 0x40 MLOAD PUSH32 0xF51ED71000000000000000000000000000000000000000000000000000000000 DUP2 MSTORE PUSH1 0x4 ADD PUSH2 0x20D4 SWAP2 SWAP1 PUSH2 0x4058 JUMP JUMPDEST PUSH1 0x40 MLOAD DUP1 SWAP2 SUB SWAP1 REVERT JUMPDEST PUSH2 0x20E5 PUSH2 0x311A JUMP JUMPDEST PUSH2 0x211B JUMPI PUSH1 0x40 MLOAD PUSH32 0xA301BB0600000000000000000000000000000000000000000000000000000000 DUP2 MSTORE PUSH1 0x4 ADD PUSH1 0x40 MLOAD DUP1 SWAP2 SUB SWAP1 REVERT JUMPDEST ORIGIN PUSH20 0xFFFFFFFFFFFFFFFFFFFFFFFFFFFFFFFFFFFFFFFF AND CALLER PUSH20 0xFFFFFFFFFFFFFFFFFFFFFFFFFFFFFFFFFFFFFFFF AND EQ PUSH2 0x2180 JUMPI PUSH1 0x40 MLOAD PUSH32 0xFEB3D07100000000000000000000000000000000000000000000000000000000 DUP2 MSTORE PUSH1 0x4 ADD PUSH1 0x40 MLOAD DUP1 SWAP2 SUB SWAP1 REVERT JUMPDEST PUSH8 0xFFFFFFFFFFFFFFFF DUP1 AND DUP7 GT ISZERO PUSH2 0x21C4 JUMPI PUSH1 0x40 MLOAD PUSH32 0x107C527B00000000000000000000000000000000000000000000000000000000 DUP2 MSTORE PUSH1 0x4 ADD PUSH1 0x40 MLOAD DUP1 SWAP2 SUB SWAP1 REVERT JUMPDEST PUSH2 0x2243 PUSH1 0x3 PUSH2 0x21D2 CALLER PUSH2 0x3145 JUMP JUMPDEST PUSH1 0x0 DUP10 DUP10 DUP10 PUSH1 0x64 PUSH20 0xFFFFFFFFFFFFFFFFFFFFFFFFFFFFFFFFFFFFFFFF AND DUP11 PUSH4 0x25E16063 PUSH1 0xE0 SHL DUP12 PUSH1 0x40 MLOAD PUSH1 0x20 ADD PUSH2 0x220A SWAP3 SWAP2 SWAP1 PUSH2 0x4848 JUMP JUMPDEST PUSH1 0x40 MLOAD PUSH1 0x20 DUP2 DUP4 SUB SUB DUP2 MSTORE SWAP1 PUSH1 0x40 MSTORE PUSH1 0x40 MLOAD PUSH1 0x20 ADD PUSH2 0x222F SWAP8 SWAP7 SWAP6 SWAP5 SWAP4 SWAP3 SWAP2 SWAP1 PUSH2 0x48E0 JUMP JUMPDEST PUSH1 0x40 MLOAD PUSH1 0x20 DUP2 DUP4 SUB SUB DUP2 MSTORE SWAP1 PUSH1 0x40 MSTORE PUSH2 0x3165 JUMP JUMPDEST SWAP1 POP SWAP6 SWAP5 POP POP POP POP POP JUMP JUMPDEST PUSH1 0x0 PUSH1 0x65 PUSH1 0x0 SWAP1 SLOAD SWAP1 PUSH2 0x100 EXP SWAP1 DIV PUSH20 0xFFFFFFFFFFFFFFFFFFFFFFFFFFFFFFFFFFFFFFFF AND PUSH20 0xFFFFFFFFFFFFFFFFFFFFFFFFFFFFFFFFFFFFFFFF AND PUSH4 0xCB23BCB5 PUSH1 0x40 MLOAD DUP2 PUSH4 0xFFFFFFFF AND PUSH1 0xE0 SHL DUP2 MSTORE PUSH1 0x4 ADD PUSH1 0x20 PUSH1 0x40 MLOAD DUP1 DUP4 SUB DUP2 DUP7 DUP1 EXTCODESIZE ISZERO DUP1 ISZERO PUSH2 0x22B8 JUMPI PUSH1 0x0 DUP1 REVERT JUMPDEST POP GAS STATICCALL ISZERO DUP1 ISZERO PUSH2 0x22CC JUMPI RETURNDATASIZE PUSH1 0x0 DUP1 RETURNDATACOPY RETURNDATASIZE PUSH1 0x0 REVERT JUMPDEST POP POP POP POP PUSH1 0x40 MLOAD RETURNDATASIZE PUSH1 0x1F NOT PUSH1 0x1F DUP3 ADD AND DUP3 ADD DUP1 PUSH1 0x40 MSTORE POP DUP2 ADD SWAP1 PUSH2 0x22F0 SWAP2 SWAP1 PUSH2 0x4561 JUMP JUMPDEST SWAP1 POP DUP1 PUSH20 0xFFFFFFFFFFFFFFFFFFFFFFFFFFFFFFFFFFFFFFFF AND CALLER PUSH20 0xFFFFFFFFFFFFFFFFFFFFFFFFFFFFFFFFFFFFFFFF AND EQ PUSH2 0x241D JUMPI PUSH1 0x0 DUP2 PUSH20 0xFFFFFFFFFFFFFFFFFFFFFFFFFFFFFFFFFFFFFFFF AND PUSH4 0x8DA5CB5B PUSH1 0x40 MLOAD DUP2 PUSH4 0xFFFFFFFF AND PUSH1 0xE0 SHL DUP2 MSTORE PUSH1 0x4 ADD PUSH1 0x20 PUSH1 0x40 MLOAD DUP1 DUP4 SUB DUP2 DUP7 DUP1 EXTCODESIZE ISZERO DUP1 ISZERO PUSH2 0x236D JUMPI PUSH1 0x0 DUP1 REVERT JUMPDEST POP GAS STATICCALL ISZERO DUP1 ISZERO PUSH2 0x2381 JUMPI RETURNDATASIZE PUSH1 0x0 DUP1 RETURNDATACOPY RETURNDATASIZE PUSH1 0x0 REVERT JUMPDEST POP POP POP POP PUSH1 0x40 MLOAD RETURNDATASIZE PUSH1 0x1F NOT PUSH1 0x1F DUP3 ADD AND DUP3 ADD DUP1 PUSH1 0x40 MSTORE POP DUP2 ADD SWAP1 PUSH2 0x23A5 SWAP2 SWAP1 PUSH2 0x45A3 JUMP JUMPDEST SWAP1 POP DUP1 PUSH20 0xFFFFFFFFFFFFFFFFFFFFFFFFFFFFFFFFFFFFFFFF AND CALLER PUSH20 0xFFFFFFFFFFFFFFFFFFFFFFFFFFFFFFFFFFFFFFFF AND EQ PUSH2 0x241B JUMPI CALLER DUP3 DUP3 PUSH1 0x40 MLOAD PUSH32 0x739600700000000000000000000000000000000000000000000000000000000 DUP2 MSTORE PUSH1 0x4 ADD PUSH2 0x2412 SWAP4 SWAP3 SWAP2 SWAP1 PUSH2 0x45D0 JUMP JUMPDEST PUSH1 0x40 MLOAD DUP1 SWAP2 SUB SWAP1 REVERT JUMPDEST POP JUMPDEST PUSH2 0x2425 PUSH2 0x3423 JUMP JUMPDEST POP JUMP JUMPDEST PUSH1 0x0 PUSH2 0x2432 PUSH2 0x185D JUMP JUMPDEST ISZERO PUSH2 0x2472 JUMPI PUSH1 0x40 MLOAD PUSH32 0x8C379A000000000000000000000000000000000000000000000000000000000 DUP2 MSTORE PUSH1 0x4 ADD PUSH2 0x2469 SWAP1 PUSH2 0x4029 JUMP JUMPDEST PUSH1 0x40 MLOAD DUP1 SWAP2 SUB SWAP1 REVERT JUMPDEST PUSH1 0x66 PUSH1 0x14 SWAP1 SLOAD SWAP1 PUSH2 0x100 EXP SWAP1 DIV PUSH1 0xFF AND DUP1 ISZERO PUSH2 0x24D8 JUMPI POP PUSH1 0x67 PUSH1 0x0 ORIGIN PUSH20 0xFFFFFFFFFFFFFFFFFFFFFFFFFFFFFFFFFFFFFFFF AND PUSH20 0xFFFFFFFFFFFFFFFFFFFFFFFFFFFFFFFFFFFFFFFF AND DUP2 MSTORE PUSH1 0x20 ADD SWAP1 DUP2 MSTORE PUSH1 0x20 ADD PUSH1 0x0 KECCAK256 PUSH1 0x0 SWAP1 SLOAD SWAP1 PUSH2 0x100 EXP SWAP1 DIV PUSH1 0xFF AND ISZERO JUMPDEST ISZERO PUSH2 0x251A JUMPI ORIGIN PUSH1 0x40 MLOAD PUSH32 0xF51ED71000000000000000000000000000000000000000000000000000000000 DUP2 MSTORE PUSH1 0x4 ADD PUSH2 0x2511 SWAP2 SWAP1 PUSH2 0x4058 JUMP JUMPDEST PUSH1 0x40 MLOAD DUP1 SWAP2 SUB SWAP1 REVERT JUMPDEST PUSH8 0xFFFFFFFFFFFFFFFF DUP1 AND DUP8 GT ISZERO PUSH2 0x255E JUMPI PUSH1 0x40 MLOAD PUSH32 0x107C527B00000000000000000000000000000000000000000000000000000000 DUP2 MSTORE PUSH1 0x4 ADD PUSH1 0x40 MLOAD DUP1 SWAP2 SUB SWAP1 REVERT JUMPDEST PUSH2 0x25AC PUSH1 0x3 CALLER PUSH1 0x1 DUP11 DUP11 DUP11 PUSH20 0xFFFFFFFFFFFFFFFFFFFFFFFFFFFFFFFFFFFFFFFF AND DUP11 DUP11 DUP11 PUSH1 0x40 MLOAD PUSH1 0x20 ADD PUSH2 0x2598 SWAP8 SWAP7 SWAP6 SWAP5 SWAP4 SWAP3 SWAP2 SWAP1 PUSH2 0x479F JUMP JUMPDEST PUSH1 0x40 MLOAD PUSH1 0x20 DUP2 DUP4 SUB SUB DUP2 MSTORE SWAP1 PUSH1 0x40 MSTORE PUSH2 0x3165 JUMP JUMPDEST SWAP1 POP SWAP7 SWAP6 POP POP POP POP POP POP JUMP JUMPDEST PUSH1 0x0 DUP1 DUP3 EQ PUSH2 0x25C7 JUMPI DUP2 PUSH2 0x25C9 JUMP JUMPDEST BASEFEE JUMPDEST DUP4 PUSH1 0x6 PUSH2 0x25D6 SWAP2 SWAP1 PUSH2 0x429C JUMP JUMPDEST PUSH2 0x578 PUSH2 0x25E3 SWAP2 SWAP1 PUSH2 0x42F6 JUMP JUMPDEST PUSH2 0x25ED SWAP2 SWAP1 PUSH2 0x429C JUMP JUMPDEST SWAP1 POP SWAP3 SWAP2 POP POP JUMP JUMPDEST PUSH1 0x0 PUSH2 0x25FF PUSH2 0x185D JUMP JUMPDEST ISZERO PUSH2 0x263F JUMPI PUSH1 0x40 MLOAD PUSH32 0x8C379A000000000000000000000000000000000000000000000000000000000 DUP2 MSTORE PUSH1 0x4 ADD PUSH2 0x2636 SWAP1 PUSH2 0x4029 JUMP JUMPDEST PUSH1 0x40 MLOAD DUP1 SWAP2 SUB SWAP1 REVERT JUMPDEST PUSH1 0x66 PUSH1 0x14 SWAP1 SLOAD SWAP1 PUSH2 0x100 EXP SWAP1 DIV PUSH1 0xFF AND DUP1 ISZERO PUSH2 0x26A5 JUMPI POP PUSH1 0x67 PUSH1 0x0 ORIGIN PUSH20 0xFFFFFFFFFFFFFFFFFFFFFFFFFFFFFFFFFFFFFFFF AND PUSH20 0xFFFFFFFFFFFFFFFFFFFFFFFFFFFFFFFFFFFFFFFF AND DUP2 MSTORE PUSH1 0x20 ADD SWAP1 DUP2 MSTORE PUSH1 0x20 ADD PUSH1 0x0 KECCAK256 PUSH1 0x0 SWAP1 SLOAD SWAP1 PUSH2 0x100 EXP SWAP1 DIV PUSH1 0xFF AND ISZERO JUMPDEST ISZERO PUSH2 0x26E7 JUMPI ORIGIN PUSH1 0x40 MLOAD PUSH32 0xF51ED71000000000000000000000000000000000000000000000000000000000 DUP2 MSTORE PUSH1 0x4 ADD PUSH2 0x26DE SWAP2 SWAP1 PUSH2 0x4058 JUMP JUMPDEST PUSH1 0x40 MLOAD DUP1 SWAP2 SUB SWAP1 REVERT JUMPDEST PUSH2 0x26EF PUSH2 0x311A JUMP JUMPDEST ISZERO PUSH2 0x2726 JUMPI PUSH1 0x40 MLOAD PUSH32 0xC6EA680300000000000000000000000000000000000000000000000000000000 DUP2 MSTORE PUSH1 0x4 ADD PUSH1 0x40 MLOAD DUP1 SWAP2 SUB SWAP1 REVERT JUMPDEST PUSH2 0x2776 PUSH1 0x3 CALLER DUP6 DUP6 DUP1 DUP1 PUSH1 0x1F ADD PUSH1 0x20 DUP1 SWAP2 DIV MUL PUSH1 0x20 ADD PUSH1 0x40 MLOAD SWAP1 DUP2 ADD PUSH1 0x40 MSTORE DUP1 SWAP4 SWAP3 SWAP2 SWAP1 DUP2 DUP2 MSTORE PUSH1 0x20 ADD DUP4 DUP4 DUP1 DUP3 DUP5 CALLDATACOPY PUSH1 0x0 DUP2 DUP5 ADD MSTORE PUSH1 0x1F NOT PUSH1 0x1F DUP3 ADD AND SWAP1 POP DUP1 DUP4 ADD SWAP3 POP POP POP POP POP POP POP PUSH2 0x3165 JUMP JUMPDEST SWAP1 POP SWAP3 SWAP2 POP POP JUMP JUMPDEST PUSH1 0x67 PUSH1 0x20 MSTORE DUP1 PUSH1 0x0 MSTORE PUSH1 0x40 PUSH1 0x0 KECCAK256 PUSH1 0x0 SWAP2 POP SLOAD SWAP1 PUSH2 0x100 EXP SWAP1 DIV PUSH1 0xFF AND DUP2 JUMP JUMPDEST PUSH32 0x0 PUSH20 0xFFFFFFFFFFFFFFFFFFFFFFFFFFFFFFFFFFFFFFFF AND ADDRESS PUSH20 0xFFFFFFFFFFFFFFFFFFFFFFFFFFFFFFFFFFFFFFFF AND EQ ISZERO PUSH2 0x282D JUMPI PUSH1 0x40 MLOAD PUSH32 0x8C379A000000000000000000000000000000000000000000000000000000000 DUP2 MSTORE PUSH1 0x4 ADD PUSH2 0x2824 SWAP1 PUSH2 0x477F JUMP JUMPDEST PUSH1 0x40 MLOAD DUP1 SWAP2 SUB SWAP1 REVERT JUMPDEST PUSH1 0x0 PUSH32 0xB53127684A568B3173AE13B9F8A6016E243E63B6E8EE1178D6A717850B5D6103 PUSH1 0x0 SHL SWAP1 POP PUSH1 0x0 DUP2 SLOAD SWAP1 POP DUP1 PUSH20 0xFFFFFFFFFFFFFFFFFFFFFFFFFFFFFFFFFFFFFFFF AND CALLER PUSH20 0xFFFFFFFFFFFFFFFFFFFFFFFFFFFFFFFFFFFFFFFF AND EQ PUSH2 0x28CD JUMPI CALLER DUP2 PUSH1 0x40 MLOAD PUSH32 0x23295F0E00000000000000000000000000000000000000000000000000000000 DUP2 MSTORE PUSH1 0x4 ADD PUSH2 0x28C4 SWAP3 SWAP2 SWAP1 PUSH2 0x495D JUMP JUMPDEST PUSH1 0x40 MLOAD DUP1 SWAP2 SUB SWAP1 REVERT JUMPDEST POP POP POP JUMP JUMPDEST PUSH1 0x0 PUSH1 0x65 PUSH1 0x0 SWAP1 SLOAD SWAP1 PUSH2 0x100 EXP SWAP1 DIV PUSH20 0xFFFFFFFFFFFFFFFFFFFFFFFFFFFFFFFFFFFFFFFF AND PUSH20 0xFFFFFFFFFFFFFFFFFFFFFFFFFFFFFFFFFFFFFFFF AND PUSH4 0xCB23BCB5 PUSH1 0x40 MLOAD DUP2 PUSH4 0xFFFFFFFF AND PUSH1 0xE0 SHL DUP2 MSTORE PUSH1 0x4 ADD PUSH1 0x20 PUSH1 0x40 MLOAD DUP1 DUP4 SUB DUP2 DUP7 DUP1 EXTCODESIZE ISZERO DUP1 ISZERO PUSH2 0x293C JUMPI PUSH1 0x0 DUP1 REVERT JUMPDEST POP GAS STATICCALL ISZERO DUP1 ISZERO PUSH2 0x2950 JUMPI RETURNDATASIZE PUSH1 0x0 DUP1 RETURNDATACOPY RETURNDATASIZE PUSH1 0x0 REVERT JUMPDEST POP POP POP POP PUSH1 0x40 MLOAD RETURNDATASIZE PUSH1 0x1F NOT PUSH1 0x1F DUP3 ADD AND DUP3 ADD DUP1 PUSH1 0x40 MSTORE POP DUP2 ADD SWAP1 PUSH2 0x2974 SWAP2 SWAP1 PUSH2 0x4561 JUMP JUMPDEST SWAP1 POP DUP1 PUSH20 0xFFFFFFFFFFFFFFFFFFFFFFFFFFFFFFFFFFFFFFFF AND CALLER PUSH20 0xFFFFFFFFFFFFFFFFFFFFFFFFFFFFFFFFFFFFFFFF AND EQ PUSH2 0x2AA1 JUMPI PUSH1 0x0 DUP2 PUSH20 0xFFFFFFFFFFFFFFFFFFFFFFFFFFFFFFFFFFFFFFFF AND PUSH4 0x8DA5CB5B PUSH1 0x40 MLOAD DUP2 PUSH4 0xFFFFFFFF AND PUSH1 0xE0 SHL DUP2 MSTORE PUSH1 0x4 ADD PUSH1 0x20 PUSH1 0x40 MLOAD DUP1 DUP4 SUB DUP2 DUP7 DUP1 EXTCODESIZE ISZERO DUP1 ISZERO PUSH2 0x29F1 JUMPI PUSH1 0x0 DUP1 REVERT JUMPDEST POP GAS STATICCALL ISZERO DUP1 ISZERO PUSH2 0x2A05 JUMPI RETURNDATASIZE PUSH1 0x0 DUP1 RETURNDATACOPY RETURNDATASIZE PUSH1 0x0 REVERT JUMPDEST POP POP POP POP PUSH1 0x40 MLOAD RETURNDATASIZE PUSH1 0x1F NOT PUSH1 0x1F DUP3 ADD AND DUP3 ADD DUP1 PUSH1 0x40 MSTORE POP DUP2 ADD SWAP1 PUSH2 0x2A29 SWAP2 SWAP1 PUSH2 0x45A3 JUMP JUMPDEST SWAP1 POP DUP1 PUSH20 0xFFFFFFFFFFFFFFFFFFFFFFFFFFFFFFFFFFFFFFFF AND CALLER PUSH20 0xFFFFFFFFFFFFFFFFFFFFFFFFFFFFFFFFFFFFFFFF AND EQ PUSH2 0x2A9F JUMPI CALLER DUP3 DUP3 PUSH1 0x40 MLOAD PUSH32 0x739600700000000000000000000000000000000000000000000000000000000 DUP2 MSTORE PUSH1 0x4 ADD PUSH2 0x2A96 SWAP4 SWAP3 SWAP2 SWAP1 PUSH2 0x45D0 JUMP JUMPDEST PUSH1 0x40 MLOAD DUP1 SWAP2 SUB SWAP1 REVERT JUMPDEST POP JUMPDEST DUP2 MLOAD DUP4 MLOAD EQ PUSH2 0x2AE5 JUMPI PUSH1 0x40 MLOAD PUSH32 0x8C379A000000000000000000000000000000000000000000000000000000000 DUP2 MSTORE PUSH1 0x4 ADD PUSH2 0x2ADC SWAP1 PUSH2 0x49D2 JUMP JUMPDEST PUSH1 0x40 MLOAD DUP1 SWAP2 SUB SWAP1 REVERT JUMPDEST PUSH1 0x0 JUMPDEST DUP4 MLOAD DUP2 LT ISZERO PUSH2 0x2C11 JUMPI DUP3 DUP2 DUP2 MLOAD DUP2 LT PUSH2 0x2B04 JUMPI PUSH2 0x2B03 PUSH2 0x49F2 JUMP JUMPDEST JUMPDEST PUSH1 0x20 MUL PUSH1 0x20 ADD ADD MLOAD PUSH1 0x67 PUSH1 0x0 DUP7 DUP5 DUP2 MLOAD DUP2 LT PUSH2 0x2B23 JUMPI PUSH2 0x2B22 PUSH2 0x49F2 JUMP JUMPDEST JUMPDEST PUSH1 0x20 MUL PUSH1 0x20 ADD ADD MLOAD PUSH20 0xFFFFFFFFFFFFFFFFFFFFFFFFFFFFFFFFFFFFFFFF AND PUSH20 0xFFFFFFFFFFFFFFFFFFFFFFFFFFFFFFFFFFFFFFFF AND DUP2 MSTORE PUSH1 0x20 ADD SWAP1 DUP2 MSTORE PUSH1 0x20 ADD PUSH1 0x0 KECCAK256 PUSH1 0x0 PUSH2 0x100 EXP DUP2 SLOAD DUP2 PUSH1 0xFF MUL NOT AND SWAP1 DUP4 ISZERO ISZERO MUL OR SWAP1 SSTORE POP DUP4 DUP2 DUP2 MLOAD DUP2 LT PUSH2 0x2B8F JUMPI PUSH2 0x2B8E PUSH2 0x49F2 JUMP JUMPDEST JUMPDEST PUSH1 0x20 MUL PUSH1 0x20 ADD ADD MLOAD PUSH20 0xFFFFFFFFFFFFFFFFFFFFFFFFFFFFFFFFFFFFFFFF AND PUSH32 0xD9739F45A01CE092C5CDB3D68F63D63D21676B1C6C0B4F9CBC6BE4CF5449595A DUP5 DUP4 DUP2 MLOAD DUP2 LT PUSH2 0x2BE1 JUMPI PUSH2 0x2BE0 PUSH2 0x49F2 JUMP JUMPDEST JUMPDEST PUSH1 0x20 MUL PUSH1 0x20 ADD ADD MLOAD PUSH1 0x40 MLOAD PUSH2 0x2BF6 SWAP2 SWAP1 PUSH2 0x388B JUMP JUMPDEST PUSH1 0x40 MLOAD DUP1 SWAP2 SUB SWAP1 LOG2 DUP1 DUP1 PUSH2 0x2C09 SWAP1 PUSH2 0x4A21 JUMP JUMPDEST SWAP2 POP POP PUSH2 0x2AE8 JUMP JUMPDEST POP POP POP POP JUMP JUMPDEST PUSH1 0x0 PUSH2 0x2C21 PUSH2 0x185D JUMP JUMPDEST ISZERO PUSH2 0x2C61 JUMPI PUSH1 0x40 MLOAD PUSH32 0x8C379A000000000000000000000000000000000000000000000000000000000 DUP2 MSTORE PUSH1 0x4 ADD PUSH2 0x2C58 SWAP1 PUSH2 0x4029 JUMP JUMPDEST PUSH1 0x40 MLOAD DUP1 SWAP2 SUB SWAP1 REVERT JUMPDEST PUSH1 0x66 PUSH1 0x14 SWAP1 SLOAD SWAP1 PUSH2 0x100 EXP SWAP1 DIV PUSH1 0xFF AND DUP1 ISZERO PUSH2 0x2CC7 JUMPI POP PUSH1 0x67 PUSH1 0x0 ORIGIN PUSH20 0xFFFFFFFFFFFFFFFFFFFFFFFFFFFFFFFFFFFFFFFF AND PUSH20 0xFFFFFFFFFFFFFFFFFFFFFFFFFFFFFFFFFFFFFFFF AND DUP2 MSTORE PUSH1 0x20 ADD SWAP1 DUP2 MSTORE PUSH1 0x20 ADD PUSH1 0x0 KECCAK256 PUSH1 0x0 SWAP1 SLOAD SWAP1 PUSH2 0x100 EXP SWAP1 DIV PUSH1 0xFF AND ISZERO JUMPDEST ISZERO PUSH2 0x2D09 JUMPI ORIGIN PUSH1 0x40 MLOAD PUSH32 0xF51ED71000000000000000000000000000000000000000000000000000000000 DUP2 MSTORE PUSH1 0x4 ADD PUSH2 0x2D00 SWAP2 SWAP1 PUSH2 0x4058 JUMP JUMPDEST PUSH1 0x40 MLOAD DUP1 SWAP2 SUB SWAP1 REVERT JUMPDEST PUSH2 0x2D11 PUSH2 0x311A JUMP JUMPDEST PUSH2 0x2D47 JUMPI PUSH1 0x40 MLOAD PUSH32 0xA301BB0600000000000000000000000000000000000000000000000000000000 DUP2 MSTORE PUSH1 0x4 ADD PUSH1 0x40 MLOAD DUP1 SWAP2 SUB SWAP1 REVERT JUMPDEST ORIGIN PUSH20 0xFFFFFFFFFFFFFFFFFFFFFFFFFFFFFFFFFFFFFFFF AND CALLER PUSH20 0xFFFFFFFFFFFFFFFFFFFFFFFFFFFFFFFFFFFFFFFF AND EQ PUSH2 0x2DAC JUMPI PUSH1 0x40 MLOAD PUSH32 0xFEB3D07100000000000000000000000000000000000000000000000000000000 DUP2 MSTORE PUSH1 0x4 ADD PUSH1 0x40 MLOAD DUP1 SWAP2 SUB SWAP1 REVERT JUMPDEST PUSH8 0xFFFFFFFFFFFFFFFF DUP1 AND DUP8 GT ISZERO PUSH2 0x2DF0 JUMPI PUSH1 0x40 MLOAD PUSH32 0x107C527B00000000000000000000000000000000000000000000000000000000 DUP2 MSTORE PUSH1 0x4 ADD PUSH1 0x40 MLOAD DUP1 SWAP2 SUB SWAP1 REVERT JUMPDEST PUSH2 0x2E48 PUSH1 0x7 PUSH2 0x2DFE CALLER PUSH2 0x3145 JUMP JUMPDEST PUSH1 0x0 DUP11 DUP11 DUP11 DUP11 PUSH20 0xFFFFFFFFFFFFFFFFFFFFFFFFFFFFFFFFFFFFFFFF AND CALLVALUE DUP12 DUP12 PUSH1 0x40 MLOAD PUSH1 0x20 ADD PUSH2 0x2E34 SWAP9 SWAP8 SWAP7 SWAP6 SWAP5 SWAP4 SWAP3 SWAP2 SWAP1 PUSH2 0x4116 JUMP JUMPDEST PUSH1 0x40 MLOAD PUSH1 0x20 DUP2 DUP4 SUB SUB DUP2 MSTORE SWAP1 PUSH1 0x40 MSTORE PUSH2 0x3165 JUMP JUMPDEST SWAP1 POP SWAP7 SWAP6 POP POP POP POP POP POP JUMP JUMPDEST PUSH1 0x65 PUSH1 0x0 SWAP1 SLOAD SWAP1 PUSH2 0x100 EXP SWAP1 DIV PUSH20 0xFFFFFFFFFFFFFFFFFFFFFFFFFFFFFFFFFFFFFFFF AND DUP2 JUMP JUMPDEST PUSH1 0x66 PUSH1 0x0 SWAP1 SLOAD SWAP1 PUSH2 0x100 EXP SWAP1 DIV PUSH20 0xFFFFFFFFFFFFFFFFFFFFFFFFFFFFFFFFFFFFFFFF AND DUP2 JUMP JUMPDEST PUSH1 0x0 PUSH1 0x65 PUSH1 0x0 SWAP1 SLOAD SWAP1 PUSH2 0x100 EXP SWAP1 DIV PUSH20 0xFFFFFFFFFFFFFFFFFFFFFFFFFFFFFFFFFFFFFFFF AND PUSH20 0xFFFFFFFFFFFFFFFFFFFFFFFFFFFFFFFFFFFFFFFF AND PUSH4 0xCB23BCB5 PUSH1 0x40 MLOAD DUP2 PUSH4 0xFFFFFFFF AND PUSH1 0xE0 SHL DUP2 MSTORE PUSH1 0x4 ADD PUSH1 0x20 PUSH1 0x40 MLOAD DUP1 DUP4 SUB DUP2 DUP7 DUP1 EXTCODESIZE ISZERO DUP1 ISZERO PUSH2 0x2F0A JUMPI PUSH1 0x0 DUP1 REVERT JUMPDEST POP GAS STATICCALL ISZERO DUP1 ISZERO PUSH2 0x2F1E JUMPI RETURNDATASIZE PUSH1 0x0 DUP1 RETURNDATACOPY RETURNDATASIZE PUSH1 0x0 REVERT JUMPDEST POP POP POP POP PUSH1 0x40 MLOAD RETURNDATASIZE PUSH1 0x1F NOT PUSH1 0x1F DUP3 ADD AND DUP3 ADD DUP1 PUSH1 0x40 MSTORE POP DUP2 ADD SWAP1 PUSH2 0x2F42 SWAP2 SWAP1 PUSH2 0x4561 JUMP JUMPDEST SWAP1 POP DUP1 PUSH20 0xFFFFFFFFFFFFFFFFFFFFFFFFFFFFFFFFFFFFFFFF AND CALLER PUSH20 0xFFFFFFFFFFFFFFFFFFFFFFFFFFFFFFFFFFFFFFFF AND EQ PUSH2 0x306F JUMPI PUSH1 0x0 DUP2 PUSH20 0xFFFFFFFFFFFFFFFFFFFFFFFFFFFFFFFFFFFFFFFF AND PUSH4 0x8DA5CB5B PUSH1 0x40 MLOAD DUP2 PUSH4 0xFFFFFFFF AND PUSH1 0xE0 SHL DUP2 MSTORE PUSH1 0x4 ADD PUSH1 0x20 PUSH1 0x40 MLOAD DUP1 DUP4 SUB DUP2 DUP7 DUP1 EXTCODESIZE ISZERO DUP1 ISZERO PUSH2 0x2FBF JUMPI PUSH1 0x0 DUP1 REVERT JUMPDEST POP GAS STATICCALL ISZERO DUP1 ISZERO PUSH2 0x2FD3 JUMPI RETURNDATASIZE PUSH1 0x0 DUP1 RETURNDATACOPY RETURNDATASIZE PUSH1 0x0 REVERT JUMPDEST POP POP POP POP PUSH1 0x40 MLOAD RETURNDATASIZE PUSH1 0x1F NOT PUSH1 0x1F DUP3 ADD AND DUP3 ADD DUP1 PUSH1 0x40 MSTORE POP DUP2 ADD SWAP1 PUSH2 0x2FF7 SWAP2 SWAP1 PUSH2 0x45A3 JUMP JUMPDEST SWAP1 POP DUP1 PUSH20 0xFFFFFFFFFFFFFFFFFFFFFFFFFFFFFFFFFFFFFFFF AND CALLER PUSH20 0xFFFFFFFFFFFFFFFFFFFFFFFFFFFFFFFFFFFFFFFF AND EQ PUSH2 0x306D JUMPI CALLER DUP3 DUP3 PUSH1 0x40 MLOAD PUSH32 0x739600700000000000000000000000000000000000000000000000000000000 DUP2 MSTORE PUSH1 0x4 ADD PUSH2 0x3064 SWAP4 SWAP3 SWAP2 SWAP1 PUSH2 0x45D0 JUMP JUMPDEST PUSH1 0x40 MLOAD DUP1 SWAP2 SUB SWAP1 REVERT JUMPDEST POP JUMPDEST PUSH1 0x66 PUSH1 0x14 SWAP1 SLOAD SWAP1 PUSH2 0x100 EXP SWAP1 DIV PUSH1 0xFF AND ISZERO ISZERO DUP3 ISZERO ISZERO EQ ISZERO PUSH2 0x30C5 JUMPI PUSH1 0x40 MLOAD PUSH32 0x8C379A000000000000000000000000000000000000000000000000000000000 DUP2 MSTORE PUSH1 0x4 ADD PUSH2 0x30BC SWAP1 PUSH2 0x4AB6 JUMP JUMPDEST PUSH1 0x40 MLOAD DUP1 SWAP2 SUB SWAP1 REVERT JUMPDEST DUP2 PUSH1 0x66 PUSH1 0x14 PUSH2 0x100 EXP DUP2 SLOAD DUP2 PUSH1 0xFF MUL NOT AND SWAP1 DUP4 ISZERO ISZERO MUL OR SWAP1 SSTORE POP PUSH32 0x16435B45F7482047F839A6A19D291442627200F52CAD2803C595150D0D440EB3 DUP3 PUSH1 0x40 MLOAD PUSH2 0x310E SWAP2 SWAP1 PUSH2 0x388B JUMP JUMPDEST PUSH1 0x40 MLOAD DUP1 SWAP2 SUB SWAP1 LOG1 POP POP JUMP JUMPDEST PUSH1 0x0 CHAINID PUSH32 0x0 EQ ISZERO SWAP1 POP SWAP1 JUMP JUMPDEST PUSH1 0x0 PUSH20 0x1111000000000000000000000000000000001111 DUP3 SUB SWAP1 POP SWAP2 SWAP1 POP JUMP JUMPDEST PUSH1 0x0 PUSH3 0x1CCCC DUP3 MLOAD GT ISZERO PUSH2 0x31B6 JUMPI DUP2 MLOAD PUSH3 0x1CCCC PUSH1 0x40 MLOAD PUSH32 0x4634691B00000000000000000000000000000000000000000000000000000000 DUP2 MSTORE PUSH1 0x4 ADD PUSH2 0x31AD SWAP3 SWAP2 SWAP1 PUSH2 0x434C JUMP JUMPDEST PUSH1 0x40 MLOAD DUP1 SWAP2 SUB SWAP1 REVERT JUMPDEST PUSH1 0x0 PUSH2 0x31CA DUP6 DUP6 DUP6 DUP1 MLOAD SWAP1 PUSH1 0x20 ADD KECCAK256 PUSH2 0x3252 JUMP JUMPDEST SWAP1 POP DUP1 PUSH32 0xFF64905F73A67FB594E0F940A8075A860DB489AD991E032F48C81123EB52D60B DUP5 PUSH1 0x40 MLOAD PUSH2 0x31FC SWAP2 SWAP1 PUSH2 0x4B0F JUMP JUMPDEST PUSH1 0x40 MLOAD DUP1 SWAP2 SUB SWAP1 LOG2 DUP1 SWAP2 POP POP SWAP4 SWAP3 POP POP POP JUMP JUMPDEST PUSH1 0x0 DUP1 DUP3 PUSH20 0xFFFFFFFFFFFFFFFFFFFFFFFFFFFFFFFFFFFFFFFF AND EXTCODESIZE GT SWAP1 POP SWAP2 SWAP1 POP JUMP JUMPDEST PUSH1 0x0 PUSH20 0x1111000000000000000000000000000000001111 DUP3 ADD SWAP1 POP SWAP2 SWAP1 POP JUMP JUMPDEST PUSH1 0x0 PUSH1 0x65 PUSH1 0x0 SWAP1 SLOAD SWAP1 PUSH2 0x100 EXP SWAP1 DIV PUSH20 0xFFFFFFFFFFFFFFFFFFFFFFFFFFFFFFFFFFFFFFFF AND PUSH20 0xFFFFFFFFFFFFFFFFFFFFFFFFFFFFFFFFFFFFFFFF AND PUSH4 0x8DB5993B CALLVALUE DUP7 PUSH2 0x329D DUP8 PUSH2 0x3232 JUMP JUMPDEST DUP7 PUSH1 0x40 MLOAD DUP6 PUSH4 0xFFFFFFFF AND PUSH1 0xE0 SHL DUP2 MSTORE PUSH1 0x4 ADD PUSH2 0x32BC SWAP4 SWAP3 SWAP2 SWAP1 PUSH2 0x4B59 JUMP JUMPDEST PUSH1 0x20 PUSH1 0x40 MLOAD DUP1 DUP4 SUB DUP2 DUP6 DUP9 DUP1 EXTCODESIZE ISZERO DUP1 ISZERO PUSH2 0x32D5 JUMPI PUSH1 0x0 DUP1 REVERT JUMPDEST POP GAS CALL ISZERO DUP1 ISZERO PUSH2 0x32E9 JUMPI RETURNDATASIZE PUSH1 0x0 DUP1 RETURNDATACOPY RETURNDATASIZE PUSH1 0x0 REVERT JUMPDEST POP POP POP POP POP PUSH1 0x40 MLOAD RETURNDATASIZE PUSH1 0x1F NOT PUSH1 0x1F DUP3 ADD AND DUP3 ADD DUP1 PUSH1 0x40 MSTORE POP DUP2 ADD SWAP1 PUSH2 0x330E SWAP2 SWAP1 PUSH2 0x4BA5 JUMP JUMPDEST SWAP1 POP SWAP4 SWAP3 POP POP POP JUMP JUMPDEST PUSH2 0x331F PUSH2 0x185D JUMP JUMPDEST PUSH2 0x335E JUMPI PUSH1 0x40 MLOAD PUSH32 0x8C379A000000000000000000000000000000000000000000000000000000000 DUP2 MSTORE PUSH1 0x4 ADD PUSH2 0x3355 SWAP1 PUSH2 0x4C1E JUMP JUMPDEST PUSH1 0x40 MLOAD DUP1 SWAP2 SUB SWAP1 REVERT JUMPDEST PUSH1 0x0 PUSH1 0x33 PUSH1 0x0 PUSH2 0x100 EXP DUP2 SLOAD DUP2 PUSH1 0xFF MUL NOT AND SWAP1 DUP4 ISZERO ISZERO MUL OR SWAP1 SSTORE POP PUSH32 0x5DB9EE0A495BF2E6FF9C91A7834C1BA4FDD244A5E8AA4E537BD38AEAE4B073AA PUSH2 0x33A2 PUSH2 0x34C6 JUMP JUMPDEST PUSH1 0x40 MLOAD PUSH2 0x33AF SWAP2 SWAP1 PUSH2 0x4058 JUMP JUMPDEST PUSH1 0x40 MLOAD DUP1 SWAP2 SUB SWAP1 LOG1 JUMP JUMPDEST PUSH1 0x0 PUSH2 0x33C4 ADDRESS PUSH2 0x320F JUMP JUMPDEST ISZERO SWAP1 POP SWAP1 JUMP JUMPDEST PUSH1 0x0 PUSH1 0x1 SWAP1 SLOAD SWAP1 PUSH2 0x100 EXP SWAP1 DIV PUSH1 0xFF AND PUSH2 0x3419 JUMPI PUSH1 0x40 MLOAD PUSH32 0x8C379A000000000000000000000000000000000000000000000000000000000 DUP2 MSTORE PUSH1 0x4 ADD PUSH2 0x3410 SWAP1 PUSH2 0x4CB0 JUMP JUMPDEST PUSH1 0x40 MLOAD DUP1 SWAP2 SUB SWAP1 REVERT JUMPDEST PUSH2 0x3421 PUSH2 0x34CE JUMP JUMPDEST JUMP JUMPDEST PUSH2 0x342B PUSH2 0x185D JUMP JUMPDEST ISZERO PUSH2 0x346B JUMPI PUSH1 0x40 MLOAD PUSH32 0x8C379A000000000000000000000000000000000000000000000000000000000 DUP2 MSTORE PUSH1 0x4 ADD PUSH2 0x3462 SWAP1 PUSH2 0x4029 JUMP JUMPDEST PUSH1 0x40 MLOAD DUP1 SWAP2 SUB SWAP1 REVERT JUMPDEST PUSH1 0x1 PUSH1 0x33 PUSH1 0x0 PUSH2 0x100 EXP DUP2 SLOAD DUP2 PUSH1 0xFF MUL NOT AND SWAP1 DUP4 ISZERO ISZERO MUL OR SWAP1 SSTORE POP PUSH32 0x62E78CEA01BEE320CD4E420270B5EA74000D11B0C9F74754EBDBFC544B05A258 PUSH2 0x34AF PUSH2 0x34C6 JUMP JUMPDEST PUSH1 0x40 MLOAD PUSH2 0x34BC SWAP2 SWAP1 PUSH2 0x4058 JUMP JUMPDEST PUSH1 0x40 MLOAD DUP1 SWAP2 SUB SWAP1 LOG1 JUMP JUMPDEST PUSH1 0x0 CALLER SWAP1 POP SWAP1 JUMP JUMPDEST PUSH1 0x0 PUSH1 0x1 SWAP1 SLOAD SWAP1 PUSH2 0x100 EXP SWAP1 DIV PUSH1 0xFF AND PUSH2 0x351D JUMPI PUSH1 0x40 MLOAD PUSH32 0x8C379A000000000000000000000000000000000000000000000000000000000 DUP2 MSTORE PUSH1 0x4 ADD PUSH2 0x3514 SWAP1 PUSH2 0x4CB0 JUMP JUMPDEST PUSH1 0x40 MLOAD DUP1 SWAP2 SUB SWAP1 REVERT JUMPDEST PUSH1 0x0 PUSH1 0x33 PUSH1 0x0 PUSH2 0x100 EXP DUP2 SLOAD DUP2 PUSH1 0xFF MUL NOT AND SWAP1 DUP4 ISZERO ISZERO MUL OR SWAP1 SSTORE POP JUMP JUMPDEST PUSH1 0x0 PUSH1 0x40 MLOAD SWAP1 POP SWAP1 JUMP JUMPDEST PUSH1 0x0 DUP1 REVERT JUMPDEST PUSH1 0x0 DUP1 REVERT JUMPDEST PUSH1 0x0 DUP2 SWAP1 POP SWAP2 SWAP1 POP JUMP JUMPDEST PUSH2 0x3561 DUP2 PUSH2 0x354E JUMP JUMPDEST DUP2 EQ PUSH2 0x356C JUMPI PUSH1 0x0 DUP1 REVERT JUMPDEST POP JUMP JUMPDEST PUSH1 0x0 DUP2 CALLDATALOAD SWAP1 POP PUSH2 0x357E DUP2 PUSH2 0x3558 JUMP JUMPDEST SWAP3 SWAP2 POP POP JUMP JUMPDEST PUSH1 0x0 PUSH20 0xFFFFFFFFFFFFFFFFFFFFFFFFFFFFFFFFFFFFFFFF DUP3 AND SWAP1 POP SWAP2 SWAP1 POP JUMP JUMPDEST PUSH1 0x0 PUSH2 0x35AF DUP3 PUSH2 0x3584 JUMP JUMPDEST SWAP1 POP SWAP2 SWAP1 POP JUMP JUMPDEST PUSH2 0x35BF DUP2 PUSH2 0x35A4 JUMP JUMPDEST DUP2 EQ PUSH2 0x35CA JUMPI PUSH1 0x0 DUP1 REVERT JUMPDEST POP JUMP JUMPDEST PUSH1 0x0 DUP2 CALLDATALOAD SWAP1 POP PUSH2 0x35DC DUP2 PUSH2 0x35B6 JUMP JUMPDEST SWAP3 SWAP2 POP POP JUMP JUMPDEST PUSH1 0x0 DUP1 REVERT JUMPDEST PUSH1 0x0 DUP1 REVERT JUMPDEST PUSH1 0x0 DUP1 REVERT JUMPDEST PUSH1 0x0 DUP1 DUP4 PUSH1 0x1F DUP5 ADD SLT PUSH2 0x3607 JUMPI PUSH2 0x3606 PUSH2 0x35E2 JUMP JUMPDEST JUMPDEST DUP3 CALLDATALOAD SWAP1 POP PUSH8 0xFFFFFFFFFFFFFFFF DUP2 GT ISZERO PUSH2 0x3624 JUMPI PUSH2 0x3623 PUSH2 0x35E7 JUMP JUMPDEST JUMPDEST PUSH1 0x20 DUP4 ADD SWAP2 POP DUP4 PUSH1 0x1 DUP3 MUL DUP4 ADD GT ISZERO PUSH2 0x3640 JUMPI PUSH2 0x363F PUSH2 0x35EC JUMP JUMPDEST JUMPDEST SWAP3 POP SWAP3 SWAP1 POP JUMP JUMPDEST PUSH1 0x0 DUP1 PUSH1 0x0 DUP1 PUSH1 0x0 DUP1 PUSH1 0x0 PUSH1 0xC0 DUP9 DUP11 SUB SLT ISZERO PUSH2 0x3666 JUMPI PUSH2 0x3665 PUSH2 0x3544 JUMP JUMPDEST JUMPDEST PUSH1 0x0 PUSH2 0x3674 DUP11 DUP3 DUP12 ADD PUSH2 0x356F JUMP JUMPDEST SWAP8 POP POP PUSH1 0x20 PUSH2 0x3685 DUP11 DUP3 DUP12 ADD PUSH2 0x356F JUMP JUMPDEST SWAP7 POP POP PUSH1 0x40 PUSH2 0x3696 DUP11 DUP3 DUP12 ADD PUSH2 0x356F JUMP JUMPDEST SWAP6 POP POP PUSH1 0x60 PUSH2 0x36A7 DUP11 DUP3 DUP12 ADD PUSH2 0x35CD JUMP JUMPDEST SWAP5 POP POP PUSH1 0x80 PUSH2 0x36B8 DUP11 DUP3 DUP12 ADD PUSH2 0x356F JUMP JUMPDEST SWAP4 POP POP PUSH1 0xA0 DUP9 ADD CALLDATALOAD PUSH8 0xFFFFFFFFFFFFFFFF DUP2 GT ISZERO PUSH2 0x36D9 JUMPI PUSH2 0x36D8 PUSH2 0x3549 JUMP JUMPDEST JUMPDEST PUSH2 0x36E5 DUP11 DUP3 DUP12 ADD PUSH2 0x35F1 JUMP JUMPDEST SWAP3 POP SWAP3 POP POP SWAP3 SWAP6 SWAP9 SWAP2 SWAP5 SWAP8 POP SWAP3 SWAP6 POP JUMP JUMPDEST PUSH2 0x36FF DUP2 PUSH2 0x354E JUMP JUMPDEST DUP3 MSTORE POP POP JUMP JUMPDEST PUSH1 0x0 PUSH1 0x20 DUP3 ADD SWAP1 POP PUSH2 0x371A PUSH1 0x0 DUP4 ADD DUP5 PUSH2 0x36F6 JUMP JUMPDEST SWAP3 SWAP2 POP POP JUMP JUMPDEST PUSH1 0x0 PUSH1 0x20 DUP3 DUP5 SUB SLT ISZERO PUSH2 0x3736 JUMPI PUSH2 0x3735 PUSH2 0x3544 JUMP JUMPDEST JUMPDEST PUSH1 0x0 PUSH2 0x3744 DUP5 DUP3 DUP6 ADD PUSH2 0x356F JUMP JUMPDEST SWAP2 POP POP SWAP3 SWAP2 POP POP JUMP JUMPDEST PUSH1 0x0 DUP1 PUSH1 0x0 DUP1 PUSH1 0x0 DUP1 PUSH1 0x0 DUP1 PUSH1 0x0 PUSH2 0x100 DUP11 DUP13 SUB SLT ISZERO PUSH2 0x3770 JUMPI PUSH2 0x376F PUSH2 0x3544 JUMP JUMPDEST JUMPDEST PUSH1 0x0 PUSH2 0x377E DUP13 DUP3 DUP14 ADD PUSH2 0x35CD JUMP JUMPDEST SWAP10 POP POP PUSH1 0x20 PUSH2 0x378F DUP13 DUP3 DUP14 ADD PUSH2 0x356F JUMP JUMPDEST SWAP9 POP POP PUSH1 0x40 PUSH2 0x37A0 DUP13 DUP3 DUP14 ADD PUSH2 0x356F JUMP JUMPDEST SWAP8 POP POP PUSH1 0x60 PUSH2 0x37B1 DUP13 DUP3 DUP14 ADD PUSH2 0x35CD JUMP JUMPDEST SWAP7 POP POP PUSH1 0x80 PUSH2 0x37C2 DUP13 DUP3 DUP14 ADD PUSH2 0x35CD JUMP JUMPDEST SWAP6 POP POP PUSH1 0xA0 PUSH2 0x37D3 DUP13 DUP3 DUP14 ADD PUSH2 0x356F JUMP JUMPDEST SWAP5 POP POP PUSH1 0xC0 PUSH2 0x37E4 DUP13 DUP3 DUP14 ADD PUSH2 0x356F JUMP JUMPDEST SWAP4 POP POP PUSH1 0xE0 DUP11 ADD CALLDATALOAD PUSH8 0xFFFFFFFFFFFFFFFF DUP2 GT ISZERO PUSH2 0x3805 JUMPI PUSH2 0x3804 PUSH2 0x3549 JUMP JUMPDEST JUMPDEST PUSH2 0x3811 DUP13 DUP3 DUP14 ADD PUSH2 0x35F1 JUMP JUMPDEST SWAP3 POP SWAP3 POP POP SWAP3 SWAP6 SWAP9 POP SWAP3 SWAP6 SWAP9 POP SWAP3 SWAP6 SWAP9 JUMP JUMPDEST PUSH1 0x0 DUP1 PUSH1 0x20 DUP4 DUP6 SUB SLT ISZERO PUSH2 0x383A JUMPI PUSH2 0x3839 PUSH2 0x3544 JUMP JUMPDEST JUMPDEST PUSH1 0x0 DUP4 ADD CALLDATALOAD PUSH8 0xFFFFFFFFFFFFFFFF DUP2 GT ISZERO PUSH2 0x3858 JUMPI PUSH2 0x3857 PUSH2 0x3549 JUMP JUMPDEST JUMPDEST PUSH2 0x3864 DUP6 DUP3 DUP7 ADD PUSH2 0x35F1 JUMP JUMPDEST SWAP3 POP SWAP3 POP POP SWAP3 POP SWAP3 SWAP1 POP JUMP JUMPDEST PUSH1 0x0 DUP2 ISZERO ISZERO SWAP1 POP SWAP2 SWAP1 POP JUMP JUMPDEST PUSH2 0x3885 DUP2 PUSH2 0x3870 JUMP JUMPDEST DUP3 MSTORE POP POP JUMP JUMPDEST PUSH1 0x0 PUSH1 0x20 DUP3 ADD SWAP1 POP PUSH2 0x38A0 PUSH1 0x0 DUP4 ADD DUP5 PUSH2 0x387C JUMP JUMPDEST SWAP3 SWAP2 POP POP JUMP JUMPDEST PUSH1 0x0 PUSH2 0x38B1 DUP3 PUSH2 0x35A4 JUMP JUMPDEST SWAP1 POP SWAP2 SWAP1 POP JUMP JUMPDEST PUSH2 0x38C1 DUP2 PUSH2 0x38A6 JUMP JUMPDEST DUP2 EQ PUSH2 0x38CC JUMPI PUSH1 0x0 DUP1 REVERT JUMPDEST POP JUMP JUMPDEST PUSH1 0x0 DUP2 CALLDATALOAD SWAP1 POP PUSH2 0x38DE DUP2 PUSH2 0x38B8 JUMP JUMPDEST SWAP3 SWAP2 POP POP JUMP JUMPDEST PUSH1 0x0 PUSH2 0x38EF DUP3 PUSH2 0x35A4 JUMP JUMPDEST SWAP1 POP SWAP2 SWAP1 POP JUMP JUMPDEST PUSH2 0x38FF DUP2 PUSH2 0x38E4 JUMP JUMPDEST DUP2 EQ PUSH2 0x390A JUMPI PUSH1 0x0 DUP1 REVERT JUMPDEST POP JUMP JUMPDEST PUSH1 0x0 DUP2 CALLDATALOAD SWAP1 POP PUSH2 0x391C DUP2 PUSH2 0x38F6 JUMP JUMPDEST SWAP3 SWAP2 POP POP JUMP JUMPDEST PUSH1 0x0 DUP1 PUSH1 0x40 DUP4 DUP6 SUB SLT ISZERO PUSH2 0x3939 JUMPI PUSH2 0x3938 PUSH2 0x3544 JUMP JUMPDEST JUMPDEST PUSH1 0x0 PUSH2 0x3947 DUP6 DUP3 DUP7 ADD PUSH2 0x38CF JUMP JUMPDEST SWAP3 POP POP PUSH1 0x20 PUSH2 0x3958 DUP6 DUP3 DUP7 ADD PUSH2 0x390D JUMP JUMPDEST SWAP2 POP POP SWAP3 POP SWAP3 SWAP1 POP JUMP JUMPDEST PUSH1 0x0 DUP1 PUSH1 0x0 DUP1 PUSH1 0x0 PUSH1 0x80 DUP7 DUP9 SUB SLT ISZERO PUSH2 0x397E JUMPI PUSH2 0x397D PUSH2 0x3544 JUMP JUMPDEST JUMPDEST PUSH1 0x0 PUSH2 0x398C DUP9 DUP3 DUP10 ADD PUSH2 0x356F JUMP JUMPDEST SWAP6 POP POP PUSH1 0x20 PUSH2 0x399D DUP9 DUP3 DUP10 ADD PUSH2 0x356F JUMP JUMPDEST SWAP5 POP POP PUSH1 0x40 PUSH2 0x39AE DUP9 DUP3 DUP10 ADD PUSH2 0x35CD JUMP JUMPDEST SWAP4 POP POP PUSH1 0x60 DUP7 ADD CALLDATALOAD PUSH8 0xFFFFFFFFFFFFFFFF DUP2 GT ISZERO PUSH2 0x39CF JUMPI PUSH2 0x39CE PUSH2 0x3549 JUMP JUMPDEST JUMPDEST PUSH2 0x39DB DUP9 DUP3 DUP10 ADD PUSH2 0x35F1 JUMP JUMPDEST SWAP3 POP SWAP3 POP POP SWAP3 SWAP6 POP SWAP3 SWAP6 SWAP1 SWAP4 POP JUMP JUMPDEST PUSH1 0x0 DUP1 PUSH1 0x0 DUP1 PUSH1 0x0 DUP1 PUSH1 0xA0 DUP8 DUP10 SUB SLT ISZERO PUSH2 0x3A07 JUMPI PUSH2 0x3A06 PUSH2 0x3544 JUMP JUMPDEST JUMPDEST PUSH1 0x0 PUSH2 0x3A15 DUP10 DUP3 DUP11 ADD PUSH2 0x356F JUMP JUMPDEST SWAP7 POP POP PUSH1 0x20 PUSH2 0x3A26 DUP10 DUP3 DUP11 ADD PUSH2 0x356F JUMP JUMPDEST SWAP6 POP POP PUSH1 0x40 PUSH2 0x3A37 DUP10 DUP3 DUP11 ADD PUSH2 0x356F JUMP JUMPDEST SWAP5 POP POP PUSH1 0x60 PUSH2 0x3A48 DUP10 DUP3 DUP11 ADD PUSH2 0x35CD JUMP JUMPDEST SWAP4 POP POP PUSH1 0x80 DUP8 ADD CALLDATALOAD PUSH8 0xFFFFFFFFFFFFFFFF DUP2 GT ISZERO PUSH2 0x3A69 JUMPI PUSH2 0x3A68 PUSH2 0x3549 JUMP JUMPDEST JUMPDEST PUSH2 0x3A75 DUP10 DUP3 DUP11 ADD PUSH2 0x35F1 JUMP JUMPDEST SWAP3 POP SWAP3 POP POP SWAP3 SWAP6 POP SWAP3 SWAP6 POP SWAP3 SWAP6 JUMP JUMPDEST PUSH1 0x0 DUP1 PUSH1 0x0 DUP1 PUSH1 0x0 PUSH1 0xA0 DUP7 DUP9 SUB SLT ISZERO PUSH2 0x3AA0 JUMPI PUSH2 0x3A9F PUSH2 0x3544 JUMP JUMPDEST JUMPDEST PUSH1 0x0 PUSH2 0x3AAE DUP9 DUP3 DUP10 ADD PUSH2 0x356F JUMP JUMPDEST SWAP6 POP POP PUSH1 0x20 PUSH2 0x3ABF DUP9 DUP3 DUP10 ADD PUSH2 0x356F JUMP JUMPDEST SWAP5 POP POP PUSH1 0x40 PUSH2 0x3AD0 DUP9 DUP3 DUP10 ADD PUSH2 0x356F JUMP JUMPDEST SWAP4 POP POP PUSH1 0x60 PUSH2 0x3AE1 DUP9 DUP3 DUP10 ADD PUSH2 0x356F JUMP JUMPDEST SWAP3 POP POP PUSH1 0x80 PUSH2 0x3AF2 DUP9 DUP3 DUP10 ADD PUSH2 0x35CD JUMP JUMPDEST SWAP2 POP POP SWAP3 SWAP6 POP SWAP3 SWAP6 SWAP1 SWAP4 POP JUMP JUMPDEST PUSH1 0x0 DUP1 PUSH1 0x0 DUP1 PUSH1 0x0 DUP1 PUSH1 0xA0 DUP8 DUP10 SUB SLT ISZERO PUSH2 0x3B1C JUMPI PUSH2 0x3B1B PUSH2 0x3544 JUMP JUMPDEST JUMPDEST PUSH1 0x0 PUSH2 0x3B2A DUP10 DUP3 DUP11 ADD PUSH2 0x356F JUMP JUMPDEST SWAP7 POP POP PUSH1 0x20 PUSH2 0x3B3B DUP10 DUP3 DUP11 ADD PUSH2 0x356F JUMP JUMPDEST SWAP6 POP POP PUSH1 0x40 PUSH2 0x3B4C DUP10 DUP3 DUP11 ADD PUSH2 0x35CD JUMP JUMPDEST SWAP5 POP POP PUSH1 0x60 PUSH2 0x3B5D DUP10 DUP3 DUP11 ADD PUSH2 0x356F JUMP JUMPDEST SWAP4 POP POP PUSH1 0x80 DUP8 ADD CALLDATALOAD PUSH8 0xFFFFFFFFFFFFFFFF DUP2 GT ISZERO PUSH2 0x3B7E JUMPI PUSH2 0x3B7D PUSH2 0x3549 JUMP JUMPDEST JUMPDEST PUSH2 0x3B8A DUP10 DUP3 DUP11 ADD PUSH2 0x35F1 JUMP JUMPDEST SWAP3 POP SWAP3 POP POP SWAP3 SWAP6 POP SWAP3 SWAP6 POP SWAP3 SWAP6 JUMP JUMPDEST PUSH1 0x0 DUP1 PUSH1 0x40 DUP4 DUP6 SUB SLT ISZERO PUSH2 0x3BB0 JUMPI PUSH2 0x3BAF PUSH2 0x3544 JUMP JUMPDEST JUMPDEST PUSH1 0x0 PUSH2 0x3BBE DUP6 DUP3 DUP7 ADD PUSH2 0x356F JUMP JUMPDEST SWAP3 POP POP PUSH1 0x20 PUSH2 0x3BCF DUP6 DUP3 DUP7 ADD PUSH2 0x356F JUMP JUMPDEST SWAP2 POP POP SWAP3 POP SWAP3 SWAP1 POP JUMP JUMPDEST PUSH1 0x0 PUSH1 0x20 DUP3 DUP5 SUB SLT ISZERO PUSH2 0x3BEF JUMPI PUSH2 0x3BEE PUSH2 0x3544 JUMP JUMPDEST JUMPDEST PUSH1 0x0 PUSH2 0x3BFD DUP5 DUP3 DUP6 ADD PUSH2 0x35CD JUMP JUMPDEST SWAP2 POP POP SWAP3 SWAP2 POP POP JUMP JUMPDEST PUSH1 0x0 PUSH1 0x20 DUP3 DUP5 SUB SLT ISZERO PUSH2 0x3C1C JUMPI PUSH2 0x3C1B PUSH2 0x3544 JUMP JUMPDEST JUMPDEST PUSH1 0x0 PUSH2 0x3C2A DUP5 DUP3 DUP6 ADD PUSH2 0x38CF JUMP JUMPDEST SWAP2 POP POP SWAP3 SWAP2 POP POP JUMP JUMPDEST PUSH1 0x0 PUSH1 0x1F NOT PUSH1 0x1F DUP4 ADD AND SWAP1 POP SWAP2 SWAP1 POP JUMP JUMPDEST PUSH32 0x4E487B7100000000000000000000000000000000000000000000000000000000 PUSH1 0x0 MSTORE PUSH1 0x41 PUSH1 0x4 MSTORE PUSH1 0x24 PUSH1 0x0 REVERT JUMPDEST PUSH2 0x3C7C DUP3 PUSH2 0x3C33 JUMP JUMPDEST DUP2 ADD DUP2 DUP2 LT PUSH8 0xFFFFFFFFFFFFFFFF DUP3 GT OR ISZERO PUSH2 0x3C9B JUMPI PUSH2 0x3C9A PUSH2 0x3C44 JUMP JUMPDEST JUMPDEST DUP1 PUSH1 0x40 MSTORE POP POP POP JUMP JUMPDEST PUSH1 0x0 PUSH2 0x3CAE PUSH2 0x353A JUMP JUMPDEST SWAP1 POP PUSH2 0x3CBA DUP3 DUP3 PUSH2 0x3C73 JUMP JUMPDEST SWAP2 SWAP1 POP JUMP JUMPDEST PUSH1 0x0 PUSH8 0xFFFFFFFFFFFFFFFF DUP3 GT ISZERO PUSH2 0x3CDA JUMPI PUSH2 0x3CD9 PUSH2 0x3C44 JUMP JUMPDEST JUMPDEST PUSH1 0x20 DUP3 MUL SWAP1 POP PUSH1 0x20 DUP2 ADD SWAP1 POP SWAP2 SWAP1 POP JUMP JUMPDEST PUSH1 0x0 PUSH2 0x3CFE PUSH2 0x3CF9 DUP5 PUSH2 0x3CBF JUMP JUMPDEST PUSH2 0x3CA4 JUMP JUMPDEST SWAP1 POP DUP1 DUP4 DUP3 MSTORE PUSH1 0x20 DUP3 ADD SWAP1 POP PUSH1 0x20 DUP5 MUL DUP4 ADD DUP6 DUP2 GT ISZERO PUSH2 0x3D21 JUMPI PUSH2 0x3D20 PUSH2 0x35EC JUMP JUMPDEST JUMPDEST DUP4 JUMPDEST DUP2 DUP2 LT ISZERO PUSH2 0x3D4A JUMPI DUP1 PUSH2 0x3D36 DUP9 DUP3 PUSH2 0x35CD JUMP JUMPDEST DUP5 MSTORE PUSH1 0x20 DUP5 ADD SWAP4 POP POP PUSH1 0x20 DUP2 ADD SWAP1 POP PUSH2 0x3D23 JUMP JUMPDEST POP POP POP SWAP4 SWAP3 POP POP POP JUMP JUMPDEST PUSH1 0x0 DUP3 PUSH1 0x1F DUP4 ADD SLT PUSH2 0x3D69 JUMPI PUSH2 0x3D68 PUSH2 0x35E2 JUMP JUMPDEST JUMPDEST DUP2 CALLDATALOAD PUSH2 0x3D79 DUP5 DUP3 PUSH1 0x20 DUP7 ADD PUSH2 0x3CEB JUMP JUMPDEST SWAP2 POP POP SWAP3 SWAP2 POP POP JUMP JUMPDEST PUSH1 0x0 PUSH8 0xFFFFFFFFFFFFFFFF DUP3 GT ISZERO PUSH2 0x3D9D JUMPI PUSH2 0x3D9C PUSH2 0x3C44 JUMP JUMPDEST JUMPDEST PUSH1 0x20 DUP3 MUL SWAP1 POP PUSH1 0x20 DUP2 ADD SWAP1 POP SWAP2 SWAP1 POP JUMP JUMPDEST PUSH2 0x3DB7 DUP2 PUSH2 0x3870 JUMP JUMPDEST DUP2 EQ PUSH2 0x3DC2 JUMPI PUSH1 0x0 DUP1 REVERT JUMPDEST POP JUMP JUMPDEST PUSH1 0x0 DUP2 CALLDATALOAD SWAP1 POP PUSH2 0x3DD4 DUP2 PUSH2 0x3DAE JUMP JUMPDEST SWAP3 SWAP2 POP POP JUMP JUMPDEST PUSH1 0x0 PUSH2 0x3DED PUSH2 0x3DE8 DUP5 PUSH2 0x3D82 JUMP JUMPDEST PUSH2 0x3CA4 JUMP JUMPDEST SWAP1 POP DUP1 DUP4 DUP3 MSTORE PUSH1 0x20 DUP3 ADD SWAP1 POP PUSH1 0x20 DUP5 MUL DUP4 ADD DUP6 DUP2 GT ISZERO PUSH2 0x3E10 JUMPI PUSH2 0x3E0F PUSH2 0x35EC JUMP JUMPDEST JUMPDEST DUP4 JUMPDEST DUP2 DUP2 LT ISZERO PUSH2 0x3E39 JUMPI DUP1 PUSH2 0x3E25 DUP9 DUP3 PUSH2 0x3DC5 JUMP JUMPDEST DUP5 MSTORE PUSH1 0x20 DUP5 ADD SWAP4 POP POP PUSH1 0x20 DUP2 ADD SWAP1 POP PUSH2 0x3E12 JUMP JUMPDEST POP POP POP SWAP4 SWAP3 POP POP POP JUMP JUMPDEST PUSH1 0x0 DUP3 PUSH1 0x1F DUP4 ADD SLT PUSH2 0x3E58 JUMPI PUSH2 0x3E57 PUSH2 0x35E2 JUMP JUMPDEST JUMPDEST DUP2 CALLDATALOAD PUSH2 0x3E68 DUP5 DUP3 PUSH1 0x20 DUP7 ADD PUSH2 0x3DDA JUMP JUMPDEST SWAP2 POP POP SWAP3 SWAP2 POP POP JUMP JUMPDEST PUSH1 0x0 DUP1 PUSH1 0x40 DUP4 DUP6 SUB SLT ISZERO PUSH2 0x3E88 JUMPI PUSH2 0x3E87 PUSH2 0x3544 JUMP JUMPDEST JUMPDEST PUSH1 0x0 DUP4 ADD CALLDATALOAD PUSH8 0xFFFFFFFFFFFFFFFF DUP2 GT ISZERO PUSH2 0x3EA6 JUMPI PUSH2 0x3EA5 PUSH2 0x3549 JUMP JUMPDEST JUMPDEST PUSH2 0x3EB2 DUP6 DUP3 DUP7 ADD PUSH2 0x3D54 JUMP JUMPDEST SWAP3 POP POP PUSH1 0x20 DUP4 ADD CALLDATALOAD PUSH8 0xFFFFFFFFFFFFFFFF DUP2 GT ISZERO PUSH2 0x3ED3 JUMPI PUSH2 0x3ED2 PUSH2 0x3549 JUMP JUMPDEST JUMPDEST PUSH2 0x3EDF DUP6 DUP3 DUP7 ADD PUSH2 0x3E43 JUMP JUMPDEST SWAP2 POP POP SWAP3 POP SWAP3 SWAP1 POP JUMP JUMPDEST PUSH1 0x0 DUP2 SWAP1 POP SWAP2 SWAP1 POP JUMP JUMPDEST PUSH1 0x0 PUSH2 0x3F0E PUSH2 0x3F09 PUSH2 0x3F04 DUP5 PUSH2 0x3584 JUMP JUMPDEST PUSH2 0x3EE9 JUMP JUMPDEST PUSH2 0x3584 JUMP JUMPDEST SWAP1 POP SWAP2 SWAP1 POP JUMP JUMPDEST PUSH1 0x0 PUSH2 0x3F20 DUP3 PUSH2 0x3EF3 JUMP JUMPDEST SWAP1 POP SWAP2 SWAP1 POP JUMP JUMPDEST PUSH1 0x0 PUSH2 0x3F32 DUP3 PUSH2 0x3F15 JUMP JUMPDEST SWAP1 POP SWAP2 SWAP1 POP JUMP JUMPDEST PUSH2 0x3F42 DUP2 PUSH2 0x3F27 JUMP JUMPDEST DUP3 MSTORE POP POP JUMP JUMPDEST PUSH1 0x0 PUSH1 0x20 DUP3 ADD SWAP1 POP PUSH2 0x3F5D PUSH1 0x0 DUP4 ADD DUP5 PUSH2 0x3F39 JUMP JUMPDEST SWAP3 SWAP2 POP POP JUMP JUMPDEST PUSH1 0x0 PUSH2 0x3F6E DUP3 PUSH2 0x3F15 JUMP JUMPDEST SWAP1 POP SWAP2 SWAP1 POP JUMP JUMPDEST PUSH2 0x3F7E DUP2 PUSH2 0x3F63 JUMP JUMPDEST DUP3 MSTORE POP POP JUMP JUMPDEST PUSH1 0x0 PUSH1 0x20 DUP3 ADD SWAP1 POP PUSH2 0x3F99 PUSH1 0x0 DUP4 ADD DUP5 PUSH2 0x3F75 JUMP JUMPDEST SWAP3 SWAP2 POP POP JUMP JUMPDEST PUSH1 0x0 PUSH1 0x20 DUP3 DUP5 SUB SLT ISZERO PUSH2 0x3FB5 JUMPI PUSH2 0x3FB4 PUSH2 0x3544 JUMP JUMPDEST JUMPDEST PUSH1 0x0 PUSH2 0x3FC3 DUP5 DUP3 DUP6 ADD PUSH2 0x3DC5 JUMP JUMPDEST SWAP2 POP POP SWAP3 SWAP2 POP POP JUMP JUMPDEST PUSH1 0x0 DUP3 DUP3 MSTORE PUSH1 0x20 DUP3 ADD SWAP1 POP SWAP3 SWAP2 POP POP JUMP JUMPDEST PUSH32 0x5061757361626C653A2070617573656400000000000000000000000000000000 PUSH1 0x0 DUP3 ADD MSTORE POP JUMP JUMPDEST PUSH1 0x0 PUSH2 0x4013 PUSH1 0x10 DUP4 PUSH2 0x3FCC JUMP JUMPDEST SWAP2 POP PUSH2 0x401E DUP3 PUSH2 0x3FDD JUMP JUMPDEST PUSH1 0x20 DUP3 ADD SWAP1 POP SWAP2 SWAP1 POP JUMP JUMPDEST PUSH1 0x0 PUSH1 0x20 DUP3 ADD SWAP1 POP DUP2 DUP2 SUB PUSH1 0x0 DUP4 ADD MSTORE PUSH2 0x4042 DUP2 PUSH2 0x4006 JUMP JUMPDEST SWAP1 POP SWAP2 SWAP1 POP JUMP JUMPDEST PUSH2 0x4052 DUP2 PUSH2 0x35A4 JUMP JUMPDEST DUP3 MSTORE POP POP JUMP JUMPDEST PUSH1 0x0 PUSH1 0x20 DUP3 ADD SWAP1 POP PUSH2 0x406D PUSH1 0x0 DUP4 ADD DUP5 PUSH2 0x4049 JUMP JUMPDEST SWAP3 SWAP2 POP POP JUMP JUMPDEST PUSH1 0x0 PUSH1 0xFF DUP3 AND SWAP1 POP SWAP2 SWAP1 POP JUMP JUMPDEST PUSH1 0x0 DUP2 PUSH1 0xF8 SHL SWAP1 POP SWAP2 SWAP1 POP JUMP JUMPDEST PUSH1 0x0 PUSH2 0x4098 DUP3 PUSH2 0x4080 JUMP JUMPDEST SWAP1 POP SWAP2 SWAP1 POP JUMP JUMPDEST PUSH2 0x40B0 PUSH2 0x40AB DUP3 PUSH2 0x4073 JUMP JUMPDEST PUSH2 0x408D JUMP JUMPDEST DUP3 MSTORE POP POP JUMP JUMPDEST PUSH1 0x0 DUP2 SWAP1 POP SWAP2 SWAP1 POP JUMP JUMPDEST PUSH2 0x40D1 PUSH2 0x40CC DUP3 PUSH2 0x354E JUMP JUMPDEST PUSH2 0x40B6 JUMP JUMPDEST DUP3 MSTORE POP POP JUMP JUMPDEST PUSH1 0x0 DUP2 SWAP1 POP SWAP3 SWAP2 POP POP JUMP JUMPDEST DUP3 DUP2 DUP4 CALLDATACOPY PUSH1 0x0 DUP4 DUP4 ADD MSTORE POP POP POP JUMP JUMPDEST PUSH1 0x0 PUSH2 0x40FD DUP4 DUP6 PUSH2 0x40D7 JUMP JUMPDEST SWAP4 POP PUSH2 0x410A DUP4 DUP6 DUP5 PUSH2 0x40E2 JUMP JUMPDEST DUP3 DUP5 ADD SWAP1 POP SWAP4 SWAP3 POP POP POP JUMP JUMPDEST PUSH1 0x0 PUSH2 0x4122 DUP3 DUP12 PUSH2 0x409F JUMP JUMPDEST PUSH1 0x1 DUP3 ADD SWAP2 POP PUSH2 0x4132 DUP3 DUP11 PUSH2 0x40C0 JUMP JUMPDEST PUSH1 0x20 DUP3 ADD SWAP2 POP PUSH2 0x4142 DUP3 DUP10 PUSH2 0x40C0 JUMP JUMPDEST PUSH1 0x20 DUP3 ADD SWAP2 POP PUSH2 0x4152 DUP3 DUP9 PUSH2 0x40C0 JUMP JUMPDEST PUSH1 0x20 DUP3 ADD SWAP2 POP PUSH2 0x4162 DUP3 DUP8 PUSH2 0x40C0 JUMP JUMPDEST PUSH1 0x20 DUP3 ADD SWAP2 POP PUSH2 0x4172 DUP3 DUP7 PUSH2 0x40C0 JUMP JUMPDEST PUSH1 0x20 DUP3 ADD SWAP2 POP PUSH2 0x4183 DUP3 DUP5 DUP7 PUSH2 0x40F1 JUMP JUMPDEST SWAP2 POP DUP2 SWAP1 POP SWAP10 SWAP9 POP POP POP POP POP POP POP POP POP JUMP JUMPDEST PUSH32 0x4E4F545F554E49535741505F4C315F54494D454C4F434B000000000000000000 PUSH1 0x0 DUP3 ADD MSTORE POP JUMP JUMPDEST PUSH1 0x0 PUSH2 0x41CB PUSH1 0x17 DUP4 PUSH2 0x3FCC JUMP JUMPDEST SWAP2 POP PUSH2 0x41D6 DUP3 PUSH2 0x4195 JUMP JUMPDEST PUSH1 0x20 DUP3 ADD SWAP1 POP SWAP2 SWAP1 POP JUMP JUMPDEST PUSH1 0x0 PUSH1 0x20 DUP3 ADD SWAP1 POP DUP2 DUP2 SUB PUSH1 0x0 DUP4 ADD MSTORE PUSH2 0x41FA DUP2 PUSH2 0x41BE JUMP JUMPDEST SWAP1 POP SWAP2 SWAP1 POP JUMP JUMPDEST PUSH32 0x4E4F545F544F5F554E49535741505F4C325F464143544F525900000000000000 PUSH1 0x0 DUP3 ADD MSTORE POP JUMP JUMPDEST PUSH1 0x0 PUSH2 0x4237 PUSH1 0x19 DUP4 PUSH2 0x3FCC JUMP JUMPDEST SWAP2 POP PUSH2 0x4242 DUP3 PUSH2 0x4201 JUMP JUMPDEST PUSH1 0x20 DUP3 ADD SWAP1 POP SWAP2 SWAP1 POP JUMP JUMPDEST PUSH1 0x0 PUSH1 0x20 DUP3 ADD SWAP1 POP DUP2 DUP2 SUB PUSH1 0x0 DUP4 ADD MSTORE PUSH2 0x4266 DUP2 PUSH2 0x422A JUMP JUMPDEST SWAP1 POP SWAP2 SWAP1 POP JUMP JUMPDEST PUSH32 0x4E487B7100000000000000000000000000000000000000000000000000000000 PUSH1 0x0 MSTORE PUSH1 0x11 PUSH1 0x4 MSTORE PUSH1 0x24 PUSH1 0x0 REVERT JUMPDEST PUSH1 0x0 PUSH2 0x42A7 DUP3 PUSH2 0x354E JUMP JUMPDEST SWAP2 POP PUSH2 0x42B2 DUP4 PUSH2 0x354E JUMP JUMPDEST SWAP3 POP DUP2 PUSH32 0xFFFFFFFFFFFFFFFFFFFFFFFFFFFFFFFFFFFFFFFFFFFFFFFFFFFFFFFFFFFFFFFF DIV DUP4 GT DUP3 ISZERO ISZERO AND ISZERO PUSH2 0x42EB JUMPI PUSH2 0x42EA PUSH2 0x426D JUMP JUMPDEST JUMPDEST DUP3 DUP3 MUL SWAP1 POP SWAP3 SWAP2 POP POP JUMP JUMPDEST PUSH1 0x0 PUSH2 0x4301 DUP3 PUSH2 0x354E JUMP JUMPDEST SWAP2 POP PUSH2 0x430C DUP4 PUSH2 0x354E JUMP JUMPDEST SWAP3 POP DUP3 PUSH32 0xFFFFFFFFFFFFFFFFFFFFFFFFFFFFFFFFFFFFFFFFFFFFFFFFFFFFFFFFFFFFFFFF SUB DUP3 GT ISZERO PUSH2 0x4341 JUMPI PUSH2 0x4340 PUSH2 0x426D JUMP JUMPDEST JUMPDEST DUP3 DUP3 ADD SWAP1 POP SWAP3 SWAP2 POP POP JUMP JUMPDEST PUSH1 0x0 PUSH1 0x40 DUP3 ADD SWAP1 POP PUSH2 0x4361 PUSH1 0x0 DUP4 ADD DUP6 PUSH2 0x36F6 JUMP JUMPDEST PUSH2 0x436E PUSH1 0x20 DUP4 ADD DUP5 PUSH2 0x36F6 JUMP JUMPDEST SWAP4 SWAP3 POP POP POP JUMP JUMPDEST PUSH1 0x0 DUP3 DUP3 MSTORE PUSH1 0x20 DUP3 ADD SWAP1 POP SWAP3 SWAP2 POP POP JUMP JUMPDEST PUSH1 0x0 PUSH2 0x4392 DUP4 DUP6 PUSH2 0x4375 JUMP JUMPDEST SWAP4 POP PUSH2 0x439F DUP4 DUP6 DUP5 PUSH2 0x40E2 JUMP JUMPDEST PUSH2 0x43A8 DUP4 PUSH2 0x3C33 JUMP JUMPDEST DUP5 ADD SWAP1 POP SWAP4 SWAP3 POP POP POP JUMP JUMPDEST PUSH1 0x0 PUSH2 0x140 DUP3 ADD SWAP1 POP PUSH2 0x43C9 PUSH1 0x0 DUP4 ADD DUP15 PUSH2 0x4049 JUMP JUMPDEST PUSH2 0x43D6 PUSH1 0x20 DUP4 ADD DUP14 PUSH2 0x4049 JUMP JUMPDEST PUSH2 0x43E3 PUSH1 0x40 DUP4 ADD DUP13 PUSH2 0x36F6 JUMP JUMPDEST PUSH2 0x43F0 PUSH1 0x60 DUP4 ADD DUP12 PUSH2 0x36F6 JUMP JUMPDEST PUSH2 0x43FD PUSH1 0x80 DUP4 ADD DUP11 PUSH2 0x36F6 JUMP JUMPDEST PUSH2 0x440A PUSH1 0xA0 DUP4 ADD DUP10 PUSH2 0x4049 JUMP JUMPDEST PUSH2 0x4417 PUSH1 0xC0 DUP4 ADD DUP9 PUSH2 0x4049 JUMP JUMPDEST PUSH2 0x4424 PUSH1 0xE0 DUP4 ADD DUP8 PUSH2 0x36F6 JUMP JUMPDEST PUSH2 0x4432 PUSH2 0x100 DUP4 ADD DUP7 PUSH2 0x36F6 JUMP JUMPDEST DUP2 DUP2 SUB PUSH2 0x120 DUP4 ADD MSTORE PUSH2 0x4446 DUP2 DUP5 DUP7 PUSH2 0x4386 JUMP JUMPDEST SWAP1 POP SWAP13 SWAP12 POP POP POP POP POP POP POP POP POP POP POP POP JUMP JUMPDEST PUSH1 0x0 PUSH2 0x4464 DUP3 DUP15 PUSH2 0x40C0 JUMP JUMPDEST PUSH1 0x20 DUP3 ADD SWAP2 POP PUSH2 0x4474 DUP3 DUP14 PUSH2 0x40C0 JUMP JUMPDEST PUSH1 0x20 DUP3 ADD SWAP2 POP PUSH2 0x4484 DUP3 DUP13 PUSH2 0x40C0 JUMP JUMPDEST PUSH1 0x20 DUP3 ADD SWAP2 POP PUSH2 0x4494 DUP3 DUP12 PUSH2 0x40C0 JUMP JUMPDEST PUSH1 0x20 DUP3 ADD SWAP2 POP PUSH2 0x44A4 DUP3 DUP11 PUSH2 0x40C0 JUMP JUMPDEST PUSH1 0x20 DUP3 ADD SWAP2 POP PUSH2 0x44B4 DUP3 DUP10 PUSH2 0x40C0 JUMP JUMPDEST PUSH1 0x20 DUP3 ADD SWAP2 POP PUSH2 0x44C4 DUP3 DUP9 PUSH2 0x40C0 JUMP JUMPDEST PUSH1 0x20 DUP3 ADD SWAP2 POP PUSH2 0x44D4 DUP3 DUP8 PUSH2 0x40C0 JUMP JUMPDEST PUSH1 0x20 DUP3 ADD SWAP2 POP PUSH2 0x44E4 DUP3 DUP7 PUSH2 0x40C0 JUMP JUMPDEST PUSH1 0x20 DUP3 ADD SWAP2 POP PUSH2 0x44F5 DUP3 DUP5 DUP7 PUSH2 0x40F1 JUMP JUMPDEST SWAP2 POP DUP2 SWAP1 POP SWAP13 SWAP12 POP POP POP POP POP POP POP POP POP POP POP POP JUMP JUMPDEST PUSH1 0x0 PUSH2 0x4517 DUP3 DUP5 DUP7 PUSH2 0x40F1 JUMP JUMPDEST SWAP2 POP DUP2 SWAP1 POP SWAP4 SWAP3 POP POP POP JUMP JUMPDEST PUSH1 0x0 PUSH2 0x452E DUP3 PUSH2 0x35A4 JUMP JUMPDEST SWAP1 POP SWAP2 SWAP1 POP JUMP JUMPDEST PUSH2 0x453E DUP2 PUSH2 0x4523 JUMP JUMPDEST DUP2 EQ PUSH2 0x4549 JUMPI PUSH1 0x0 DUP1 REVERT JUMPDEST POP JUMP JUMPDEST PUSH1 0x0 DUP2 MLOAD SWAP1 POP PUSH2 0x455B DUP2 PUSH2 0x4535 JUMP JUMPDEST SWAP3 SWAP2 POP POP JUMP JUMPDEST PUSH1 0x0 PUSH1 0x20 DUP3 DUP5 SUB SLT ISZERO PUSH2 0x4577 JUMPI PUSH2 0x4576 PUSH2 0x3544 JUMP JUMPDEST JUMPDEST PUSH1 0x0 PUSH2 0x4585 DUP5 DUP3 DUP6 ADD PUSH2 0x454C JUMP JUMPDEST SWAP2 POP POP SWAP3 SWAP2 POP POP JUMP JUMPDEST PUSH1 0x0 DUP2 MLOAD SWAP1 POP PUSH2 0x459D DUP2 PUSH2 0x35B6 JUMP JUMPDEST SWAP3 SWAP2 POP POP JUMP JUMPDEST PUSH1 0x0 PUSH1 0x20 DUP3 DUP5 SUB SLT ISZERO PUSH2 0x45B9 JUMPI PUSH2 0x45B8 PUSH2 0x3544 JUMP JUMPDEST JUMPDEST PUSH1 0x0 PUSH2 0x45C7 DUP5 DUP3 DUP6 ADD PUSH2 0x458E JUMP JUMPDEST SWAP2 POP POP SWAP3 SWAP2 POP POP JUMP JUMPDEST PUSH1 0x0 PUSH1 0x60 DUP3 ADD SWAP1 POP PUSH2 0x45E5 PUSH1 0x0 DUP4 ADD DUP7 PUSH2 0x4049 JUMP JUMPDEST PUSH2 0x45F2 PUSH1 0x20 DUP4 ADD DUP6 PUSH2 0x4049 JUMP JUMPDEST PUSH2 0x45FF PUSH1 0x40 DUP4 ADD DUP5 PUSH2 0x4049 JUMP JUMPDEST SWAP5 SWAP4 POP POP POP POP JUMP JUMPDEST PUSH1 0x0 DUP2 PUSH1 0x60 SHL SWAP1 POP SWAP2 SWAP1 POP JUMP JUMPDEST PUSH1 0x0 PUSH2 0x461F DUP3 PUSH2 0x4607 JUMP JUMPDEST SWAP1 POP SWAP2 SWAP1 POP JUMP JUMPDEST PUSH1 0x0 PUSH2 0x4631 DUP3 PUSH2 0x4614 JUMP JUMPDEST SWAP1 POP SWAP2 SWAP1 POP JUMP JUMPDEST PUSH2 0x4649 PUSH2 0x4644 DUP3 PUSH2 0x35A4 JUMP JUMPDEST PUSH2 0x4626 JUMP JUMPDEST DUP3 MSTORE POP POP JUMP JUMPDEST PUSH1 0x0 PUSH2 0x465B DUP3 DUP6 PUSH2 0x4638 JUMP JUMPDEST PUSH1 0x14 DUP3 ADD SWAP2 POP PUSH2 0x466B DUP3 DUP5 PUSH2 0x40C0 JUMP JUMPDEST PUSH1 0x20 DUP3 ADD SWAP2 POP DUP2 SWAP1 POP SWAP4 SWAP3 POP POP POP JUMP JUMPDEST PUSH32 0x496E697469616C697A61626C653A20636F6E747261637420697320616C726561 PUSH1 0x0 DUP3 ADD MSTORE PUSH32 0x647920696E697469616C697A6564000000000000000000000000000000000000 PUSH1 0x20 DUP3 ADD MSTORE POP JUMP JUMPDEST PUSH1 0x0 PUSH2 0x46D7 PUSH1 0x2E DUP4 PUSH2 0x3FCC JUMP JUMPDEST SWAP2 POP PUSH2 0x46E2 DUP3 PUSH2 0x467B JUMP JUMPDEST PUSH1 0x40 DUP3 ADD SWAP1 POP SWAP2 SWAP1 POP JUMP JUMPDEST PUSH1 0x0 PUSH1 0x20 DUP3 ADD SWAP1 POP DUP2 DUP2 SUB PUSH1 0x0 DUP4 ADD MSTORE PUSH2 0x4706 DUP2 PUSH2 0x46CA JUMP JUMPDEST SWAP1 POP SWAP2 SWAP1 POP JUMP JUMPDEST PUSH32 0x46756E6374696F6E206D7573742062652063616C6C6564207468726F75676820 PUSH1 0x0 DUP3 ADD MSTORE PUSH32 0x64656C656761746563616C6C0000000000000000000000000000000000000000 PUSH1 0x20 DUP3 ADD MSTORE POP JUMP JUMPDEST PUSH1 0x0 PUSH2 0x4769 PUSH1 0x2C DUP4 PUSH2 0x3FCC JUMP JUMPDEST SWAP2 POP PUSH2 0x4774 DUP3 PUSH2 0x470D JUMP JUMPDEST PUSH1 0x40 DUP3 ADD SWAP1 POP SWAP2 SWAP1 POP JUMP JUMPDEST PUSH1 0x0 PUSH1 0x20 DUP3 ADD SWAP1 POP DUP2 DUP2 SUB PUSH1 0x0 DUP4 ADD MSTORE PUSH2 0x4798 DUP2 PUSH2 0x475C JUMP JUMPDEST SWAP1 POP SWAP2 SWAP1 POP JUMP JUMPDEST PUSH1 0x0 PUSH2 0x47AB DUP3 DUP11 PUSH2 0x409F JUMP JUMPDEST PUSH1 0x1 DUP3 ADD SWAP2 POP PUSH2 0x47BB DUP3 DUP10 PUSH2 0x40C0 JUMP JUMPDEST PUSH1 0x20 DUP3 ADD SWAP2 POP PUSH2 0x47CB DUP3 DUP9 PUSH2 0x40C0 JUMP JUMPDEST PUSH1 0x20 DUP3 ADD SWAP2 POP PUSH2 0x47DB DUP3 DUP8 PUSH2 0x40C0 JUMP JUMPDEST PUSH1 0x20 DUP3 ADD SWAP2 POP PUSH2 0x47EB DUP3 DUP7 PUSH2 0x40C0 JUMP JUMPDEST PUSH1 0x20 DUP3 ADD SWAP2 POP PUSH2 0x47FC DUP3 DUP5 DUP7 PUSH2 0x40F1 JUMP JUMPDEST SWAP2 POP DUP2 SWAP1 POP SWAP9 SWAP8 POP POP POP POP POP POP POP POP JUMP JUMPDEST PUSH1 0x0 PUSH32 0xFFFFFFFF00000000000000000000000000000000000000000000000000000000 DUP3 AND SWAP1 POP SWAP2 SWAP1 POP JUMP JUMPDEST PUSH2 0x4842 DUP2 PUSH2 0x480D JUMP JUMPDEST DUP3 MSTORE POP POP JUMP JUMPDEST PUSH1 0x0 PUSH1 0x40 DUP3 ADD SWAP1 POP PUSH2 0x485D PUSH1 0x0 DUP4 ADD DUP6 PUSH2 0x4839 JUMP JUMPDEST PUSH2 0x486A PUSH1 0x20 DUP4 ADD DUP5 PUSH2 0x4049 JUMP JUMPDEST SWAP4 SWAP3 POP POP POP JUMP JUMPDEST PUSH1 0x0 DUP2 MLOAD SWAP1 POP SWAP2 SWAP1 POP JUMP JUMPDEST PUSH1 0x0 JUMPDEST DUP4 DUP2 LT ISZERO PUSH2 0x489A JUMPI DUP1 DUP3 ADD MLOAD DUP2 DUP5 ADD MSTORE PUSH1 0x20 DUP2 ADD SWAP1 POP PUSH2 0x487F JUMP JUMPDEST DUP4 DUP2 GT ISZERO PUSH2 0x48A9 JUMPI PUSH1 0x0 DUP5 DUP5 ADD MSTORE JUMPDEST POP POP POP POP JUMP JUMPDEST PUSH1 0x0 PUSH2 0x48BA DUP3 PUSH2 0x4871 JUMP JUMPDEST PUSH2 0x48C4 DUP2 DUP6 PUSH2 0x40D7 JUMP JUMPDEST SWAP4 POP PUSH2 0x48D4 DUP2 DUP6 PUSH1 0x20 DUP7 ADD PUSH2 0x487C JUMP JUMPDEST DUP1 DUP5 ADD SWAP2 POP POP SWAP3 SWAP2 POP POP JUMP JUMPDEST PUSH1 0x0 PUSH2 0x48EC DUP3 DUP11 PUSH2 0x409F JUMP JUMPDEST PUSH1 0x1 DUP3 ADD SWAP2 POP PUSH2 0x48FC DUP3 DUP10 PUSH2 0x40C0 JUMP JUMPDEST PUSH1 0x20 DUP3 ADD SWAP2 POP PUSH2 0x490C DUP3 DUP9 PUSH2 0x40C0 JUMP JUMPDEST PUSH1 0x20 DUP3 ADD SWAP2 POP PUSH2 0x491C DUP3 DUP8 PUSH2 0x40C0 JUMP JUMPDEST PUSH1 0x20 DUP3 ADD SWAP2 POP PUSH2 0x492C DUP3 DUP7 PUSH2 0x40C0 JUMP JUMPDEST PUSH1 0x20 DUP3 ADD SWAP2 POP PUSH2 0x493C DUP3 DUP6 PUSH2 0x40C0 JUMP JUMPDEST PUSH1 0x20 DUP3 ADD SWAP2 POP PUSH2 0x494C DUP3 DUP5 PUSH2 0x48AF JUMP JUMPDEST SWAP2 POP DUP2 SWAP1 POP SWAP9 SWAP8 POP POP POP POP POP POP POP POP JUMP JUMPDEST PUSH1 0x0 PUSH1 0x40 DUP3 ADD SWAP1 POP PUSH2 0x4972 PUSH1 0x0 DUP4 ADD DUP6 PUSH2 0x4049 JUMP JUMPDEST PUSH2 0x497F PUSH1 0x20 DUP4 ADD DUP5 PUSH2 0x4049 JUMP JUMPDEST SWAP4 SWAP3 POP POP POP JUMP JUMPDEST PUSH32 0x494E56414C49445F494E50555400000000000000000000000000000000000000 PUSH1 0x0 DUP3 ADD MSTORE POP JUMP JUMPDEST PUSH1 0x0 PUSH2 0x49BC PUSH1 0xD DUP4 PUSH2 0x3FCC JUMP JUMPDEST SWAP2 POP PUSH2 0x49C7 DUP3 PUSH2 0x4986 JUMP JUMPDEST PUSH1 0x20 DUP3 ADD SWAP1 POP SWAP2 SWAP1 POP JUMP JUMPDEST PUSH1 0x0 PUSH1 0x20 DUP3 ADD SWAP1 POP DUP2 DUP2 SUB PUSH1 0x0 DUP4 ADD MSTORE PUSH2 0x49EB DUP2 PUSH2 0x49AF JUMP JUMPDEST SWAP1 POP SWAP2 SWAP1 POP JUMP JUMPDEST PUSH32 0x4E487B7100000000000000000000000000000000000000000000000000000000 PUSH1 0x0 MSTORE PUSH1 0x32 PUSH1 0x4 MSTORE PUSH1 0x24 PUSH1 0x0 REVERT JUMPDEST PUSH1 0x0 PUSH2 0x4A2C DUP3 PUSH2 0x354E JUMP JUMPDEST SWAP2 POP PUSH32 0xFFFFFFFFFFFFFFFFFFFFFFFFFFFFFFFFFFFFFFFFFFFFFFFFFFFFFFFFFFFFFFFF DUP3 EQ ISZERO PUSH2 0x4A5F JUMPI PUSH2 0x4A5E PUSH2 0x426D JUMP JUMPDEST JUMPDEST PUSH1 0x1 DUP3 ADD SWAP1 POP SWAP2 SWAP1 POP JUMP JUMPDEST PUSH32 0x414C52454144595F534554000000000000000000000000000000000000000000 PUSH1 0x0 DUP3 ADD MSTORE POP JUMP JUMPDEST PUSH1 0x0 PUSH2 0x4AA0 PUSH1 0xB DUP4 PUSH2 0x3FCC JUMP JUMPDEST SWAP2 POP PUSH2 0x4AAB DUP3 PUSH2 0x4A6A JUMP JUMPDEST PUSH1 0x20 DUP3 ADD SWAP1 POP SWAP2 SWAP1 POP JUMP JUMPDEST PUSH1 0x0 PUSH1 0x20 DUP3 ADD SWAP1 POP DUP2 DUP2 SUB PUSH1 0x0 DUP4 ADD MSTORE PUSH2 0x4ACF DUP2 PUSH2 0x4A93 JUMP JUMPDEST SWAP1 POP SWAP2 SWAP1 POP JUMP JUMPDEST PUSH1 0x0 PUSH2 0x4AE1 DUP3 PUSH2 0x4871 JUMP JUMPDEST PUSH2 0x4AEB DUP2 DUP6 PUSH2 0x4375 JUMP JUMPDEST SWAP4 POP PUSH2 0x4AFB DUP2 DUP6 PUSH1 0x20 DUP7 ADD PUSH2 0x487C JUMP JUMPDEST PUSH2 0x4B04 DUP2 PUSH2 0x3C33 JUMP JUMPDEST DUP5 ADD SWAP2 POP POP SWAP3 SWAP2 POP POP JUMP JUMPDEST PUSH1 0x0 PUSH1 0x20 DUP3 ADD SWAP1 POP DUP2 DUP2 SUB PUSH1 0x0 DUP4 ADD MSTORE PUSH2 0x4B29 DUP2 DUP5 PUSH2 0x4AD6 JUMP JUMPDEST SWAP1 POP SWAP3 SWAP2 POP POP JUMP JUMPDEST PUSH2 0x4B3A DUP2 PUSH2 0x4073 JUMP JUMPDEST DUP3 MSTORE POP POP JUMP JUMPDEST PUSH1 0x0 DUP2 SWAP1 POP SWAP2 SWAP1 POP JUMP JUMPDEST PUSH2 0x4B53 DUP2 PUSH2 0x4B40 JUMP JUMPDEST DUP3 MSTORE POP POP JUMP JUMPDEST PUSH1 0x0 PUSH1 0x60 DUP3 ADD SWAP1 POP PUSH2 0x4B6E PUSH1 0x0 DUP4 ADD DUP7 PUSH2 0x4B31 JUMP JUMPDEST PUSH2 0x4B7B PUSH1 0x20 DUP4 ADD DUP6 PUSH2 0x4049 JUMP JUMPDEST PUSH2 0x4B88 PUSH1 0x40 DUP4 ADD DUP5 PUSH2 0x4B4A JUMP JUMPDEST SWAP5 SWAP4 POP POP POP POP JUMP JUMPDEST PUSH1 0x0 DUP2 MLOAD SWAP1 POP PUSH2 0x4B9F DUP2 PUSH2 0x3558 JUMP JUMPDEST SWAP3 SWAP2 POP POP JUMP JUMPDEST PUSH1 0x0 PUSH1 0x20 DUP3 DUP5 SUB SLT ISZERO PUSH2 0x4BBB JUMPI PUSH2 0x4BBA PUSH2 0x3544 JUMP JUMPDEST JUMPDEST PUSH1 0x0 PUSH2 0x4BC9 DUP5 DUP3 DUP6 ADD PUSH2 0x4B90 JUMP JUMPDEST SWAP2 POP POP SWAP3 SWAP2 POP POP JUMP JUMPDEST PUSH32 0x5061757361626C653A206E6F7420706175736564000000000000000000000000 PUSH1 0x0 DUP3 ADD MSTORE POP JUMP JUMPDEST PUSH1 0x0 PUSH2 0x4C08 PUSH1 0x14 DUP4 PUSH2 0x3FCC JUMP JUMPDEST SWAP2 POP PUSH2 0x4C13 DUP3 PUSH2 0x4BD2 JUMP JUMPDEST PUSH1 0x20 DUP3 ADD SWAP1 POP SWAP2 SWAP1 POP JUMP JUMPDEST PUSH1 0x0 PUSH1 0x20 DUP3 ADD SWAP1 POP DUP2 DUP2 SUB PUSH1 0x0 DUP4 ADD MSTORE PUSH2 0x4C37 DUP2 PUSH2 0x4BFB JUMP JUMPDEST SWAP1 POP SWAP2 SWAP1 POP JUMP JUMPDEST PUSH32 0x496E697469616C697A61626C653A20636F6E7472616374206973206E6F742069 PUSH1 0x0 DUP3 ADD MSTORE PUSH32 0x6E697469616C697A696E67000000000000000000000000000000000000000000 PUSH1 0x20 DUP3 ADD MSTORE POP JUMP JUMPDEST PUSH1 0x0 PUSH2 0x4C9A PUSH1 0x2B DUP4 PUSH2 0x3FCC JUMP JUMPDEST SWAP2 POP PUSH2 0x4CA5 DUP3 PUSH2 0x4C3E JUMP JUMPDEST PUSH1 0x40 DUP3 ADD SWAP1 POP SWAP2 SWAP1 POP JUMP JUMPDEST PUSH1 0x0 PUSH1 0x20 DUP3 ADD SWAP1 POP DUP2 DUP2 SUB PUSH1 0x0 DUP4 ADD MSTORE PUSH2 0x4CC9 DUP2 PUSH2 0x4C8D JUMP JUMPDEST SWAP1 POP SWAP2 SWAP1 POP JUMP INVALID LOG2 PUSH5 0x6970667358 0x22 SLT KECCAK256 0xCD SWAP3 PUSH3 0x8BB30F PUSH29 0xF10B1EAEED05CDE09BCF8B449322DF3B4B610371FDC482A34C64736F6C PUSH4 0x43000809 STOP CALLER "},"methodIdentifiers":{"allowListEnabled()":"22bd5c1c","bridge()":"e78cea92","calculateRetryableSubmissionFee(uint256,uint256)":"a66b327d","createRetryableTicket(address,uint256,uint256,address,address,uint256,uint256,bytes)":"679b6ded","createRetryableTicketNoRefundAliasRewrite(address,uint256,uint256,address,address,uint256,uint256,bytes)":"1b871c8d","depositEth()":"439370b1","depositEth(uint256)":"0f4d14e9","initialize(address,address)":"485cc955","isAllowed(address)":"babcc539","pause()":"8456cb59","paused()":"5c975abb","postUpgradeInit(address)":"c474d2c5","sendContractTransaction(uint256,uint256,address,uint256,bytes)":"8a631aa6","sendL1FundedContractTransaction(uint256,uint256,address,bytes)":"5e916758","sendL1FundedUnsignedTransaction(uint256,uint256,uint256,address,bytes)":"67ef3ab8","sendL1FundedUnsignedTransactionToFork(uint256,uint256,uint256,address,bytes)":"e6bd12cf","sendL2Message(bytes)":"b75436bb","sendL2MessageFromOrigin(bytes)":"1fe927cf","sendUnsignedTransaction(uint256,uint256,uint256,address,uint256,bytes)":"5075788b","sendUnsignedTransactionToFork(uint256,uint256,uint256,address,uint256,bytes)":"00f72382","sendWithdrawEthToFork(uint256,uint256,uint256,uint256,address)":"70665f14","sequencerInbox()":"ee35f327","setAllowList(address[],bool[])":"e3de72a5","setAllowListEnabled(bool)":"efeadb6d","uniswapCreateRetryableTicket(address,uint256,uint256,address,address,uint256,uint256,bytes)":"1cb763d2","unpause()":"3f4ba83a","unsafeCreateRetryableTicket(address,uint256,uint256,address,address,uint256,uint256,bytes)":"6e6e8a6a"}}}}}