{"@arbitrum/nitro-contracts/src/bridge/Outbox.sol":{"Outbox":{"abi":[{"inputs":[],"name":"AlreadyInit","type":"error"},{"inputs":[{"internalType":"uint256","name":"index","type":"uint256"}],"name":"AlreadySpent","type":"error"},{"inputs":[],"name":"BridgeCallFailed","type":"error"},{"inputs":[],"name":"HadZeroInit","type":"error"},{"inputs":[{"internalType":"uint256","name":"actualLength","type":"uint256"},{"internalType":"uint256","name":"maxProofLength","type":"uint256"}],"name":"MerkleProofTooLong","type":"error"},{"inputs":[{"internalType":"address","name":"sender","type":"address"},{"internalType":"address","name":"rollup","type":"address"}],"name":"NotRollup","type":"error"},{"inputs":[{"internalType":"uint256","name":"index","type":"uint256"},{"internalType":"uint256","name":"maxIndex","type":"uint256"}],"name":"PathNotMinimal","type":"error"},{"inputs":[{"internalType":"uint256","name":"proofLength","type":"uint256"}],"name":"ProofTooLong","type":"error"},{"inputs":[],"name":"SimulationOnlyEntrypoint","type":"error"},{"inputs":[{"internalType":"bytes32","name":"root","type":"bytes32"}],"name":"UnknownRoot","type":"error"},{"anonymous":false,"inputs":[{"indexed":true,"internalType":"address","name":"to","type":"address"},{"indexed":true,"internalType":"address","name":"l2Sender","type":"address"},{"indexed":true,"internalType":"uint256","name":"zero","type":"uint256"},{"indexed":false,"internalType":"uint256","name":"transactionIndex","type":"uint256"}],"name":"OutBoxTransactionExecuted","type":"event"},{"anonymous":false,"inputs":[{"indexed":true,"internalType":"bytes32","name":"outputRoot","type":"bytes32"},{"indexed":true,"internalType":"bytes32","name":"l2BlockHash","type":"bytes32"}],"name":"SendRootUpdated","type":"event"},{"inputs":[],"name":"OUTBOX_VERSION","outputs":[{"internalType":"uint128","name":"","type":"uint128"}],"stateMutability":"view","type":"function"},{"inputs":[],"name":"bridge","outputs":[{"internalType":"contract IBridge","name":"","type":"address"}],"stateMutability":"view","type":"function"},{"inputs":[{"internalType":"address","name":"l2Sender","type":"address"},{"internalType":"address","name":"to","type":"address"},{"internalType":"uint256","name":"l2Block","type":"uint256"},{"internalType":"uint256","name":"l1Block","type":"uint256"},{"internalType":"uint256","name":"l2Timestamp","type":"uint256"},{"internalType":"uint256","name":"value","type":"uint256"},{"internalType":"bytes","name":"data","type":"bytes"}],"name":"calculateItemHash","outputs":[{"internalType":"bytes32","name":"","type":"bytes32"}],"stateMutability":"pure","type":"function"},{"inputs":[{"internalType":"bytes32[]","name":"proof","type":"bytes32[]"},{"internalType":"uint256","name":"path","type":"uint256"},{"internalType":"bytes32","name":"item","type":"bytes32"}],"name":"calculateMerkleRoot","outputs":[{"internalType":"bytes32","name":"","type":"bytes32"}],"stateMutability":"pure","type":"function"},{"inputs":[{"internalType":"bytes32[]","name":"proof","type":"bytes32[]"},{"internalType":"uint256","name":"index","type":"uint256"},{"internalType":"address","name":"l2Sender","type":"address"},{"internalType":"address","name":"to","type":"address"},{"internalType":"uint256","name":"l2Block","type":"uint256"},{"internalType":"uint256","name":"l1Block","type":"uint256"},{"internalType":"uint256","name":"l2Timestamp","type":"uint256"},{"internalType":"uint256","name":"value","type":"uint256"},{"internalType":"bytes","name":"data","type":"bytes"}],"name":"executeTransaction","outputs":[],"stateMutability":"nonpayable","type":"function"},{"inputs":[{"internalType":"uint256","name":"index","type":"uint256"},{"internalType":"address","name":"l2Sender","type":"address"},{"internalType":"address","name":"to","type":"address"},{"internalType":"uint256","name":"l2Block","type":"uint256"},{"internalType":"uint256","name":"l1Block","type":"uint256"},{"internalType":"uint256","name":"l2Timestamp","type":"uint256"},{"internalType":"uint256","name":"value","type":"uint256"},{"internalType":"bytes","name":"data","type":"bytes"}],"name":"executeTransactionSimulation","outputs":[],"stateMutability":"nonpayable","type":"function"},{"inputs":[{"internalType":"contract IBridge","name":"_bridge","type":"address"}],"name":"initialize","outputs":[],"stateMutability":"nonpayable","type":"function"},{"inputs":[{"internalType":"uint256","name":"index","type":"uint256"}],"name":"isSpent","outputs":[{"internalType":"bool","name":"","type":"bool"}],"stateMutability":"view","type":"function"},{"inputs":[],"name":"l2ToL1BatchNum","outputs":[{"internalType":"uint256","name":"","type":"uint256"}],"stateMutability":"pure","type":"function"},{"inputs":[],"name":"l2ToL1Block","outputs":[{"internalType":"uint256","name":"","type":"uint256"}],"stateMutability":"view","type":"function"},{"inputs":[],"name":"l2ToL1EthBlock","outputs":[{"internalType":"uint256","name":"","type":"uint256"}],"stateMutability":"view","type":"function"},{"inputs":[],"name":"l2ToL1OutputId","outputs":[{"internalType":"bytes32","name":"","type":"bytes32"}],"stateMutability":"view","type":"function"},{"inputs":[],"name":"l2ToL1Sender","outputs":[{"internalType":"address","name":"","type":"address"}],"stateMutability":"view","type":"function"},{"inputs":[],"name":"l2ToL1Timestamp","outputs":[{"internalType":"uint256","name":"","type":"uint256"}],"stateMutability":"view","type":"function"},{"inputs":[],"name":"rollup","outputs":[{"internalType":"address","name":"","type":"address"}],"stateMutability":"view","type":"function"},{"inputs":[{"internalType":"bytes32","name":"","type":"bytes32"}],"name":"roots","outputs":[{"internalType":"bytes32","name":"","type":"bytes32"}],"stateMutability":"view","type":"function"},{"inputs":[{"internalType":"uint256","name":"","type":"uint256"}],"name":"spent","outputs":[{"internalType":"bytes32","name":"","type":"bytes32"}],"stateMutability":"view","type":"function"},{"inputs":[{"internalType":"bytes32","name":"root","type":"bytes32"},{"internalType":"bytes32","name":"l2BlockHash","type":"bytes32"}],"name":"updateSendRoot","outputs":[],"stateMutability":"nonpayable","type":"function"}],"evm":{"bytecode":{"linkReferences":{},"object":"60a06040523073ffffffffffffffffffffffffffffffffffffffff1660809073ffffffffffffffffffffffffffffffffffffffff1681525034801561004357600080fd5b506080516125ba61005f600039600061086b01526125ba6000f3fe608060405234801561001057600080fd5b50600436106101155760003560e01c80639f0c04bf116100a2578063c4d66de811610071578063c4d66de8146102e2578063c75184df146102fe578063cb23bcb51461031c578063d5b5cc231461033a578063e78cea921461036a57610115565b80639f0c04bf14610248578063a04cee6014610278578063ae6dead714610294578063b0f30537146102c457610115565b806346547790116100e957806346547790146101a05780635a129efe146101be57806372f2a8c7146101ee57806380648b021461020c5780638515bc6a1461022a57610115565b80627436d31461011a57806308635a951461014a5780631198527114610166578063288e5b1014610184575b600080fd5b610134600480360381019061012f9190611761565b610388565b60405161014191906117df565b60405180910390f35b610164600480360381019061015f9190611909565b6103c4565b005b61016e610443565b60405161017b9190611a24565b60405180910390f35b61019e60048036038101906101999190611a3f565b610448565b005b6101a86104ca565b6040516101b59190611a24565b60405180910390f35b6101d860048036038101906101d39190611b15565b610541565b6040516101e59190611b5d565b60405180910390f35b6101f6610567565b60405161020391906117df565b60405180910390f35b6102146105b1565b6040516102219190611b87565b60405180910390f35b610232610622565b60405161023f9190611a24565b60405180910390f35b610262600480360381019061025d9190611ba2565b610699565b60405161026f91906117df565b60405180910390f35b610292600480360381019061028d9190611c64565b6106de565b005b6102ae60048036038101906102a99190611ca4565b6107da565b6040516102bb91906117df565b60405180910390f35b6102cc6107f2565b6040516102d99190611a24565b60405180910390f35b6102fc60048036038101906102f79190611d0f565b610869565b005b610306610c91565b6040516103139190611d67565b60405180910390f35b610324610c96565b6040516103319190611b87565b60405180910390f35b610354600480360381019061034f9190611b15565b610cba565b60405161036191906117df565b60405180910390f35b610372610cd2565b60405161037f9190611de1565b60405180910390f35b60006103bb8484846040516020016103a09190611e1d565b60405160208183030381529060405280519060200120610cf8565b90509392505050565b60006103d68989898989898989610699565b90506104248c8c80806020026020016040519081016040528093929190818152602001838360200280828437600081840152601f19601f820116905080830192505050505050508b83610dc5565b6104358a8a8a8a8a8a8a8a8a610f61565b505050505050505050505050565b600090565b600073ffffffffffffffffffffffffffffffffffffffff163373ffffffffffffffffffffffffffffffffffffffff16146104ae576040517f0e13b69d00000000000000000000000000000000000000000000000000000000815260040160405180910390fd5b6104bf898989898989898989610f61565b505050505050505050565b600080600460000160009054906101000a90046fffffffffffffffffffffffffffffffff1690506fffffffffffffffffffffffffffffffff8016816fffffffffffffffffffffffffffffffff16141561052757600091505061053e565b806fffffffffffffffffffffffffffffffff169150505b90565b600080600061054f8461140f565b925092505061055e8282611460565b92505050919050565b60008060046002015490507fffffffffffffffffffffffffffffffffffffffffffffffffffffffffffffffff60001b8114156105a9576000801b9150506105ae565b809150505b90565b600080600460030160009054906101000a900473ffffffffffffffffffffffffffffffffffffffff16905073ffffffffffffffffffffffffffffffffffffffff80168173ffffffffffffffffffffffffffffffffffffffff16141561061a57600091505061061f565b809150505b90565b600080600460000160109054906101000a90046fffffffffffffffffffffffffffffffff1690506fffffffffffffffffffffffffffffffff8016816fffffffffffffffffffffffffffffffff16141561067f576000915050610696565b806fffffffffffffffffffffffffffffffff169150505b90565b600088888888888888886040516020016106ba989796959493929190611ee0565b60405160208183030381529060405280519060200120905098975050505050505050565b60008054906101000a900473ffffffffffffffffffffffffffffffffffffffff1673ffffffffffffffffffffffffffffffffffffffff163373ffffffffffffffffffffffffffffffffffffffff1614610790573360008054906101000a900473ffffffffffffffffffffffffffffffffffffffff166040517f3933c6fc000000000000000000000000000000000000000000000000000000008152600401610787929190611f5f565b60405180910390fd5b80600360008481526020019081526020016000208190555080827fb4df3847300f076a369cd76d2314b470a1194d9e8a6bb97f1860aee88a5f674860405160405180910390a35050565b60036020528060005260406000206000915090505481565b600080600460010160009054906101000a90046fffffffffffffffffffffffffffffffff1690506fffffffffffffffffffffffffffffffff8016816fffffffffffffffffffffffffffffffff16141561084f576000915050610866565b806fffffffffffffffffffffffffffffffff169150505b90565b7f000000000000000000000000000000000000000000000000000000000000000073ffffffffffffffffffffffffffffffffffffffff163073ffffffffffffffffffffffffffffffffffffffff1614156108f8576040517f08c379a00000000000000000000000000000000000000000000000000000000081526004016108ef9061200b565b60405180910390fd5b600073ffffffffffffffffffffffffffffffffffffffff168173ffffffffffffffffffffffffffffffffffffffff16141561095f576040517f1ad0f74300000000000000000000000000000000000000000000000000000000815260040160405180910390fd5b600073ffffffffffffffffffffffffffffffffffffffff16600160009054906101000a900473ffffffffffffffffffffffffffffffffffffffff1673ffffffffffffffffffffffffffffffffffffffff16146109e7576040517fef34ca5c00000000000000000000000000000000000000000000000000000000815260040160405180910390fd5b6040518060a001604052806fffffffffffffffffffffffffffffffff801681526020016fffffffffffffffffffffffffffffffff801681526020016fffffffffffffffffffffffffffffffff801681526020017fffffffffffffffffffffffffffffffffffffffffffffffffffffffffffffffff60001b815260200173ffffffffffffffffffffffffffffffffffffffff8016815250600460008201518160000160006101000a8154816fffffffffffffffffffffffffffffffff02191690836fffffffffffffffffffffffffffffffff16021790555060208201518160000160106101000a8154816fffffffffffffffffffffffffffffffff02191690836fffffffffffffffffffffffffffffffff16021790555060408201518160010160006101000a8154816fffffffffffffffffffffffffffffffff02191690836fffffffffffffffffffffffffffffffff1602179055506060820151816002015560808201518160030160006101000a81548173ffffffffffffffffffffffffffffffffffffffff021916908373ffffffffffffffffffffffffffffffffffffffff16021790555090505080600160006101000a81548173ffffffffffffffffffffffffffffffffffffffff021916908373ffffffffffffffffffffffffffffffffffffffff1602179055508073ffffffffffffffffffffffffffffffffffffffff1663cb23bcb56040518163ffffffff1660e01b815260040160206040518083038186803b158015610c1757600080fd5b505afa158015610c2b573d6000803e3d6000fd5b505050506040513d601f19601f82011682018060405250810190610c4f9190612069565b6000806101000a81548173ffffffffffffffffffffffffffffffffffffffff021916908373ffffffffffffffffffffffffffffffffffffffff16021790555050565b600281565b60008054906101000a900473ffffffffffffffffffffffffffffffffffffffff1681565b60026020528060005260406000206000915090505481565b600160009054906101000a900473ffffffffffffffffffffffffffffffffffffffff1681565b60008084519050610100811115610d4a57806101006040517ffdac331e000000000000000000000000000000000000000000000000000000008152600401610d419291906120d1565b60405180910390fd5b600083905060005b82811015610db8576000878281518110610d6f57610d6e6120fa565b5b602002602001015190506000826001901b88161415610d9c57826000528060205260406000209250610dac565b8060005282602052604060002092505b81600101915050610d52565b5080925050509392505050565b610100835110610e0d5782516040517fab6a0683000000000000000000000000000000000000000000000000000000008152600401610e049190611a24565b60405180910390fd5b82516002610e1b919061228b565b8210610e6d578183516002610e30919061228b565b6040517f0b8a724b000000000000000000000000000000000000000000000000000000008152600401610e649291906122d6565b60405180910390fd5b6000610e7a848484610388565b90506000801b60036000838152602001908152602001600020541415610ed757806040517f8730d7c8000000000000000000000000000000000000000000000000000000008152600401610ece91906117df565b60405180910390fd5b6000806000610ee58661140f565b925092509250610ef58282611460565b15610f3757856040517f9715b8d3000000000000000000000000000000000000000000000000000000008152600401610f2e9190611a24565b60405180910390fd5b816001901b60001b8117600260008581526020019081526020016000208190555050505050505050565b60008873ffffffffffffffffffffffffffffffffffffffff168873ffffffffffffffffffffffffffffffffffffffff167f20af7f3bbfe38132b8900ae295cd9c8d1914be7052d061a511f3f728dab189648c604051610fc09190611a24565b60405180910390a4600060046040518060a00160405290816000820160009054906101000a90046fffffffffffffffffffffffffffffffff166fffffffffffffffffffffffffffffffff166fffffffffffffffffffffffffffffffff1681526020016000820160109054906101000a90046fffffffffffffffffffffffffffffffff166fffffffffffffffffffffffffffffffff166fffffffffffffffffffffffffffffffff1681526020016001820160009054906101000a90046fffffffffffffffffffffffffffffffff166fffffffffffffffffffffffffffffffff166fffffffffffffffffffffffffffffffff168152602001600282015481526020016003820160009054906101000a900473ffffffffffffffffffffffffffffffffffffffff1673ffffffffffffffffffffffffffffffffffffffff1673ffffffffffffffffffffffffffffffffffffffff168152505090506040518060a00160405280886fffffffffffffffffffffffffffffffff168152602001876fffffffffffffffffffffffffffffffff168152602001866fffffffffffffffffffffffffffffffff1681526020018b60001b81526020018a73ffffffffffffffffffffffffffffffffffffffff16815250600460008201518160000160006101000a8154816fffffffffffffffffffffffffffffffff02191690836fffffffffffffffffffffffffffffffff16021790555060208201518160000160106101000a8154816fffffffffffffffffffffffffffffffff02191690836fffffffffffffffffffffffffffffffff16021790555060408201518160010160006101000a8154816fffffffffffffffffffffffffffffffff02191690836fffffffffffffffffffffffffffffffff1602179055506060820151816002015560808201518160030160006101000a81548173ffffffffffffffffffffffffffffffffffffffff021916908373ffffffffffffffffffffffffffffffffffffffff1602179055509050506112ef888585858080601f016020809104026020016040519081016040528093929190818152602001838380828437600081840152601f19601f8201169050808301925050505050505061147a565b80600460008201518160000160006101000a8154816fffffffffffffffffffffffffffffffff02191690836fffffffffffffffffffffffffffffffff16021790555060208201518160000160106101000a8154816fffffffffffffffffffffffffffffffff02191690836fffffffffffffffffffffffffffffffff16021790555060408201518160010160006101000a8154816fffffffffffffffffffffffffffffffff02191690836fffffffffffffffffffffffffffffffff1602179055506060820151816002015560808201518160030160006101000a81548173ffffffffffffffffffffffffffffffffffffffff021916908373ffffffffffffffffffffffffffffffffffffffff16021790555090505050505050505050505050565b60008060008060ff85611422919061232e565b9050600060ff86611433919061235f565b90506000600260008481526020019081526020016000205490508282829550955095505050509193909250565b60008060001b600160001b8484901c161415905092915050565b600080600160009054906101000a900473ffffffffffffffffffffffffffffffffffffffff1673ffffffffffffffffffffffffffffffffffffffff16639e5d4c498686866040518463ffffffff1660e01b81526004016114dc93929190612418565b600060405180830381600087803b1580156114f657600080fd5b505af115801561150a573d6000803e3d6000fd5b505050506040513d6000823e3d601f19601f820116820180604052508101906115339190612528565b91509150816115815760008151111561154f5780518082602001fd5b6040517f376fb55a00000000000000000000000000000000000000000000000000000000815260040160405180910390fd5b5050505050565b6000604051905090565b600080fd5b600080fd5b600080fd5b6000601f19601f8301169050919050565b7f4e487b7100000000000000000000000000000000000000000000000000000000600052604160045260246000fd5b6115ea826115a1565b810181811067ffffffffffffffff82111715611609576116086115b2565b5b80604052505050565b600061161c611588565b905061162882826115e1565b919050565b600067ffffffffffffffff821115611648576116476115b2565b5b602082029050602081019050919050565b600080fd5b6000819050919050565b6116718161165e565b811461167c57600080fd5b50565b60008135905061168e81611668565b92915050565b60006116a76116a28461162d565b611612565b905080838252602082019050602084028301858111156116ca576116c9611659565b5b835b818110156116f357806116df888261167f565b8452602084019350506020810190506116cc565b5050509392505050565b600082601f8301126117125761171161159c565b5b8135611722848260208601611694565b91505092915050565b6000819050919050565b61173e8161172b565b811461174957600080fd5b50565b60008135905061175b81611735565b92915050565b60008060006060848603121561177a57611779611592565b5b600084013567ffffffffffffffff81111561179857611797611597565b5b6117a4868287016116fd565b93505060206117b58682870161174c565b92505060406117c68682870161167f565b9150509250925092565b6117d98161165e565b82525050565b60006020820190506117f460008301846117d0565b92915050565b600080fd5b60008083601f8401126118155761181461159c565b5b8235905067ffffffffffffffff811115611832576118316117fa565b5b60208301915083602082028301111561184e5761184d611659565b5b9250929050565b600073ffffffffffffffffffffffffffffffffffffffff82169050919050565b600061188082611855565b9050919050565b61189081611875565b811461189b57600080fd5b50565b6000813590506118ad81611887565b92915050565b60008083601f8401126118c9576118c861159c565b5b8235905067ffffffffffffffff8111156118e6576118e56117fa565b5b60208301915083600182028301111561190257611901611659565b5b9250929050565b60008060008060008060008060008060006101208c8e03121561192f5761192e611592565b5b60008c013567ffffffffffffffff81111561194d5761194c611597565b5b6119598e828f016117ff565b9b509b5050602061196c8e828f0161174c565b995050604061197d8e828f0161189e565b985050606061198e8e828f0161189e565b975050608061199f8e828f0161174c565b96505060a06119b08e828f0161174c565b95505060c06119c18e828f0161174c565b94505060e06119d28e828f0161174c565b9350506101008c013567ffffffffffffffff8111156119f4576119f3611597565b5b611a008e828f016118b3565b92509250509295989b509295989b9093969950565b611a1e8161172b565b82525050565b6000602082019050611a396000830184611a15565b92915050565b60008060008060008060008060006101008a8c031215611a6257611a61611592565b5b6000611a708c828d0161174c565b9950506020611a818c828d0161189e565b9850506040611a928c828d0161189e565b9750506060611aa38c828d0161174c565b9650506080611ab48c828d0161174c565b95505060a0611ac58c828d0161174c565b94505060c0611ad68c828d0161174c565b93505060e08a013567ffffffffffffffff811115611af757611af6611597565b5b611b038c828d016118b3565b92509250509295985092959850929598565b600060208284031215611b2b57611b2a611592565b5b6000611b398482850161174c565b91505092915050565b60008115159050919050565b611b5781611b42565b82525050565b6000602082019050611b726000830184611b4e565b92915050565b611b8181611875565b82525050565b6000602082019050611b9c6000830184611b78565b92915050565b60008060008060008060008060e0898b031215611bc257611bc1611592565b5b6000611bd08b828c0161189e565b9850506020611be18b828c0161189e565b9750506040611bf28b828c0161174c565b9650506060611c038b828c0161174c565b9550506080611c148b828c0161174c565b94505060a0611c258b828c0161174c565b93505060c089013567ffffffffffffffff811115611c4657611c45611597565b5b611c528b828c016118b3565b92509250509295985092959890939650565b60008060408385031215611c7b57611c7a611592565b5b6000611c898582860161167f565b9250506020611c9a8582860161167f565b9150509250929050565b600060208284031215611cba57611cb9611592565b5b6000611cc88482850161167f565b91505092915050565b6000611cdc82611875565b9050919050565b611cec81611cd1565b8114611cf757600080fd5b50565b600081359050611d0981611ce3565b92915050565b600060208284031215611d2557611d24611592565b5b6000611d3384828501611cfa565b91505092915050565b60006fffffffffffffffffffffffffffffffff82169050919050565b611d6181611d3c565b82525050565b6000602082019050611d7c6000830184611d58565b92915050565b6000819050919050565b6000611da7611da2611d9d84611855565b611d82565b611855565b9050919050565b6000611db982611d8c565b9050919050565b6000611dcb82611dae565b9050919050565b611ddb81611dc0565b82525050565b6000602082019050611df66000830184611dd2565b92915050565b6000819050919050565b611e17611e128261165e565b611dfc565b82525050565b6000611e298284611e06565b60208201915081905092915050565b60008160601b9050919050565b6000611e5082611e38565b9050919050565b6000611e6282611e45565b9050919050565b611e7a611e7582611875565b611e57565b82525050565b6000819050919050565b611e9b611e968261172b565b611e80565b82525050565b600081905092915050565b82818337600083830152505050565b6000611ec78385611ea1565b9350611ed4838584611eac565b82840190509392505050565b6000611eec828b611e69565b601482019150611efc828a611e69565b601482019150611f0c8289611e8a565b602082019150611f1c8288611e8a565b602082019150611f2c8287611e8a565b602082019150611f3c8286611e8a565b602082019150611f4d828486611ebb565b91508190509998505050505050505050565b6000604082019050611f746000830185611b78565b611f816020830184611b78565b9392505050565b600082825260208201905092915050565b7f46756e6374696f6e206d7573742062652063616c6c6564207468726f7567682060008201527f64656c656761746563616c6c0000000000000000000000000000000000000000602082015250565b6000611ff5602c83611f88565b915061200082611f99565b604082019050919050565b6000602082019050818103600083015261202481611fe8565b9050919050565b600061203682611875565b9050919050565b6120468161202b565b811461205157600080fd5b50565b6000815190506120638161203d565b92915050565b60006020828403121561207f5761207e611592565b5b600061208d84828501612054565b91505092915050565b6000819050919050565b60006120bb6120b66120b184612096565b611d82565b61172b565b9050919050565b6120cb816120a0565b82525050565b60006040820190506120e66000830185611a15565b6120f360208301846120c2565b9392505050565b7f4e487b7100000000000000000000000000000000000000000000000000000000600052603260045260246000fd5b7f4e487b7100000000000000000000000000000000000000000000000000000000600052601160045260246000fd5b60008160011c9050919050565b6000808291508390505b60018511156121af5780860481111561218b5761218a612129565b5b600185161561219a5780820291505b80810290506121a885612158565b945061216f565b94509492505050565b6000826121c85760019050612284565b816121d65760009050612284565b81600181146121ec57600281146121f657612225565b6001915050612284565b60ff84111561220857612207612129565b5b8360020a91508482111561221f5761221e612129565b5b50612284565b5060208310610133831016604e8410600b841016171561225a5782820a90508381111561225557612254612129565b5b612284565b6122678484846001612165565b9250905081840481111561227e5761227d612129565b5b81810290505b9392505050565b60006122968261172b565b91506122a18361172b565b92506122ce7fffffffffffffffffffffffffffffffffffffffffffffffffffffffffffffffff84846121b8565b905092915050565b60006040820190506122eb6000830185611a15565b6122f86020830184611a15565b9392505050565b7f4e487b7100000000000000000000000000000000000000000000000000000000600052601260045260246000fd5b60006123398261172b565b91506123448361172b565b925082612354576123536122ff565b5b828204905092915050565b600061236a8261172b565b91506123758361172b565b925082612385576123846122ff565b5b828206905092915050565b600081519050919050565b600082825260208201905092915050565b60005b838110156123ca5780820151818401526020810190506123af565b838111156123d9576000848401525b50505050565b60006123ea82612390565b6123f4818561239b565b93506124048185602086016123ac565b61240d816115a1565b840191505092915050565b600060608201905061242d6000830186611b78565b61243a6020830185611a15565b818103604083015261244c81846123df565b9050949350505050565b61245f81611b42565b811461246a57600080fd5b50565b60008151905061247c81612456565b92915050565b600080fd5b600067ffffffffffffffff8211156124a2576124a16115b2565b5b6124ab826115a1565b9050602081019050919050565b60006124cb6124c684612487565b611612565b9050828152602081018484840111156124e7576124e6612482565b5b6124f28482856123ac565b509392505050565b600082601f83011261250f5761250e61159c565b5b815161251f8482602086016124b8565b91505092915050565b6000806040838503121561253f5761253e611592565b5b600061254d8582860161246d565b925050602083015167ffffffffffffffff81111561256e5761256d611597565b5b61257a858286016124fa565b915050925092905056fea2646970667358221220de0437b3f464707bf9a0a6842a6f1217f2fd989a9ccfad455d96878f1abbd6f064736f6c63430008090033","opcodes":"PUSH1 0xA0 PUSH1 0x40 MSTORE ADDRESS PUSH20 0xFFFFFFFFFFFFFFFFFFFFFFFFFFFFFFFFFFFFFFFF AND PUSH1 0x80 SWAP1 PUSH20 0xFFFFFFFFFFFFFFFFFFFFFFFFFFFFFFFFFFFFFFFF AND DUP2 MSTORE POP CALLVALUE DUP1 ISZERO PUSH2 0x43 JUMPI PUSH1 0x0 DUP1 REVERT JUMPDEST POP PUSH1 0x80 MLOAD PUSH2 0x25BA PUSH2 0x5F PUSH1 0x0 CODECOPY PUSH1 0x0 PUSH2 0x86B ADD MSTORE PUSH2 0x25BA PUSH1 0x0 RETURN INVALID PUSH1 0x80 PUSH1 0x40 MSTORE CALLVALUE DUP1 ISZERO PUSH2 0x10 JUMPI PUSH1 0x0 DUP1 REVERT JUMPDEST POP PUSH1 0x4 CALLDATASIZE LT PUSH2 0x115 JUMPI PUSH1 0x0 CALLDATALOAD PUSH1 0xE0 SHR DUP1 PUSH4 0x9F0C04BF GT PUSH2 0xA2 JUMPI DUP1 PUSH4 0xC4D66DE8 GT PUSH2 0x71 JUMPI DUP1 PUSH4 0xC4D66DE8 EQ PUSH2 0x2E2 JUMPI DUP1 PUSH4 0xC75184DF EQ PUSH2 0x2FE JUMPI DUP1 PUSH4 0xCB23BCB5 EQ PUSH2 0x31C JUMPI DUP1 PUSH4 0xD5B5CC23 EQ PUSH2 0x33A JUMPI DUP1 PUSH4 0xE78CEA92 EQ PUSH2 0x36A JUMPI PUSH2 0x115 JUMP JUMPDEST DUP1 PUSH4 0x9F0C04BF EQ PUSH2 0x248 JUMPI DUP1 PUSH4 0xA04CEE60 EQ PUSH2 0x278 JUMPI DUP1 PUSH4 0xAE6DEAD7 EQ PUSH2 0x294 JUMPI DUP1 PUSH4 0xB0F30537 EQ PUSH2 0x2C4 JUMPI PUSH2 0x115 JUMP JUMPDEST DUP1 PUSH4 0x46547790 GT PUSH2 0xE9 JUMPI DUP1 PUSH4 0x46547790 EQ PUSH2 0x1A0 JUMPI DUP1 PUSH4 0x5A129EFE EQ PUSH2 0x1BE JUMPI DUP1 PUSH4 0x72F2A8C7 EQ PUSH2 0x1EE JUMPI DUP1 PUSH4 0x80648B02 EQ PUSH2 0x20C JUMPI DUP1 PUSH4 0x8515BC6A EQ PUSH2 0x22A JUMPI PUSH2 0x115 JUMP JUMPDEST DUP1 PUSH3 0x7436D3 EQ PUSH2 0x11A JUMPI DUP1 PUSH4 0x8635A95 EQ PUSH2 0x14A JUMPI DUP1 PUSH4 0x11985271 EQ PUSH2 0x166 JUMPI DUP1 PUSH4 0x288E5B10 EQ PUSH2 0x184 JUMPI JUMPDEST PUSH1 0x0 DUP1 REVERT JUMPDEST PUSH2 0x134 PUSH1 0x4 DUP1 CALLDATASIZE SUB DUP2 ADD SWAP1 PUSH2 0x12F SWAP2 SWAP1 PUSH2 0x1761 JUMP JUMPDEST PUSH2 0x388 JUMP JUMPDEST PUSH1 0x40 MLOAD PUSH2 0x141 SWAP2 SWAP1 PUSH2 0x17DF JUMP JUMPDEST PUSH1 0x40 MLOAD DUP1 SWAP2 SUB SWAP1 RETURN JUMPDEST PUSH2 0x164 PUSH1 0x4 DUP1 CALLDATASIZE SUB DUP2 ADD SWAP1 PUSH2 0x15F SWAP2 SWAP1 PUSH2 0x1909 JUMP JUMPDEST PUSH2 0x3C4 JUMP JUMPDEST STOP JUMPDEST PUSH2 0x16E PUSH2 0x443 JUMP JUMPDEST PUSH1 0x40 MLOAD PUSH2 0x17B SWAP2 SWAP1 PUSH2 0x1A24 JUMP JUMPDEST PUSH1 0x40 MLOAD DUP1 SWAP2 SUB SWAP1 RETURN JUMPDEST PUSH2 0x19E PUSH1 0x4 DUP1 CALLDATASIZE SUB DUP2 ADD SWAP1 PUSH2 0x199 SWAP2 SWAP1 PUSH2 0x1A3F JUMP JUMPDEST PUSH2 0x448 JUMP JUMPDEST STOP JUMPDEST PUSH2 0x1A8 PUSH2 0x4CA JUMP JUMPDEST PUSH1 0x40 MLOAD PUSH2 0x1B5 SWAP2 SWAP1 PUSH2 0x1A24 JUMP JUMPDEST PUSH1 0x40 MLOAD DUP1 SWAP2 SUB SWAP1 RETURN JUMPDEST PUSH2 0x1D8 PUSH1 0x4 DUP1 CALLDATASIZE SUB DUP2 ADD SWAP1 PUSH2 0x1D3 SWAP2 SWAP1 PUSH2 0x1B15 JUMP JUMPDEST PUSH2 0x541 JUMP JUMPDEST PUSH1 0x40 MLOAD PUSH2 0x1E5 SWAP2 SWAP1 PUSH2 0x1B5D JUMP JUMPDEST PUSH1 0x40 MLOAD DUP1 SWAP2 SUB SWAP1 RETURN JUMPDEST PUSH2 0x1F6 PUSH2 0x567 JUMP JUMPDEST PUSH1 0x40 MLOAD PUSH2 0x203 SWAP2 SWAP1 PUSH2 0x17DF JUMP JUMPDEST PUSH1 0x40 MLOAD DUP1 SWAP2 SUB SWAP1 RETURN JUMPDEST PUSH2 0x214 PUSH2 0x5B1 JUMP JUMPDEST PUSH1 0x40 MLOAD PUSH2 0x221 SWAP2 SWAP1 PUSH2 0x1B87 JUMP JUMPDEST PUSH1 0x40 MLOAD DUP1 SWAP2 SUB SWAP1 RETURN JUMPDEST PUSH2 0x232 PUSH2 0x622 JUMP JUMPDEST PUSH1 0x40 MLOAD PUSH2 0x23F SWAP2 SWAP1 PUSH2 0x1A24 JUMP JUMPDEST PUSH1 0x40 MLOAD DUP1 SWAP2 SUB SWAP1 RETURN JUMPDEST PUSH2 0x262 PUSH1 0x4 DUP1 CALLDATASIZE SUB DUP2 ADD SWAP1 PUSH2 0x25D SWAP2 SWAP1 PUSH2 0x1BA2 JUMP JUMPDEST PUSH2 0x699 JUMP JUMPDEST PUSH1 0x40 MLOAD PUSH2 0x26F SWAP2 SWAP1 PUSH2 0x17DF JUMP JUMPDEST PUSH1 0x40 MLOAD DUP1 SWAP2 SUB SWAP1 RETURN JUMPDEST PUSH2 0x292 PUSH1 0x4 DUP1 CALLDATASIZE SUB DUP2 ADD SWAP1 PUSH2 0x28D SWAP2 SWAP1 PUSH2 0x1C64 JUMP JUMPDEST PUSH2 0x6DE JUMP JUMPDEST STOP JUMPDEST PUSH2 0x2AE PUSH1 0x4 DUP1 CALLDATASIZE SUB DUP2 ADD SWAP1 PUSH2 0x2A9 SWAP2 SWAP1 PUSH2 0x1CA4 JUMP JUMPDEST PUSH2 0x7DA JUMP JUMPDEST PUSH1 0x40 MLOAD PUSH2 0x2BB SWAP2 SWAP1 PUSH2 0x17DF JUMP JUMPDEST PUSH1 0x40 MLOAD DUP1 SWAP2 SUB SWAP1 RETURN JUMPDEST PUSH2 0x2CC PUSH2 0x7F2 JUMP JUMPDEST PUSH1 0x40 MLOAD PUSH2 0x2D9 SWAP2 SWAP1 PUSH2 0x1A24 JUMP JUMPDEST PUSH1 0x40 MLOAD DUP1 SWAP2 SUB SWAP1 RETURN JUMPDEST PUSH2 0x2FC PUSH1 0x4 DUP1 CALLDATASIZE SUB DUP2 ADD SWAP1 PUSH2 0x2F7 SWAP2 SWAP1 PUSH2 0x1D0F JUMP JUMPDEST PUSH2 0x869 JUMP JUMPDEST STOP JUMPDEST PUSH2 0x306 PUSH2 0xC91 JUMP JUMPDEST PUSH1 0x40 MLOAD PUSH2 0x313 SWAP2 SWAP1 PUSH2 0x1D67 JUMP JUMPDEST PUSH1 0x40 MLOAD DUP1 SWAP2 SUB SWAP1 RETURN JUMPDEST PUSH2 0x324 PUSH2 0xC96 JUMP JUMPDEST PUSH1 0x40 MLOAD PUSH2 0x331 SWAP2 SWAP1 PUSH2 0x1B87 JUMP JUMPDEST PUSH1 0x40 MLOAD DUP1 SWAP2 SUB SWAP1 RETURN JUMPDEST PUSH2 0x354 PUSH1 0x4 DUP1 CALLDATASIZE SUB DUP2 ADD SWAP1 PUSH2 0x34F SWAP2 SWAP1 PUSH2 0x1B15 JUMP JUMPDEST PUSH2 0xCBA JUMP JUMPDEST PUSH1 0x40 MLOAD PUSH2 0x361 SWAP2 SWAP1 PUSH2 0x17DF JUMP JUMPDEST PUSH1 0x40 MLOAD DUP1 SWAP2 SUB SWAP1 RETURN JUMPDEST PUSH2 0x372 PUSH2 0xCD2 JUMP JUMPDEST PUSH1 0x40 MLOAD PUSH2 0x37F SWAP2 SWAP1 PUSH2 0x1DE1 JUMP JUMPDEST PUSH1 0x40 MLOAD DUP1 SWAP2 SUB SWAP1 RETURN JUMPDEST PUSH1 0x0 PUSH2 0x3BB DUP5 DUP5 DUP5 PUSH1 0x40 MLOAD PUSH1 0x20 ADD PUSH2 0x3A0 SWAP2 SWAP1 PUSH2 0x1E1D JUMP JUMPDEST PUSH1 0x40 MLOAD PUSH1 0x20 DUP2 DUP4 SUB SUB DUP2 MSTORE SWAP1 PUSH1 0x40 MSTORE DUP1 MLOAD SWAP1 PUSH1 0x20 ADD KECCAK256 PUSH2 0xCF8 JUMP JUMPDEST SWAP1 POP SWAP4 SWAP3 POP POP POP JUMP JUMPDEST PUSH1 0x0 PUSH2 0x3D6 DUP10 DUP10 DUP10 DUP10 DUP10 DUP10 DUP10 DUP10 PUSH2 0x699 JUMP JUMPDEST SWAP1 POP PUSH2 0x424 DUP13 DUP13 DUP1 DUP1 PUSH1 0x20 MUL PUSH1 0x20 ADD PUSH1 0x40 MLOAD SWAP1 DUP2 ADD PUSH1 0x40 MSTORE DUP1 SWAP4 SWAP3 SWAP2 SWAP1 DUP2 DUP2 MSTORE PUSH1 0x20 ADD DUP4 DUP4 PUSH1 0x20 MUL DUP1 DUP3 DUP5 CALLDATACOPY PUSH1 0x0 DUP2 DUP5 ADD MSTORE PUSH1 0x1F NOT PUSH1 0x1F DUP3 ADD AND SWAP1 POP DUP1 DUP4 ADD SWAP3 POP POP POP POP POP POP POP DUP12 DUP4 PUSH2 0xDC5 JUMP JUMPDEST PUSH2 0x435 DUP11 DUP11 DUP11 DUP11 DUP11 DUP11 DUP11 DUP11 DUP11 PUSH2 0xF61 JUMP JUMPDEST POP POP POP POP POP POP POP POP POP POP POP POP JUMP JUMPDEST PUSH1 0x0 SWAP1 JUMP JUMPDEST PUSH1 0x0 PUSH20 0xFFFFFFFFFFFFFFFFFFFFFFFFFFFFFFFFFFFFFFFF AND CALLER PUSH20 0xFFFFFFFFFFFFFFFFFFFFFFFFFFFFFFFFFFFFFFFF AND EQ PUSH2 0x4AE JUMPI PUSH1 0x40 MLOAD PUSH32 0xE13B69D00000000000000000000000000000000000000000000000000000000 DUP2 MSTORE PUSH1 0x4 ADD PUSH1 0x40 MLOAD DUP1 SWAP2 SUB SWAP1 REVERT JUMPDEST PUSH2 0x4BF DUP10 DUP10 DUP10 DUP10 DUP10 DUP10 DUP10 DUP10 DUP10 PUSH2 0xF61 JUMP JUMPDEST POP POP POP POP POP POP POP POP POP JUMP JUMPDEST PUSH1 0x0 DUP1 PUSH1 0x4 PUSH1 0x0 ADD PUSH1 0x0 SWAP1 SLOAD SWAP1 PUSH2 0x100 EXP SWAP1 DIV PUSH16 0xFFFFFFFFFFFFFFFFFFFFFFFFFFFFFFFF AND SWAP1 POP PUSH16 0xFFFFFFFFFFFFFFFFFFFFFFFFFFFFFFFF DUP1 AND DUP2 PUSH16 0xFFFFFFFFFFFFFFFFFFFFFFFFFFFFFFFF AND EQ ISZERO PUSH2 0x527 JUMPI PUSH1 0x0 SWAP2 POP POP PUSH2 0x53E JUMP JUMPDEST DUP1 PUSH16 0xFFFFFFFFFFFFFFFFFFFFFFFFFFFFFFFF AND SWAP2 POP POP JUMPDEST SWAP1 JUMP JUMPDEST PUSH1 0x0 DUP1 PUSH1 0x0 PUSH2 0x54F DUP5 PUSH2 0x140F JUMP JUMPDEST SWAP3 POP SWAP3 POP POP PUSH2 0x55E DUP3 DUP3 PUSH2 0x1460 JUMP JUMPDEST SWAP3 POP POP POP SWAP2 SWAP1 POP JUMP JUMPDEST PUSH1 0x0 DUP1 PUSH1 0x4 PUSH1 0x2 ADD SLOAD SWAP1 POP PUSH32 0xFFFFFFFFFFFFFFFFFFFFFFFFFFFFFFFFFFFFFFFFFFFFFFFFFFFFFFFFFFFFFFFF PUSH1 0x0 SHL DUP2 EQ ISZERO PUSH2 0x5A9 JUMPI PUSH1 0x0 DUP1 SHL SWAP2 POP POP PUSH2 0x5AE JUMP JUMPDEST DUP1 SWAP2 POP POP JUMPDEST SWAP1 JUMP JUMPDEST PUSH1 0x0 DUP1 PUSH1 0x4 PUSH1 0x3 ADD PUSH1 0x0 SWAP1 SLOAD SWAP1 PUSH2 0x100 EXP SWAP1 DIV PUSH20 0xFFFFFFFFFFFFFFFFFFFFFFFFFFFFFFFFFFFFFFFF AND SWAP1 POP PUSH20 0xFFFFFFFFFFFFFFFFFFFFFFFFFFFFFFFFFFFFFFFF DUP1 AND DUP2 PUSH20 0xFFFFFFFFFFFFFFFFFFFFFFFFFFFFFFFFFFFFFFFF AND EQ ISZERO PUSH2 0x61A JUMPI PUSH1 0x0 SWAP2 POP POP PUSH2 0x61F JUMP JUMPDEST DUP1 SWAP2 POP POP JUMPDEST SWAP1 JUMP JUMPDEST PUSH1 0x0 DUP1 PUSH1 0x4 PUSH1 0x0 ADD PUSH1 0x10 SWAP1 SLOAD SWAP1 PUSH2 0x100 EXP SWAP1 DIV PUSH16 0xFFFFFFFFFFFFFFFFFFFFFFFFFFFFFFFF AND SWAP1 POP PUSH16 0xFFFFFFFFFFFFFFFFFFFFFFFFFFFFFFFF DUP1 AND DUP2 PUSH16 0xFFFFFFFFFFFFFFFFFFFFFFFFFFFFFFFF AND EQ ISZERO PUSH2 0x67F JUMPI PUSH1 0x0 SWAP2 POP POP PUSH2 0x696 JUMP JUMPDEST DUP1 PUSH16 0xFFFFFFFFFFFFFFFFFFFFFFFFFFFFFFFF AND SWAP2 POP POP JUMPDEST SWAP1 JUMP JUMPDEST PUSH1 0x0 DUP9 DUP9 DUP9 DUP9 DUP9 DUP9 DUP9 DUP9 PUSH1 0x40 MLOAD PUSH1 0x20 ADD PUSH2 0x6BA SWAP9 SWAP8 SWAP7 SWAP6 SWAP5 SWAP4 SWAP3 SWAP2 SWAP1 PUSH2 0x1EE0 JUMP JUMPDEST PUSH1 0x40 MLOAD PUSH1 0x20 DUP2 DUP4 SUB SUB DUP2 MSTORE SWAP1 PUSH1 0x40 MSTORE DUP1 MLOAD SWAP1 PUSH1 0x20 ADD KECCAK256 SWAP1 POP SWAP9 SWAP8 POP POP POP POP POP POP POP POP JUMP JUMPDEST PUSH1 0x0 DUP1 SLOAD SWAP1 PUSH2 0x100 EXP SWAP1 DIV PUSH20 0xFFFFFFFFFFFFFFFFFFFFFFFFFFFFFFFFFFFFFFFF AND PUSH20 0xFFFFFFFFFFFFFFFFFFFFFFFFFFFFFFFFFFFFFFFF AND CALLER PUSH20 0xFFFFFFFFFFFFFFFFFFFFFFFFFFFFFFFFFFFFFFFF AND EQ PUSH2 0x790 JUMPI CALLER PUSH1 0x0 DUP1 SLOAD SWAP1 PUSH2 0x100 EXP SWAP1 DIV PUSH20 0xFFFFFFFFFFFFFFFFFFFFFFFFFFFFFFFFFFFFFFFF AND PUSH1 0x40 MLOAD PUSH32 0x3933C6FC00000000000000000000000000000000000000000000000000000000 DUP2 MSTORE PUSH1 0x4 ADD PUSH2 0x787 SWAP3 SWAP2 SWAP1 PUSH2 0x1F5F JUMP JUMPDEST PUSH1 0x40 MLOAD DUP1 SWAP2 SUB SWAP1 REVERT JUMPDEST DUP1 PUSH1 0x3 PUSH1 0x0 DUP5 DUP2 MSTORE PUSH1 0x20 ADD SWAP1 DUP2 MSTORE PUSH1 0x20 ADD PUSH1 0x0 KECCAK256 DUP2 SWAP1 SSTORE POP DUP1 DUP3 PUSH32 0xB4DF3847300F076A369CD76D2314B470A1194D9E8A6BB97F1860AEE88A5F6748 PUSH1 0x40 MLOAD PUSH1 0x40 MLOAD DUP1 SWAP2 SUB SWAP1 LOG3 POP POP JUMP JUMPDEST PUSH1 0x3 PUSH1 0x20 MSTORE DUP1 PUSH1 0x0 MSTORE PUSH1 0x40 PUSH1 0x0 KECCAK256 PUSH1 0x0 SWAP2 POP SWAP1 POP SLOAD DUP2 JUMP JUMPDEST PUSH1 0x0 DUP1 PUSH1 0x4 PUSH1 0x1 ADD PUSH1 0x0 SWAP1 SLOAD SWAP1 PUSH2 0x100 EXP SWAP1 DIV PUSH16 0xFFFFFFFFFFFFFFFFFFFFFFFFFFFFFFFF AND SWAP1 POP PUSH16 0xFFFFFFFFFFFFFFFFFFFFFFFFFFFFFFFF DUP1 AND DUP2 PUSH16 0xFFFFFFFFFFFFFFFFFFFFFFFFFFFFFFFF AND EQ ISZERO PUSH2 0x84F JUMPI PUSH1 0x0 SWAP2 POP POP PUSH2 0x866 JUMP JUMPDEST DUP1 PUSH16 0xFFFFFFFFFFFFFFFFFFFFFFFFFFFFFFFF AND SWAP2 POP POP JUMPDEST SWAP1 JUMP JUMPDEST PUSH32 0x0 PUSH20 0xFFFFFFFFFFFFFFFFFFFFFFFFFFFFFFFFFFFFFFFF AND ADDRESS PUSH20 0xFFFFFFFFFFFFFFFFFFFFFFFFFFFFFFFFFFFFFFFF AND EQ ISZERO PUSH2 0x8F8 JUMPI PUSH1 0x40 MLOAD PUSH32 0x8C379A000000000000000000000000000000000000000000000000000000000 DUP2 MSTORE PUSH1 0x4 ADD PUSH2 0x8EF SWAP1 PUSH2 0x200B JUMP JUMPDEST PUSH1 0x40 MLOAD DUP1 SWAP2 SUB SWAP1 REVERT JUMPDEST PUSH1 0x0 PUSH20 0xFFFFFFFFFFFFFFFFFFFFFFFFFFFFFFFFFFFFFFFF AND DUP2 PUSH20 0xFFFFFFFFFFFFFFFFFFFFFFFFFFFFFFFFFFFFFFFF AND EQ ISZERO PUSH2 0x95F JUMPI PUSH1 0x40 MLOAD PUSH32 0x1AD0F74300000000000000000000000000000000000000000000000000000000 DUP2 MSTORE PUSH1 0x4 ADD PUSH1 0x40 MLOAD DUP1 SWAP2 SUB SWAP1 REVERT JUMPDEST PUSH1 0x0 PUSH20 0xFFFFFFFFFFFFFFFFFFFFFFFFFFFFFFFFFFFFFFFF AND PUSH1 0x1 PUSH1 0x0 SWAP1 SLOAD SWAP1 PUSH2 0x100 EXP SWAP1 DIV PUSH20 0xFFFFFFFFFFFFFFFFFFFFFFFFFFFFFFFFFFFFFFFF AND PUSH20 0xFFFFFFFFFFFFFFFFFFFFFFFFFFFFFFFFFFFFFFFF AND EQ PUSH2 0x9E7 JUMPI PUSH1 0x40 MLOAD PUSH32 0xEF34CA5C00000000000000000000000000000000000000000000000000000000 DUP2 MSTORE PUSH1 0x4 ADD PUSH1 0x40 MLOAD DUP1 SWAP2 SUB SWAP1 REVERT JUMPDEST PUSH1 0x40 MLOAD DUP1 PUSH1 0xA0 ADD PUSH1 0x40 MSTORE DUP1 PUSH16 0xFFFFFFFFFFFFFFFFFFFFFFFFFFFFFFFF DUP1 AND DUP2 MSTORE PUSH1 0x20 ADD PUSH16 0xFFFFFFFFFFFFFFFFFFFFFFFFFFFFFFFF DUP1 AND DUP2 MSTORE PUSH1 0x20 ADD PUSH16 0xFFFFFFFFFFFFFFFFFFFFFFFFFFFFFFFF DUP1 AND DUP2 MSTORE PUSH1 0x20 ADD PUSH32 0xFFFFFFFFFFFFFFFFFFFFFFFFFFFFFFFFFFFFFFFFFFFFFFFFFFFFFFFFFFFFFFFF PUSH1 0x0 SHL DUP2 MSTORE PUSH1 0x20 ADD PUSH20 0xFFFFFFFFFFFFFFFFFFFFFFFFFFFFFFFFFFFFFFFF DUP1 AND DUP2 MSTORE POP PUSH1 0x4 PUSH1 0x0 DUP3 ADD MLOAD DUP2 PUSH1 0x0 ADD PUSH1 0x0 PUSH2 0x100 EXP DUP2 SLOAD DUP2 PUSH16 0xFFFFFFFFFFFFFFFFFFFFFFFFFFFFFFFF MUL NOT AND SWAP1 DUP4 PUSH16 0xFFFFFFFFFFFFFFFFFFFFFFFFFFFFFFFF AND MUL OR SWAP1 SSTORE POP PUSH1 0x20 DUP3 ADD MLOAD DUP2 PUSH1 0x0 ADD PUSH1 0x10 PUSH2 0x100 EXP DUP2 SLOAD DUP2 PUSH16 0xFFFFFFFFFFFFFFFFFFFFFFFFFFFFFFFF MUL NOT AND SWAP1 DUP4 PUSH16 0xFFFFFFFFFFFFFFFFFFFFFFFFFFFFFFFF AND MUL OR SWAP1 SSTORE POP PUSH1 0x40 DUP3 ADD MLOAD DUP2 PUSH1 0x1 ADD PUSH1 0x0 PUSH2 0x100 EXP DUP2 SLOAD DUP2 PUSH16 0xFFFFFFFFFFFFFFFFFFFFFFFFFFFFFFFF MUL NOT AND SWAP1 DUP4 PUSH16 0xFFFFFFFFFFFFFFFFFFFFFFFFFFFFFFFF AND MUL OR SWAP1 SSTORE POP PUSH1 0x60 DUP3 ADD MLOAD DUP2 PUSH1 0x2 ADD SSTORE PUSH1 0x80 DUP3 ADD MLOAD DUP2 PUSH1 0x3 ADD PUSH1 0x0 PUSH2 0x100 EXP DUP2 SLOAD DUP2 PUSH20 0xFFFFFFFFFFFFFFFFFFFFFFFFFFFFFFFFFFFFFFFF MUL NOT AND SWAP1 DUP4 PUSH20 0xFFFFFFFFFFFFFFFFFFFFFFFFFFFFFFFFFFFFFFFF AND MUL OR SWAP1 SSTORE POP SWAP1 POP POP DUP1 PUSH1 0x1 PUSH1 0x0 PUSH2 0x100 EXP DUP2 SLOAD DUP2 PUSH20 0xFFFFFFFFFFFFFFFFFFFFFFFFFFFFFFFFFFFFFFFF MUL NOT AND SWAP1 DUP4 PUSH20 0xFFFFFFFFFFFFFFFFFFFFFFFFFFFFFFFFFFFFFFFF AND MUL OR SWAP1 SSTORE POP DUP1 PUSH20 0xFFFFFFFFFFFFFFFFFFFFFFFFFFFFFFFFFFFFFFFF AND PUSH4 0xCB23BCB5 PUSH1 0x40 MLOAD DUP2 PUSH4 0xFFFFFFFF AND PUSH1 0xE0 SHL DUP2 MSTORE PUSH1 0x4 ADD PUSH1 0x20 PUSH1 0x40 MLOAD DUP1 DUP4 SUB DUP2 DUP7 DUP1 EXTCODESIZE ISZERO DUP1 ISZERO PUSH2 0xC17 JUMPI PUSH1 0x0 DUP1 REVERT JUMPDEST POP GAS STATICCALL ISZERO DUP1 ISZERO PUSH2 0xC2B JUMPI RETURNDATASIZE PUSH1 0x0 DUP1 RETURNDATACOPY RETURNDATASIZE PUSH1 0x0 REVERT JUMPDEST POP POP POP POP PUSH1 0x40 MLOAD RETURNDATASIZE PUSH1 0x1F NOT PUSH1 0x1F DUP3 ADD AND DUP3 ADD DUP1 PUSH1 0x40 MSTORE POP DUP2 ADD SWAP1 PUSH2 0xC4F SWAP2 SWAP1 PUSH2 0x2069 JUMP JUMPDEST PUSH1 0x0 DUP1 PUSH2 0x100 EXP DUP2 SLOAD DUP2 PUSH20 0xFFFFFFFFFFFFFFFFFFFFFFFFFFFFFFFFFFFFFFFF MUL NOT AND SWAP1 DUP4 PUSH20 0xFFFFFFFFFFFFFFFFFFFFFFFFFFFFFFFFFFFFFFFF AND MUL OR SWAP1 SSTORE POP POP JUMP JUMPDEST PUSH1 0x2 DUP2 JUMP JUMPDEST PUSH1 0x0 DUP1 SLOAD SWAP1 PUSH2 0x100 EXP SWAP1 DIV PUSH20 0xFFFFFFFFFFFFFFFFFFFFFFFFFFFFFFFFFFFFFFFF AND DUP2 JUMP JUMPDEST PUSH1 0x2 PUSH1 0x20 MSTORE DUP1 PUSH1 0x0 MSTORE PUSH1 0x40 PUSH1 0x0 KECCAK256 PUSH1 0x0 SWAP2 POP SWAP1 POP SLOAD DUP2 JUMP JUMPDEST PUSH1 0x1 PUSH1 0x0 SWAP1 SLOAD SWAP1 PUSH2 0x100 EXP SWAP1 DIV PUSH20 0xFFFFFFFFFFFFFFFFFFFFFFFFFFFFFFFFFFFFFFFF AND DUP2 JUMP JUMPDEST PUSH1 0x0 DUP1 DUP5 MLOAD SWAP1 POP PUSH2 0x100 DUP2 GT ISZERO PUSH2 0xD4A JUMPI DUP1 PUSH2 0x100 PUSH1 0x40 MLOAD PUSH32 0xFDAC331E00000000000000000000000000000000000000000000000000000000 DUP2 MSTORE PUSH1 0x4 ADD PUSH2 0xD41 SWAP3 SWAP2 SWAP1 PUSH2 0x20D1 JUMP JUMPDEST PUSH1 0x40 MLOAD DUP1 SWAP2 SUB SWAP1 REVERT JUMPDEST PUSH1 0x0 DUP4 SWAP1 POP PUSH1 0x0 JUMPDEST DUP3 DUP2 LT ISZERO PUSH2 0xDB8 JUMPI PUSH1 0x0 DUP8 DUP3 DUP2 MLOAD DUP2 LT PUSH2 0xD6F JUMPI PUSH2 0xD6E PUSH2 0x20FA JUMP JUMPDEST JUMPDEST PUSH1 0x20 MUL PUSH1 0x20 ADD ADD MLOAD SWAP1 POP PUSH1 0x0 DUP3 PUSH1 0x1 SWAP1 SHL DUP9 AND EQ ISZERO PUSH2 0xD9C JUMPI DUP3 PUSH1 0x0 MSTORE DUP1 PUSH1 0x20 MSTORE PUSH1 0x40 PUSH1 0x0 KECCAK256 SWAP3 POP PUSH2 0xDAC JUMP JUMPDEST DUP1 PUSH1 0x0 MSTORE DUP3 PUSH1 0x20 MSTORE PUSH1 0x40 PUSH1 0x0 KECCAK256 SWAP3 POP JUMPDEST DUP2 PUSH1 0x1 ADD SWAP2 POP POP PUSH2 0xD52 JUMP JUMPDEST POP DUP1 SWAP3 POP POP POP SWAP4 SWAP3 POP POP POP JUMP JUMPDEST PUSH2 0x100 DUP4 MLOAD LT PUSH2 0xE0D JUMPI DUP3 MLOAD PUSH1 0x40 MLOAD PUSH32 0xAB6A068300000000000000000000000000000000000000000000000000000000 DUP2 MSTORE PUSH1 0x4 ADD PUSH2 0xE04 SWAP2 SWAP1 PUSH2 0x1A24 JUMP JUMPDEST PUSH1 0x40 MLOAD DUP1 SWAP2 SUB SWAP1 REVERT JUMPDEST DUP3 MLOAD PUSH1 0x2 PUSH2 0xE1B SWAP2 SWAP1 PUSH2 0x228B JUMP JUMPDEST DUP3 LT PUSH2 0xE6D JUMPI DUP2 DUP4 MLOAD PUSH1 0x2 PUSH2 0xE30 SWAP2 SWAP1 PUSH2 0x228B JUMP JUMPDEST PUSH1 0x40 MLOAD PUSH32 0xB8A724B00000000000000000000000000000000000000000000000000000000 DUP2 MSTORE PUSH1 0x4 ADD PUSH2 0xE64 SWAP3 SWAP2 SWAP1 PUSH2 0x22D6 JUMP JUMPDEST PUSH1 0x40 MLOAD DUP1 SWAP2 SUB SWAP1 REVERT JUMPDEST PUSH1 0x0 PUSH2 0xE7A DUP5 DUP5 DUP5 PUSH2 0x388 JUMP JUMPDEST SWAP1 POP PUSH1 0x0 DUP1 SHL PUSH1 0x3 PUSH1 0x0 DUP4 DUP2 MSTORE PUSH1 0x20 ADD SWAP1 DUP2 MSTORE PUSH1 0x20 ADD PUSH1 0x0 KECCAK256 SLOAD EQ ISZERO PUSH2 0xED7 JUMPI DUP1 PUSH1 0x40 MLOAD PUSH32 0x8730D7C800000000000000000000000000000000000000000000000000000000 DUP2 MSTORE PUSH1 0x4 ADD PUSH2 0xECE SWAP2 SWAP1 PUSH2 0x17DF JUMP JUMPDEST PUSH1 0x40 MLOAD DUP1 SWAP2 SUB SWAP1 REVERT JUMPDEST PUSH1 0x0 DUP1 PUSH1 0x0 PUSH2 0xEE5 DUP7 PUSH2 0x140F JUMP JUMPDEST SWAP3 POP SWAP3 POP SWAP3 POP PUSH2 0xEF5 DUP3 DUP3 PUSH2 0x1460 JUMP JUMPDEST ISZERO PUSH2 0xF37 JUMPI DUP6 PUSH1 0x40 MLOAD PUSH32 0x9715B8D300000000000000000000000000000000000000000000000000000000 DUP2 MSTORE PUSH1 0x4 ADD PUSH2 0xF2E SWAP2 SWAP1 PUSH2 0x1A24 JUMP JUMPDEST PUSH1 0x40 MLOAD DUP1 SWAP2 SUB SWAP1 REVERT JUMPDEST DUP2 PUSH1 0x1 SWAP1 SHL PUSH1 0x0 SHL DUP2 OR PUSH1 0x2 PUSH1 0x0 DUP6 DUP2 MSTORE PUSH1 0x20 ADD SWAP1 DUP2 MSTORE PUSH1 0x20 ADD PUSH1 0x0 KECCAK256 DUP2 SWAP1 SSTORE POP POP POP POP POP POP POP POP JUMP JUMPDEST PUSH1 0x0 DUP9 PUSH20 0xFFFFFFFFFFFFFFFFFFFFFFFFFFFFFFFFFFFFFFFF AND DUP9 PUSH20 0xFFFFFFFFFFFFFFFFFFFFFFFFFFFFFFFFFFFFFFFF AND PUSH32 0x20AF7F3BBFE38132B8900AE295CD9C8D1914BE7052D061A511F3F728DAB18964 DUP13 PUSH1 0x40 MLOAD PUSH2 0xFC0 SWAP2 SWAP1 PUSH2 0x1A24 JUMP JUMPDEST PUSH1 0x40 MLOAD DUP1 SWAP2 SUB SWAP1 LOG4 PUSH1 0x0 PUSH1 0x4 PUSH1 0x40 MLOAD DUP1 PUSH1 0xA0 ADD PUSH1 0x40 MSTORE SWAP1 DUP2 PUSH1 0x0 DUP3 ADD PUSH1 0x0 SWAP1 SLOAD SWAP1 PUSH2 0x100 EXP SWAP1 DIV PUSH16 0xFFFFFFFFFFFFFFFFFFFFFFFFFFFFFFFF AND PUSH16 0xFFFFFFFFFFFFFFFFFFFFFFFFFFFFFFFF AND PUSH16 0xFFFFFFFFFFFFFFFFFFFFFFFFFFFFFFFF AND DUP2 MSTORE PUSH1 0x20 ADD PUSH1 0x0 DUP3 ADD PUSH1 0x10 SWAP1 SLOAD SWAP1 PUSH2 0x100 EXP SWAP1 DIV PUSH16 0xFFFFFFFFFFFFFFFFFFFFFFFFFFFFFFFF AND PUSH16 0xFFFFFFFFFFFFFFFFFFFFFFFFFFFFFFFF AND PUSH16 0xFFFFFFFFFFFFFFFFFFFFFFFFFFFFFFFF AND DUP2 MSTORE PUSH1 0x20 ADD PUSH1 0x1 DUP3 ADD PUSH1 0x0 SWAP1 SLOAD SWAP1 PUSH2 0x100 EXP SWAP1 DIV PUSH16 0xFFFFFFFFFFFFFFFFFFFFFFFFFFFFFFFF AND PUSH16 0xFFFFFFFFFFFFFFFFFFFFFFFFFFFFFFFF AND PUSH16 0xFFFFFFFFFFFFFFFFFFFFFFFFFFFFFFFF AND DUP2 MSTORE PUSH1 0x20 ADD PUSH1 0x2 DUP3 ADD SLOAD DUP2 MSTORE PUSH1 0x20 ADD PUSH1 0x3 DUP3 ADD PUSH1 0x0 SWAP1 SLOAD SWAP1 PUSH2 0x100 EXP SWAP1 DIV PUSH20 0xFFFFFFFFFFFFFFFFFFFFFFFFFFFFFFFFFFFFFFFF AND PUSH20 0xFFFFFFFFFFFFFFFFFFFFFFFFFFFFFFFFFFFFFFFF AND PUSH20 0xFFFFFFFFFFFFFFFFFFFFFFFFFFFFFFFFFFFFFFFF AND DUP2 MSTORE POP POP SWAP1 POP PUSH1 0x40 MLOAD DUP1 PUSH1 0xA0 ADD PUSH1 0x40 MSTORE DUP1 DUP9 PUSH16 0xFFFFFFFFFFFFFFFFFFFFFFFFFFFFFFFF AND DUP2 MSTORE PUSH1 0x20 ADD DUP8 PUSH16 0xFFFFFFFFFFFFFFFFFFFFFFFFFFFFFFFF AND DUP2 MSTORE PUSH1 0x20 ADD DUP7 PUSH16 0xFFFFFFFFFFFFFFFFFFFFFFFFFFFFFFFF AND DUP2 MSTORE PUSH1 0x20 ADD DUP12 PUSH1 0x0 SHL DUP2 MSTORE PUSH1 0x20 ADD DUP11 PUSH20 0xFFFFFFFFFFFFFFFFFFFFFFFFFFFFFFFFFFFFFFFF AND DUP2 MSTORE POP PUSH1 0x4 PUSH1 0x0 DUP3 ADD MLOAD DUP2 PUSH1 0x0 ADD PUSH1 0x0 PUSH2 0x100 EXP DUP2 SLOAD DUP2 PUSH16 0xFFFFFFFFFFFFFFFFFFFFFFFFFFFFFFFF MUL NOT AND SWAP1 DUP4 PUSH16 0xFFFFFFFFFFFFFFFFFFFFFFFFFFFFFFFF AND MUL OR SWAP1 SSTORE POP PUSH1 0x20 DUP3 ADD MLOAD DUP2 PUSH1 0x0 ADD PUSH1 0x10 PUSH2 0x100 EXP DUP2 SLOAD DUP2 PUSH16 0xFFFFFFFFFFFFFFFFFFFFFFFFFFFFFFFF MUL NOT AND SWAP1 DUP4 PUSH16 0xFFFFFFFFFFFFFFFFFFFFFFFFFFFFFFFF AND MUL OR SWAP1 SSTORE POP PUSH1 0x40 DUP3 ADD MLOAD DUP2 PUSH1 0x1 ADD PUSH1 0x0 PUSH2 0x100 EXP DUP2 SLOAD DUP2 PUSH16 0xFFFFFFFFFFFFFFFFFFFFFFFFFFFFFFFF MUL NOT AND SWAP1 DUP4 PUSH16 0xFFFFFFFFFFFFFFFFFFFFFFFFFFFFFFFF AND MUL OR SWAP1 SSTORE POP PUSH1 0x60 DUP3 ADD MLOAD DUP2 PUSH1 0x2 ADD SSTORE PUSH1 0x80 DUP3 ADD MLOAD DUP2 PUSH1 0x3 ADD PUSH1 0x0 PUSH2 0x100 EXP DUP2 SLOAD DUP2 PUSH20 0xFFFFFFFFFFFFFFFFFFFFFFFFFFFFFFFFFFFFFFFF MUL NOT AND SWAP1 DUP4 PUSH20 0xFFFFFFFFFFFFFFFFFFFFFFFFFFFFFFFFFFFFFFFF AND MUL OR SWAP1 SSTORE POP SWAP1 POP POP PUSH2 0x12EF DUP9 DUP6 DUP6 DUP6 DUP1 DUP1 PUSH1 0x1F ADD PUSH1 0x20 DUP1 SWAP2 DIV MUL PUSH1 0x20 ADD PUSH1 0x40 MLOAD SWAP1 DUP2 ADD PUSH1 0x40 MSTORE DUP1 SWAP4 SWAP3 SWAP2 SWAP1 DUP2 DUP2 MSTORE PUSH1 0x20 ADD DUP4 DUP4 DUP1 DUP3 DUP5 CALLDATACOPY PUSH1 0x0 DUP2 DUP5 ADD MSTORE PUSH1 0x1F NOT PUSH1 0x1F DUP3 ADD AND SWAP1 POP DUP1 DUP4 ADD SWAP3 POP POP POP POP POP POP POP PUSH2 0x147A JUMP JUMPDEST DUP1 PUSH1 0x4 PUSH1 0x0 DUP3 ADD MLOAD DUP2 PUSH1 0x0 ADD PUSH1 0x0 PUSH2 0x100 EXP DUP2 SLOAD DUP2 PUSH16 0xFFFFFFFFFFFFFFFFFFFFFFFFFFFFFFFF MUL NOT AND SWAP1 DUP4 PUSH16 0xFFFFFFFFFFFFFFFFFFFFFFFFFFFFFFFF AND MUL OR SWAP1 SSTORE POP PUSH1 0x20 DUP3 ADD MLOAD DUP2 PUSH1 0x0 ADD PUSH1 0x10 PUSH2 0x100 EXP DUP2 SLOAD DUP2 PUSH16 0xFFFFFFFFFFFFFFFFFFFFFFFFFFFFFFFF MUL NOT AND SWAP1 DUP4 PUSH16 0xFFFFFFFFFFFFFFFFFFFFFFFFFFFFFFFF AND MUL OR SWAP1 SSTORE POP PUSH1 0x40 DUP3 ADD MLOAD DUP2 PUSH1 0x1 ADD PUSH1 0x0 PUSH2 0x100 EXP DUP2 SLOAD DUP2 PUSH16 0xFFFFFFFFFFFFFFFFFFFFFFFFFFFFFFFF MUL NOT AND SWAP1 DUP4 PUSH16 0xFFFFFFFFFFFFFFFFFFFFFFFFFFFFFFFF AND MUL OR SWAP1 SSTORE POP PUSH1 0x60 DUP3 ADD MLOAD DUP2 PUSH1 0x2 ADD SSTORE PUSH1 0x80 DUP3 ADD MLOAD DUP2 PUSH1 0x3 ADD PUSH1 0x0 PUSH2 0x100 EXP DUP2 SLOAD DUP2 PUSH20 0xFFFFFFFFFFFFFFFFFFFFFFFFFFFFFFFFFFFFFFFF MUL NOT AND SWAP1 DUP4 PUSH20 0xFFFFFFFFFFFFFFFFFFFFFFFFFFFFFFFFFFFFFFFF AND MUL OR SWAP1 SSTORE POP SWAP1 POP POP POP POP POP POP POP POP POP POP POP POP JUMP JUMPDEST PUSH1 0x0 DUP1 PUSH1 0x0 DUP1 PUSH1 0xFF DUP6 PUSH2 0x1422 SWAP2 SWAP1 PUSH2 0x232E JUMP JUMPDEST SWAP1 POP PUSH1 0x0 PUSH1 0xFF DUP7 PUSH2 0x1433 SWAP2 SWAP1 PUSH2 0x235F JUMP JUMPDEST SWAP1 POP PUSH1 0x0 PUSH1 0x2 PUSH1 0x0 DUP5 DUP2 MSTORE PUSH1 0x20 ADD SWAP1 DUP2 MSTORE PUSH1 0x20 ADD PUSH1 0x0 KECCAK256 SLOAD SWAP1 POP DUP3 DUP3 DUP3 SWAP6 POP SWAP6 POP SWAP6 POP POP POP POP SWAP2 SWAP4 SWAP1 SWAP3 POP JUMP JUMPDEST PUSH1 0x0 DUP1 PUSH1 0x0 SHL PUSH1 0x1 PUSH1 0x0 SHL DUP5 DUP5 SWAP1 SHR AND EQ ISZERO SWAP1 POP SWAP3 SWAP2 POP POP JUMP JUMPDEST PUSH1 0x0 DUP1 PUSH1 0x1 PUSH1 0x0 SWAP1 SLOAD SWAP1 PUSH2 0x100 EXP SWAP1 DIV PUSH20 0xFFFFFFFFFFFFFFFFFFFFFFFFFFFFFFFFFFFFFFFF AND PUSH20 0xFFFFFFFFFFFFFFFFFFFFFFFFFFFFFFFFFFFFFFFF AND PUSH4 0x9E5D4C49 DUP7 DUP7 DUP7 PUSH1 0x40 MLOAD DUP5 PUSH4 0xFFFFFFFF AND PUSH1 0xE0 SHL DUP2 MSTORE PUSH1 0x4 ADD PUSH2 0x14DC SWAP4 SWAP3 SWAP2 SWAP1 PUSH2 0x2418 JUMP JUMPDEST PUSH1 0x0 PUSH1 0x40 MLOAD DUP1 DUP4 SUB DUP2 PUSH1 0x0 DUP8 DUP1 EXTCODESIZE ISZERO DUP1 ISZERO PUSH2 0x14F6 JUMPI PUSH1 0x0 DUP1 REVERT JUMPDEST POP GAS CALL ISZERO DUP1 ISZERO PUSH2 0x150A JUMPI RETURNDATASIZE PUSH1 0x0 DUP1 RETURNDATACOPY RETURNDATASIZE PUSH1 0x0 REVERT JUMPDEST POP POP POP POP PUSH1 0x40 MLOAD RETURNDATASIZE PUSH1 0x0 DUP3 RETURNDATACOPY RETURNDATASIZE PUSH1 0x1F NOT PUSH1 0x1F DUP3 ADD AND DUP3 ADD DUP1 PUSH1 0x40 MSTORE POP DUP2 ADD SWAP1 PUSH2 0x1533 SWAP2 SWAP1 PUSH2 0x2528 JUMP JUMPDEST SWAP2 POP SWAP2 POP DUP2 PUSH2 0x1581 JUMPI PUSH1 0x0 DUP2 MLOAD GT ISZERO PUSH2 0x154F JUMPI DUP1 MLOAD DUP1 DUP3 PUSH1 0x20 ADD REVERT JUMPDEST PUSH1 0x40 MLOAD PUSH32 0x376FB55A00000000000000000000000000000000000000000000000000000000 DUP2 MSTORE PUSH1 0x4 ADD PUSH1 0x40 MLOAD DUP1 SWAP2 SUB SWAP1 REVERT JUMPDEST POP POP POP POP POP JUMP JUMPDEST PUSH1 0x0 PUSH1 0x40 MLOAD SWAP1 POP SWAP1 JUMP JUMPDEST PUSH1 0x0 DUP1 REVERT JUMPDEST PUSH1 0x0 DUP1 REVERT JUMPDEST PUSH1 0x0 DUP1 REVERT JUMPDEST PUSH1 0x0 PUSH1 0x1F NOT PUSH1 0x1F DUP4 ADD AND SWAP1 POP SWAP2 SWAP1 POP JUMP JUMPDEST PUSH32 0x4E487B7100000000000000000000000000000000000000000000000000000000 PUSH1 0x0 MSTORE PUSH1 0x41 PUSH1 0x4 MSTORE PUSH1 0x24 PUSH1 0x0 REVERT JUMPDEST PUSH2 0x15EA DUP3 PUSH2 0x15A1 JUMP JUMPDEST DUP2 ADD DUP2 DUP2 LT PUSH8 0xFFFFFFFFFFFFFFFF DUP3 GT OR ISZERO PUSH2 0x1609 JUMPI PUSH2 0x1608 PUSH2 0x15B2 JUMP JUMPDEST JUMPDEST DUP1 PUSH1 0x40 MSTORE POP POP POP JUMP JUMPDEST PUSH1 0x0 PUSH2 0x161C PUSH2 0x1588 JUMP JUMPDEST SWAP1 POP PUSH2 0x1628 DUP3 DUP3 PUSH2 0x15E1 JUMP JUMPDEST SWAP2 SWAP1 POP JUMP JUMPDEST PUSH1 0x0 PUSH8 0xFFFFFFFFFFFFFFFF DUP3 GT ISZERO PUSH2 0x1648 JUMPI PUSH2 0x1647 PUSH2 0x15B2 JUMP JUMPDEST JUMPDEST PUSH1 0x20 DUP3 MUL SWAP1 POP PUSH1 0x20 DUP2 ADD SWAP1 POP SWAP2 SWAP1 POP JUMP JUMPDEST PUSH1 0x0 DUP1 REVERT JUMPDEST PUSH1 0x0 DUP2 SWAP1 POP SWAP2 SWAP1 POP JUMP JUMPDEST PUSH2 0x1671 DUP2 PUSH2 0x165E JUMP JUMPDEST DUP2 EQ PUSH2 0x167C JUMPI PUSH1 0x0 DUP1 REVERT JUMPDEST POP JUMP JUMPDEST PUSH1 0x0 DUP2 CALLDATALOAD SWAP1 POP PUSH2 0x168E DUP2 PUSH2 0x1668 JUMP JUMPDEST SWAP3 SWAP2 POP POP JUMP JUMPDEST PUSH1 0x0 PUSH2 0x16A7 PUSH2 0x16A2 DUP5 PUSH2 0x162D JUMP JUMPDEST PUSH2 0x1612 JUMP JUMPDEST SWAP1 POP DUP1 DUP4 DUP3 MSTORE PUSH1 0x20 DUP3 ADD SWAP1 POP PUSH1 0x20 DUP5 MUL DUP4 ADD DUP6 DUP2 GT ISZERO PUSH2 0x16CA JUMPI PUSH2 0x16C9 PUSH2 0x1659 JUMP JUMPDEST JUMPDEST DUP4 JUMPDEST DUP2 DUP2 LT ISZERO PUSH2 0x16F3 JUMPI DUP1 PUSH2 0x16DF DUP9 DUP3 PUSH2 0x167F JUMP JUMPDEST DUP5 MSTORE PUSH1 0x20 DUP5 ADD SWAP4 POP POP PUSH1 0x20 DUP2 ADD SWAP1 POP PUSH2 0x16CC JUMP JUMPDEST POP POP POP SWAP4 SWAP3 POP POP POP JUMP JUMPDEST PUSH1 0x0 DUP3 PUSH1 0x1F DUP4 ADD SLT PUSH2 0x1712 JUMPI PUSH2 0x1711 PUSH2 0x159C JUMP JUMPDEST JUMPDEST DUP2 CALLDATALOAD PUSH2 0x1722 DUP5 DUP3 PUSH1 0x20 DUP7 ADD PUSH2 0x1694 JUMP JUMPDEST SWAP2 POP POP SWAP3 SWAP2 POP POP JUMP JUMPDEST PUSH1 0x0 DUP2 SWAP1 POP SWAP2 SWAP1 POP JUMP JUMPDEST PUSH2 0x173E DUP2 PUSH2 0x172B JUMP JUMPDEST DUP2 EQ PUSH2 0x1749 JUMPI PUSH1 0x0 DUP1 REVERT JUMPDEST POP JUMP JUMPDEST PUSH1 0x0 DUP2 CALLDATALOAD SWAP1 POP PUSH2 0x175B DUP2 PUSH2 0x1735 JUMP JUMPDEST SWAP3 SWAP2 POP POP JUMP JUMPDEST PUSH1 0x0 DUP1 PUSH1 0x0 PUSH1 0x60 DUP5 DUP7 SUB SLT ISZERO PUSH2 0x177A JUMPI PUSH2 0x1779 PUSH2 0x1592 JUMP JUMPDEST JUMPDEST PUSH1 0x0 DUP5 ADD CALLDATALOAD PUSH8 0xFFFFFFFFFFFFFFFF DUP2 GT ISZERO PUSH2 0x1798 JUMPI PUSH2 0x1797 PUSH2 0x1597 JUMP JUMPDEST JUMPDEST PUSH2 0x17A4 DUP7 DUP3 DUP8 ADD PUSH2 0x16FD JUMP JUMPDEST SWAP4 POP POP PUSH1 0x20 PUSH2 0x17B5 DUP7 DUP3 DUP8 ADD PUSH2 0x174C JUMP JUMPDEST SWAP3 POP POP PUSH1 0x40 PUSH2 0x17C6 DUP7 DUP3 DUP8 ADD PUSH2 0x167F JUMP JUMPDEST SWAP2 POP POP SWAP3 POP SWAP3 POP SWAP3 JUMP JUMPDEST PUSH2 0x17D9 DUP2 PUSH2 0x165E JUMP JUMPDEST DUP3 MSTORE POP POP JUMP JUMPDEST PUSH1 0x0 PUSH1 0x20 DUP3 ADD SWAP1 POP PUSH2 0x17F4 PUSH1 0x0 DUP4 ADD DUP5 PUSH2 0x17D0 JUMP JUMPDEST SWAP3 SWAP2 POP POP JUMP JUMPDEST PUSH1 0x0 DUP1 REVERT JUMPDEST PUSH1 0x0 DUP1 DUP4 PUSH1 0x1F DUP5 ADD SLT PUSH2 0x1815 JUMPI PUSH2 0x1814 PUSH2 0x159C JUMP JUMPDEST JUMPDEST DUP3 CALLDATALOAD SWAP1 POP PUSH8 0xFFFFFFFFFFFFFFFF DUP2 GT ISZERO PUSH2 0x1832 JUMPI PUSH2 0x1831 PUSH2 0x17FA JUMP JUMPDEST JUMPDEST PUSH1 0x20 DUP4 ADD SWAP2 POP DUP4 PUSH1 0x20 DUP3 MUL DUP4 ADD GT ISZERO PUSH2 0x184E JUMPI PUSH2 0x184D PUSH2 0x1659 JUMP JUMPDEST JUMPDEST SWAP3 POP SWAP3 SWAP1 POP JUMP JUMPDEST PUSH1 0x0 PUSH20 0xFFFFFFFFFFFFFFFFFFFFFFFFFFFFFFFFFFFFFFFF DUP3 AND SWAP1 POP SWAP2 SWAP1 POP JUMP JUMPDEST PUSH1 0x0 PUSH2 0x1880 DUP3 PUSH2 0x1855 JUMP JUMPDEST SWAP1 POP SWAP2 SWAP1 POP JUMP JUMPDEST PUSH2 0x1890 DUP2 PUSH2 0x1875 JUMP JUMPDEST DUP2 EQ PUSH2 0x189B JUMPI PUSH1 0x0 DUP1 REVERT JUMPDEST POP JUMP JUMPDEST PUSH1 0x0 DUP2 CALLDATALOAD SWAP1 POP PUSH2 0x18AD DUP2 PUSH2 0x1887 JUMP JUMPDEST SWAP3 SWAP2 POP POP JUMP JUMPDEST PUSH1 0x0 DUP1 DUP4 PUSH1 0x1F DUP5 ADD SLT PUSH2 0x18C9 JUMPI PUSH2 0x18C8 PUSH2 0x159C JUMP JUMPDEST JUMPDEST DUP3 CALLDATALOAD SWAP1 POP PUSH8 0xFFFFFFFFFFFFFFFF DUP2 GT ISZERO PUSH2 0x18E6 JUMPI PUSH2 0x18E5 PUSH2 0x17FA JUMP JUMPDEST JUMPDEST PUSH1 0x20 DUP4 ADD SWAP2 POP DUP4 PUSH1 0x1 DUP3 MUL DUP4 ADD GT ISZERO PUSH2 0x1902 JUMPI PUSH2 0x1901 PUSH2 0x1659 JUMP JUMPDEST JUMPDEST SWAP3 POP SWAP3 SWAP1 POP JUMP JUMPDEST PUSH1 0x0 DUP1 PUSH1 0x0 DUP1 PUSH1 0x0 DUP1 PUSH1 0x0 DUP1 PUSH1 0x0 DUP1 PUSH1 0x0 PUSH2 0x120 DUP13 DUP15 SUB SLT ISZERO PUSH2 0x192F JUMPI PUSH2 0x192E PUSH2 0x1592 JUMP JUMPDEST JUMPDEST PUSH1 0x0 DUP13 ADD CALLDATALOAD PUSH8 0xFFFFFFFFFFFFFFFF DUP2 GT ISZERO PUSH2 0x194D JUMPI PUSH2 0x194C PUSH2 0x1597 JUMP JUMPDEST JUMPDEST PUSH2 0x1959 DUP15 DUP3 DUP16 ADD PUSH2 0x17FF JUMP JUMPDEST SWAP12 POP SWAP12 POP POP PUSH1 0x20 PUSH2 0x196C DUP15 DUP3 DUP16 ADD PUSH2 0x174C JUMP JUMPDEST SWAP10 POP POP PUSH1 0x40 PUSH2 0x197D DUP15 DUP3 DUP16 ADD PUSH2 0x189E JUMP JUMPDEST SWAP9 POP POP PUSH1 0x60 PUSH2 0x198E DUP15 DUP3 DUP16 ADD PUSH2 0x189E JUMP JUMPDEST SWAP8 POP POP PUSH1 0x80 PUSH2 0x199F DUP15 DUP3 DUP16 ADD PUSH2 0x174C JUMP JUMPDEST SWAP7 POP POP PUSH1 0xA0 PUSH2 0x19B0 DUP15 DUP3 DUP16 ADD PUSH2 0x174C JUMP JUMPDEST SWAP6 POP POP PUSH1 0xC0 PUSH2 0x19C1 DUP15 DUP3 DUP16 ADD PUSH2 0x174C JUMP JUMPDEST SWAP5 POP POP PUSH1 0xE0 PUSH2 0x19D2 DUP15 DUP3 DUP16 ADD PUSH2 0x174C JUMP JUMPDEST SWAP4 POP POP PUSH2 0x100 DUP13 ADD CALLDATALOAD PUSH8 0xFFFFFFFFFFFFFFFF DUP2 GT ISZERO PUSH2 0x19F4 JUMPI PUSH2 0x19F3 PUSH2 0x1597 JUMP JUMPDEST JUMPDEST PUSH2 0x1A00 DUP15 DUP3 DUP16 ADD PUSH2 0x18B3 JUMP JUMPDEST SWAP3 POP SWAP3 POP POP SWAP3 SWAP6 SWAP9 SWAP12 POP SWAP3 SWAP6 SWAP9 SWAP12 SWAP1 SWAP4 SWAP7 SWAP10 POP JUMP JUMPDEST PUSH2 0x1A1E DUP2 PUSH2 0x172B JUMP JUMPDEST DUP3 MSTORE POP POP JUMP JUMPDEST PUSH1 0x0 PUSH1 0x20 DUP3 ADD SWAP1 POP PUSH2 0x1A39 PUSH1 0x0 DUP4 ADD DUP5 PUSH2 0x1A15 JUMP JUMPDEST SWAP3 SWAP2 POP POP JUMP JUMPDEST PUSH1 0x0 DUP1 PUSH1 0x0 DUP1 PUSH1 0x0 DUP1 PUSH1 0x0 DUP1 PUSH1 0x0 PUSH2 0x100 DUP11 DUP13 SUB SLT ISZERO PUSH2 0x1A62 JUMPI PUSH2 0x1A61 PUSH2 0x1592 JUMP JUMPDEST JUMPDEST PUSH1 0x0 PUSH2 0x1A70 DUP13 DUP3 DUP14 ADD PUSH2 0x174C JUMP JUMPDEST SWAP10 POP POP PUSH1 0x20 PUSH2 0x1A81 DUP13 DUP3 DUP14 ADD PUSH2 0x189E JUMP JUMPDEST SWAP9 POP POP PUSH1 0x40 PUSH2 0x1A92 DUP13 DUP3 DUP14 ADD PUSH2 0x189E JUMP JUMPDEST SWAP8 POP POP PUSH1 0x60 PUSH2 0x1AA3 DUP13 DUP3 DUP14 ADD PUSH2 0x174C JUMP JUMPDEST SWAP7 POP POP PUSH1 0x80 PUSH2 0x1AB4 DUP13 DUP3 DUP14 ADD PUSH2 0x174C JUMP JUMPDEST SWAP6 POP POP PUSH1 0xA0 PUSH2 0x1AC5 DUP13 DUP3 DUP14 ADD PUSH2 0x174C JUMP JUMPDEST SWAP5 POP POP PUSH1 0xC0 PUSH2 0x1AD6 DUP13 DUP3 DUP14 ADD PUSH2 0x174C JUMP JUMPDEST SWAP4 POP POP PUSH1 0xE0 DUP11 ADD CALLDATALOAD PUSH8 0xFFFFFFFFFFFFFFFF DUP2 GT ISZERO PUSH2 0x1AF7 JUMPI PUSH2 0x1AF6 PUSH2 0x1597 JUMP JUMPDEST JUMPDEST PUSH2 0x1B03 DUP13 DUP3 DUP14 ADD PUSH2 0x18B3 JUMP JUMPDEST SWAP3 POP SWAP3 POP POP SWAP3 SWAP6 SWAP9 POP SWAP3 SWAP6 SWAP9 POP SWAP3 SWAP6 SWAP9 JUMP JUMPDEST PUSH1 0x0 PUSH1 0x20 DUP3 DUP5 SUB SLT ISZERO PUSH2 0x1B2B JUMPI PUSH2 0x1B2A PUSH2 0x1592 JUMP JUMPDEST JUMPDEST PUSH1 0x0 PUSH2 0x1B39 DUP5 DUP3 DUP6 ADD PUSH2 0x174C JUMP JUMPDEST SWAP2 POP POP SWAP3 SWAP2 POP POP JUMP JUMPDEST PUSH1 0x0 DUP2 ISZERO ISZERO SWAP1 POP SWAP2 SWAP1 POP JUMP JUMPDEST PUSH2 0x1B57 DUP2 PUSH2 0x1B42 JUMP JUMPDEST DUP3 MSTORE POP POP JUMP JUMPDEST PUSH1 0x0 PUSH1 0x20 DUP3 ADD SWAP1 POP PUSH2 0x1B72 PUSH1 0x0 DUP4 ADD DUP5 PUSH2 0x1B4E JUMP JUMPDEST SWAP3 SWAP2 POP POP JUMP JUMPDEST PUSH2 0x1B81 DUP2 PUSH2 0x1875 JUMP JUMPDEST DUP3 MSTORE POP POP JUMP JUMPDEST PUSH1 0x0 PUSH1 0x20 DUP3 ADD SWAP1 POP PUSH2 0x1B9C PUSH1 0x0 DUP4 ADD DUP5 PUSH2 0x1B78 JUMP JUMPDEST SWAP3 SWAP2 POP POP JUMP JUMPDEST PUSH1 0x0 DUP1 PUSH1 0x0 DUP1 PUSH1 0x0 DUP1 PUSH1 0x0 DUP1 PUSH1 0xE0 DUP10 DUP12 SUB SLT ISZERO PUSH2 0x1BC2 JUMPI PUSH2 0x1BC1 PUSH2 0x1592 JUMP JUMPDEST JUMPDEST PUSH1 0x0 PUSH2 0x1BD0 DUP12 DUP3 DUP13 ADD PUSH2 0x189E JUMP JUMPDEST SWAP9 POP POP PUSH1 0x20 PUSH2 0x1BE1 DUP12 DUP3 DUP13 ADD PUSH2 0x189E JUMP JUMPDEST SWAP8 POP POP PUSH1 0x40 PUSH2 0x1BF2 DUP12 DUP3 DUP13 ADD PUSH2 0x174C JUMP JUMPDEST SWAP7 POP POP PUSH1 0x60 PUSH2 0x1C03 DUP12 DUP3 DUP13 ADD PUSH2 0x174C JUMP JUMPDEST SWAP6 POP POP PUSH1 0x80 PUSH2 0x1C14 DUP12 DUP3 DUP13 ADD PUSH2 0x174C JUMP JUMPDEST SWAP5 POP POP PUSH1 0xA0 PUSH2 0x1C25 DUP12 DUP3 DUP13 ADD PUSH2 0x174C JUMP JUMPDEST SWAP4 POP POP PUSH1 0xC0 DUP10 ADD CALLDATALOAD PUSH8 0xFFFFFFFFFFFFFFFF DUP2 GT ISZERO PUSH2 0x1C46 JUMPI PUSH2 0x1C45 PUSH2 0x1597 JUMP JUMPDEST JUMPDEST PUSH2 0x1C52 DUP12 DUP3 DUP13 ADD PUSH2 0x18B3 JUMP JUMPDEST SWAP3 POP SWAP3 POP POP SWAP3 SWAP6 SWAP9 POP SWAP3 SWAP6 SWAP9 SWAP1 SWAP4 SWAP7 POP JUMP JUMPDEST PUSH1 0x0 DUP1 PUSH1 0x40 DUP4 DUP6 SUB SLT ISZERO PUSH2 0x1C7B JUMPI PUSH2 0x1C7A PUSH2 0x1592 JUMP JUMPDEST JUMPDEST PUSH1 0x0 PUSH2 0x1C89 DUP6 DUP3 DUP7 ADD PUSH2 0x167F JUMP JUMPDEST SWAP3 POP POP PUSH1 0x20 PUSH2 0x1C9A DUP6 DUP3 DUP7 ADD PUSH2 0x167F JUMP JUMPDEST SWAP2 POP POP SWAP3 POP SWAP3 SWAP1 POP JUMP JUMPDEST PUSH1 0x0 PUSH1 0x20 DUP3 DUP5 SUB SLT ISZERO PUSH2 0x1CBA JUMPI PUSH2 0x1CB9 PUSH2 0x1592 JUMP JUMPDEST JUMPDEST PUSH1 0x0 PUSH2 0x1CC8 DUP5 DUP3 DUP6 ADD PUSH2 0x167F JUMP JUMPDEST SWAP2 POP POP SWAP3 SWAP2 POP POP JUMP JUMPDEST PUSH1 0x0 PUSH2 0x1CDC DUP3 PUSH2 0x1875 JUMP JUMPDEST SWAP1 POP SWAP2 SWAP1 POP JUMP JUMPDEST PUSH2 0x1CEC DUP2 PUSH2 0x1CD1 JUMP JUMPDEST DUP2 EQ PUSH2 0x1CF7 JUMPI PUSH1 0x0 DUP1 REVERT JUMPDEST POP JUMP JUMPDEST PUSH1 0x0 DUP2 CALLDATALOAD SWAP1 POP PUSH2 0x1D09 DUP2 PUSH2 0x1CE3 JUMP JUMPDEST SWAP3 SWAP2 POP POP JUMP JUMPDEST PUSH1 0x0 PUSH1 0x20 DUP3 DUP5 SUB SLT ISZERO PUSH2 0x1D25 JUMPI PUSH2 0x1D24 PUSH2 0x1592 JUMP JUMPDEST JUMPDEST PUSH1 0x0 PUSH2 0x1D33 DUP5 DUP3 DUP6 ADD PUSH2 0x1CFA JUMP JUMPDEST SWAP2 POP POP SWAP3 SWAP2 POP POP JUMP JUMPDEST PUSH1 0x0 PUSH16 0xFFFFFFFFFFFFFFFFFFFFFFFFFFFFFFFF DUP3 AND SWAP1 POP SWAP2 SWAP1 POP JUMP JUMPDEST PUSH2 0x1D61 DUP2 PUSH2 0x1D3C JUMP JUMPDEST DUP3 MSTORE POP POP JUMP JUMPDEST PUSH1 0x0 PUSH1 0x20 DUP3 ADD SWAP1 POP PUSH2 0x1D7C PUSH1 0x0 DUP4 ADD DUP5 PUSH2 0x1D58 JUMP JUMPDEST SWAP3 SWAP2 POP POP JUMP JUMPDEST PUSH1 0x0 DUP2 SWAP1 POP SWAP2 SWAP1 POP JUMP JUMPDEST PUSH1 0x0 PUSH2 0x1DA7 PUSH2 0x1DA2 PUSH2 0x1D9D DUP5 PUSH2 0x1855 JUMP JUMPDEST PUSH2 0x1D82 JUMP JUMPDEST PUSH2 0x1855 JUMP JUMPDEST SWAP1 POP SWAP2 SWAP1 POP JUMP JUMPDEST PUSH1 0x0 PUSH2 0x1DB9 DUP3 PUSH2 0x1D8C JUMP JUMPDEST SWAP1 POP SWAP2 SWAP1 POP JUMP JUMPDEST PUSH1 0x0 PUSH2 0x1DCB DUP3 PUSH2 0x1DAE JUMP JUMPDEST SWAP1 POP SWAP2 SWAP1 POP JUMP JUMPDEST PUSH2 0x1DDB DUP2 PUSH2 0x1DC0 JUMP JUMPDEST DUP3 MSTORE POP POP JUMP JUMPDEST PUSH1 0x0 PUSH1 0x20 DUP3 ADD SWAP1 POP PUSH2 0x1DF6 PUSH1 0x0 DUP4 ADD DUP5 PUSH2 0x1DD2 JUMP JUMPDEST SWAP3 SWAP2 POP POP JUMP JUMPDEST PUSH1 0x0 DUP2 SWAP1 POP SWAP2 SWAP1 POP JUMP JUMPDEST PUSH2 0x1E17 PUSH2 0x1E12 DUP3 PUSH2 0x165E JUMP JUMPDEST PUSH2 0x1DFC JUMP JUMPDEST DUP3 MSTORE POP POP JUMP JUMPDEST PUSH1 0x0 PUSH2 0x1E29 DUP3 DUP5 PUSH2 0x1E06 JUMP JUMPDEST PUSH1 0x20 DUP3 ADD SWAP2 POP DUP2 SWAP1 POP SWAP3 SWAP2 POP POP JUMP JUMPDEST PUSH1 0x0 DUP2 PUSH1 0x60 SHL SWAP1 POP SWAP2 SWAP1 POP JUMP JUMPDEST PUSH1 0x0 PUSH2 0x1E50 DUP3 PUSH2 0x1E38 JUMP JUMPDEST SWAP1 POP SWAP2 SWAP1 POP JUMP JUMPDEST PUSH1 0x0 PUSH2 0x1E62 DUP3 PUSH2 0x1E45 JUMP JUMPDEST SWAP1 POP SWAP2 SWAP1 POP JUMP JUMPDEST PUSH2 0x1E7A PUSH2 0x1E75 DUP3 PUSH2 0x1875 JUMP JUMPDEST PUSH2 0x1E57 JUMP JUMPDEST DUP3 MSTORE POP POP JUMP JUMPDEST PUSH1 0x0 DUP2 SWAP1 POP SWAP2 SWAP1 POP JUMP JUMPDEST PUSH2 0x1E9B PUSH2 0x1E96 DUP3 PUSH2 0x172B JUMP JUMPDEST PUSH2 0x1E80 JUMP JUMPDEST DUP3 MSTORE POP POP JUMP JUMPDEST PUSH1 0x0 DUP2 SWAP1 POP SWAP3 SWAP2 POP POP JUMP JUMPDEST DUP3 DUP2 DUP4 CALLDATACOPY PUSH1 0x0 DUP4 DUP4 ADD MSTORE POP POP POP JUMP JUMPDEST PUSH1 0x0 PUSH2 0x1EC7 DUP4 DUP6 PUSH2 0x1EA1 JUMP JUMPDEST SWAP4 POP PUSH2 0x1ED4 DUP4 DUP6 DUP5 PUSH2 0x1EAC JUMP JUMPDEST DUP3 DUP5 ADD SWAP1 POP SWAP4 SWAP3 POP POP POP JUMP JUMPDEST PUSH1 0x0 PUSH2 0x1EEC DUP3 DUP12 PUSH2 0x1E69 JUMP JUMPDEST PUSH1 0x14 DUP3 ADD SWAP2 POP PUSH2 0x1EFC DUP3 DUP11 PUSH2 0x1E69 JUMP JUMPDEST PUSH1 0x14 DUP3 ADD SWAP2 POP PUSH2 0x1F0C DUP3 DUP10 PUSH2 0x1E8A JUMP JUMPDEST PUSH1 0x20 DUP3 ADD SWAP2 POP PUSH2 0x1F1C DUP3 DUP9 PUSH2 0x1E8A JUMP JUMPDEST PUSH1 0x20 DUP3 ADD SWAP2 POP PUSH2 0x1F2C DUP3 DUP8 PUSH2 0x1E8A JUMP JUMPDEST PUSH1 0x20 DUP3 ADD SWAP2 POP PUSH2 0x1F3C DUP3 DUP7 PUSH2 0x1E8A JUMP JUMPDEST PUSH1 0x20 DUP3 ADD SWAP2 POP PUSH2 0x1F4D DUP3 DUP5 DUP7 PUSH2 0x1EBB JUMP JUMPDEST SWAP2 POP DUP2 SWAP1 POP SWAP10 SWAP9 POP POP POP POP POP POP POP POP POP JUMP JUMPDEST PUSH1 0x0 PUSH1 0x40 DUP3 ADD SWAP1 POP PUSH2 0x1F74 PUSH1 0x0 DUP4 ADD DUP6 PUSH2 0x1B78 JUMP JUMPDEST PUSH2 0x1F81 PUSH1 0x20 DUP4 ADD DUP5 PUSH2 0x1B78 JUMP JUMPDEST SWAP4 SWAP3 POP POP POP JUMP JUMPDEST PUSH1 0x0 DUP3 DUP3 MSTORE PUSH1 0x20 DUP3 ADD SWAP1 POP SWAP3 SWAP2 POP POP JUMP JUMPDEST PUSH32 0x46756E6374696F6E206D7573742062652063616C6C6564207468726F75676820 PUSH1 0x0 DUP3 ADD MSTORE PUSH32 0x64656C656761746563616C6C0000000000000000000000000000000000000000 PUSH1 0x20 DUP3 ADD MSTORE POP JUMP JUMPDEST PUSH1 0x0 PUSH2 0x1FF5 PUSH1 0x2C DUP4 PUSH2 0x1F88 JUMP JUMPDEST SWAP2 POP PUSH2 0x2000 DUP3 PUSH2 0x1F99 JUMP JUMPDEST PUSH1 0x40 DUP3 ADD SWAP1 POP SWAP2 SWAP1 POP JUMP JUMPDEST PUSH1 0x0 PUSH1 0x20 DUP3 ADD SWAP1 POP DUP2 DUP2 SUB PUSH1 0x0 DUP4 ADD MSTORE PUSH2 0x2024 DUP2 PUSH2 0x1FE8 JUMP JUMPDEST SWAP1 POP SWAP2 SWAP1 POP JUMP JUMPDEST PUSH1 0x0 PUSH2 0x2036 DUP3 PUSH2 0x1875 JUMP JUMPDEST SWAP1 POP SWAP2 SWAP1 POP JUMP JUMPDEST PUSH2 0x2046 DUP2 PUSH2 0x202B JUMP JUMPDEST DUP2 EQ PUSH2 0x2051 JUMPI PUSH1 0x0 DUP1 REVERT JUMPDEST POP JUMP JUMPDEST PUSH1 0x0 DUP2 MLOAD SWAP1 POP PUSH2 0x2063 DUP2 PUSH2 0x203D JUMP JUMPDEST SWAP3 SWAP2 POP POP JUMP JUMPDEST PUSH1 0x0 PUSH1 0x20 DUP3 DUP5 SUB SLT ISZERO PUSH2 0x207F JUMPI PUSH2 0x207E PUSH2 0x1592 JUMP JUMPDEST JUMPDEST PUSH1 0x0 PUSH2 0x208D DUP5 DUP3 DUP6 ADD PUSH2 0x2054 JUMP JUMPDEST SWAP2 POP POP SWAP3 SWAP2 POP POP JUMP JUMPDEST PUSH1 0x0 DUP2 SWAP1 POP SWAP2 SWAP1 POP JUMP JUMPDEST PUSH1 0x0 PUSH2 0x20BB PUSH2 0x20B6 PUSH2 0x20B1 DUP5 PUSH2 0x2096 JUMP JUMPDEST PUSH2 0x1D82 JUMP JUMPDEST PUSH2 0x172B JUMP JUMPDEST SWAP1 POP SWAP2 SWAP1 POP JUMP JUMPDEST PUSH2 0x20CB DUP2 PUSH2 0x20A0 JUMP JUMPDEST DUP3 MSTORE POP POP JUMP JUMPDEST PUSH1 0x0 PUSH1 0x40 DUP3 ADD SWAP1 POP PUSH2 0x20E6 PUSH1 0x0 DUP4 ADD DUP6 PUSH2 0x1A15 JUMP JUMPDEST PUSH2 0x20F3 PUSH1 0x20 DUP4 ADD DUP5 PUSH2 0x20C2 JUMP JUMPDEST SWAP4 SWAP3 POP POP POP JUMP JUMPDEST PUSH32 0x4E487B7100000000000000000000000000000000000000000000000000000000 PUSH1 0x0 MSTORE PUSH1 0x32 PUSH1 0x4 MSTORE PUSH1 0x24 PUSH1 0x0 REVERT JUMPDEST PUSH32 0x4E487B7100000000000000000000000000000000000000000000000000000000 PUSH1 0x0 MSTORE PUSH1 0x11 PUSH1 0x4 MSTORE PUSH1 0x24 PUSH1 0x0 REVERT JUMPDEST PUSH1 0x0 DUP2 PUSH1 0x1 SHR SWAP1 POP SWAP2 SWAP1 POP JUMP JUMPDEST PUSH1 0x0 DUP1 DUP3 SWAP2 POP DUP4 SWAP1 POP JUMPDEST PUSH1 0x1 DUP6 GT ISZERO PUSH2 0x21AF JUMPI DUP1 DUP7 DIV DUP2 GT ISZERO PUSH2 0x218B JUMPI PUSH2 0x218A PUSH2 0x2129 JUMP JUMPDEST JUMPDEST PUSH1 0x1 DUP6 AND ISZERO PUSH2 0x219A JUMPI DUP1 DUP3 MUL SWAP2 POP JUMPDEST DUP1 DUP2 MUL SWAP1 POP PUSH2 0x21A8 DUP6 PUSH2 0x2158 JUMP JUMPDEST SWAP5 POP PUSH2 0x216F JUMP JUMPDEST SWAP5 POP SWAP5 SWAP3 POP POP POP JUMP JUMPDEST PUSH1 0x0 DUP3 PUSH2 0x21C8 JUMPI PUSH1 0x1 SWAP1 POP PUSH2 0x2284 JUMP JUMPDEST DUP2 PUSH2 0x21D6 JUMPI PUSH1 0x0 SWAP1 POP PUSH2 0x2284 JUMP JUMPDEST DUP2 PUSH1 0x1 DUP2 EQ PUSH2 0x21EC JUMPI PUSH1 0x2 DUP2 EQ PUSH2 0x21F6 JUMPI PUSH2 0x2225 JUMP JUMPDEST PUSH1 0x1 SWAP2 POP POP PUSH2 0x2284 JUMP JUMPDEST PUSH1 0xFF DUP5 GT ISZERO PUSH2 0x2208 JUMPI PUSH2 0x2207 PUSH2 0x2129 JUMP JUMPDEST JUMPDEST DUP4 PUSH1 0x2 EXP SWAP2 POP DUP5 DUP3 GT ISZERO PUSH2 0x221F JUMPI PUSH2 0x221E PUSH2 0x2129 JUMP JUMPDEST JUMPDEST POP PUSH2 0x2284 JUMP JUMPDEST POP PUSH1 0x20 DUP4 LT PUSH2 0x133 DUP4 LT AND PUSH1 0x4E DUP5 LT PUSH1 0xB DUP5 LT AND OR ISZERO PUSH2 0x225A JUMPI DUP3 DUP3 EXP SWAP1 POP DUP4 DUP2 GT ISZERO PUSH2 0x2255 JUMPI PUSH2 0x2254 PUSH2 0x2129 JUMP JUMPDEST JUMPDEST PUSH2 0x2284 JUMP JUMPDEST PUSH2 0x2267 DUP5 DUP5 DUP5 PUSH1 0x1 PUSH2 0x2165 JUMP JUMPDEST SWAP3 POP SWAP1 POP DUP2 DUP5 DIV DUP2 GT ISZERO PUSH2 0x227E JUMPI PUSH2 0x227D PUSH2 0x2129 JUMP JUMPDEST JUMPDEST DUP2 DUP2 MUL SWAP1 POP JUMPDEST SWAP4 SWAP3 POP POP POP JUMP JUMPDEST PUSH1 0x0 PUSH2 0x2296 DUP3 PUSH2 0x172B JUMP JUMPDEST SWAP2 POP PUSH2 0x22A1 DUP4 PUSH2 0x172B JUMP JUMPDEST SWAP3 POP PUSH2 0x22CE PUSH32 0xFFFFFFFFFFFFFFFFFFFFFFFFFFFFFFFFFFFFFFFFFFFFFFFFFFFFFFFFFFFFFFFF DUP5 DUP5 PUSH2 0x21B8 JUMP JUMPDEST SWAP1 POP SWAP3 SWAP2 POP POP JUMP JUMPDEST PUSH1 0x0 PUSH1 0x40 DUP3 ADD SWAP1 POP PUSH2 0x22EB PUSH1 0x0 DUP4 ADD DUP6 PUSH2 0x1A15 JUMP JUMPDEST PUSH2 0x22F8 PUSH1 0x20 DUP4 ADD DUP5 PUSH2 0x1A15 JUMP JUMPDEST SWAP4 SWAP3 POP POP POP JUMP JUMPDEST PUSH32 0x4E487B7100000000000000000000000000000000000000000000000000000000 PUSH1 0x0 MSTORE PUSH1 0x12 PUSH1 0x4 MSTORE PUSH1 0x24 PUSH1 0x0 REVERT JUMPDEST PUSH1 0x0 PUSH2 0x2339 DUP3 PUSH2 0x172B JUMP JUMPDEST SWAP2 POP PUSH2 0x2344 DUP4 PUSH2 0x172B JUMP JUMPDEST SWAP3 POP DUP3 PUSH2 0x2354 JUMPI PUSH2 0x2353 PUSH2 0x22FF JUMP JUMPDEST JUMPDEST DUP3 DUP3 DIV SWAP1 POP SWAP3 SWAP2 POP POP JUMP JUMPDEST PUSH1 0x0 PUSH2 0x236A DUP3 PUSH2 0x172B JUMP JUMPDEST SWAP2 POP PUSH2 0x2375 DUP4 PUSH2 0x172B JUMP JUMPDEST SWAP3 POP DUP3 PUSH2 0x2385 JUMPI PUSH2 0x2384 PUSH2 0x22FF JUMP JUMPDEST JUMPDEST DUP3 DUP3 MOD SWAP1 POP SWAP3 SWAP2 POP POP JUMP JUMPDEST PUSH1 0x0 DUP2 MLOAD SWAP1 POP SWAP2 SWAP1 POP JUMP JUMPDEST PUSH1 0x0 DUP3 DUP3 MSTORE PUSH1 0x20 DUP3 ADD SWAP1 POP SWAP3 SWAP2 POP POP JUMP JUMPDEST PUSH1 0x0 JUMPDEST DUP4 DUP2 LT ISZERO PUSH2 0x23CA JUMPI DUP1 DUP3 ADD MLOAD DUP2 DUP5 ADD MSTORE PUSH1 0x20 DUP2 ADD SWAP1 POP PUSH2 0x23AF JUMP JUMPDEST DUP4 DUP2 GT ISZERO PUSH2 0x23D9 JUMPI PUSH1 0x0 DUP5 DUP5 ADD MSTORE JUMPDEST POP POP POP POP JUMP JUMPDEST PUSH1 0x0 PUSH2 0x23EA DUP3 PUSH2 0x2390 JUMP JUMPDEST PUSH2 0x23F4 DUP2 DUP6 PUSH2 0x239B JUMP JUMPDEST SWAP4 POP PUSH2 0x2404 DUP2 DUP6 PUSH1 0x20 DUP7 ADD PUSH2 0x23AC JUMP JUMPDEST PUSH2 0x240D DUP2 PUSH2 0x15A1 JUMP JUMPDEST DUP5 ADD SWAP2 POP POP SWAP3 SWAP2 POP POP JUMP JUMPDEST PUSH1 0x0 PUSH1 0x60 DUP3 ADD SWAP1 POP PUSH2 0x242D PUSH1 0x0 DUP4 ADD DUP7 PUSH2 0x1B78 JUMP JUMPDEST PUSH2 0x243A PUSH1 0x20 DUP4 ADD DUP6 PUSH2 0x1A15 JUMP JUMPDEST DUP2 DUP2 SUB PUSH1 0x40 DUP4 ADD MSTORE PUSH2 0x244C DUP2 DUP5 PUSH2 0x23DF JUMP JUMPDEST SWAP1 POP SWAP5 SWAP4 POP POP POP POP JUMP JUMPDEST PUSH2 0x245F DUP2 PUSH2 0x1B42 JUMP JUMPDEST DUP2 EQ PUSH2 0x246A JUMPI PUSH1 0x0 DUP1 REVERT JUMPDEST POP JUMP JUMPDEST PUSH1 0x0 DUP2 MLOAD SWAP1 POP PUSH2 0x247C DUP2 PUSH2 0x2456 JUMP JUMPDEST SWAP3 SWAP2 POP POP JUMP JUMPDEST PUSH1 0x0 DUP1 REVERT JUMPDEST PUSH1 0x0 PUSH8 0xFFFFFFFFFFFFFFFF DUP3 GT ISZERO PUSH2 0x24A2 JUMPI PUSH2 0x24A1 PUSH2 0x15B2 JUMP JUMPDEST JUMPDEST PUSH2 0x24AB DUP3 PUSH2 0x15A1 JUMP JUMPDEST SWAP1 POP PUSH1 0x20 DUP2 ADD SWAP1 POP SWAP2 SWAP1 POP JUMP JUMPDEST PUSH1 0x0 PUSH2 0x24CB PUSH2 0x24C6 DUP5 PUSH2 0x2487 JUMP JUMPDEST PUSH2 0x1612 JUMP JUMPDEST SWAP1 POP DUP3 DUP2 MSTORE PUSH1 0x20 DUP2 ADD DUP5 DUP5 DUP5 ADD GT ISZERO PUSH2 0x24E7 JUMPI PUSH2 0x24E6 PUSH2 0x2482 JUMP JUMPDEST JUMPDEST PUSH2 0x24F2 DUP5 DUP3 DUP6 PUSH2 0x23AC JUMP JUMPDEST POP SWAP4 SWAP3 POP POP POP JUMP JUMPDEST PUSH1 0x0 DUP3 PUSH1 0x1F DUP4 ADD SLT PUSH2 0x250F JUMPI PUSH2 0x250E PUSH2 0x159C JUMP JUMPDEST JUMPDEST DUP2 MLOAD PUSH2 0x251F DUP5 DUP3 PUSH1 0x20 DUP7 ADD PUSH2 0x24B8 JUMP JUMPDEST SWAP2 POP POP SWAP3 SWAP2 POP POP JUMP JUMPDEST PUSH1 0x0 DUP1 PUSH1 0x40 DUP4 DUP6 SUB SLT ISZERO PUSH2 0x253F JUMPI PUSH2 0x253E PUSH2 0x1592 JUMP JUMPDEST JUMPDEST PUSH1 0x0 PUSH2 0x254D DUP6 DUP3 DUP7 ADD PUSH2 0x246D JUMP JUMPDEST SWAP3 POP POP PUSH1 0x20 DUP4 ADD MLOAD PUSH8 0xFFFFFFFFFFFFFFFF DUP2 GT ISZERO PUSH2 0x256E JUMPI PUSH2 0x256D PUSH2 0x1597 JUMP JUMPDEST JUMPDEST PUSH2 0x257A DUP6 DUP3 DUP7 ADD PUSH2 0x24FA JUMP JUMPDEST SWAP2 POP POP SWAP3 POP SWAP3 SWAP1 POP JUMP INVALID LOG2 PUSH5 0x6970667358 0x22 SLT KECCAK256 0xDE DIV CALLDATACOPY 0xB3 DELEGATECALL PUSH5 0x707BF9A0A6 DUP5 0x2A PUSH16 0x1217F2FD989A9CCFAD455D96878F1ABB 0xD6 CREATE PUSH5 0x736F6C6343 STOP ADDMOD MULMOD STOP CALLER "},"methodIdentifiers":{"OUTBOX_VERSION()":"c75184df","bridge()":"e78cea92","calculateItemHash(address,address,uint256,uint256,uint256,uint256,bytes)":"9f0c04bf","calculateMerkleRoot(bytes32[],uint256,bytes32)":"007436d3","executeTransaction(bytes32[],uint256,address,address,uint256,uint256,uint256,uint256,bytes)":"08635a95","executeTransactionSimulation(uint256,address,address,uint256,uint256,uint256,uint256,bytes)":"288e5b10","initialize(address)":"c4d66de8","isSpent(uint256)":"5a129efe","l2ToL1BatchNum()":"11985271","l2ToL1Block()":"46547790","l2ToL1EthBlock()":"8515bc6a","l2ToL1OutputId()":"72f2a8c7","l2ToL1Sender()":"80648b02","l2ToL1Timestamp()":"b0f30537","rollup()":"cb23bcb5","roots(bytes32)":"ae6dead7","spent(uint256)":"d5b5cc23","updateSendRoot(bytes32,bytes32)":"a04cee60"}}}}}