{
  "_format": "hh-sol-artifact-1",
  "contractName": "Outbox",
  "sourceName": "@arbitrum/nitro-contracts/src/bridge/Outbox.sol",
  "abi": [
    {
      "inputs": [],
      "name": "AlreadyInit",
      "type": "error"
    },
    {
      "inputs": [
        {
          "internalType": "uint256",
          "name": "index",
          "type": "uint256"
        }
      ],
      "name": "AlreadySpent",
      "type": "error"
    },
    {
      "inputs": [],
      "name": "BridgeCallFailed",
      "type": "error"
    },
    {
      "inputs": [],
      "name": "HadZeroInit",
      "type": "error"
    },
    {
      "inputs": [
        {
          "internalType": "uint256",
          "name": "actualLength",
          "type": "uint256"
        },
        {
          "internalType": "uint256",
          "name": "maxProofLength",
          "type": "uint256"
        }
      ],
      "name": "MerkleProofTooLong",
      "type": "error"
    },
    {
      "inputs": [
        {
          "internalType": "address",
          "name": "sender",
          "type": "address"
        },
        {
          "internalType": "address",
          "name": "rollup",
          "type": "address"
        }
      ],
      "name": "NotRollup",
      "type": "error"
    },
    {
      "inputs": [
        {
          "internalType": "uint256",
          "name": "index",
          "type": "uint256"
        },
        {
          "internalType": "uint256",
          "name": "maxIndex",
          "type": "uint256"
        }
      ],
      "name": "PathNotMinimal",
      "type": "error"
    },
    {
      "inputs": [
        {
          "internalType": "uint256",
          "name": "proofLength",
          "type": "uint256"
        }
      ],
      "name": "ProofTooLong",
      "type": "error"
    },
    {
      "inputs": [],
      "name": "SimulationOnlyEntrypoint",
      "type": "error"
    },
    {
      "inputs": [
        {
          "internalType": "bytes32",
          "name": "root",
          "type": "bytes32"
        }
      ],
      "name": "UnknownRoot",
      "type": "error"
    },
    {
      "anonymous": false,
      "inputs": [
        {
          "indexed": true,
          "internalType": "address",
          "name": "to",
          "type": "address"
        },
        {
          "indexed": true,
          "internalType": "address",
          "name": "l2Sender",
          "type": "address"
        },
        {
          "indexed": true,
          "internalType": "uint256",
          "name": "zero",
          "type": "uint256"
        },
        {
          "indexed": false,
          "internalType": "uint256",
          "name": "transactionIndex",
          "type": "uint256"
        }
      ],
      "name": "OutBoxTransactionExecuted",
      "type": "event"
    },
    {
      "anonymous": false,
      "inputs": [
        {
          "indexed": true,
          "internalType": "bytes32",
          "name": "outputRoot",
          "type": "bytes32"
        },
        {
          "indexed": true,
          "internalType": "bytes32",
          "name": "l2BlockHash",
          "type": "bytes32"
        }
      ],
      "name": "SendRootUpdated",
      "type": "event"
    },
    {
      "inputs": [],
      "name": "OUTBOX_VERSION",
      "outputs": [
        {
          "internalType": "uint128",
          "name": "",
          "type": "uint128"
        }
      ],
      "stateMutability": "view",
      "type": "function"
    },
    {
      "inputs": [],
      "name": "bridge",
      "outputs": [
        {
          "internalType": "contract IBridge",
          "name": "",
          "type": "address"
        }
      ],
      "stateMutability": "view",
      "type": "function"
    },
    {
      "inputs": [
        {
          "internalType": "address",
          "name": "l2Sender",
          "type": "address"
        },
        {
          "internalType": "address",
          "name": "to",
          "type": "address"
        },
        {
          "internalType": "uint256",
          "name": "l2Block",
          "type": "uint256"
        },
        {
          "internalType": "uint256",
          "name": "l1Block",
          "type": "uint256"
        },
        {
          "internalType": "uint256",
          "name": "l2Timestamp",
          "type": "uint256"
        },
        {
          "internalType": "uint256",
          "name": "value",
          "type": "uint256"
        },
        {
          "internalType": "bytes",
          "name": "data",
          "type": "bytes"
        }
      ],
      "name": "calculateItemHash",
      "outputs": [
        {
          "internalType": "bytes32",
          "name": "",
          "type": "bytes32"
        }
      ],
      "stateMutability": "pure",
      "type": "function"
    },
    {
      "inputs": [
        {
          "internalType": "bytes32[]",
          "name": "proof",
          "type": "bytes32[]"
        },
        {
          "internalType": "uint256",
          "name": "path",
          "type": "uint256"
        },
        {
          "internalType": "bytes32",
          "name": "item",
          "type": "bytes32"
        }
      ],
      "name": "calculateMerkleRoot",
      "outputs": [
        {
          "internalType": "bytes32",
          "name": "",
          "type": "bytes32"
        }
      ],
      "stateMutability": "pure",
      "type": "function"
    },
    {
      "inputs": [
        {
          "internalType": "bytes32[]",
          "name": "proof",
          "type": "bytes32[]"
        },
        {
          "internalType": "uint256",
          "name": "index",
          "type": "uint256"
        },
        {
          "internalType": "address",
          "name": "l2Sender",
          "type": "address"
        },
        {
          "internalType": "address",
          "name": "to",
          "type": "address"
        },
        {
          "internalType": "uint256",
          "name": "l2Block",
          "type": "uint256"
        },
        {
          "internalType": "uint256",
          "name": "l1Block",
          "type": "uint256"
        },
        {
          "internalType": "uint256",
          "name": "l2Timestamp",
          "type": "uint256"
        },
        {
          "internalType": "uint256",
          "name": "value",
          "type": "uint256"
        },
        {
          "internalType": "bytes",
          "name": "data",
          "type": "bytes"
        }
      ],
      "name": "executeTransaction",
      "outputs": [],
      "stateMutability": "nonpayable",
      "type": "function"
    },
    {
      "inputs": [
        {
          "internalType": "uint256",
          "name": "index",
          "type": "uint256"
        },
        {
          "internalType": "address",
          "name": "l2Sender",
          "type": "address"
        },
        {
          "internalType": "address",
          "name": "to",
          "type": "address"
        },
        {
          "internalType": "uint256",
          "name": "l2Block",
          "type": "uint256"
        },
        {
          "internalType": "uint256",
          "name": "l1Block",
          "type": "uint256"
        },
        {
          "internalType": "uint256",
          "name": "l2Timestamp",
          "type": "uint256"
        },
        {
          "internalType": "uint256",
          "name": "value",
          "type": "uint256"
        },
        {
          "internalType": "bytes",
          "name": "data",
          "type": "bytes"
        }
      ],
      "name": "executeTransactionSimulation",
      "outputs": [],
      "stateMutability": "nonpayable",
      "type": "function"
    },
    {
      "inputs": [
        {
          "internalType": "contract IBridge",
          "name": "_bridge",
          "type": "address"
        }
      ],
      "name": "initialize",
      "outputs": [],
      "stateMutability": "nonpayable",
      "type": "function"
    },
    {
      "inputs": [
        {
          "internalType": "uint256",
          "name": "index",
          "type": "uint256"
        }
      ],
      "name": "isSpent",
      "outputs": [
        {
          "internalType": "bool",
          "name": "",
          "type": "bool"
        }
      ],
      "stateMutability": "view",
      "type": "function"
    },
    {
      "inputs": [],
      "name": "l2ToL1BatchNum",
      "outputs": [
        {
          "internalType": "uint256",
          "name": "",
          "type": "uint256"
        }
      ],
      "stateMutability": "pure",
      "type": "function"
    },
    {
      "inputs": [],
      "name": "l2ToL1Block",
      "outputs": [
        {
          "internalType": "uint256",
          "name": "",
          "type": "uint256"
        }
      ],
      "stateMutability": "view",
      "type": "function"
    },
    {
      "inputs": [],
      "name": "l2ToL1EthBlock",
      "outputs": [
        {
          "internalType": "uint256",
          "name": "",
          "type": "uint256"
        }
      ],
      "stateMutability": "view",
      "type": "function"
    },
    {
      "inputs": [],
      "name": "l2ToL1OutputId",
      "outputs": [
        {
          "internalType": "bytes32",
          "name": "",
          "type": "bytes32"
        }
      ],
      "stateMutability": "view",
      "type": "function"
    },
    {
      "inputs": [],
      "name": "l2ToL1Sender",
      "outputs": [
        {
          "internalType": "address",
          "name": "",
          "type": "address"
        }
      ],
      "stateMutability": "view",
      "type": "function"
    },
    {
      "inputs": [],
      "name": "l2ToL1Timestamp",
      "outputs": [
        {
          "internalType": "uint256",
          "name": "",
          "type": "uint256"
        }
      ],
      "stateMutability": "view",
      "type": "function"
    },
    {
      "inputs": [],
      "name": "rollup",
      "outputs": [
        {
          "internalType": "address",
          "name": "",
          "type": "address"
        }
      ],
      "stateMutability": "view",
      "type": "function"
    },
    {
      "inputs": [
        {
          "internalType": "bytes32",
          "name": "",
          "type": "bytes32"
        }
      ],
      "name": "roots",
      "outputs": [
        {
          "internalType": "bytes32",
          "name": "",
          "type": "bytes32"
        }
      ],
      "stateMutability": "view",
      "type": "function"
    },
    {
      "inputs": [
        {
          "internalType": "uint256",
          "name": "",
          "type": "uint256"
        }
      ],
      "name": "spent",
      "outputs": [
        {
          "internalType": "bytes32",
          "name": "",
          "type": "bytes32"
        }
      ],
      "stateMutability": "view",
      "type": "function"
    },
    {
      "inputs": [
        {
          "internalType": "bytes32",
          "name": "root",
          "type": "bytes32"
        },
        {
          "internalType": "bytes32",
          "name": "l2BlockHash",
          "type": "bytes32"
        }
      ],
      "name": "updateSendRoot",
      "outputs": [],
      "stateMutability": "nonpayable",
      "type": "function"
    }
  ],
  "bytecode": "0x60a06040523073ffffffffffffffffffffffffffffffffffffffff1660809073ffffffffffffffffffffffffffffffffffffffff1681525034801561004357600080fd5b506080516125ba61005f600039600061086b01526125ba6000f3fe608060405234801561001057600080fd5b50600436106101155760003560e01c80639f0c04bf116100a2578063c4d66de811610071578063c4d66de8146102e2578063c75184df146102fe578063cb23bcb51461031c578063d5b5cc231461033a578063e78cea921461036a57610115565b80639f0c04bf14610248578063a04cee6014610278578063ae6dead714610294578063b0f30537146102c457610115565b806346547790116100e957806346547790146101a05780635a129efe146101be57806372f2a8c7146101ee57806380648b021461020c5780638515bc6a1461022a57610115565b80627436d31461011a57806308635a951461014a5780631198527114610166578063288e5b1014610184575b600080fd5b610134600480360381019061012f9190611761565b610388565b60405161014191906117df565b60405180910390f35b610164600480360381019061015f9190611909565b6103c4565b005b61016e610443565b60405161017b9190611a24565b60405180910390f35b61019e60048036038101906101999190611a3f565b610448565b005b6101a86104ca565b6040516101b59190611a24565b60405180910390f35b6101d860048036038101906101d39190611b15565b610541565b6040516101e59190611b5d565b60405180910390f35b6101f6610567565b60405161020391906117df565b60405180910390f35b6102146105b1565b6040516102219190611b87565b60405180910390f35b610232610622565b60405161023f9190611a24565b60405180910390f35b610262600480360381019061025d9190611ba2565b610699565b60405161026f91906117df565b60405180910390f35b610292600480360381019061028d9190611c64565b6106de565b005b6102ae60048036038101906102a99190611ca4565b6107da565b6040516102bb91906117df565b60405180910390f35b6102cc6107f2565b6040516102d99190611a24565b60405180910390f35b6102fc60048036038101906102f79190611d0f565b610869565b005b610306610c91565b6040516103139190611d67565b60405180910390f35b610324610c96565b6040516103319190611b87565b60405180910390f35b610354600480360381019061034f9190611b15565b610cba565b60405161036191906117df565b60405180910390f35b610372610cd2565b60405161037f9190611de1565b60405180910390f35b60006103bb8484846040516020016103a09190611e1d565b60405160208183030381529060405280519060200120610cf8565b90509392505050565b60006103d68989898989898989610699565b90506104248c8c80806020026020016040519081016040528093929190818152602001838360200280828437600081840152601f19601f820116905080830192505050505050508b83610dc5565b6104358a8a8a8a8a8a8a8a8a610f61565b505050505050505050505050565b600090565b600073ffffffffffffffffffffffffffffffffffffffff163373ffffffffffffffffffffffffffffffffffffffff16146104ae576040517f0e13b69d00000000000000000000000000000000000000000000000000000000815260040160405180910390fd5b6104bf898989898989898989610f61565b505050505050505050565b600080600460000160009054906101000a90046fffffffffffffffffffffffffffffffff1690506fffffffffffffffffffffffffffffffff8016816fffffffffffffffffffffffffffffffff16141561052757600091505061053e565b806fffffffffffffffffffffffffffffffff169150505b90565b600080600061054f8461140f565b925092505061055e8282611460565b92505050919050565b60008060046002015490507fffffffffffffffffffffffffffffffffffffffffffffffffffffffffffffffff60001b8114156105a9576000801b9150506105ae565b809150505b90565b600080600460030160009054906101000a900473ffffffffffffffffffffffffffffffffffffffff16905073ffffffffffffffffffffffffffffffffffffffff80168173ffffffffffffffffffffffffffffffffffffffff16141561061a57600091505061061f565b809150505b90565b600080600460000160109054906101000a90046fffffffffffffffffffffffffffffffff1690506fffffffffffffffffffffffffffffffff8016816fffffffffffffffffffffffffffffffff16141561067f576000915050610696565b806fffffffffffffffffffffffffffffffff169150505b90565b600088888888888888886040516020016106ba989796959493929190611ee0565b60405160208183030381529060405280519060200120905098975050505050505050565b60008054906101000a900473ffffffffffffffffffffffffffffffffffffffff1673ffffffffffffffffffffffffffffffffffffffff163373ffffffffffffffffffffffffffffffffffffffff1614610790573360008054906101000a900473ffffffffffffffffffffffffffffffffffffffff166040517f3933c6fc000000000000000000000000000000000000000000000000000000008152600401610787929190611f5f565b60405180910390fd5b80600360008481526020019081526020016000208190555080827fb4df3847300f076a369cd76d2314b470a1194d9e8a6bb97f1860aee88a5f674860405160405180910390a35050565b60036020528060005260406000206000915090505481565b600080600460010160009054906101000a90046fffffffffffffffffffffffffffffffff1690506fffffffffffffffffffffffffffffffff8016816fffffffffffffffffffffffffffffffff16141561084f576000915050610866565b806fffffffffffffffffffffffffffffffff169150505b90565b7f000000000000000000000000000000000000000000000000000000000000000073ffffffffffffffffffffffffffffffffffffffff163073ffffffffffffffffffffffffffffffffffffffff1614156108f8576040517f08c379a00000000000000000000000000000000000000000000000000000000081526004016108ef9061200b565b60405180910390fd5b600073ffffffffffffffffffffffffffffffffffffffff168173ffffffffffffffffffffffffffffffffffffffff16141561095f576040517f1ad0f74300000000000000000000000000000000000000000000000000000000815260040160405180910390fd5b600073ffffffffffffffffffffffffffffffffffffffff16600160009054906101000a900473ffffffffffffffffffffffffffffffffffffffff1673ffffffffffffffffffffffffffffffffffffffff16146109e7576040517fef34ca5c00000000000000000000000000000000000000000000000000000000815260040160405180910390fd5b6040518060a001604052806fffffffffffffffffffffffffffffffff801681526020016fffffffffffffffffffffffffffffffff801681526020016fffffffffffffffffffffffffffffffff801681526020017fffffffffffffffffffffffffffffffffffffffffffffffffffffffffffffffff60001b815260200173ffffffffffffffffffffffffffffffffffffffff8016815250600460008201518160000160006101000a8154816fffffffffffffffffffffffffffffffff02191690836fffffffffffffffffffffffffffffffff16021790555060208201518160000160106101000a8154816fffffffffffffffffffffffffffffffff02191690836fffffffffffffffffffffffffffffffff16021790555060408201518160010160006101000a8154816fffffffffffffffffffffffffffffffff02191690836fffffffffffffffffffffffffffffffff1602179055506060820151816002015560808201518160030160006101000a81548173ffffffffffffffffffffffffffffffffffffffff021916908373ffffffffffffffffffffffffffffffffffffffff16021790555090505080600160006101000a81548173ffffffffffffffffffffffffffffffffffffffff021916908373ffffffffffffffffffffffffffffffffffffffff1602179055508073ffffffffffffffffffffffffffffffffffffffff1663cb23bcb56040518163ffffffff1660e01b815260040160206040518083038186803b158015610c1757600080fd5b505afa158015610c2b573d6000803e3d6000fd5b505050506040513d601f19601f82011682018060405250810190610c4f9190612069565b6000806101000a81548173ffffffffffffffffffffffffffffffffffffffff021916908373ffffffffffffffffffffffffffffffffffffffff16021790555050565b600281565b60008054906101000a900473ffffffffffffffffffffffffffffffffffffffff1681565b60026020528060005260406000206000915090505481565b600160009054906101000a900473ffffffffffffffffffffffffffffffffffffffff1681565b60008084519050610100811115610d4a57806101006040517ffdac331e000000000000000000000000000000000000000000000000000000008152600401610d419291906120d1565b60405180910390fd5b600083905060005b82811015610db8576000878281518110610d6f57610d6e6120fa565b5b602002602001015190506000826001901b88161415610d9c57826000528060205260406000209250610dac565b8060005282602052604060002092505b81600101915050610d52565b5080925050509392505050565b610100835110610e0d5782516040517fab6a0683000000000000000000000000000000000000000000000000000000008152600401610e049190611a24565b60405180910390fd5b82516002610e1b919061228b565b8210610e6d578183516002610e30919061228b565b6040517f0b8a724b000000000000000000000000000000000000000000000000000000008152600401610e649291906122d6565b60405180910390fd5b6000610e7a848484610388565b90506000801b60036000838152602001908152602001600020541415610ed757806040517f8730d7c8000000000000000000000000000000000000000000000000000000008152600401610ece91906117df565b60405180910390fd5b6000806000610ee58661140f565b925092509250610ef58282611460565b15610f3757856040517f9715b8d3000000000000000000000000000000000000000000000000000000008152600401610f2e9190611a24565b60405180910390fd5b816001901b60001b8117600260008581526020019081526020016000208190555050505050505050565b60008873ffffffffffffffffffffffffffffffffffffffff168873ffffffffffffffffffffffffffffffffffffffff167f20af7f3bbfe38132b8900ae295cd9c8d1914be7052d061a511f3f728dab189648c604051610fc09190611a24565b60405180910390a4600060046040518060a00160405290816000820160009054906101000a90046fffffffffffffffffffffffffffffffff166fffffffffffffffffffffffffffffffff166fffffffffffffffffffffffffffffffff1681526020016000820160109054906101000a90046fffffffffffffffffffffffffffffffff166fffffffffffffffffffffffffffffffff166fffffffffffffffffffffffffffffffff1681526020016001820160009054906101000a90046fffffffffffffffffffffffffffffffff166fffffffffffffffffffffffffffffffff166fffffffffffffffffffffffffffffffff168152602001600282015481526020016003820160009054906101000a900473ffffffffffffffffffffffffffffffffffffffff1673ffffffffffffffffffffffffffffffffffffffff1673ffffffffffffffffffffffffffffffffffffffff168152505090506040518060a00160405280886fffffffffffffffffffffffffffffffff168152602001876fffffffffffffffffffffffffffffffff168152602001866fffffffffffffffffffffffffffffffff1681526020018b60001b81526020018a73ffffffffffffffffffffffffffffffffffffffff16815250600460008201518160000160006101000a8154816fffffffffffffffffffffffffffffffff02191690836fffffffffffffffffffffffffffffffff16021790555060208201518160000160106101000a8154816fffffffffffffffffffffffffffffffff02191690836fffffffffffffffffffffffffffffffff16021790555060408201518160010160006101000a8154816fffffffffffffffffffffffffffffffff02191690836fffffffffffffffffffffffffffffffff1602179055506060820151816002015560808201518160030160006101000a81548173ffffffffffffffffffffffffffffffffffffffff021916908373ffffffffffffffffffffffffffffffffffffffff1602179055509050506112ef888585858080601f016020809104026020016040519081016040528093929190818152602001838380828437600081840152601f19601f8201169050808301925050505050505061147a565b80600460008201518160000160006101000a8154816fffffffffffffffffffffffffffffffff02191690836fffffffffffffffffffffffffffffffff16021790555060208201518160000160106101000a8154816fffffffffffffffffffffffffffffffff02191690836fffffffffffffffffffffffffffffffff16021790555060408201518160010160006101000a8154816fffffffffffffffffffffffffffffffff02191690836fffffffffffffffffffffffffffffffff1602179055506060820151816002015560808201518160030160006101000a81548173ffffffffffffffffffffffffffffffffffffffff021916908373ffffffffffffffffffffffffffffffffffffffff16021790555090505050505050505050505050565b60008060008060ff85611422919061232e565b9050600060ff86611433919061235f565b90506000600260008481526020019081526020016000205490508282829550955095505050509193909250565b60008060001b600160001b8484901c161415905092915050565b600080600160009054906101000a900473ffffffffffffffffffffffffffffffffffffffff1673ffffffffffffffffffffffffffffffffffffffff16639e5d4c498686866040518463ffffffff1660e01b81526004016114dc93929190612418565b600060405180830381600087803b1580156114f657600080fd5b505af115801561150a573d6000803e3d6000fd5b505050506040513d6000823e3d601f19601f820116820180604052508101906115339190612528565b91509150816115815760008151111561154f5780518082602001fd5b6040517f376fb55a00000000000000000000000000000000000000000000000000000000815260040160405180910390fd5b5050505050565b6000604051905090565b600080fd5b600080fd5b600080fd5b6000601f19601f8301169050919050565b7f4e487b7100000000000000000000000000000000000000000000000000000000600052604160045260246000fd5b6115ea826115a1565b810181811067ffffffffffffffff82111715611609576116086115b2565b5b80604052505050565b600061161c611588565b905061162882826115e1565b919050565b600067ffffffffffffffff821115611648576116476115b2565b5b602082029050602081019050919050565b600080fd5b6000819050919050565b6116718161165e565b811461167c57600080fd5b50565b60008135905061168e81611668565b92915050565b60006116a76116a28461162d565b611612565b905080838252602082019050602084028301858111156116ca576116c9611659565b5b835b818110156116f357806116df888261167f565b8452602084019350506020810190506116cc565b5050509392505050565b600082601f8301126117125761171161159c565b5b8135611722848260208601611694565b91505092915050565b6000819050919050565b61173e8161172b565b811461174957600080fd5b50565b60008135905061175b81611735565b92915050565b60008060006060848603121561177a57611779611592565b5b600084013567ffffffffffffffff81111561179857611797611597565b5b6117a4868287016116fd565b93505060206117b58682870161174c565b92505060406117c68682870161167f565b9150509250925092565b6117d98161165e565b82525050565b60006020820190506117f460008301846117d0565b92915050565b600080fd5b60008083601f8401126118155761181461159c565b5b8235905067ffffffffffffffff811115611832576118316117fa565b5b60208301915083602082028301111561184e5761184d611659565b5b9250929050565b600073ffffffffffffffffffffffffffffffffffffffff82169050919050565b600061188082611855565b9050919050565b61189081611875565b811461189b57600080fd5b50565b6000813590506118ad81611887565b92915050565b60008083601f8401126118c9576118c861159c565b5b8235905067ffffffffffffffff8111156118e6576118e56117fa565b5b60208301915083600182028301111561190257611901611659565b5b9250929050565b60008060008060008060008060008060006101208c8e03121561192f5761192e611592565b5b60008c013567ffffffffffffffff81111561194d5761194c611597565b5b6119598e828f016117ff565b9b509b5050602061196c8e828f0161174c565b995050604061197d8e828f0161189e565b985050606061198e8e828f0161189e565b975050608061199f8e828f0161174c565b96505060a06119b08e828f0161174c565b95505060c06119c18e828f0161174c565b94505060e06119d28e828f0161174c565b9350506101008c013567ffffffffffffffff8111156119f4576119f3611597565b5b611a008e828f016118b3565b92509250509295989b509295989b9093969950565b611a1e8161172b565b82525050565b6000602082019050611a396000830184611a15565b92915050565b60008060008060008060008060006101008a8c031215611a6257611a61611592565b5b6000611a708c828d0161174c565b9950506020611a818c828d0161189e565b9850506040611a928c828d0161189e565b9750506060611aa38c828d0161174c565b9650506080611ab48c828d0161174c565b95505060a0611ac58c828d0161174c565b94505060c0611ad68c828d0161174c565b93505060e08a013567ffffffffffffffff811115611af757611af6611597565b5b611b038c828d016118b3565b92509250509295985092959850929598565b600060208284031215611b2b57611b2a611592565b5b6000611b398482850161174c565b91505092915050565b60008115159050919050565b611b5781611b42565b82525050565b6000602082019050611b726000830184611b4e565b92915050565b611b8181611875565b82525050565b6000602082019050611b9c6000830184611b78565b92915050565b60008060008060008060008060e0898b031215611bc257611bc1611592565b5b6000611bd08b828c0161189e565b9850506020611be18b828c0161189e565b9750506040611bf28b828c0161174c565b9650506060611c038b828c0161174c565b9550506080611c148b828c0161174c565b94505060a0611c258b828c0161174c565b93505060c089013567ffffffffffffffff811115611c4657611c45611597565b5b611c528b828c016118b3565b92509250509295985092959890939650565b60008060408385031215611c7b57611c7a611592565b5b6000611c898582860161167f565b9250506020611c9a8582860161167f565b9150509250929050565b600060208284031215611cba57611cb9611592565b5b6000611cc88482850161167f565b91505092915050565b6000611cdc82611875565b9050919050565b611cec81611cd1565b8114611cf757600080fd5b50565b600081359050611d0981611ce3565b92915050565b600060208284031215611d2557611d24611592565b5b6000611d3384828501611cfa565b91505092915050565b60006fffffffffffffffffffffffffffffffff82169050919050565b611d6181611d3c565b82525050565b6000602082019050611d7c6000830184611d58565b92915050565b6000819050919050565b6000611da7611da2611d9d84611855565b611d82565b611855565b9050919050565b6000611db982611d8c565b9050919050565b6000611dcb82611dae565b9050919050565b611ddb81611dc0565b82525050565b6000602082019050611df66000830184611dd2565b92915050565b6000819050919050565b611e17611e128261165e565b611dfc565b82525050565b6000611e298284611e06565b60208201915081905092915050565b60008160601b9050919050565b6000611e5082611e38565b9050919050565b6000611e6282611e45565b9050919050565b611e7a611e7582611875565b611e57565b82525050565b6000819050919050565b611e9b611e968261172b565b611e80565b82525050565b600081905092915050565b82818337600083830152505050565b6000611ec78385611ea1565b9350611ed4838584611eac565b82840190509392505050565b6000611eec828b611e69565b601482019150611efc828a611e69565b601482019150611f0c8289611e8a565b602082019150611f1c8288611e8a565b602082019150611f2c8287611e8a565b602082019150611f3c8286611e8a565b602082019150611f4d828486611ebb565b91508190509998505050505050505050565b6000604082019050611f746000830185611b78565b611f816020830184611b78565b9392505050565b600082825260208201905092915050565b7f46756e6374696f6e206d7573742062652063616c6c6564207468726f7567682060008201527f64656c656761746563616c6c0000000000000000000000000000000000000000602082015250565b6000611ff5602c83611f88565b915061200082611f99565b604082019050919050565b6000602082019050818103600083015261202481611fe8565b9050919050565b600061203682611875565b9050919050565b6120468161202b565b811461205157600080fd5b50565b6000815190506120638161203d565b92915050565b60006020828403121561207f5761207e611592565b5b600061208d84828501612054565b91505092915050565b6000819050919050565b60006120bb6120b66120b184612096565b611d82565b61172b565b9050919050565b6120cb816120a0565b82525050565b60006040820190506120e66000830185611a15565b6120f360208301846120c2565b9392505050565b7f4e487b7100000000000000000000000000000000000000000000000000000000600052603260045260246000fd5b7f4e487b7100000000000000000000000000000000000000000000000000000000600052601160045260246000fd5b60008160011c9050919050565b6000808291508390505b60018511156121af5780860481111561218b5761218a612129565b5b600185161561219a5780820291505b80810290506121a885612158565b945061216f565b94509492505050565b6000826121c85760019050612284565b816121d65760009050612284565b81600181146121ec57600281146121f657612225565b6001915050612284565b60ff84111561220857612207612129565b5b8360020a91508482111561221f5761221e612129565b5b50612284565b5060208310610133831016604e8410600b841016171561225a5782820a90508381111561225557612254612129565b5b612284565b6122678484846001612165565b9250905081840481111561227e5761227d612129565b5b81810290505b9392505050565b60006122968261172b565b91506122a18361172b565b92506122ce7fffffffffffffffffffffffffffffffffffffffffffffffffffffffffffffffff84846121b8565b905092915050565b60006040820190506122eb6000830185611a15565b6122f86020830184611a15565b9392505050565b7f4e487b7100000000000000000000000000000000000000000000000000000000600052601260045260246000fd5b60006123398261172b565b91506123448361172b565b925082612354576123536122ff565b5b828204905092915050565b600061236a8261172b565b91506123758361172b565b925082612385576123846122ff565b5b828206905092915050565b600081519050919050565b600082825260208201905092915050565b60005b838110156123ca5780820151818401526020810190506123af565b838111156123d9576000848401525b50505050565b60006123ea82612390565b6123f4818561239b565b93506124048185602086016123ac565b61240d816115a1565b840191505092915050565b600060608201905061242d6000830186611b78565b61243a6020830185611a15565b818103604083015261244c81846123df565b9050949350505050565b61245f81611b42565b811461246a57600080fd5b50565b60008151905061247c81612456565b92915050565b600080fd5b600067ffffffffffffffff8211156124a2576124a16115b2565b5b6124ab826115a1565b9050602081019050919050565b60006124cb6124c684612487565b611612565b9050828152602081018484840111156124e7576124e6612482565b5b6124f28482856123ac565b509392505050565b600082601f83011261250f5761250e61159c565b5b815161251f8482602086016124b8565b91505092915050565b6000806040838503121561253f5761253e611592565b5b600061254d8582860161246d565b925050602083015167ffffffffffffffff81111561256e5761256d611597565b5b61257a858286016124fa565b915050925092905056fea2646970667358221220de0437b3f464707bf9a0a6842a6f1217f2fd989a9ccfad455d96878f1abbd6f064736f6c63430008090033",
  "linkReferences": {},
  "deployedLinkReferences": {}
}