{
  "_format": "hh-sol-artifact-1",
  "contractName": "Inbox",
  "sourceName": "@arbitrum/nitro-contracts/src/bridge/Inbox.sol",
  "abi": [
    {
      "inputs": [
        {
          "internalType": "uint256",
          "name": "dataLength",
          "type": "uint256"
        },
        {
          "internalType": "uint256",
          "name": "maxDataLength",
          "type": "uint256"
        }
      ],
      "name": "DataTooLarge",
      "type": "error"
    },
    {
      "inputs": [],
      "name": "GasLimitTooLarge",
      "type": "error"
    },
    {
      "inputs": [
        {
          "internalType": "uint256",
          "name": "expected",
          "type": "uint256"
        },
        {
          "internalType": "uint256",
          "name": "actual",
          "type": "uint256"
        }
      ],
      "name": "InsufficientSubmissionCost",
      "type": "error"
    },
    {
      "inputs": [
        {
          "internalType": "uint256",
          "name": "expected",
          "type": "uint256"
        },
        {
          "internalType": "uint256",
          "name": "actual",
          "type": "uint256"
        }
      ],
      "name": "InsufficientValue",
      "type": "error"
    },
    {
      "inputs": [],
      "name": "L1Forked",
      "type": "error"
    },
    {
      "inputs": [
        {
          "internalType": "address",
          "name": "origin",
          "type": "address"
        }
      ],
      "name": "NotAllowedOrigin",
      "type": "error"
    },
    {
      "inputs": [],
      "name": "NotForked",
      "type": "error"
    },
    {
      "inputs": [],
      "name": "NotOrigin",
      "type": "error"
    },
    {
      "inputs": [
        {
          "internalType": "address",
          "name": "sender",
          "type": "address"
        },
        {
          "internalType": "address",
          "name": "owner",
          "type": "address"
        }
      ],
      "name": "NotOwner",
      "type": "error"
    },
    {
      "inputs": [
        {
          "internalType": "address",
          "name": "sender",
          "type": "address"
        },
        {
          "internalType": "address",
          "name": "rollup",
          "type": "address"
        },
        {
          "internalType": "address",
          "name": "owner",
          "type": "address"
        }
      ],
      "name": "NotRollupOrOwner",
      "type": "error"
    },
    {
      "inputs": [
        {
          "internalType": "address",
          "name": "from",
          "type": "address"
        },
        {
          "internalType": "address",
          "name": "to",
          "type": "address"
        },
        {
          "internalType": "uint256",
          "name": "l2CallValue",
          "type": "uint256"
        },
        {
          "internalType": "uint256",
          "name": "deposit",
          "type": "uint256"
        },
        {
          "internalType": "uint256",
          "name": "maxSubmissionCost",
          "type": "uint256"
        },
        {
          "internalType": "address",
          "name": "excessFeeRefundAddress",
          "type": "address"
        },
        {
          "internalType": "address",
          "name": "callValueRefundAddress",
          "type": "address"
        },
        {
          "internalType": "uint256",
          "name": "gasLimit",
          "type": "uint256"
        },
        {
          "internalType": "uint256",
          "name": "maxFeePerGas",
          "type": "uint256"
        },
        {
          "internalType": "bytes",
          "name": "data",
          "type": "bytes"
        }
      ],
      "name": "RetryableData",
      "type": "error"
    },
    {
      "anonymous": false,
      "inputs": [
        {
          "indexed": true,
          "internalType": "address",
          "name": "user",
          "type": "address"
        },
        {
          "indexed": false,
          "internalType": "bool",
          "name": "val",
          "type": "bool"
        }
      ],
      "name": "AllowListAddressSet",
      "type": "event"
    },
    {
      "anonymous": false,
      "inputs": [
        {
          "indexed": false,
          "internalType": "bool",
          "name": "isEnabled",
          "type": "bool"
        }
      ],
      "name": "AllowListEnabledUpdated",
      "type": "event"
    },
    {
      "anonymous": false,
      "inputs": [
        {
          "indexed": true,
          "internalType": "uint256",
          "name": "messageNum",
          "type": "uint256"
        },
        {
          "indexed": false,
          "internalType": "bytes",
          "name": "data",
          "type": "bytes"
        }
      ],
      "name": "InboxMessageDelivered",
      "type": "event"
    },
    {
      "anonymous": false,
      "inputs": [
        {
          "indexed": true,
          "internalType": "uint256",
          "name": "messageNum",
          "type": "uint256"
        }
      ],
      "name": "InboxMessageDeliveredFromOrigin",
      "type": "event"
    },
    {
      "anonymous": false,
      "inputs": [
        {
          "indexed": false,
          "internalType": "address",
          "name": "account",
          "type": "address"
        }
      ],
      "name": "Paused",
      "type": "event"
    },
    {
      "anonymous": false,
      "inputs": [
        {
          "indexed": false,
          "internalType": "address",
          "name": "account",
          "type": "address"
        }
      ],
      "name": "Unpaused",
      "type": "event"
    },
    {
      "inputs": [],
      "name": "allowListEnabled",
      "outputs": [
        {
          "internalType": "bool",
          "name": "",
          "type": "bool"
        }
      ],
      "stateMutability": "view",
      "type": "function"
    },
    {
      "inputs": [],
      "name": "bridge",
      "outputs": [
        {
          "internalType": "contract IBridge",
          "name": "",
          "type": "address"
        }
      ],
      "stateMutability": "view",
      "type": "function"
    },
    {
      "inputs": [
        {
          "internalType": "uint256",
          "name": "dataLength",
          "type": "uint256"
        },
        {
          "internalType": "uint256",
          "name": "baseFee",
          "type": "uint256"
        }
      ],
      "name": "calculateRetryableSubmissionFee",
      "outputs": [
        {
          "internalType": "uint256",
          "name": "",
          "type": "uint256"
        }
      ],
      "stateMutability": "view",
      "type": "function"
    },
    {
      "inputs": [
        {
          "internalType": "address",
          "name": "to",
          "type": "address"
        },
        {
          "internalType": "uint256",
          "name": "l2CallValue",
          "type": "uint256"
        },
        {
          "internalType": "uint256",
          "name": "maxSubmissionCost",
          "type": "uint256"
        },
        {
          "internalType": "address",
          "name": "excessFeeRefundAddress",
          "type": "address"
        },
        {
          "internalType": "address",
          "name": "callValueRefundAddress",
          "type": "address"
        },
        {
          "internalType": "uint256",
          "name": "gasLimit",
          "type": "uint256"
        },
        {
          "internalType": "uint256",
          "name": "maxFeePerGas",
          "type": "uint256"
        },
        {
          "internalType": "bytes",
          "name": "data",
          "type": "bytes"
        }
      ],
      "name": "createRetryableTicket",
      "outputs": [
        {
          "internalType": "uint256",
          "name": "",
          "type": "uint256"
        }
      ],
      "stateMutability": "payable",
      "type": "function"
    },
    {
      "inputs": [
        {
          "internalType": "address",
          "name": "to",
          "type": "address"
        },
        {
          "internalType": "uint256",
          "name": "l2CallValue",
          "type": "uint256"
        },
        {
          "internalType": "uint256",
          "name": "maxSubmissionCost",
          "type": "uint256"
        },
        {
          "internalType": "address",
          "name": "excessFeeRefundAddress",
          "type": "address"
        },
        {
          "internalType": "address",
          "name": "callValueRefundAddress",
          "type": "address"
        },
        {
          "internalType": "uint256",
          "name": "gasLimit",
          "type": "uint256"
        },
        {
          "internalType": "uint256",
          "name": "maxFeePerGas",
          "type": "uint256"
        },
        {
          "internalType": "bytes",
          "name": "data",
          "type": "bytes"
        }
      ],
      "name": "createRetryableTicketNoRefundAliasRewrite",
      "outputs": [
        {
          "internalType": "uint256",
          "name": "",
          "type": "uint256"
        }
      ],
      "stateMutability": "payable",
      "type": "function"
    },
    {
      "inputs": [
        {
          "internalType": "uint256",
          "name": "",
          "type": "uint256"
        }
      ],
      "name": "depositEth",
      "outputs": [
        {
          "internalType": "uint256",
          "name": "",
          "type": "uint256"
        }
      ],
      "stateMutability": "payable",
      "type": "function"
    },
    {
      "inputs": [],
      "name": "depositEth",
      "outputs": [
        {
          "internalType": "uint256",
          "name": "",
          "type": "uint256"
        }
      ],
      "stateMutability": "payable",
      "type": "function"
    },
    {
      "inputs": [
        {
          "internalType": "contract IBridge",
          "name": "_bridge",
          "type": "address"
        },
        {
          "internalType": "contract ISequencerInbox",
          "name": "_sequencerInbox",
          "type": "address"
        }
      ],
      "name": "initialize",
      "outputs": [],
      "stateMutability": "nonpayable",
      "type": "function"
    },
    {
      "inputs": [
        {
          "internalType": "address",
          "name": "",
          "type": "address"
        }
      ],
      "name": "isAllowed",
      "outputs": [
        {
          "internalType": "bool",
          "name": "",
          "type": "bool"
        }
      ],
      "stateMutability": "view",
      "type": "function"
    },
    {
      "inputs": [],
      "name": "pause",
      "outputs": [],
      "stateMutability": "nonpayable",
      "type": "function"
    },
    {
      "inputs": [],
      "name": "paused",
      "outputs": [
        {
          "internalType": "bool",
          "name": "",
          "type": "bool"
        }
      ],
      "stateMutability": "view",
      "type": "function"
    },
    {
      "inputs": [
        {
          "internalType": "contract IBridge",
          "name": "",
          "type": "address"
        }
      ],
      "name": "postUpgradeInit",
      "outputs": [],
      "stateMutability": "nonpayable",
      "type": "function"
    },
    {
      "inputs": [
        {
          "internalType": "uint256",
          "name": "gasLimit",
          "type": "uint256"
        },
        {
          "internalType": "uint256",
          "name": "maxFeePerGas",
          "type": "uint256"
        },
        {
          "internalType": "address",
          "name": "to",
          "type": "address"
        },
        {
          "internalType": "uint256",
          "name": "value",
          "type": "uint256"
        },
        {
          "internalType": "bytes",
          "name": "data",
          "type": "bytes"
        }
      ],
      "name": "sendContractTransaction",
      "outputs": [
        {
          "internalType": "uint256",
          "name": "",
          "type": "uint256"
        }
      ],
      "stateMutability": "nonpayable",
      "type": "function"
    },
    {
      "inputs": [
        {
          "internalType": "uint256",
          "name": "gasLimit",
          "type": "uint256"
        },
        {
          "internalType": "uint256",
          "name": "maxFeePerGas",
          "type": "uint256"
        },
        {
          "internalType": "address",
          "name": "to",
          "type": "address"
        },
        {
          "internalType": "bytes",
          "name": "data",
          "type": "bytes"
        }
      ],
      "name": "sendL1FundedContractTransaction",
      "outputs": [
        {
          "internalType": "uint256",
          "name": "",
          "type": "uint256"
        }
      ],
      "stateMutability": "payable",
      "type": "function"
    },
    {
      "inputs": [
        {
          "internalType": "uint256",
          "name": "gasLimit",
          "type": "uint256"
        },
        {
          "internalType": "uint256",
          "name": "maxFeePerGas",
          "type": "uint256"
        },
        {
          "internalType": "uint256",
          "name": "nonce",
          "type": "uint256"
        },
        {
          "internalType": "address",
          "name": "to",
          "type": "address"
        },
        {
          "internalType": "bytes",
          "name": "data",
          "type": "bytes"
        }
      ],
      "name": "sendL1FundedUnsignedTransaction",
      "outputs": [
        {
          "internalType": "uint256",
          "name": "",
          "type": "uint256"
        }
      ],
      "stateMutability": "payable",
      "type": "function"
    },
    {
      "inputs": [
        {
          "internalType": "uint256",
          "name": "gasLimit",
          "type": "uint256"
        },
        {
          "internalType": "uint256",
          "name": "maxFeePerGas",
          "type": "uint256"
        },
        {
          "internalType": "uint256",
          "name": "nonce",
          "type": "uint256"
        },
        {
          "internalType": "address",
          "name": "to",
          "type": "address"
        },
        {
          "internalType": "bytes",
          "name": "data",
          "type": "bytes"
        }
      ],
      "name": "sendL1FundedUnsignedTransactionToFork",
      "outputs": [
        {
          "internalType": "uint256",
          "name": "",
          "type": "uint256"
        }
      ],
      "stateMutability": "payable",
      "type": "function"
    },
    {
      "inputs": [
        {
          "internalType": "bytes",
          "name": "messageData",
          "type": "bytes"
        }
      ],
      "name": "sendL2Message",
      "outputs": [
        {
          "internalType": "uint256",
          "name": "",
          "type": "uint256"
        }
      ],
      "stateMutability": "nonpayable",
      "type": "function"
    },
    {
      "inputs": [
        {
          "internalType": "bytes",
          "name": "messageData",
          "type": "bytes"
        }
      ],
      "name": "sendL2MessageFromOrigin",
      "outputs": [
        {
          "internalType": "uint256",
          "name": "",
          "type": "uint256"
        }
      ],
      "stateMutability": "nonpayable",
      "type": "function"
    },
    {
      "inputs": [
        {
          "internalType": "uint256",
          "name": "gasLimit",
          "type": "uint256"
        },
        {
          "internalType": "uint256",
          "name": "maxFeePerGas",
          "type": "uint256"
        },
        {
          "internalType": "uint256",
          "name": "nonce",
          "type": "uint256"
        },
        {
          "internalType": "address",
          "name": "to",
          "type": "address"
        },
        {
          "internalType": "uint256",
          "name": "value",
          "type": "uint256"
        },
        {
          "internalType": "bytes",
          "name": "data",
          "type": "bytes"
        }
      ],
      "name": "sendUnsignedTransaction",
      "outputs": [
        {
          "internalType": "uint256",
          "name": "",
          "type": "uint256"
        }
      ],
      "stateMutability": "nonpayable",
      "type": "function"
    },
    {
      "inputs": [
        {
          "internalType": "uint256",
          "name": "gasLimit",
          "type": "uint256"
        },
        {
          "internalType": "uint256",
          "name": "maxFeePerGas",
          "type": "uint256"
        },
        {
          "internalType": "uint256",
          "name": "nonce",
          "type": "uint256"
        },
        {
          "internalType": "address",
          "name": "to",
          "type": "address"
        },
        {
          "internalType": "uint256",
          "name": "value",
          "type": "uint256"
        },
        {
          "internalType": "bytes",
          "name": "data",
          "type": "bytes"
        }
      ],
      "name": "sendUnsignedTransactionToFork",
      "outputs": [
        {
          "internalType": "uint256",
          "name": "",
          "type": "uint256"
        }
      ],
      "stateMutability": "nonpayable",
      "type": "function"
    },
    {
      "inputs": [
        {
          "internalType": "uint256",
          "name": "gasLimit",
          "type": "uint256"
        },
        {
          "internalType": "uint256",
          "name": "maxFeePerGas",
          "type": "uint256"
        },
        {
          "internalType": "uint256",
          "name": "nonce",
          "type": "uint256"
        },
        {
          "internalType": "uint256",
          "name": "value",
          "type": "uint256"
        },
        {
          "internalType": "address",
          "name": "withdrawTo",
          "type": "address"
        }
      ],
      "name": "sendWithdrawEthToFork",
      "outputs": [
        {
          "internalType": "uint256",
          "name": "",
          "type": "uint256"
        }
      ],
      "stateMutability": "nonpayable",
      "type": "function"
    },
    {
      "inputs": [],
      "name": "sequencerInbox",
      "outputs": [
        {
          "internalType": "contract ISequencerInbox",
          "name": "",
          "type": "address"
        }
      ],
      "stateMutability": "view",
      "type": "function"
    },
    {
      "inputs": [
        {
          "internalType": "address[]",
          "name": "user",
          "type": "address[]"
        },
        {
          "internalType": "bool[]",
          "name": "val",
          "type": "bool[]"
        }
      ],
      "name": "setAllowList",
      "outputs": [],
      "stateMutability": "nonpayable",
      "type": "function"
    },
    {
      "inputs": [
        {
          "internalType": "bool",
          "name": "_allowListEnabled",
          "type": "bool"
        }
      ],
      "name": "setAllowListEnabled",
      "outputs": [],
      "stateMutability": "nonpayable",
      "type": "function"
    },
    {
      "inputs": [
        {
          "internalType": "address",
          "name": "to",
          "type": "address"
        },
        {
          "internalType": "uint256",
          "name": "l2CallValue",
          "type": "uint256"
        },
        {
          "internalType": "uint256",
          "name": "maxSubmissionCost",
          "type": "uint256"
        },
        {
          "internalType": "address",
          "name": "excessFeeRefundAddress",
          "type": "address"
        },
        {
          "internalType": "address",
          "name": "callValueRefundAddress",
          "type": "address"
        },
        {
          "internalType": "uint256",
          "name": "gasLimit",
          "type": "uint256"
        },
        {
          "internalType": "uint256",
          "name": "maxFeePerGas",
          "type": "uint256"
        },
        {
          "internalType": "bytes",
          "name": "data",
          "type": "bytes"
        }
      ],
      "name": "uniswapCreateRetryableTicket",
      "outputs": [
        {
          "internalType": "uint256",
          "name": "",
          "type": "uint256"
        }
      ],
      "stateMutability": "payable",
      "type": "function"
    },
    {
      "inputs": [],
      "name": "unpause",
      "outputs": [],
      "stateMutability": "nonpayable",
      "type": "function"
    },
    {
      "inputs": [
        {
          "internalType": "address",
          "name": "to",
          "type": "address"
        },
        {
          "internalType": "uint256",
          "name": "l2CallValue",
          "type": "uint256"
        },
        {
          "internalType": "uint256",
          "name": "maxSubmissionCost",
          "type": "uint256"
        },
        {
          "internalType": "address",
          "name": "excessFeeRefundAddress",
          "type": "address"
        },
        {
          "internalType": "address",
          "name": "callValueRefundAddress",
          "type": "address"
        },
        {
          "internalType": "uint256",
          "name": "gasLimit",
          "type": "uint256"
        },
        {
          "internalType": "uint256",
          "name": "maxFeePerGas",
          "type": "uint256"
        },
        {
          "internalType": "bytes",
          "name": "data",
          "type": "bytes"
        }
      ],
      "name": "unsafeCreateRetryableTicket",
      "outputs": [
        {
          "internalType": "uint256",
          "name": "",
          "type": "uint256"
        }
      ],
      "stateMutability": "payable",
      "type": "function"
    }
  ],
  "bytecode": "0x60c06040523073ffffffffffffffffffffffffffffffffffffffff1660809073ffffffffffffffffffffffffffffffffffffffff168152504660a09081525034801561004a57600080fd5b5060805160a051614d06610077600039600061311f01526000818161157201526127a00152614d066000f3fe60806040526004361061019b5760003560e01c806367ef3ab8116100ec578063babcc5391161008a578063e6bd12cf11610064578063e6bd12cf146105f5578063e78cea9214610625578063ee35f32714610650578063efeadb6d1461067b5761019b565b8063babcc53914610566578063c474d2c5146105a3578063e3de72a5146105cc5761019b565b80638456cb59116100c65780638456cb59146104985780638a631aa6146104af578063a66b327d146104ec578063b75436bb146105295761019b565b806367ef3ab8146103fb5780636e6e8a6a1461042b57806370665f141461045b5761019b565b80633f4ba83a116101595780635075788b116101335780635075788b146103335780635c975abb146103705780635e9167581461039b578063679b6ded146103cb5761019b565b80633f4ba83a146102d5578063439370b1146102ec578063485cc9551461030a5761019b565b8062f72382146101a05780630f4d14e9146101dd5780631b871c8d1461020d5780631cb763d21461023d5780631fe927cf1461026d57806322bd5c1c146102aa575b600080fd5b3480156101ac57600080fd5b506101c760048036038101906101c29190613647565b6106a4565b6040516101d49190613705565b60405180910390f35b6101f760048036038101906101f29190613720565b6108e2565b6040516102049190613705565b60405180910390f35b6102276004803603810190610222919061374d565b6109e3565b6040516102349190613705565b60405180910390f35b6102576004803603810190610252919061374d565b610af5565b6040516102649190613705565b60405180910390f35b34801561027957600080fd5b50610294600480360381019061028f9190613823565b610f01565b6040516102a19190613705565b60405180910390f35b3480156102b657600080fd5b506102bf611148565b6040516102cc919061388b565b60405180910390f35b3480156102e157600080fd5b506102ea61115b565b005b6102f4611335565b6040516103019190613705565b60405180910390f35b34801561031657600080fd5b50610331600480360381019061032c9190613922565b6114b0565b005b34801561033f57600080fd5b5061035a60048036038101906103559190613647565b6116ca565b6040516103679190613705565b60405180910390f35b34801561037c57600080fd5b5061038561185d565b604051610392919061388b565b60405180910390f35b6103b560048036038101906103b09190613962565b611874565b6040516103c29190613705565b60405180910390f35b6103e560048036038101906103e0919061374d565b611a03565b6040516103f29190613705565b60405180910390f35b610415600480360381019061041091906139ea565b611bd2565b6040516104229190613705565b60405180910390f35b6104456004803603810190610440919061374d565b611d64565b6040516104529190613705565b60405180910390f35b34801561046757600080fd5b50610482600480360381019061047d9190613a84565b611feb565b60405161048f9190613705565b60405180910390f35b3480156104a457600080fd5b506104ad61224e565b005b3480156104bb57600080fd5b506104d660048036038101906104d19190613aff565b612428565b6040516104e39190613705565b60405180910390f35b3480156104f857600080fd5b50610513600480360381019061050e9190613b99565b6125b8565b6040516105209190613705565b60405180910390f35b34801561053557600080fd5b50610550600480360381019061054b9190613823565b6125f5565b60405161055d9190613705565b60405180910390f35b34801561057257600080fd5b5061058d60048036038101906105889190613bd9565b61277e565b60405161059a919061388b565b60405180910390f35b3480156105af57600080fd5b506105ca60048036038101906105c59190613c06565b61279e565b005b3480156105d857600080fd5b506105f360048036038101906105ee9190613e71565b6128d2565b005b61060f600480360381019061060a91906139ea565b612c17565b60405161061c9190613705565b60405180910390f35b34801561063157600080fd5b5061063a612e54565b6040516106479190613f48565b60405180910390f35b34801561065c57600080fd5b50610665612e7a565b6040516106729190613f84565b60405180910390f35b34801561068757600080fd5b506106a2600480360381019061069d9190613f9f565b612ea0565b005b60006106ae61185d565b156106ee576040517f08c379a00000000000000000000000000000000000000000000000000000000081526004016106e590614029565b60405180910390fd5b606660149054906101000a900460ff1680156107545750606760003273ffffffffffffffffffffffffffffffffffffffff1673ffffffffffffffffffffffffffffffffffffffff16815260200190815260200160002060009054906101000a900460ff16155b1561079657326040517ff51ed71000000000000000000000000000000000000000000000000000000000815260040161078d9190614058565b60405180910390fd5b61079e61311a565b6107d4576040517fa301bb0600000000000000000000000000000000000000000000000000000000815260040160405180910390fd5b3273ffffffffffffffffffffffffffffffffffffffff163373ffffffffffffffffffffffffffffffffffffffff1614610839576040517ffeb3d07100000000000000000000000000000000000000000000000000000000815260040160405180910390fd5b67ffffffffffffffff801688111561087d576040517f107c527b00000000000000000000000000000000000000000000000000000000815260040160405180910390fd5b6108d5600361088b33613145565b60008b8b8b8b73ffffffffffffffffffffffffffffffffffffffff168b8b8b6040516020016108c1989796959493929190614116565b604051602081830303815290604052613165565b9050979650505050505050565b60006108ec61185d565b1561092c576040517f08c379a000000000000000000000000000000000000000000000000000000000815260040161092390614029565b60405180910390fd5b606660149054906101000a900460ff1680156109925750606760003273ffffffffffffffffffffffffffffffffffffffff1673ffffffffffffffffffffffffffffffffffffffff16815260200190815260200160002060009054906101000a900460ff16155b156109d457326040517ff51ed7100000000000000000000000000000000000000000000000000000000081526004016109cb9190614058565b60405180910390fd5b6109dc611335565b9050919050565b60006109ed61185d565b15610a2d576040517f08c379a0000000000000000000000000000000000000000000000000000000008152600401610a2490614029565b60405180910390fd5b606660149054906101000a900460ff168015610a935750606760003273ffffffffffffffffffffffffffffffffffffffff1673ffffffffffffffffffffffffffffffffffffffff16815260200190815260200160002060009054906101000a900460ff16155b15610ad557326040517ff51ed710000000000000000000000000000000000000000000000000000000008152600401610acc9190614058565b60405180910390fd5b610ae68a8a8a8a8a8a8a8a8a611d64565b90509998505050505050505050565b6000610aff61185d565b15610b3f576040517f08c379a0000000000000000000000000000000000000000000000000000000008152600401610b3690614029565b60405180910390fd5b606660149054906101000a900460ff168015610ba55750606760003273ffffffffffffffffffffffffffffffffffffffff1673ffffffffffffffffffffffffffffffffffffffff16815260200190815260200160002060009054906101000a900460ff16155b15610be757326040517ff51ed710000000000000000000000000000000000000000000000000000000008152600401610bde9190614058565b60405180910390fd5b731a9c8182c09f50c8318d769245bea52c32be35bc73ffffffffffffffffffffffffffffffffffffffff163373ffffffffffffffffffffffffffffffffffffffff1614610c69576040517f08c379a0000000000000000000000000000000000000000000000000000000008152600401610c60906141e1565b60405180910390fd5b731f98431c8ad98523631ae4a59f267346ea31f98473ffffffffffffffffffffffffffffffffffffffff168a73ffffffffffffffffffffffffffffffffffffffff1614610ceb576040517f08c379a0000000000000000000000000000000000000000000000000000000008152600401610ce29061424d565b60405180910390fd5b8385610cf7919061429c565b8989610d0391906142f6565b610d0d91906142f6565b341015610d74578385610d20919061429c565b8989610d2c91906142f6565b610d3691906142f6565b346040517f7040b58c000000000000000000000000000000000000000000000000000000008152600401610d6b92919061434c565b60405180910390fd5b610d7d8761320f565b15610d8e57610d8b87613232565b96505b610d978661320f565b15610da857610da586613232565b95505b6001851480610db75750600184145b15610e0d57338a8a348b8b8b8b8b8b8b6040517f07c266e3000000000000000000000000000000000000000000000000000000008152600401610e049b9a999897969594939291906143b3565b60405180910390fd5b6000610e1c84849050486125b8565b905080891015610e655780896040517ffadf238a000000000000000000000000000000000000000000000000000000008152600401610e5c92919061434c565b60405180910390fd5b610ef16009610e7333613145565b8d73ffffffffffffffffffffffffffffffffffffffff168d348e8e73ffffffffffffffffffffffffffffffffffffffff168e73ffffffffffffffffffffffffffffffffffffffff168e8e8e8e90508f8f604051602001610edd9b9a99989796959493929190614458565b604051602081830303815290604052613165565b9150509998505050505050505050565b6000610f0b61185d565b15610f4b576040517f08c379a0000000000000000000000000000000000000000000000000000000008152600401610f4290614029565b60405180910390fd5b606660149054906101000a900460ff168015610fb15750606760003273ffffffffffffffffffffffffffffffffffffffff1673ffffffffffffffffffffffffffffffffffffffff16815260200190815260200160002060009054906101000a900460ff16155b15610ff357326040517ff51ed710000000000000000000000000000000000000000000000000000000008152600401610fea9190614058565b60405180910390fd5b610ffb61311a565b15611032576040517fc6ea680300000000000000000000000000000000000000000000000000000000815260040160405180910390fd5b3273ffffffffffffffffffffffffffffffffffffffff163373ffffffffffffffffffffffffffffffffffffffff1614611097576040517ffeb3d07100000000000000000000000000000000000000000000000000000000815260040160405180910390fd5b6201cccc8383905011156110ea57828290506201cccc6040517f4634691b0000000000000000000000000000000000000000000000000000000081526004016110e192919061434c565b60405180910390fd5b600061110f600333868660405161110292919061450a565b6040518091039020613252565b9050807fab532385be8f1005a4b6ba8fa20a2245facb346134ac739fe9a5198dc1580b9c60405160405180910390a28091505092915050565b606660149054906101000a900460ff1681565b6000606560009054906101000a900473ffffffffffffffffffffffffffffffffffffffff1673ffffffffffffffffffffffffffffffffffffffff1663cb23bcb56040518163ffffffff1660e01b815260040160206040518083038186803b1580156111c557600080fd5b505afa1580156111d9573d6000803e3d6000fd5b505050506040513d601f19601f820116820180604052508101906111fd9190614561565b90508073ffffffffffffffffffffffffffffffffffffffff163373ffffffffffffffffffffffffffffffffffffffff161461132a5760008173ffffffffffffffffffffffffffffffffffffffff16638da5cb5b6040518163ffffffff1660e01b815260040160206040518083038186803b15801561127a57600080fd5b505afa15801561128e573d6000803e3d6000fd5b505050506040513d601f19601f820116820180604052508101906112b291906145a3565b90508073ffffffffffffffffffffffffffffffffffffffff163373ffffffffffffffffffffffffffffffffffffffff1614611328573382826040517f0739600700000000000000000000000000000000000000000000000000000000815260040161131f939291906145d0565b60405180910390fd5b505b611332613317565b50565b600061133f61185d565b1561137f576040517f08c379a000000000000000000000000000000000000000000000000000000000815260040161137690614029565b60405180910390fd5b606660149054906101000a900460ff1680156113e55750606760003273ffffffffffffffffffffffffffffffffffffffff1673ffffffffffffffffffffffffffffffffffffffff16815260200190815260200160002060009054906101000a900460ff16155b1561142757326040517ff51ed71000000000000000000000000000000000000000000000000000000000815260040161141e9190614058565b60405180910390fd5b60003390506114353361320f565b8061146c57503373ffffffffffffffffffffffffffffffffffffffff163273ffffffffffffffffffffffffffffffffffffffff1614155b1561147d5761147a33613232565b90505b6114aa600c33833460405160200161149692919061464f565b604051602081830303815290604052613165565b91505090565b600060019054906101000a900460ff166114d85760008054906101000a900460ff16156114e1565b6114e06133b9565b5b611520576040517f08c379a0000000000000000000000000000000000000000000000000000000008152600401611517906146ed565b60405180910390fd5b60008060019054906101000a900460ff161590508015611570576001600060016101000a81548160ff02191690831515021790555060016000806101000a81548160ff0219169083151502179055505b7f000000000000000000000000000000000000000000000000000000000000000073ffffffffffffffffffffffffffffffffffffffff163073ffffffffffffffffffffffffffffffffffffffff1614156115ff576040517f08c379a00000000000000000000000000000000000000000000000000000000081526004016115f69061477f565b60405180910390fd5b82606560006101000a81548173ffffffffffffffffffffffffffffffffffffffff021916908373ffffffffffffffffffffffffffffffffffffffff16021790555081606660006101000a81548173ffffffffffffffffffffffffffffffffffffffff021916908373ffffffffffffffffffffffffffffffffffffffff1602179055506000606660146101000a81548160ff0219169083151502179055506116a46133ca565b80156116c55760008060016101000a81548160ff0219169083151502179055505b505050565b60006116d461185d565b15611714576040517f08c379a000000000000000000000000000000000000000000000000000000000815260040161170b90614029565b60405180910390fd5b606660149054906101000a900460ff16801561177a5750606760003273ffffffffffffffffffffffffffffffffffffffff1673ffffffffffffffffffffffffffffffffffffffff16815260200190815260200160002060009054906101000a900460ff16155b156117bc57326040517ff51ed7100000000000000000000000000000000000000000000000000000000081526004016117b39190614058565b60405180910390fd5b67ffffffffffffffff8016881115611800576040517f107c527b00000000000000000000000000000000000000000000000000000000815260040160405180910390fd5b61185060033360008b8b8b8b73ffffffffffffffffffffffffffffffffffffffff168b8b8b60405160200161183c989796959493929190614116565b604051602081830303815290604052613165565b9050979650505050505050565b6000603360009054906101000a900460ff16905090565b600061187e61185d565b156118be576040517f08c379a00000000000000000000000000000000000000000000000000000000081526004016118b590614029565b60405180910390fd5b606660149054906101000a900460ff1680156119245750606760003273ffffffffffffffffffffffffffffffffffffffff1673ffffffffffffffffffffffffffffffffffffffff16815260200190815260200160002060009054906101000a900460ff16155b1561196657326040517ff51ed71000000000000000000000000000000000000000000000000000000000815260040161195d9190614058565b60405180910390fd5b67ffffffffffffffff80168611156119aa576040517f107c527b00000000000000000000000000000000000000000000000000000000815260040160405180910390fd5b6119f8600733600189898973ffffffffffffffffffffffffffffffffffffffff16348a8a6040516020016119e4979695949392919061479f565b604051602081830303815290604052613165565b905095945050505050565b6000611a0d61185d565b15611a4d576040517f08c379a0000000000000000000000000000000000000000000000000000000008152600401611a4490614029565b60405180910390fd5b606660149054906101000a900460ff168015611ab35750606760003273ffffffffffffffffffffffffffffffffffffffff1673ffffffffffffffffffffffffffffffffffffffff16815260200190815260200160002060009054906101000a900460ff16155b15611af557326040517ff51ed710000000000000000000000000000000000000000000000000000000008152600401611aec9190614058565b60405180910390fd5b8385611b01919061429c565b8989611b0d91906142f6565b611b1791906142f6565b341015611b7e578385611b2a919061429c565b8989611b3691906142f6565b611b4091906142f6565b346040517f7040b58c000000000000000000000000000000000000000000000000000000008152600401611b7592919061434c565b60405180910390fd5b611b878761320f565b15611b9857611b9587613232565b96505b611ba18661320f565b15611bb257611baf86613232565b95505b611bc38a8a8a8a8a8a8a8a8a611d64565b90509998505050505050505050565b6000611bdc61185d565b15611c1c576040517f08c379a0000000000000000000000000000000000000000000000000000000008152600401611c1390614029565b60405180910390fd5b606660149054906101000a900460ff168015611c825750606760003273ffffffffffffffffffffffffffffffffffffffff1673ffffffffffffffffffffffffffffffffffffffff16815260200190815260200160002060009054906101000a900460ff16155b15611cc457326040517ff51ed710000000000000000000000000000000000000000000000000000000008152600401611cbb9190614058565b60405180910390fd5b67ffffffffffffffff8016871115611d08576040517f107c527b00000000000000000000000000000000000000000000000000000000815260040160405180910390fd5b611d5860073360008a8a8a8a73ffffffffffffffffffffffffffffffffffffffff16348b8b604051602001611d44989796959493929190614116565b604051602081830303815290604052613165565b90509695505050505050565b6000611d6e61185d565b15611dae576040517f08c379a0000000000000000000000000000000000000000000000000000000008152600401611da590614029565b60405180910390fd5b606660149054906101000a900460ff168015611e145750606760003273ffffffffffffffffffffffffffffffffffffffff1673ffffffffffffffffffffffffffffffffffffffff16815260200190815260200160002060009054906101000a900460ff16155b15611e5657326040517ff51ed710000000000000000000000000000000000000000000000000000000008152600401611e4d9190614058565b60405180910390fd5b6001851480611e655750600184145b15611ebb57338a8a348b8b8b8b8b8b8b6040517f07c266e3000000000000000000000000000000000000000000000000000000008152600401611eb29b9a999897969594939291906143b3565b60405180910390fd5b67ffffffffffffffff8016851115611eff576040517f107c527b00000000000000000000000000000000000000000000000000000000815260040160405180910390fd5b6000611f0e84849050486125b8565b905080891015611f575780896040517ffadf238a000000000000000000000000000000000000000000000000000000008152600401611f4e92919061434c565b60405180910390fd5b611fdb6009338d73ffffffffffffffffffffffffffffffffffffffff168d348e8e73ffffffffffffffffffffffffffffffffffffffff168e73ffffffffffffffffffffffffffffffffffffffff168e8e8e8e90508f8f604051602001611fc79b9a99989796959493929190614458565b604051602081830303815290604052613165565b9150509998505050505050505050565b6000611ff561185d565b15612035576040517f08c379a000000000000000000000000000000000000000000000000000000000815260040161202c90614029565b60405180910390fd5b606660149054906101000a900460ff16801561209b5750606760003273ffffffffffffffffffffffffffffffffffffffff1673ffffffffffffffffffffffffffffffffffffffff16815260200190815260200160002060009054906101000a900460ff16155b156120dd57326040517ff51ed7100000000000000000000000000000000000000000000000000000000081526004016120d49190614058565b60405180910390fd5b6120e561311a565b61211b576040517fa301bb0600000000000000000000000000000000000000000000000000000000815260040160405180910390fd5b3273ffffffffffffffffffffffffffffffffffffffff163373ffffffffffffffffffffffffffffffffffffffff1614612180576040517ffeb3d07100000000000000000000000000000000000000000000000000000000815260040160405180910390fd5b67ffffffffffffffff80168611156121c4576040517f107c527b00000000000000000000000000000000000000000000000000000000815260040160405180910390fd5b61224360036121d233613145565b6000898989606473ffffffffffffffffffffffffffffffffffffffff168a6325e1606360e01b8b60405160200161220a929190614848565b60405160208183030381529060405260405160200161222f97969594939291906148e0565b604051602081830303815290604052613165565b905095945050505050565b6000606560009054906101000a900473ffffffffffffffffffffffffffffffffffffffff1673ffffffffffffffffffffffffffffffffffffffff1663cb23bcb56040518163ffffffff1660e01b815260040160206040518083038186803b1580156122b857600080fd5b505afa1580156122cc573d6000803e3d6000fd5b505050506040513d601f19601f820116820180604052508101906122f09190614561565b90508073ffffffffffffffffffffffffffffffffffffffff163373ffffffffffffffffffffffffffffffffffffffff161461241d5760008173ffffffffffffffffffffffffffffffffffffffff16638da5cb5b6040518163ffffffff1660e01b815260040160206040518083038186803b15801561236d57600080fd5b505afa158015612381573d6000803e3d6000fd5b505050506040513d601f19601f820116820180604052508101906123a591906145a3565b90508073ffffffffffffffffffffffffffffffffffffffff163373ffffffffffffffffffffffffffffffffffffffff161461241b573382826040517f07396007000000000000000000000000000000000000000000000000000000008152600401612412939291906145d0565b60405180910390fd5b505b612425613423565b50565b600061243261185d565b15612472576040517f08c379a000000000000000000000000000000000000000000000000000000000815260040161246990614029565b60405180910390fd5b606660149054906101000a900460ff1680156124d85750606760003273ffffffffffffffffffffffffffffffffffffffff1673ffffffffffffffffffffffffffffffffffffffff16815260200190815260200160002060009054906101000a900460ff16155b1561251a57326040517ff51ed7100000000000000000000000000000000000000000000000000000000081526004016125119190614058565b60405180910390fd5b67ffffffffffffffff801687111561255e576040517f107c527b00000000000000000000000000000000000000000000000000000000815260040160405180910390fd5b6125ac60033360018a8a8a73ffffffffffffffffffffffffffffffffffffffff168a8a8a604051602001612598979695949392919061479f565b604051602081830303815290604052613165565b90509695505050505050565b60008082146125c757816125c9565b485b8360066125d6919061429c565b6105786125e391906142f6565b6125ed919061429c565b905092915050565b60006125ff61185d565b1561263f576040517f08c379a000000000000000000000000000000000000000000000000000000000815260040161263690614029565b60405180910390fd5b606660149054906101000a900460ff1680156126a55750606760003273ffffffffffffffffffffffffffffffffffffffff1673ffffffffffffffffffffffffffffffffffffffff16815260200190815260200160002060009054906101000a900460ff16155b156126e757326040517ff51ed7100000000000000000000000000000000000000000000000000000000081526004016126de9190614058565b60405180910390fd5b6126ef61311a565b15612726576040517fc6ea680300000000000000000000000000000000000000000000000000000000815260040160405180910390fd5b61277660033385858080601f016020809104026020016040519081016040528093929190818152602001838380828437600081840152601f19601f82011690508083019250505050505050613165565b905092915050565b60676020528060005260406000206000915054906101000a900460ff1681565b7f000000000000000000000000000000000000000000000000000000000000000073ffffffffffffffffffffffffffffffffffffffff163073ffffffffffffffffffffffffffffffffffffffff16141561282d576040517f08c379a00000000000000000000000000000000000000000000000000000000081526004016128249061477f565b60405180910390fd5b60007fb53127684a568b3173ae13b9f8a6016e243e63b6e8ee1178d6a717850b5d610360001b90506000815490508073ffffffffffffffffffffffffffffffffffffffff163373ffffffffffffffffffffffffffffffffffffffff16146128cd5733816040517f23295f0e0000000000000000000000000000000000000000000000000000000081526004016128c492919061495d565b60405180910390fd5b505050565b6000606560009054906101000a900473ffffffffffffffffffffffffffffffffffffffff1673ffffffffffffffffffffffffffffffffffffffff1663cb23bcb56040518163ffffffff1660e01b815260040160206040518083038186803b15801561293c57600080fd5b505afa158015612950573d6000803e3d6000fd5b505050506040513d601f19601f820116820180604052508101906129749190614561565b90508073ffffffffffffffffffffffffffffffffffffffff163373ffffffffffffffffffffffffffffffffffffffff1614612aa15760008173ffffffffffffffffffffffffffffffffffffffff16638da5cb5b6040518163ffffffff1660e01b815260040160206040518083038186803b1580156129f157600080fd5b505afa158015612a05573d6000803e3d6000fd5b505050506040513d601f19601f82011682018060405250810190612a2991906145a3565b90508073ffffffffffffffffffffffffffffffffffffffff163373ffffffffffffffffffffffffffffffffffffffff1614612a9f573382826040517f07396007000000000000000000000000000000000000000000000000000000008152600401612a96939291906145d0565b60405180910390fd5b505b8151835114612ae5576040517f08c379a0000000000000000000000000000000000000000000000000000000008152600401612adc906149d2565b60405180910390fd5b60005b8351811015612c1157828181518110612b0457612b036149f2565b5b602002602001015160676000868481518110612b2357612b226149f2565b5b602002602001015173ffffffffffffffffffffffffffffffffffffffff1673ffffffffffffffffffffffffffffffffffffffff16815260200190815260200160002060006101000a81548160ff021916908315150217905550838181518110612b8f57612b8e6149f2565b5b602002602001015173ffffffffffffffffffffffffffffffffffffffff167fd9739f45a01ce092c5cdb3d68f63d63d21676b1c6c0b4f9cbc6be4cf5449595a848381518110612be157612be06149f2565b5b6020026020010151604051612bf6919061388b565b60405180910390a28080612c0990614a21565b915050612ae8565b50505050565b6000612c2161185d565b15612c61576040517f08c379a0000000000000000000000000000000000000000000000000000000008152600401612c5890614029565b60405180910390fd5b606660149054906101000a900460ff168015612cc75750606760003273ffffffffffffffffffffffffffffffffffffffff1673ffffffffffffffffffffffffffffffffffffffff16815260200190815260200160002060009054906101000a900460ff16155b15612d0957326040517ff51ed710000000000000000000000000000000000000000000000000000000008152600401612d009190614058565b60405180910390fd5b612d1161311a565b612d47576040517fa301bb0600000000000000000000000000000000000000000000000000000000815260040160405180910390fd5b3273ffffffffffffffffffffffffffffffffffffffff163373ffffffffffffffffffffffffffffffffffffffff1614612dac576040517ffeb3d07100000000000000000000000000000000000000000000000000000000815260040160405180910390fd5b67ffffffffffffffff8016871115612df0576040517f107c527b00000000000000000000000000000000000000000000000000000000815260040160405180910390fd5b612e486007612dfe33613145565b60008a8a8a8a73ffffffffffffffffffffffffffffffffffffffff16348b8b604051602001612e34989796959493929190614116565b604051602081830303815290604052613165565b90509695505050505050565b606560009054906101000a900473ffffffffffffffffffffffffffffffffffffffff1681565b606660009054906101000a900473ffffffffffffffffffffffffffffffffffffffff1681565b6000606560009054906101000a900473ffffffffffffffffffffffffffffffffffffffff1673ffffffffffffffffffffffffffffffffffffffff1663cb23bcb56040518163ffffffff1660e01b815260040160206040518083038186803b158015612f0a57600080fd5b505afa158015612f1e573d6000803e3d6000fd5b505050506040513d601f19601f82011682018060405250810190612f429190614561565b90508073ffffffffffffffffffffffffffffffffffffffff163373ffffffffffffffffffffffffffffffffffffffff161461306f5760008173ffffffffffffffffffffffffffffffffffffffff16638da5cb5b6040518163ffffffff1660e01b815260040160206040518083038186803b158015612fbf57600080fd5b505afa158015612fd3573d6000803e3d6000fd5b505050506040513d601f19601f82011682018060405250810190612ff791906145a3565b90508073ffffffffffffffffffffffffffffffffffffffff163373ffffffffffffffffffffffffffffffffffffffff161461306d573382826040517f07396007000000000000000000000000000000000000000000000000000000008152600401613064939291906145d0565b60405180910390fd5b505b606660149054906101000a900460ff16151582151514156130c5576040517f08c379a00000000000000000000000000000000000000000000000000000000081526004016130bc90614ab6565b60405180910390fd5b81606660146101000a81548160ff0219169083151502179055507f16435b45f7482047f839a6a19d291442627200f52cad2803c595150d0d440eb38260405161310e919061388b565b60405180910390a15050565b6000467f00000000000000000000000000000000000000000000000000000000000000001415905090565b600073111100000000000000000000000000000000111182039050919050565b60006201cccc825111156131b65781516201cccc6040517f4634691b0000000000000000000000000000000000000000000000000000000081526004016131ad92919061434c565b60405180910390fd5b60006131ca85858580519060200120613252565b9050807fff64905f73a67fb594e0f940a8075a860db489ad991e032f48c81123eb52d60b846040516131fc9190614b0f565b60405180910390a2809150509392505050565b6000808273ffffffffffffffffffffffffffffffffffffffff163b119050919050565b600073111100000000000000000000000000000000111182019050919050565b6000606560009054906101000a900473ffffffffffffffffffffffffffffffffffffffff1673ffffffffffffffffffffffffffffffffffffffff16638db5993b348661329d87613232565b866040518563ffffffff1660e01b81526004016132bc93929190614b59565b6020604051808303818588803b1580156132d557600080fd5b505af11580156132e9573d6000803e3d6000fd5b50505050506040513d601f19601f8201168201806040525081019061330e9190614ba5565b90509392505050565b61331f61185d565b61335e576040517f08c379a000000000000000000000000000000000000000000000000000000000815260040161335590614c1e565b60405180910390fd5b6000603360006101000a81548160ff0219169083151502179055507f5db9ee0a495bf2e6ff9c91a7834c1ba4fdd244a5e8aa4e537bd38aeae4b073aa6133a26134c6565b6040516133af9190614058565b60405180910390a1565b60006133c43061320f565b15905090565b600060019054906101000a900460ff16613419576040517f08c379a000000000000000000000000000000000000000000000000000000000815260040161341090614cb0565b60405180910390fd5b6134216134ce565b565b61342b61185d565b1561346b576040517f08c379a000000000000000000000000000000000000000000000000000000000815260040161346290614029565b60405180910390fd5b6001603360006101000a81548160ff0219169083151502179055507f62e78cea01bee320cd4e420270b5ea74000d11b0c9f74754ebdbfc544b05a2586134af6134c6565b6040516134bc9190614058565b60405180910390a1565b600033905090565b600060019054906101000a900460ff1661351d576040517f08c379a000000000000000000000000000000000000000000000000000000000815260040161351490614cb0565b60405180910390fd5b6000603360006101000a81548160ff021916908315150217905550565b6000604051905090565b600080fd5b600080fd5b6000819050919050565b6135618161354e565b811461356c57600080fd5b50565b60008135905061357e81613558565b92915050565b600073ffffffffffffffffffffffffffffffffffffffff82169050919050565b60006135af82613584565b9050919050565b6135bf816135a4565b81146135ca57600080fd5b50565b6000813590506135dc816135b6565b92915050565b600080fd5b600080fd5b600080fd5b60008083601f840112613607576136066135e2565b5b8235905067ffffffffffffffff811115613624576136236135e7565b5b6020830191508360018202830111156136405761363f6135ec565b5b9250929050565b600080600080600080600060c0888a03121561366657613665613544565b5b60006136748a828b0161356f565b97505060206136858a828b0161356f565b96505060406136968a828b0161356f565b95505060606136a78a828b016135cd565b94505060806136b88a828b0161356f565b93505060a088013567ffffffffffffffff8111156136d9576136d8613549565b5b6136e58a828b016135f1565b925092505092959891949750929550565b6136ff8161354e565b82525050565b600060208201905061371a60008301846136f6565b92915050565b60006020828403121561373657613735613544565b5b60006137448482850161356f565b91505092915050565b60008060008060008060008060006101008a8c0312156137705761376f613544565b5b600061377e8c828d016135cd565b995050602061378f8c828d0161356f565b98505060406137a08c828d0161356f565b97505060606137b18c828d016135cd565b96505060806137c28c828d016135cd565b95505060a06137d38c828d0161356f565b94505060c06137e48c828d0161356f565b93505060e08a013567ffffffffffffffff81111561380557613804613549565b5b6138118c828d016135f1565b92509250509295985092959850929598565b6000806020838503121561383a57613839613544565b5b600083013567ffffffffffffffff81111561385857613857613549565b5b613864858286016135f1565b92509250509250929050565b60008115159050919050565b61388581613870565b82525050565b60006020820190506138a0600083018461387c565b92915050565b60006138b1826135a4565b9050919050565b6138c1816138a6565b81146138cc57600080fd5b50565b6000813590506138de816138b8565b92915050565b60006138ef826135a4565b9050919050565b6138ff816138e4565b811461390a57600080fd5b50565b60008135905061391c816138f6565b92915050565b6000806040838503121561393957613938613544565b5b6000613947858286016138cf565b92505060206139588582860161390d565b9150509250929050565b60008060008060006080868803121561397e5761397d613544565b5b600061398c8882890161356f565b955050602061399d8882890161356f565b94505060406139ae888289016135cd565b935050606086013567ffffffffffffffff8111156139cf576139ce613549565b5b6139db888289016135f1565b92509250509295509295909350565b60008060008060008060a08789031215613a0757613a06613544565b5b6000613a1589828a0161356f565b9650506020613a2689828a0161356f565b9550506040613a3789828a0161356f565b9450506060613a4889828a016135cd565b935050608087013567ffffffffffffffff811115613a6957613a68613549565b5b613a7589828a016135f1565b92509250509295509295509295565b600080600080600060a08688031215613aa057613a9f613544565b5b6000613aae8882890161356f565b9550506020613abf8882890161356f565b9450506040613ad08882890161356f565b9350506060613ae18882890161356f565b9250506080613af2888289016135cd565b9150509295509295909350565b60008060008060008060a08789031215613b1c57613b1b613544565b5b6000613b2a89828a0161356f565b9650506020613b3b89828a0161356f565b9550506040613b4c89828a016135cd565b9450506060613b5d89828a0161356f565b935050608087013567ffffffffffffffff811115613b7e57613b7d613549565b5b613b8a89828a016135f1565b92509250509295509295509295565b60008060408385031215613bb057613baf613544565b5b6000613bbe8582860161356f565b9250506020613bcf8582860161356f565b9150509250929050565b600060208284031215613bef57613bee613544565b5b6000613bfd848285016135cd565b91505092915050565b600060208284031215613c1c57613c1b613544565b5b6000613c2a848285016138cf565b91505092915050565b6000601f19601f8301169050919050565b7f4e487b7100000000000000000000000000000000000000000000000000000000600052604160045260246000fd5b613c7c82613c33565b810181811067ffffffffffffffff82111715613c9b57613c9a613c44565b5b80604052505050565b6000613cae61353a565b9050613cba8282613c73565b919050565b600067ffffffffffffffff821115613cda57613cd9613c44565b5b602082029050602081019050919050565b6000613cfe613cf984613cbf565b613ca4565b90508083825260208201905060208402830185811115613d2157613d206135ec565b5b835b81811015613d4a5780613d3688826135cd565b845260208401935050602081019050613d23565b5050509392505050565b600082601f830112613d6957613d686135e2565b5b8135613d79848260208601613ceb565b91505092915050565b600067ffffffffffffffff821115613d9d57613d9c613c44565b5b602082029050602081019050919050565b613db781613870565b8114613dc257600080fd5b50565b600081359050613dd481613dae565b92915050565b6000613ded613de884613d82565b613ca4565b90508083825260208201905060208402830185811115613e1057613e0f6135ec565b5b835b81811015613e395780613e258882613dc5565b845260208401935050602081019050613e12565b5050509392505050565b600082601f830112613e5857613e576135e2565b5b8135613e68848260208601613dda565b91505092915050565b60008060408385031215613e8857613e87613544565b5b600083013567ffffffffffffffff811115613ea657613ea5613549565b5b613eb285828601613d54565b925050602083013567ffffffffffffffff811115613ed357613ed2613549565b5b613edf85828601613e43565b9150509250929050565b6000819050919050565b6000613f0e613f09613f0484613584565b613ee9565b613584565b9050919050565b6000613f2082613ef3565b9050919050565b6000613f3282613f15565b9050919050565b613f4281613f27565b82525050565b6000602082019050613f5d6000830184613f39565b92915050565b6000613f6e82613f15565b9050919050565b613f7e81613f63565b82525050565b6000602082019050613f996000830184613f75565b92915050565b600060208284031215613fb557613fb4613544565b5b6000613fc384828501613dc5565b91505092915050565b600082825260208201905092915050565b7f5061757361626c653a2070617573656400000000000000000000000000000000600082015250565b6000614013601083613fcc565b915061401e82613fdd565b602082019050919050565b6000602082019050818103600083015261404281614006565b9050919050565b614052816135a4565b82525050565b600060208201905061406d6000830184614049565b92915050565b600060ff82169050919050565b60008160f81b9050919050565b600061409882614080565b9050919050565b6140b06140ab82614073565b61408d565b82525050565b6000819050919050565b6140d16140cc8261354e565b6140b6565b82525050565b600081905092915050565b82818337600083830152505050565b60006140fd83856140d7565b935061410a8385846140e2565b82840190509392505050565b6000614122828b61409f565b600182019150614132828a6140c0565b60208201915061414282896140c0565b60208201915061415282886140c0565b60208201915061416282876140c0565b60208201915061417282866140c0565b6020820191506141838284866140f1565b91508190509998505050505050505050565b7f4e4f545f554e49535741505f4c315f54494d454c4f434b000000000000000000600082015250565b60006141cb601783613fcc565b91506141d682614195565b602082019050919050565b600060208201905081810360008301526141fa816141be565b9050919050565b7f4e4f545f544f5f554e49535741505f4c325f464143544f525900000000000000600082015250565b6000614237601983613fcc565b915061424282614201565b602082019050919050565b600060208201905081810360008301526142668161422a565b9050919050565b7f4e487b7100000000000000000000000000000000000000000000000000000000600052601160045260246000fd5b60006142a78261354e565b91506142b28361354e565b9250817fffffffffffffffffffffffffffffffffffffffffffffffffffffffffffffffff04831182151516156142eb576142ea61426d565b5b828202905092915050565b60006143018261354e565b915061430c8361354e565b9250827fffffffffffffffffffffffffffffffffffffffffffffffffffffffffffffffff038211156143415761434061426d565b5b828201905092915050565b600060408201905061436160008301856136f6565b61436e60208301846136f6565b9392505050565b600082825260208201905092915050565b60006143928385614375565b935061439f8385846140e2565b6143a883613c33565b840190509392505050565b6000610140820190506143c9600083018e614049565b6143d6602083018d614049565b6143e3604083018c6136f6565b6143f0606083018b6136f6565b6143fd608083018a6136f6565b61440a60a0830189614049565b61441760c0830188614049565b61442460e08301876136f6565b6144326101008301866136f6565b818103610120830152614446818486614386565b90509c9b505050505050505050505050565b6000614464828e6140c0565b602082019150614474828d6140c0565b602082019150614484828c6140c0565b602082019150614494828b6140c0565b6020820191506144a4828a6140c0565b6020820191506144b482896140c0565b6020820191506144c482886140c0565b6020820191506144d482876140c0565b6020820191506144e482866140c0565b6020820191506144f58284866140f1565b91508190509c9b505050505050505050505050565b60006145178284866140f1565b91508190509392505050565b600061452e826135a4565b9050919050565b61453e81614523565b811461454957600080fd5b50565b60008151905061455b81614535565b92915050565b60006020828403121561457757614576613544565b5b60006145858482850161454c565b91505092915050565b60008151905061459d816135b6565b92915050565b6000602082840312156145b9576145b8613544565b5b60006145c78482850161458e565b91505092915050565b60006060820190506145e56000830186614049565b6145f26020830185614049565b6145ff6040830184614049565b949350505050565b60008160601b9050919050565b600061461f82614607565b9050919050565b600061463182614614565b9050919050565b614649614644826135a4565b614626565b82525050565b600061465b8285614638565b60148201915061466b82846140c0565b6020820191508190509392505050565b7f496e697469616c697a61626c653a20636f6e747261637420697320616c72656160008201527f647920696e697469616c697a6564000000000000000000000000000000000000602082015250565b60006146d7602e83613fcc565b91506146e28261467b565b604082019050919050565b60006020820190508181036000830152614706816146ca565b9050919050565b7f46756e6374696f6e206d7573742062652063616c6c6564207468726f7567682060008201527f64656c656761746563616c6c0000000000000000000000000000000000000000602082015250565b6000614769602c83613fcc565b91506147748261470d565b604082019050919050565b600060208201905081810360008301526147988161475c565b9050919050565b60006147ab828a61409f565b6001820191506147bb82896140c0565b6020820191506147cb82886140c0565b6020820191506147db82876140c0565b6020820191506147eb82866140c0565b6020820191506147fc8284866140f1565b915081905098975050505050505050565b60007fffffffff0000000000000000000000000000000000000000000000000000000082169050919050565b6148428161480d565b82525050565b600060408201905061485d6000830185614839565b61486a6020830184614049565b9392505050565b600081519050919050565b60005b8381101561489a57808201518184015260208101905061487f565b838111156148a9576000848401525b50505050565b60006148ba82614871565b6148c481856140d7565b93506148d481856020860161487c565b80840191505092915050565b60006148ec828a61409f565b6001820191506148fc82896140c0565b60208201915061490c82886140c0565b60208201915061491c82876140c0565b60208201915061492c82866140c0565b60208201915061493c82856140c0565b60208201915061494c82846148af565b915081905098975050505050505050565b60006040820190506149726000830185614049565b61497f6020830184614049565b9392505050565b7f494e56414c49445f494e50555400000000000000000000000000000000000000600082015250565b60006149bc600d83613fcc565b91506149c782614986565b602082019050919050565b600060208201905081810360008301526149eb816149af565b9050919050565b7f4e487b7100000000000000000000000000000000000000000000000000000000600052603260045260246000fd5b6000614a2c8261354e565b91507fffffffffffffffffffffffffffffffffffffffffffffffffffffffffffffffff821415614a5f57614a5e61426d565b5b600182019050919050565b7f414c52454144595f534554000000000000000000000000000000000000000000600082015250565b6000614aa0600b83613fcc565b9150614aab82614a6a565b602082019050919050565b60006020820190508181036000830152614acf81614a93565b9050919050565b6000614ae182614871565b614aeb8185614375565b9350614afb81856020860161487c565b614b0481613c33565b840191505092915050565b60006020820190508181036000830152614b298184614ad6565b905092915050565b614b3a81614073565b82525050565b6000819050919050565b614b5381614b40565b82525050565b6000606082019050614b6e6000830186614b31565b614b7b6020830185614049565b614b886040830184614b4a565b949350505050565b600081519050614b9f81613558565b92915050565b600060208284031215614bbb57614bba613544565b5b6000614bc984828501614b90565b91505092915050565b7f5061757361626c653a206e6f7420706175736564000000000000000000000000600082015250565b6000614c08601483613fcc565b9150614c1382614bd2565b602082019050919050565b60006020820190508181036000830152614c3781614bfb565b9050919050565b7f496e697469616c697a61626c653a20636f6e7472616374206973206e6f74206960008201527f6e697469616c697a696e67000000000000000000000000000000000000000000602082015250565b6000614c9a602b83613fcc565b9150614ca582614c3e565b604082019050919050565b60006020820190508181036000830152614cc981614c8d565b905091905056fea2646970667358221220cd92628bb30f7cf10b1eaeed05cde09bcf8b449322df3b4b610371fdc482a34c64736f6c63430008090033",
  "linkReferences": {},
  "deployedLinkReferences": {}
}